{
  "_format": "hh-sol-artifact-1",
  "contractName": "BetMarket",
  "sourceName": "chain/contracts/BetMarket.sol",
  "abi": [
    {
      "inputs": [
        {
          "internalType": "string",
          "name": "betId",
          "type": "string"
        },
        {
          "internalType": "uint256",
          "name": "orderId",
          "type": "uint256"
        }
      ],
      "name": "cancelOrder",
      "outputs": [],
      "stateMutability": "nonpayable",
      "type": "function"
    },
    {
      "inputs": [
        {
          "internalType": "string",
          "name": "id",
          "type": "string"
        },
        {
          "internalType": "string",
          "name": "name",
          "type": "string"
        },
        {
          "internalType": "string",
          "name": "description",
          "type": "string"
        },
        {
          "internalType": "address payable",
          "name": "arbitrator",
          "type": "address"
        },
        {
          "internalType": "string[]",
          "name": "options",
          "type": "string[]"
        },
        {
          "internalType": "uint256",
          "name": "bettingDeadline",
          "type": "uint256"
        },
        {
          "internalType": "uint256",
          "name": "answerRevealDeadline",
          "type": "uint256"
        }
      ],
      "name": "createBet",
      "outputs": [],
      "stateMutability": "payable",
      "type": "function"
    },
    {
      "inputs": [
        {
          "internalType": "string",
          "name": "betId",
          "type": "string"
        },
        {
          "internalType": "uint256",
          "name": "optionId",
          "type": "uint256"
        },
        {
          "internalType": "uint256",
          "name": "amountOTM",
          "type": "uint256"
        }
      ],
      "name": "createBuyOrder",
      "outputs": [],
      "stateMutability": "payable",
      "type": "function"
    },
    {
      "inputs": [
        {
          "internalType": "string",
          "name": "betId",
          "type": "string"
        },
        {
          "internalType": "uint256",
          "name": "optionId",
          "type": "uint256"
        },
        {
          "internalType": "uint256",
          "name": "amountOTM",
          "type": "uint256"
        },
        {
          "internalType": "uint256",
          "name": "amountWei",
          "type": "uint256"
        }
      ],
      "name": "createSellOrder",
      "outputs": [],
      "stateMutability": "nonpayable",
      "type": "function"
    },
    {
      "inputs": [
        {
          "internalType": "address",
          "name": "user",
          "type": "address"
        },
        {
          "internalType": "string",
          "name": "betId",
          "type": "string"
        }
      ],
      "name": "ensureParticipates",
      "outputs": [],
      "stateMutability": "nonpayable",
      "type": "function"
    },
    {
      "inputs": [
        {
          "internalType": "string",
          "name": "betId",
          "type": "string"
        },
        {
          "internalType": "uint256",
          "name": "orderId",
          "type": "uint256"
        },
        {
          "internalType": "uint256",
          "name": "amountOTM",
          "type": "uint256"
        }
      ],
      "name": "fillBuyOrder",
      "outputs": [],
      "stateMutability": "nonpayable",
      "type": "function"
    },
    {
      "inputs": [
        {
          "internalType": "string",
          "name": "betId",
          "type": "string"
        },
        {
          "internalType": "uint256",
          "name": "orderId",
          "type": "uint256"
        }
      ],
      "name": "fillSellOrder",
      "outputs": [],
      "stateMutability": "payable",
      "type": "function"
    },
    {
      "inputs": [
        {
          "internalType": "string",
          "name": "betId",
          "type": "string"
        }
      ],
      "name": "forceFinishBet",
      "outputs": [],
      "stateMutability": "nonpayable",
      "type": "function"
    },
    {
      "inputs": [
        {
          "internalType": "string",
          "name": "betId",
          "type": "string"
        }
      ],
      "name": "getBet",
      "outputs": [
        {
          "components": [
            {
              "internalType": "string",
              "name": "id",
              "type": "string"
            },
            {
              "internalType": "string",
              "name": "name",
              "type": "string"
            },
            {
              "internalType": "string",
              "name": "description",
              "type": "string"
            },
            {
              "internalType": "uint256",
              "name": "value",
              "type": "uint256"
            },
            {
              "internalType": "address payable",
              "name": "owner",
              "type": "address"
            },
            {
              "internalType": "address payable",
              "name": "arbitrator",
              "type": "address"
            },
            {
              "internalType": "string[]",
              "name": "options",
              "type": "string[]"
            },
            {
              "components": [
                {
                  "internalType": "address payable",
                  "name": "user",
                  "type": "address"
                },
                {
                  "internalType": "uint256[]",
                  "name": "tokens",
                  "type": "uint256[]"
                }
              ],
              "internalType": "struct BetMarket.Balance[]",
              "name": "balances",
              "type": "tuple[]"
            },
            {
              "internalType": "uint256",
              "name": "bettingDeadline",
              "type": "uint256"
            },
            {
              "internalType": "uint256",
              "name": "answerRevealDeadline",
              "type": "uint256"
            },
            {
              "components": [
                {
                  "internalType": "address payable",
                  "name": "creator",
                  "type": "address"
                },
                {
                  "internalType": "address",
                  "name": "filler",
                  "type": "address"
                },
                {
                  "internalType": "uint256",
                  "name": "optionId",
                  "type": "uint256"
                },
                {
                  "internalType": "uint256",
                  "name": "amountOTM",
                  "type": "uint256"
                },
                {
                  "internalType": "uint256",
                  "name": "amountWei",
                  "type": "uint256"
                },
                {
                  "internalType": "enum BetMarket.OrderStatus",
                  "name": "status",
                  "type": "uint8"
                },
                {
                  "internalType": "enum BetMarket.OrderType",
                  "name": "orderType",
                  "type": "uint8"
                }
              ],
              "internalType": "struct BetMarket.Order[]",
              "name": "orders",
              "type": "tuple[]"
            },
            {
              "internalType": "enum BetMarket.BetStatus",
              "name": "status",
              "type": "uint8"
            },
            {
              "internalType": "uint256",
              "name": "winningOptionId",
              "type": "uint256"
            }
          ],
          "internalType": "struct BetMarket.Bet",
          "name": "",
          "type": "tuple"
        }
      ],
      "stateMutability": "view",
      "type": "function"
    },
    {
      "inputs": [
        {
          "internalType": "address",
          "name": "user",
          "type": "address"
        }
      ],
      "name": "getBetsParticipated",
      "outputs": [
        {
          "components": [
            {
              "internalType": "string",
              "name": "id",
              "type": "string"
            },
            {
              "internalType": "string",
              "name": "name",
              "type": "string"
            },
            {
              "internalType": "string",
              "name": "description",
              "type": "string"
            },
            {
              "internalType": "uint256",
              "name": "value",
              "type": "uint256"
            },
            {
              "internalType": "address payable",
              "name": "owner",
              "type": "address"
            },
            {
              "internalType": "address payable",
              "name": "arbitrator",
              "type": "address"
            },
            {
              "internalType": "string[]",
              "name": "options",
              "type": "string[]"
            },
            {
              "components": [
                {
                  "internalType": "address payable",
                  "name": "user",
                  "type": "address"
                },
                {
                  "internalType": "uint256[]",
                  "name": "tokens",
                  "type": "uint256[]"
                }
              ],
              "internalType": "struct BetMarket.Balance[]",
              "name": "balances",
              "type": "tuple[]"
            },
            {
              "internalType": "uint256",
              "name": "bettingDeadline",
              "type": "uint256"
            },
            {
              "internalType": "uint256",
              "name": "answerRevealDeadline",
              "type": "uint256"
            },
            {
              "components": [
                {
                  "internalType": "address payable",
                  "name": "creator",
                  "type": "address"
                },
                {
                  "internalType": "address",
                  "name": "filler",
                  "type": "address"
                },
                {
                  "internalType": "uint256",
                  "name": "optionId",
                  "type": "uint256"
                },
                {
                  "internalType": "uint256",
                  "name": "amountOTM",
                  "type": "uint256"
                },
                {
                  "internalType": "uint256",
                  "name": "amountWei",
                  "type": "uint256"
                },
                {
                  "internalType": "enum BetMarket.OrderStatus",
                  "name": "status",
                  "type": "uint8"
                },
                {
                  "internalType": "enum BetMarket.OrderType",
                  "name": "orderType",
                  "type": "uint8"
                }
              ],
              "internalType": "struct BetMarket.Order[]",
              "name": "orders",
              "type": "tuple[]"
            },
            {
              "internalType": "enum BetMarket.BetStatus",
              "name": "status",
              "type": "uint8"
            },
            {
              "internalType": "uint256",
              "name": "winningOptionId",
              "type": "uint256"
            }
          ],
          "internalType": "struct BetMarket.Bet[]",
          "name": "",
          "type": "tuple[]"
        }
      ],
      "stateMutability": "view",
      "type": "function"
    },
    {
      "inputs": [
        {
          "internalType": "string",
          "name": "betId",
          "type": "string"
        }
      ],
      "name": "getOrders",
      "outputs": [
        {
          "components": [
            {
              "internalType": "address payable",
              "name": "creator",
              "type": "address"
            },
            {
              "internalType": "address",
              "name": "filler",
              "type": "address"
            },
            {
              "internalType": "uint256",
              "name": "optionId",
              "type": "uint256"
            },
            {
              "internalType": "uint256",
              "name": "amountOTM",
              "type": "uint256"
            },
            {
              "internalType": "uint256",
              "name": "amountWei",
              "type": "uint256"
            },
            {
              "internalType": "enum BetMarket.OrderStatus",
              "name": "status",
              "type": "uint8"
            },
            {
              "internalType": "enum BetMarket.OrderType",
              "name": "orderType",
              "type": "uint8"
            }
          ],
          "internalType": "struct BetMarket.Order[]",
          "name": "",
          "type": "tuple[]"
        }
      ],
      "stateMutability": "view",
      "type": "function"
    },
    {
      "inputs": [
        {
          "internalType": "string",
          "name": "betId",
          "type": "string"
        },
        {
          "internalType": "address payable",
          "name": "user",
          "type": "address"
        }
      ],
      "name": "getUserBalance",
      "outputs": [
        {
          "components": [
            {
              "internalType": "address payable",
              "name": "user",
              "type": "address"
            },
            {
              "internalType": "uint256[]",
              "name": "tokens",
              "type": "uint256[]"
            }
          ],
          "internalType": "struct BetMarket.Balance",
          "name": "",
          "type": "tuple"
        }
      ],
      "stateMutability": "view",
      "type": "function"
    },
    {
      "inputs": [
        {
          "internalType": "address",
          "name": "user",
          "type": "address"
        }
      ],
      "name": "getUserBets",
      "outputs": [
        {
          "components": [
            {
              "internalType": "string",
              "name": "id",
              "type": "string"
            },
            {
              "internalType": "string",
              "name": "name",
              "type": "string"
            },
            {
              "internalType": "string",
              "name": "description",
              "type": "string"
            },
            {
              "internalType": "uint256",
              "name": "value",
              "type": "uint256"
            },
            {
              "internalType": "address payable",
              "name": "owner",
              "type": "address"
            },
            {
              "internalType": "address payable",
              "name": "arbitrator",
              "type": "address"
            },
            {
              "internalType": "string[]",
              "name": "options",
              "type": "string[]"
            },
            {
              "components": [
                {
                  "internalType": "address payable",
                  "name": "user",
                  "type": "address"
                },
                {
                  "internalType": "uint256[]",
                  "name": "tokens",
                  "type": "uint256[]"
                }
              ],
              "internalType": "struct BetMarket.Balance[]",
              "name": "balances",
              "type": "tuple[]"
            },
            {
              "internalType": "uint256",
              "name": "bettingDeadline",
              "type": "uint256"
            },
            {
              "internalType": "uint256",
              "name": "answerRevealDeadline",
              "type": "uint256"
            },
            {
              "components": [
                {
                  "internalType": "address payable",
                  "name": "creator",
                  "type": "address"
                },
                {
                  "internalType": "address",
                  "name": "filler",
                  "type": "address"
                },
                {
                  "internalType": "uint256",
                  "name": "optionId",
                  "type": "uint256"
                },
                {
                  "internalType": "uint256",
                  "name": "amountOTM",
                  "type": "uint256"
                },
                {
                  "internalType": "uint256",
                  "name": "amountWei",
                  "type": "uint256"
                },
                {
                  "internalType": "enum BetMarket.OrderStatus",
                  "name": "status",
                  "type": "uint8"
                },
                {
                  "internalType": "enum BetMarket.OrderType",
                  "name": "orderType",
                  "type": "uint8"
                }
              ],
              "internalType": "struct BetMarket.Order[]",
              "name": "orders",
              "type": "tuple[]"
            },
            {
              "internalType": "enum BetMarket.BetStatus",
              "name": "status",
              "type": "uint8"
            },
            {
              "internalType": "uint256",
              "name": "winningOptionId",
              "type": "uint256"
            }
          ],
          "internalType": "struct BetMarket.Bet[]",
          "name": "",
          "type": "tuple[]"
        }
      ],
      "stateMutability": "view",
      "type": "function"
    },
    {
      "inputs": [
        {
          "internalType": "string",
          "name": "betId",
          "type": "string"
        },
        {
          "internalType": "uint256",
          "name": "winningOptionId",
          "type": "uint256"
        }
      ],
      "name": "resolveBet",
      "outputs": [],
      "stateMutability": "nonpayable",
      "type": "function"
    }
  ],
  "bytecode": "0x608060405234801561001057600080fd5b50614d46806100206000396000f3fe6080604052600436106100dd5760003560e01c8063a1484f251161007f578063d0d17b8711610059578063d0d17b8714610220578063ef329c2c14610240578063f42e769914610260578063fc2bf0551461028d57600080fd5b8063a1484f25146101da578063b1002409146101ed578063c7da4a1a1461020057600080fd5b8063312e25d3116100bb578063312e25d3146101675780634bc40123146101875780637eeafd34146101a75780639617e885146101ba57600080fd5b8063078d1600146100e2578063098de6d0146101185780632d56657d1461013a575b600080fd5b3480156100ee57600080fd5b506101026100fd366004614204565b6102ba565b60405161010f9190614586565b60405180910390f35b34801561012457600080fd5b506101386101333660046145b5565b61084e565b005b34801561014657600080fd5b5061015a610155366004614605565b6108f6565b60405161010f9190614622565b34801561017357600080fd5b5061015a610182366004614605565b610f9f565b34801561019357600080fd5b506101386101a2366004614684565b611640565b6101386101b53660046146c9565b611ab5565b3480156101c657600080fd5b506101386101d5366004614684565b611df5565b6101386101e8366004614684565b612111565b6101386101fb36600461480f565b6126d9565b34801561020c57600080fd5b5061013861021b3660046148e5565b612bff565b34801561022c57600080fd5b5061013861023b3660046146c9565b612fb9565b34801561024c57600080fd5b5061013861025b366004614927565b613618565b34801561026c57600080fd5b5061028061027b366004614204565b6139de565b60405161010f919061497b565b34801561029957600080fd5b506102ad6102a836600461498e565b613b7e565b60405161010f91906149e0565b6102c2614062565b816000816040516102d391906149f3565b90815260405190819003602001902080546102ed90614a0f565b90506000036103385760405162461bcd60e51b815260206004820152601260248201527110995d08191bd95cc81b9bdd08195e1a5cdd60721b60448201526064015b60405180910390fd5b60008360405161034891906149f3565b9081526020016040518091039020604051806101a001604052908160008201805461037290614a0f565b80601f016020809104026020016040519081016040528092919081815260200182805461039e90614a0f565b80156103eb5780601f106103c0576101008083540402835291602001916103eb565b820191906000526020600020905b8154815290600101906020018083116103ce57829003601f168201915b5050505050815260200160018201805461040490614a0f565b80601f016020809104026020016040519081016040528092919081815260200182805461043090614a0f565b801561047d5780601f106104525761010080835404028352916020019161047d565b820191906000526020600020905b81548152906001019060200180831161046057829003601f168201915b5050505050815260200160028201805461049690614a0f565b80601f01602080910402602001604051908101604052809291908181526020018280546104c290614a0f565b801561050f5780601f106104e45761010080835404028352916020019161050f565b820191906000526020600020905b8154815290600101906020018083116104f257829003601f168201915b5050509183525050600382015460208083019190915260048301546001600160a01b0390811660408085019190915260058501549091166060840152600684018054825181850281018501909352808352608090940193919290919060009084015b8282101561061d57838290600052602060002001805461059090614a0f565b80601f01602080910402602001604051908101604052809291908181526020018280546105bc90614a0f565b80156106095780601f106105de57610100808354040283529160200191610609565b820191906000526020600020905b8154815290600101906020018083116105ec57829003601f168201915b505050505081526020019060010190610571565b50505050815260200160078201805480602002602001604051908101604052809291908181526020016000905b828210156106df5760008481526020908190206040805180820182526002860290920180546001600160a01b031683526001810180548351818702810187019094528084529394919385830193928301828280156106c757602002820191906000526020600020905b8154815260200190600101908083116106b3575b5050505050815250508152602001906001019061064a565b5050505081526020016008820154815260200160098201548152602001600a8201805480602002602001604051908101604052809291908181526020016000905b828210156108005760008481526020908190206040805160e0810182526006860290920180546001600160a01b03908116845260018201541693830193909352600280840154918301919091526003830154606083015260048301546080830152600583015491929160a084019160ff909116908111156107a3576107a3614394565b60028111156107b4576107b4614394565b81526020016005820160019054906101000a900460ff1660018111156107dc576107dc614394565b60018111156107ed576107ed614394565b8152505081526020019060010190610720565b50505090825250600b82015460209091019060ff16600181111561082657610826614394565b600181111561083757610837614394565b8152602001600c8201548152505091505b50919050565b60038160405161085e91906149f3565b90815260408051602092819003830190206001600160a01b0385166000908152925290205460ff166108f257600160038260405161089c91906149f3565b90815260408051602092819003830190206001600160a01b0386166000908152908352818120805460ff19169415159490941790935560028252822080546001810182559083529120016108f08282614a89565b505b5050565b6001600160a01b0381166000908152600160209081526040808320805482518185028101850190935280835260609493849084015b828210156109d757838290600052602060002001805461094a90614a0f565b80601f016020809104026020016040519081016040528092919081815260200182805461097690614a0f565b80156109c35780601f10610998576101008083540402835291602001916109c3565b820191906000526020600020905b8154815290600101906020018083116109a657829003601f168201915b50505050508152602001906001019061092b565b5050505090506000815167ffffffffffffffff8111156109f9576109f961414d565b604051908082528060200260200182016040528015610a3257816020015b610a1f614062565b815260200190600190039081610a175790505b50905060005b8151811015610f97576000838281518110610a5557610a55614b49565b6020026020010151604051610a6a91906149f3565b9081526020016040518091039020604051806101a0016040529081600082018054610a9490614a0f565b80601f0160208091040260200160405190810160405280929190818152602001828054610ac090614a0f565b8015610b0d5780601f10610ae257610100808354040283529160200191610b0d565b820191906000526020600020905b815481529060010190602001808311610af057829003601f168201915b50505050508152602001600182018054610b2690614a0f565b80601f0160208091040260200160405190810160405280929190818152602001828054610b5290614a0f565b8015610b9f5780601f10610b7457610100808354040283529160200191610b9f565b820191906000526020600020905b815481529060010190602001808311610b8257829003601f168201915b50505050508152602001600282018054610bb890614a0f565b80601f0160208091040260200160405190810160405280929190818152602001828054610be490614a0f565b8015610c315780601f10610c0657610100808354040283529160200191610c31565b820191906000526020600020905b815481529060010190602001808311610c1457829003601f168201915b5050509183525050600382015460208083019190915260048301546001600160a01b0390811660408085019190915260058501549091166060840152600684018054825181850281018501909352808352608090940193919290919060009084015b82821015610d3f578382906000526020600020018054610cb290614a0f565b80601f0160208091040260200160405190810160405280929190818152602001828054610cde90614a0f565b8015610d2b5780601f10610d0057610100808354040283529160200191610d2b565b820191906000526020600020905b815481529060010190602001808311610d0e57829003601f168201915b505050505081526020019060010190610c93565b50505050815260200160078201805480602002602001604051908101604052809291908181526020016000905b82821015610e015760008481526020908190206040805180820182526002860290920180546001600160a01b03168352600181018054835181870281018701909452808452939491938583019392830182828015610de957602002820191906000526020600020905b815481526020019060010190808311610dd5575b50505050508152505081526020019060010190610d6c565b5050505081526020016008820154815260200160098201548152602001600a8201805480602002602001604051908101604052809291908181526020016000905b82821015610f225760008481526020908190206040805160e0810182526006860290920180546001600160a01b03908116845260018201541693830193909352600280840154918301919091526003830154606083015260048301546080830152600583015491929160a084019160ff90911690811115610ec557610ec5614394565b6002811115610ed657610ed6614394565b81526020016005820160019054906101000a900460ff166001811115610efe57610efe614394565b6001811115610f0f57610f0f614394565b8152505081526020019060010190610e42565b50505090825250600b82015460209091019060ff166001811115610f4857610f48614394565b6001811115610f5957610f59614394565b8152602001600c82015481525050828281518110610f7957610f79614b49565b60200260200101819052508080610f8f90614b75565b915050610a38565b509392505050565b6001600160a01b0381166000908152600260209081526040808320805482518185028101850190935280835260609493849084015b82821015611080578382906000526020600020018054610ff390614a0f565b80601f016020809104026020016040519081016040528092919081815260200182805461101f90614a0f565b801561106c5780601f106110415761010080835404028352916020019161106c565b820191906000526020600020905b81548152906001019060200180831161104f57829003601f168201915b505050505081526020019060010190610fd4565b5050505090506000815167ffffffffffffffff8111156110a2576110a261414d565b6040519080825280602002602001820160405280156110db57816020015b6110c8614062565b8152602001906001900390816110c05790505b50905060005b8151811015610f975760008382815181106110fe576110fe614b49565b602002602001015160405161111391906149f3565b9081526020016040518091039020604051806101a001604052908160008201805461113d90614a0f565b80601f016020809104026020016040519081016040528092919081815260200182805461116990614a0f565b80156111b65780601f1061118b576101008083540402835291602001916111b6565b820191906000526020600020905b81548152906001019060200180831161119957829003601f168201915b505050505081526020016001820180546111cf90614a0f565b80601f01602080910402602001604051908101604052809291908181526020018280546111fb90614a0f565b80156112485780601f1061121d57610100808354040283529160200191611248565b820191906000526020600020905b81548152906001019060200180831161122b57829003601f168201915b5050505050815260200160028201805461126190614a0f565b80601f016020809104026020016040519081016040528092919081815260200182805461128d90614a0f565b80156112da5780601f106112af576101008083540402835291602001916112da565b820191906000526020600020905b8154815290600101906020018083116112bd57829003601f168201915b5050509183525050600382015460208083019190915260048301546001600160a01b0390811660408085019190915260058501549091166060840152600684018054825181850281018501909352808352608090940193919290919060009084015b828210156113e857838290600052602060002001805461135b90614a0f565b80601f016020809104026020016040519081016040528092919081815260200182805461138790614a0f565b80156113d45780601f106113a9576101008083540402835291602001916113d4565b820191906000526020600020905b8154815290600101906020018083116113b757829003601f168201915b50505050508152602001906001019061133c565b50505050815260200160078201805480602002602001604051908101604052809291908181526020016000905b828210156114aa5760008481526020908190206040805180820182526002860290920180546001600160a01b0316835260018101805483518187028101870190945280845293949193858301939283018282801561149257602002820191906000526020600020905b81548152602001906001019080831161147e575b50505050508152505081526020019060010190611415565b5050505081526020016008820154815260200160098201548152602001600a8201805480602002602001604051908101604052809291908181526020016000905b828210156115cb5760008481526020908190206040805160e0810182526006860290920180546001600160a01b03908116845260018201541693830193909352600280840154918301919091526003830154606083015260048301546080830152600583015491929160a084019160ff9091169081111561156e5761156e614394565b600281111561157f5761157f614394565b81526020016005820160019054906101000a900460ff1660018111156115a7576115a7614394565b60018111156115b8576115b8614394565b81525050815260200190600101906114eb565b50505090825250600b82015460209091019060ff1660018111156115f1576115f1614394565b600181111561160257611602614394565b8152602001600c8201548152505082828151811061162257611622614b49565b6020026020010181905250808061163890614b75565b9150506110e1565b8160008160405161165191906149f3565b908152604051908190036020019020805461166b90614a0f565b90506000036116b15760405162461bcd60e51b815260206004820152601260248201527110995d08191bd95cc81b9bdd08195e1a5cdd60721b604482015260640161032f565b82600080826040516116c391906149f3565b908152604051908190036020019020600b015460ff1660018111156116ea576116ea614394565b1461172f5760405162461bcd60e51b81526020600482015260156024820152742132ba1034b9903737903637b733b2b91037b832b760591b604482015260640161032f565b6000808560405161174091906149f3565b90815260200160405180910390209050806008015442116117c85760405162461bcd60e51b8152602060048201526024808201527f42657474696e6720646561646c696e6520776173206e6f74207265616368656460448201527f2079657400000000000000000000000000000000000000000000000000000000606482015260840161032f565b80600901544211156118425760405162461bcd60e51b815260206004820152602160248201527f416e737765722072657665616c20646561646c696e652068617320706173736560448201527f6400000000000000000000000000000000000000000000000000000000000000606482015260840161032f565b60058101546001600160a01b031633146118c45760405162461bcd60e51b815260206004820152602360248201527f596f7520617265206e6f74207468652073656c6563746564206172626974726160448201527f746f720000000000000000000000000000000000000000000000000000000000606482015260840161032f565b600681015484106119175760405162461bcd60e51b815260206004820152601a60248201527f54686973206f7074696f6e20646f6573206e6f74206578697374000000000000604482015260640161032f565b600b8101805460ff1916600117905560005b600a82015481101561199557600082600a01828154811061194c5761194c614b49565b600091825260209091206005600690920201015460ff16600281111561197457611974614394565b03611983576119838682611df5565b8061198d81614b75565b915050611929565b5060005b6007820154811015611aa85760008260070182815481106119bc576119bc614b49565b906000526020600020906002020160010186815481106119de576119de614b49565b90600052602060002001541115611a9657816007018181548110611a0457611a04614b49565b60009182526020909120600290910201546007830180546001600160a01b03909216916108fc919084908110611a3c57611a3c614b49565b90600052602060002090600202016001018781548110611a5e57611a5e614b49565b90600052602060002001549081150290604051600060405180830381858888f19350505050158015611a94573d6000803e3d6000fd5b505b80611aa081614b75565b915050611999565b50600c0192909255505050565b6001341015611b065760405162461bcd60e51b815260206004820152601b60248201527f596f75206e65656420746f2073656e6420736f6d65206d6f6e65790000000000604482015260640161032f565b82600081604051611b1791906149f3565b9081526040519081900360200190208054611b3190614a0f565b9050600003611b775760405162461bcd60e51b815260206004820152601260248201527110995d08191bd95cc81b9bdd08195e1a5cdd60721b604482015260640161032f565b83600081604051611b8891906149f3565b9081526020016040518091039020600801544210611be05760405162461bcd60e51b81526020600482015260156024820152742132ba1034b9903737903637b733b2b91037b832b760591b604482015260640161032f565b3483600181611bf0846064614b8e565b611bfa9190614bab565b1015611c565760405162461bcd60e51b815260206004820152602560248201527f5072696365206d757374206265206c6172676572206f7220657175616c20746f60448201526420302e303160d81b606482015260840161032f565b606381611c64846064614b8e565b611c6e9190614bab565b1115611ccb5760405162461bcd60e51b815260206004820152602660248201527f5072696365206d75737420626520736d616c6c6572206f7220657175616c20746044820152656f20302e393960d01b606482015260840161032f565b60008088604051611cdc91906149f3565b90815260408051918290036020908101832060e08401835233845260008285018181529385018c8152606086018c8152346080880190815260a0880184815260c08901859052600a860180546001808201835591875297909520895160069098020180546001600160a01b03199081166001600160a01b03998a1617825598518187018054909a1698169790971790975591516002808701919091559051600386015590516004850155935160058401805493975086959193909260ff19909116918490811115611daf57611daf614394565b021790555060c082015160058201805461ff001916610100836001811115611dd957611dd9614394565b02179055505050611dea338a61084e565b505050505050505050565b81600081604051611e0691906149f3565b9081526040519081900360200190208054611e2090614a0f565b9050600003611e665760405162461bcd60e51b815260206004820152601260248201527110995d08191bd95cc81b9bdd08195e1a5cdd60721b604482015260640161032f565b8282600082604051611e7891906149f3565b908152604051908190036020019020600a01548110611ed95760405162461bcd60e51b815260206004820152601960248201527f54686973206f7264657220646f6573206e6f7420657869737400000000000000604482015260640161032f565b60008086604051611eea91906149f3565b90815260200160405180910390209050600081600a018681548110611f1157611f11614b49565b6000918252602090912060069091020190506001600582015460ff166002811115611f3e57611f3e614394565b03611f965760405162461bcd60e51b815260206004820152602260248201527f54686973206f726465722068617320616c7265616479206265656e2066696c6c604482015261195960f21b606482015260840161032f565b6002600582015460ff166002811115611fb157611fb1614394565b0361200c5760405162461bcd60e51b815260206004820152602560248201527f54686973206f726465722068617320616c7265616479206265656e2063616e63604482015264195b1b195960da1b606482015260840161032f565b80546001600160a01b0316331461208b5760405162461bcd60e51b815260206004820152602560248201527f4f6e6c7920746865206f776e65722063616e2063616e63656c2074686569722060448201527f6f72646572000000000000000000000000000000000000000000000000000000606482015260840161032f565b60058101805460ff19166002179081905560009060ff6101009091041660018111156120b9576120b9614394565b036120f4576004810154604051339180156108fc02916000818181858888f193505050501580156120ee573d6000803e3d6000fd5b50612108565b612108873383600201548460030154613d98565b50505050505050565b60013410156121625760405162461bcd60e51b815260206004820152601b60248201527f596f75206e65656420746f2073656e6420736f6d65206d6f6e65790000000000604482015260640161032f565b8160008160405161217391906149f3565b908152604051908190036020019020805461218d90614a0f565b90506000036121d35760405162461bcd60e51b815260206004820152601260248201527110995d08191bd95cc81b9bdd08195e1a5cdd60721b604482015260640161032f565b826000816040516121e491906149f3565b908152602001604051809103902060080154421061223c5760405162461bcd60e51b81526020600482015260156024820152742132ba1034b9903737903637b733b2b91037b832b760591b604482015260640161032f565b838360008260405161224e91906149f3565b908152604051908190036020019020600a015481106122af5760405162461bcd60e51b815260206004820152601960248201527f54686973206f7264657220646f6573206e6f7420657869737400000000000000604482015260640161032f565b600080876040516122c091906149f3565b90815260200160405180910390209050600081600a0187815481106122e7576122e7614b49565b6000918252602090912060069091020190506002600582015460ff16600281111561231457612314614394565b0361236f5760405162461bcd60e51b815260206004820152602560248201527f54686973206f726465722068617320616c7265616479206265656e2063616e63604482015264195b1b195960da1b606482015260840161032f565b6001600582015460ff16600281111561238a5761238a614394565b036123e25760405162461bcd60e51b815260206004820152602260248201527f54686973206f726465722068617320616c7265616479206265656e2066696c6c604482015261195960f21b606482015260840161032f565b8054336001600160a01b039091160361243d5760405162461bcd60e51b815260206004820152601e60248201527f596f752063616e6e6f742066696c6c20796f7572206f776e206f726465720000604482015260640161032f565b34816004015410156124b75760405162461bcd60e51b815260206004820152602f60248201527f546865206f7264657220646f65736e277420636f6e7461696e20656e6f75676860448201527f206f7574636f6d6520746f6b656e730000000000000000000000000000000000606482015260840161032f565b60058101805460ff191660011790556124d08833613ede565b6124fe8833836002015484600401543486600301546124ef9190614b8e565b6124f99190614bab565b613d98565b80546040516001600160a01b03909116903480156108fc02916000818181858888f19350505050158015612536573d6000803e3d6000fd5b5034816004015411156126c5576040805160e08101825282546001600160a01b031681526000602082018190526002840154928201929092526004830154600384015460608301919061258a903490614b8e565b6125949190614bab565b84600301546125a39190614bcd565b81526020013484600401546125b89190614bcd565b81526020016000815260200160019052600a84018054600181810183556000928352602092839020845160069093020180546001600160a01b039384166001600160a01b0319918216178255938501518183018054919094169416939093179091556040830151600280840191909155606084015160038401556080840151600484015560a084015160058401805495965086959193909260ff1990921691849081111561266857612668614394565b021790555060c082015160058201805461ff00191661010083600181111561269257612692614394565b0217905550505081600401543483600301546126ae9190614b8e565b6126b89190614bab565b6003830155503460048201555b6126cf338961084e565b5050505050505050565b87878080601f016020809104026020016040519081016040528093929190818152602001838380828437600092018290525060405190935061271e92508491506149f3565b908152604051908190036020019020805461273890614a0f565b1590506127875760405162461bcd60e51b815260206004820152601260248201527f42657420616c7265616479206578697374730000000000000000000000000000604482015260640161032f565b428310156127d75760405162461bcd60e51b815260206004820152601760248201527f446561646c696e6520616c726561647920706173736564000000000000000000604482015260640161032f565b8282101561284d5760405162461bcd60e51b815260206004820152603160248201527f416e737765722072657665616c206d757374206265206c61746572207468616e60448201527f2062657474696e6720646561646c696e65000000000000000000000000000000606482015260840161032f565b888860008b8b604051612861929190614be0565b9081526040519081900360200190209161287c919083614bf0565b508660008a8a604051612890929190614be0565b908152602001604051809103902060010190816128ad9190614a89565b508560008a8a6040516128c1929190614be0565b908152602001604051809103902060020190816128de9190614a89565b503460008a8a6040516128f2929190614be0565b9081526020016040518091039020600301819055503360008a8a60405161291a929190614be0565b908152602001604051809103902060040160006101000a8154816001600160a01b0302191690836001600160a01b031602179055508460008a8a604051612962929190614be0565b908152602001604051809103902060050160006101000a8154816001600160a01b0302191690836001600160a01b031602179055508260008a8a6040516129aa929190614be0565b9081526020016040518091039020600801819055508160008a8a6040516129d2929190614be0565b9081526020016040518091039020600901819055506000808a8a6040516129fa929190614be0565b908152604051908190036020019020600b01805460ff191660018381811115612a2557612a25614394565b02179055508351612a37906001614cb1565b60008a8a604051612a49929190614be0565b908152604051908190036020019020600c0155835160009067ffffffffffffffff811115612a7957612a7961414d565b604051908082528060200260200182016040528015612aa2578160200160208202803683370190505b50905060005b8551811015612b405760008b8b604051612ac3929190614be0565b9081526020016040518091039020600601868281518110612ae657612ae6614b49565b60209081029190910181015182546001810184556000938452919092200190612b0f9082614a89565b5034828281518110612b2357612b23614b49565b602090810291909101015280612b3881614b75565b915050612aa8565b5060008a8a604051612b53929190614be0565b90815260408051602092819003830181208183019092523381528281018481526007909201805460018082018355600092835291859020835160029092020180546001600160a01b0319166001600160a01b03909216919091178155925180519294612bc593928501929101906140ed565b50503360009081526001602081815260408320805492830181558352909120019050612bf28a8c83614bf0565b5050505050505050505050565b81818080601f0160208091040260200160405190810160405280939291908181526020018383808284376000920182905250604051909350612c4492508491506149f3565b9081526040519081900360200190208054612c5e90614a0f565b9050600003612ca45760405162461bcd60e51b815260206004820152601260248201527110995d08191bd95cc81b9bdd08195e1a5cdd60721b604482015260640161032f565b82828080601f01602080910402602001604051908101604052809392919081815260200183838082843760009201829052509250612ce0915050565b600082604051612cf091906149f3565b908152604051908190036020019020600b015460ff166001811115612d1757612d17614394565b14612d5c5760405162461bcd60e51b81526020600482015260156024820152742132ba1034b9903737903637b733b2b91037b832b760591b604482015260640161032f565b6000808585604051612d6f929190614be0565b9081526020016040518091039020905080600901544211612df85760405162461bcd60e51b815260206004820152602a60248201527f416e737765722072657665616c20646561646c696e6520776173206e6f74207260448201527f6561636865642079657400000000000000000000000000000000000000000000606482015260840161032f565b600b8101805460ff1916600117905560005b600a820154811015612ead57600082600a018281548110612e2d57612e2d614b49565b600091825260209091206005600690920201015460ff166002811115612e5557612e55614394565b03612e9b57612e9b86868080601f016020809104026020016040519081016040528093929190818152602001838380828437600092019190915250859250611df5915050565b80612ea581614b75565b915050612e0a565b5060005b6007820154811015612fb1576000805b6006840154811015612f2e57836007018381548110612ee257612ee2614b49565b90600052602060002090600202016001018181548110612f0457612f04614b49565b906000526020600020015482612f1a9190614cb1565b915080612f2681614b75565b915050612ec1565b50826007018281548110612f4457612f44614b49565b600091825260209091206002909102015460068401546001600160a01b03909116906108fc90612f749084614bab565b6040518115909202916000818181858888f19350505050158015612f9c573d6000803e3d6000fd5b50508080612fa990614b75565b915050612eb1565b505050505050565b82600081604051612fca91906149f3565b9081526040519081900360200190208054612fe490614a0f565b905060000361302a5760405162461bcd60e51b815260206004820152601260248201527110995d08191bd95cc81b9bdd08195e1a5cdd60721b604482015260640161032f565b8360008160405161303b91906149f3565b90815260200160405180910390206008015442106130935760405162461bcd60e51b81526020600482015260156024820152742132ba1034b9903737903637b733b2b91037b832b760591b604482015260640161032f565b84846000826040516130a591906149f3565b908152604051908190036020019020600a015481106131065760405162461bcd60e51b815260206004820152601960248201527f54686973206f7264657220646f6573206e6f7420657869737400000000000000604482015260640161032f565b600085116131565760405162461bcd60e51b815260206004820152601d60248201527f416d6f756e74206d7573742062652067726561746572207468616e2030000000604482015260640161032f565b6000808860405161316791906149f3565b90815260200160405180910390209050600081600a01888154811061318e5761318e614b49565b6000918252602090912060069091020190506002600582015460ff1660028111156131bb576131bb614394565b036132165760405162461bcd60e51b815260206004820152602560248201527f54686973206f726465722068617320616c7265616479206265656e2063616e63604482015264195b1b195960da1b606482015260840161032f565b6001600582015460ff16600281111561323157613231614394565b036132895760405162461bcd60e51b815260206004820152602260248201527f54686973206f726465722068617320616c7265616479206265656e2066696c6c604482015261195960f21b606482015260840161032f565b8054336001600160a01b03909116036132e45760405162461bcd60e51b815260206004820152601e60248201527f596f752063616e6e6f742066696c6c20796f7572206f776e206f726465720000604482015260640161032f565b868160030154101561335e5760405162461bcd60e51b815260206004820152602f60248201527f546865206f7264657220646f65736e277420636f6e7461696e20656e6f75676860448201527f206f7574636f6d6520746f6b656e730000000000000000000000000000000000606482015260840161032f565b866133698a33613b7e565b6020015182600201548151811061338257613382614b49565b602002602001015110156133d85760405162461bcd60e51b815260206004820152601c60248201527f596f7520646f6e2774206861766520656e6f75676820746f6b656e7300000000604482015260640161032f565b60058101805460ff1916600117905580546133fd908a906001600160a01b0316613ede565b613415893383600201548a6000196124f99190614cc4565b80546002820154613434918b916001600160a01b03909116908a613d98565b6003810154600482015433916108fc9161344e908b614b8e565b6134589190614bab565b6040518115909202916000818181858888f19350505050158015613480573d6000803e3d6000fd5b50868160030154111561360e576040805160e08101825282546001600160a01b03168152600060208201819052600284015492820192909252600383015460608201906134ce908b90614bcd565b8152602001836003015484600401548b6134e89190614b8e565b6134f29190614bab565b84600401546135019190614bcd565b81526020016000815260200160009052600a84018054600181810183556000928352602092839020845160069093020180546001600160a01b039384166001600160a01b0319918216178255938501518183018054919094169416939093179091556040830151600280840191909155606084015160038401556080840151600484015560a084015160058401805495965086959193909260ff199092169184908111156135b1576135b1614394565b021790555060c082015160058201805461ff0019166101008360018111156135db576135db614394565b02179055505050600382015460048301546135f6908a614b8e565b6136009190614bab565b600483015550600381018790555b611dea338a61084e565b8082600181613628846064614b8e565b6136329190614bab565b101561368e5760405162461bcd60e51b815260206004820152602560248201527f5072696365206d757374206265206c6172676572206f7220657175616c20746f60448201526420302e303160d81b606482015260840161032f565b60638161369c846064614b8e565b6136a69190614bab565b11156137035760405162461bcd60e51b815260206004820152602660248201527f5072696365206d75737420626520736d616c6c6572206f7220657175616c20746044820152656f20302e393960d01b606482015260840161032f565b8560008160405161371491906149f3565b908152604051908190036020019020805461372e90614a0f565b90506000036137745760405162461bcd60e51b815260206004820152601260248201527110995d08191bd95cc81b9bdd08195e1a5cdd60721b604482015260640161032f565b8660008160405161378591906149f3565b90815260200160405180910390206008015442106137dd5760405162461bcd60e51b81526020600482015260156024820152742132ba1034b9903737903637b733b2b91037b832b760591b604482015260640161032f565b6000861161382d5760405162461bcd60e51b815260206004820152601d60248201527f416d6f756e74206d7573742062652067726561746572207468616e2030000000604482015260640161032f565b6000808960405161383e91906149f3565b90815260200160405180910390209050600061385a8a33613b7e565b60200151898151811061386f5761386f614b49565b60200260200101519050878110156138c95760405162461bcd60e51b815260206004820152601c60248201527f596f7520646f6e2774206861766520656e6f75676820746f6b656e7300000000604482015260640161032f565b6138db8a338b6124f98c600019614cc4565b6040805160e081018252338152600060208083018281529383018d8152606084018d8152608085018d815260a08601858152600160c08801819052600a8b018054808301825590885295909620875160069096020180546001600160a01b03199081166001600160a01b0397881617825598518188018054909a169616959095179097559151600280850191909155905160038401559051600483015593516005820180549495869593949293919260ff19909216919084908111156139a3576139a3614394565b021790555060c082015160058201805461ff0019166101008360018111156139cd576139cd614394565b02179055505050612bf2338c61084e565b6060816000816040516139f191906149f3565b9081526040519081900360200190208054613a0b90614a0f565b9050600003613a515760405162461bcd60e51b815260206004820152601260248201527110995d08191bd95cc81b9bdd08195e1a5cdd60721b604482015260640161032f565b600083604051613a6191906149f3565b9081526020016040518091039020600a01805480602002602001604051908101604052809291908181526020016000905b82821015613b725760008481526020908190206040805160e0810182526006860290920180546001600160a01b03908116845260018201541693830193909352600280840154918301919091526003830154606083015260048301546080830152600583015491929160a084019160ff90911690811115613b1557613b15614394565b6002811115613b2657613b26614394565b81526020016005820160019054906101000a900460ff166001811115613b4e57613b4e614394565b6001811115613b5f57613b5f614394565b8152505081526020019060010190613a92565b50505050915050919050565b60408051808201909152600081526060602082015282600081604051613ba491906149f3565b9081526040519081900360200190208054613bbe90614a0f565b9050600003613c045760405162461bcd60e51b815260206004820152601260248201527110995d08191bd95cc81b9bdd08195e1a5cdd60721b604482015260640161032f565b60008085604051613c1591906149f3565b9081526020016040518091039020905060005b6007820154811015613d2157846001600160a01b0316826007018281548110613c5357613c53614b49565b60009182526020909120600290910201546001600160a01b031603613d0f57816007018181548110613c8757613c87614b49565b6000918252602091829020604080518082018252600290930290910180546001600160a01b03168352600181018054835181870281018701909452808452939491938583019392830182828015613cfd57602002820191906000526020600020905b815481526020019060010190808311613ce9575b50505050508152505093505050613d91565b80613d1981614b75565b915050613c28565b50600681015460009067ffffffffffffffff811115613d4257613d4261414d565b604051908082528060200260200182016040528015613d6b578160200160208202803683370190505b5090506040518060400160405280866001600160a01b0316815260200182815250935050505b5092915050565b60008085604051613da991906149f3565b9081526020016040518091039020905060005b6007820154811015612fb157846001600160a01b0316826007018281548110613de757613de7614b49565b60009182526020909120600290910201546001600160a01b031603613ecc5760008312613e6a5782826007018281548110613e2457613e24614b49565b90600052602060002090600202016001018581548110613e4657613e46614b49565b906000526020600020016000828254613e5f9190614cb1565b90915550613ecc9050565b613e7683600019614cc4565b826007018281548110613e8b57613e8b614b49565b90600052602060002090600202016001018581548110613ead57613ead614b49565b906000526020600020016000828254613ec69190614bcd565b90915550505b80613ed681614b75565b915050613dbc565b60008083604051613eef91906149f3565b908152602001604051809103902090506000805b6007830154811015613f6357826007018181548110613f2457613f24614b49565b60009182526020909120600290910201546001600160a01b0390811690851603613f515760019150613f63565b80613f5b81614b75565b915050613f03565b508061405c57600682015460009067ffffffffffffffff811115613f8957613f8961414d565b604051908082528060200260200182016040528015613fb2578160200160208202803683370190505b50905060005b6006840154811015613ff5576000828281518110613fd857613fd8614b49565b602090810291909101015280613fed81614b75565b915050613fb8565b50604080518082019091526001600160a01b038581168252602080830184815260078701805460018082018355600092835291849020865160029092020180546001600160a01b03191691909516178455905180516126cf939285019291909101906140ed565b50505050565b604051806101a001604052806060815260200160608152602001606081526020016000815260200160006001600160a01b0316815260200160006001600160a01b031681526020016060815260200160608152602001600081526020016000815260200160608152602001600060018111156140e0576140e0614394565b8152602001600081525090565b828054828255906000526020600020908101928215614128579160200282015b8281111561412857825182559160200191906001019061410d565b50614134929150614138565b5090565b5b808211156141345760008155600101614139565b634e487b7160e01b600052604160045260246000fd5b604051601f8201601f1916810167ffffffffffffffff8111828210171561418c5761418c61414d565b604052919050565b600082601f8301126141a557600080fd5b813567ffffffffffffffff8111156141bf576141bf61414d565b6141d2601f8201601f1916602001614163565b8181528460208386010111156141e757600080fd5b816020850160208301376000918101602001919091529392505050565b60006020828403121561421657600080fd5b813567ffffffffffffffff81111561422d57600080fd5b61423984828501614194565b949350505050565b60005b8381101561425c578181015183820152602001614244565b50506000910152565b6000815180845261427d816020860160208601614241565b601f01601f19169290920160200192915050565b600082825180855260208086019550808260051b84010181860160005b848110156142dc57601f198684030189526142ca838351614265565b988401989250908301906001016142ae565b5090979650505050505050565b6000604083016001600160a01b0383511684526020808401516040828701528281518085526060880191508383019450600092505b8083101561433e578451825293830193600192909201919083019061431e565b509695505050505050565b600082825180855260208086019550808260051b84010181860160005b848110156142dc57601f198684030189526143828383516142e9565b98840198925090830190600101614366565b634e487b7160e01b600052602160045260246000fd5b600281106143ba576143ba614394565b50565b600081518084526020808501945080840160005b8381101561445057815180516001600160a01b03908116895284820151168489015260408082015190890152606080820151908901526080808201519089015260a0808201516003811061442757614427614394565b9089015260c0908101519061443b826143aa565b88015260e090960195908201906001016143d1565b509495945050505050565b614464816143aa565b9052565b60006101a0825181855261447e82860182614265565b915050602083015184820360208601526144988282614265565b915050604083015184820360408601526144b28282614265565b9150506060830151606085015260808301516144d960808601826001600160a01b03169052565b5060a08301516144f460a08601826001600160a01b03169052565b5060c083015184820360c086015261450c8282614291565b91505060e083015184820360e08601526145268282614349565b915050610100808401518186015250610120808401518186015250610140808401518583038287015261455983826143bd565b92505050610160808401516145708287018261445b565b5050610180928301519390920192909252919050565b6020815260006145996020830184614468565b9392505050565b6001600160a01b03811681146143ba57600080fd5b600080604083850312156145c857600080fd5b82356145d3816145a0565b9150602083013567ffffffffffffffff8111156145ef57600080fd5b6145fb85828601614194565b9150509250929050565b60006020828403121561461757600080fd5b8135614599816145a0565b6000602080830181845280855180835260408601915060408160051b870101925083870160005b8281101561467757603f19888603018452614665858351614468565b94509285019290850190600101614649565b5092979650505050505050565b6000806040838503121561469757600080fd5b823567ffffffffffffffff8111156146ae57600080fd5b6146ba85828601614194565b95602094909401359450505050565b6000806000606084860312156146de57600080fd5b833567ffffffffffffffff8111156146f557600080fd5b61470186828701614194565b9660208601359650604090950135949350505050565b60008083601f84011261472957600080fd5b50813567ffffffffffffffff81111561474157600080fd5b60208301915083602082850101111561475957600080fd5b9250929050565b803561476b816145a0565b919050565b600082601f83011261478157600080fd5b8135602067ffffffffffffffff8083111561479e5761479e61414d565b8260051b6147ad838201614163565b93845285810183019383810190888611156147c757600080fd5b84880192505b85831015614803578235848111156147e55760008081fd5b6147f38a87838c0101614194565b83525091840191908401906147cd565b98975050505050505050565b60008060008060008060008060e0898b03121561482b57600080fd5b883567ffffffffffffffff8082111561484357600080fd5b61484f8c838d01614717565b909a50985060208b013591508082111561486857600080fd5b6148748c838d01614194565b975060408b013591508082111561488a57600080fd5b6148968c838d01614194565b96506148a460608c01614760565b955060808b01359150808211156148ba57600080fd5b506148c78b828c01614770565b93505060a0890135915060c089013590509295985092959890939650565b600080602083850312156148f857600080fd5b823567ffffffffffffffff81111561490f57600080fd5b61491b85828601614717565b90969095509350505050565b6000806000806080858703121561493d57600080fd5b843567ffffffffffffffff81111561495457600080fd5b61496087828801614194565b97602087013597506040870135966060013595509350505050565b60208152600061459960208301846143bd565b600080604083850312156149a157600080fd5b823567ffffffffffffffff8111156149b857600080fd5b6149c485828601614194565b92505060208301356149d5816145a0565b809150509250929050565b60208152600061459960208301846142e9565b60008251614a05818460208701614241565b9190910192915050565b600181811c90821680614a2357607f821691505b60208210810361084857634e487b7160e01b600052602260045260246000fd5b601f8211156108f057600081815260208120601f850160051c81016020861015614a6a5750805b601f850160051c820191505b81811015612fb157828155600101614a76565b815167ffffffffffffffff811115614aa357614aa361414d565b614ab781614ab18454614a0f565b84614a43565b602080601f831160018114614aec5760008415614ad45750858301515b600019600386901b1c1916600185901b178555612fb1565b600085815260208120601f198616915b82811015614b1b57888601518255948401946001909101908401614afc565b5085821015614b395787850151600019600388901b60f8161c191681555b5050505050600190811b01905550565b634e487b7160e01b600052603260045260246000fd5b634e487b7160e01b600052601160045260246000fd5b600060018201614b8757614b87614b5f565b5060010190565b8082028115828204841417614ba557614ba5614b5f565b92915050565b600082614bc857634e487b7160e01b600052601260045260246000fd5b500490565b81810381811115614ba557614ba5614b5f565b8183823760009101908152919050565b67ffffffffffffffff831115614c0857614c0861414d565b614c1c83614c168354614a0f565b83614a43565b6000601f841160018114614c505760008515614c385750838201355b600019600387901b1c1916600186901b178355614caa565b600083815260209020601f19861690835b82811015614c815786850135825560209485019460019092019101614c61565b5086821015614c9e5760001960f88860031b161c19848701351681555b505060018560011b0183555b5050505050565b80820180821115614ba557614ba5614b5f565b808202600082127f800000000000000000000000000000000000000000000000000000000000000084141615614cfc57614cfc614b5f565b8181058314821517614ba557614ba5614b5f56fea2646970667358221220bdb6536350f0d70bd4bb29e4e2c0a84155295465854c841383b44a69bfceff4c64736f6c63430008110033",
  "linkReferences": {},
  "deployedLinkReferences": {}
}