{
  "_format": "hh-sol-artifact-1",
  "contractName": "StorageByHash",
  "sourceName": "chain/contracts/StorageByHash.sol",
  "abi": [
    {
      "inputs": [],
      "stateMutability": "nonpayable",
      "type": "constructor"
    },
    {
      "inputs": [
        {
          "internalType": "bytes",
          "name": "data",
          "type": "bytes"
        }
      ],
      "name": "getHash",
      "outputs": [
        {
          "internalType": "uint256",
          "name": "",
          "type": "uint256"
        }
      ],
      "stateMutability": "pure",
      "type": "function"
    },
    {
      "inputs": [
        {
          "internalType": "address",
          "name": "owner",
          "type": "address"
        }
      ],
      "name": "getUserItems",
      "outputs": [
        {
          "components": [
            {
              "internalType": "string",
              "name": "uuid",
              "type": "string"
            },
            {
              "internalType": "address",
              "name": "owner",
              "type": "address"
            },
            {
              "internalType": "uint256",
              "name": "hash",
              "type": "uint256"
            },
            {
              "internalType": "bytes",
              "name": "data",
              "type": "bytes"
            }
          ],
          "internalType": "struct StorageByHash.StoredItem[]",
          "name": "",
          "type": "tuple[]"
        }
      ],
      "stateMutability": "view",
      "type": "function"
    },
    {
      "inputs": [
        {
          "internalType": "string",
          "name": "uuid",
          "type": "string"
        },
        {
          "internalType": "uint256",
          "name": "hash",
          "type": "uint256"
        },
        {
          "internalType": "bytes",
          "name": "data",
          "type": "bytes"
        }
      ],
      "name": "storeHash",
      "outputs": [],
      "stateMutability": "nonpayable",
      "type": "function"
    },
    {
      "inputs": [
        {
          "internalType": "string",
          "name": "uuid",
          "type": "string"
        },
        {
          "internalType": "uint256",
          "name": "hash",
          "type": "uint256"
        }
      ],
      "name": "storeHash",
      "outputs": [],
      "stateMutability": "nonpayable",
      "type": "function"
    },
    {
      "inputs": [
        {
          "internalType": "string",
          "name": "",
          "type": "string"
        }
      ],
      "name": "storedItems",
      "outputs": [
        {
          "internalType": "string",
          "name": "uuid",
          "type": "string"
        },
        {
          "internalType": "address",
          "name": "owner",
          "type": "address"
        },
        {
          "internalType": "uint256",
          "name": "hash",
          "type": "uint256"
        },
        {
          "internalType": "bytes",
          "name": "data",
          "type": "bytes"
        }
      ],
      "stateMutability": "view",
      "type": "function"
    },
    {
      "inputs": [
        {
          "internalType": "string",
          "name": "itemId",
          "type": "string"
        },
        {
          "internalType": "bytes",
          "name": "data",
          "type": "bytes"
        }
      ],
      "name": "uploadData",
      "outputs": [],
      "stateMutability": "nonpayable",
      "type": "function"
    },
    {
      "inputs": [
        {
          "internalType": "address",
          "name": "",
          "type": "address"
        },
        {
          "internalType": "uint256",
          "name": "",
          "type": "uint256"
        }
      ],
      "name": "userItems",
      "outputs": [
        {
          "internalType": "string",
          "name": "",
          "type": "string"
        }
      ],
      "stateMutability": "view",
      "type": "function"
    }
  ],
  "bytecode": "0x608060405234801561001057600080fd5b506111b9806100206000396000f3fe608060405234801561001057600080fd5b506004361061007d5760003560e01c806391a81bc31161005b57806391a81bc3146100e3578063b00140aa146100f6578063ca52d51614610117578063ce6019b41461012a57600080fd5b80635c3bd141146100825780636c7841b5146100ab57806380e51186146100c0575b600080fd5b610095610090366004610ad5565b61014a565b6040516100a29190610b4f565b60405180910390f35b6100be6100b9366004610c3e565b610203565b005b6100d36100ce366004610cc5565b610390565b6040516100a29493929190610d16565b6100be6100f1366004610d5b565b6104e1565b610109610104366004610da7565b610676565b6040519081526020016100a2565b6100be610125366004610de9565b610698565b61013d610138366004610e55565b610785565b6040516100a29190610e70565b6000602052816000526040600020818154811061016657600080fd5b9060005260206000200160009150915050805461018290610f15565b80601f01602080910402602001604051908101604052809291908181526020018280546101ae90610f15565b80156101fb5780601f106101d0576101008083540402835291602001916101fb565b820191906000526020600020905b8154815290600101906020018083116101de57829003601f168201915b505050505081565b60018484604051610215929190610f4f565b908152604051908190036020019020805461022f90610f15565b1590506102835760405162461bcd60e51b815260206004820152601360248201527f596f75207368616c6c206e6f742070617373210000000000000000000000000060448201526064015b60405180910390fd5b604051806080016040528085858080601f01602080910402602001604051908101604052809392919081815260200183838082843760009201919091525050509082525033602082015260408082018590526060909101839052516001906102ee9087908790610f4f565b9081526040519081900360200190208151819061030b9082610faa565b50602082015160018201805473ffffffffffffffffffffffffffffffffffffffff19166001600160a01b03909216919091179055604082015160028201556060820151600382019061035d9082610faa565b50503360009081526020818152604082208054600181018255908352912001905061038984868361106a565b5050505050565b80516020818301810180516001825292820191909301209152805481906103b690610f15565b80601f01602080910402602001604051908101604052809291908181526020018280546103e290610f15565b801561042f5780601f106104045761010080835404028352916020019161042f565b820191906000526020600020905b81548152906001019060200180831161041257829003601f168201915b505050506001830154600284015460038501805494956001600160a01b03909316949193509061045e90610f15565b80601f016020809104026020016040519081016040528092919081815260200182805461048a90610f15565b80156104d75780601f106104ac576101008083540402835291602001916104d7565b820191906000526020600020905b8154815290600101906020018083116104ba57829003601f168201915b5050505050905084565b600183836040516104f3929190610f4f565b908152604051908190036020019020805461050d90610f15565b15905061055c5760405162461bcd60e51b815260206004820152601360248201527f596f75207368616c6c206e6f7420706173732100000000000000000000000000604482015260640161027a565b604051806080016040528084848080601f016020809104026020016040519081016040528093929190818152602001838380828437600092018290525093855250503360208085019190915260408085018790528051918201815292815260609093019290925251600191506105d59086908690610f4f565b908152604051908190036020019020815181906105f29082610faa565b50602082015160018201805473ffffffffffffffffffffffffffffffffffffffff19166001600160a01b0390921691909117905560408201516002820155606082015160038201906106449082610faa565b50503360009081526020818152604082208054600181018255908352912001905061067083858361106a565b50505050565b60008282604051610688929190610f4f565b6040519081900390209392505050565b600082826040516106aa929190610f4f565b60405190819003812091506001906106c59087908790610f4f565b908152602001604051809103902060020154811461074b5760405162461bcd60e51b815260206004820152602260248201527f446174612068617368206973206e6f7420636f7272656374206f726967696e6160448201527f6c3a000000000000000000000000000000000000000000000000000000000000606482015260840161027a565b82826001878760405161075f929190610f4f565b9081526020016040518091039020600301918261077d92919061106a565b505050505050565b6001600160a01b038116600090815260208181526040808320805482518185028101850190935280835260609493849084015b828210156108645783829060005260206000200180546107d790610f15565b80601f016020809104026020016040519081016040528092919081815260200182805461080390610f15565b80156108505780601f1061082557610100808354040283529160200191610850565b820191906000526020600020905b81548152906001019060200180831161083357829003601f168201915b5050505050815260200190600101906107b8565b5050505090506000815167ffffffffffffffff81111561088657610886610bb2565b6040519080825280602002602001820160405280156108eb57816020015b6108d860405180608001604052806060815260200160006001600160a01b0316815260200160008152602001606081525090565b8152602001906001900390816108a45790505b50905060005b8151811015610ab157600183828151811061090e5761090e61112a565b60200260200101516040516109239190611140565b908152602001604051809103902060405180608001604052908160008201805461094c90610f15565b80601f016020809104026020016040519081016040528092919081815260200182805461097890610f15565b80156109c55780601f1061099a576101008083540402835291602001916109c5565b820191906000526020600020905b8154815290600101906020018083116109a857829003601f168201915b505050918352505060018201546001600160a01b03166020820152600282015460408201526003820180546060909201916109ff90610f15565b80601f0160208091040260200160405190810160405280929190818152602001828054610a2b90610f15565b8015610a785780601f10610a4d57610100808354040283529160200191610a78565b820191906000526020600020905b815481529060010190602001808311610a5b57829003601f168201915b505050505081525050828281518110610a9357610a9361112a565b60200260200101819052508080610aa99061115c565b9150506108f1565b509392505050565b80356001600160a01b0381168114610ad057600080fd5b919050565b60008060408385031215610ae857600080fd5b610af183610ab9565b946020939093013593505050565b60005b83811015610b1a578181015183820152602001610b02565b50506000910152565b60008151808452610b3b816020860160208601610aff565b601f01601f19169290920160200192915050565b602081526000610b626020830184610b23565b9392505050565b60008083601f840112610b7b57600080fd5b50813567ffffffffffffffff811115610b9357600080fd5b602083019150836020828501011115610bab57600080fd5b9250929050565b634e487b7160e01b600052604160045260246000fd5b600067ffffffffffffffff80841115610be357610be3610bb2565b604051601f8501601f19908116603f01168101908282118183101715610c0b57610c0b610bb2565b81604052809350858152868686011115610c2457600080fd5b858560208301376000602087830101525050509392505050565b60008060008060608587031215610c5457600080fd5b843567ffffffffffffffff80821115610c6c57600080fd5b610c7888838901610b69565b9096509450602087013593506040870135915080821115610c9857600080fd5b508501601f81018713610caa57600080fd5b610cb987823560208401610bc8565b91505092959194509250565b600060208284031215610cd757600080fd5b813567ffffffffffffffff811115610cee57600080fd5b8201601f81018413610cff57600080fd5b610d0e84823560208401610bc8565b949350505050565b608081526000610d296080830187610b23565b6001600160a01b03861660208401528460408401528281036060840152610d508185610b23565b979650505050505050565b600080600060408486031215610d7057600080fd5b833567ffffffffffffffff811115610d8757600080fd5b610d9386828701610b69565b909790965060209590950135949350505050565b60008060208385031215610dba57600080fd5b823567ffffffffffffffff811115610dd157600080fd5b610ddd85828601610b69565b90969095509350505050565b60008060008060408587031215610dff57600080fd5b843567ffffffffffffffff80821115610e1757600080fd5b610e2388838901610b69565b90965094506020870135915080821115610e3c57600080fd5b50610e4987828801610b69565b95989497509550505050565b600060208284031215610e6757600080fd5b610b6282610ab9565b60006020808301818452808551808352604092508286019150828160051b87010184880160005b83811015610f0757603f19898403018552815160808151818652610ebd82870182610b23565b9150506001600160a01b03898301511689860152878201518886015260608083015192508582038187015250610ef38183610b23565b968901969450505090860190600101610e97565b509098975050505050505050565b600181811c90821680610f2957607f821691505b602082108103610f4957634e487b7160e01b600052602260045260246000fd5b50919050565b8183823760009101908152919050565b601f821115610fa557600081815260208120601f850160051c81016020861015610f865750805b601f850160051c820191505b8181101561077d57828155600101610f92565b505050565b815167ffffffffffffffff811115610fc457610fc4610bb2565b610fd881610fd28454610f15565b84610f5f565b602080601f83116001811461100d5760008415610ff55750858301515b600019600386901b1c1916600185901b17855561077d565b600085815260208120601f198616915b8281101561103c5788860151825594840194600190910190840161101d565b508582101561105a5787850151600019600388901b60f8161c191681555b5050505050600190811b01905550565b67ffffffffffffffff83111561108257611082610bb2565b611096836110908354610f15565b83610f5f565b6000601f8411600181146110ca57600085156110b25750838201355b600019600387901b1c1916600186901b178355610389565b600083815260209020601f19861690835b828110156110fb57868501358255602094850194600190920191016110db565b50868210156111185760001960f88860031b161c19848701351681555b505060018560011b0183555050505050565b634e487b7160e01b600052603260045260246000fd5b60008251611152818460208701610aff565b9190910192915050565b60006001820161117c57634e487b7160e01b600052601160045260246000fd5b506001019056fea2646970667358221220252389ddc5dcede213e2cea1c219e81741e53376aaa709607c101981f257a53864736f6c63430008110033",
  "linkReferences": {},
  "deployedLinkReferences": {}
}