{
  "_format": "hh-sol-artifact-1",
  "contractName": "BetBase",
  "sourceName": "chain/contracts/BetBase.sol",
  "abi": [
    {
      "inputs": [
        {
          "internalType": "address",
          "name": "storageContractAddress",
          "type": "address"
        }
      ],
      "stateMutability": "nonpayable",
      "type": "constructor"
    },
    {
      "inputs": [
        {
          "internalType": "string",
          "name": "betId",
          "type": "string"
        }
      ],
      "name": "getBet",
      "outputs": [
        {
          "components": [
            {
              "internalType": "string",
              "name": "id",
              "type": "string"
            },
            {
              "internalType": "address payable",
              "name": "owner",
              "type": "address"
            },
            {
              "internalType": "int256",
              "name": "answer",
              "type": "int256"
            },
            {
              "internalType": "uint256",
              "name": "totalBets",
              "type": "uint256"
            },
            {
              "internalType": "uint256",
              "name": "betLimit",
              "type": "uint256"
            },
            {
              "internalType": "uint256",
              "name": "course",
              "type": "uint256"
            },
            {
              "internalType": "string",
              "name": "name",
              "type": "string"
            },
            {
              "internalType": "string",
              "name": "description",
              "type": "string"
            },
            {
              "internalType": "uint256",
              "name": "bettingDeadline",
              "type": "uint256"
            },
            {
              "internalType": "uint256",
              "name": "answerRevealDeadline",
              "type": "uint256"
            },
            {
              "internalType": "uint256",
              "name": "prizeClaimDeadline",
              "type": "uint256"
            },
            {
              "internalType": "enum BetBase.Status",
              "name": "status",
              "type": "uint8"
            },
            {
              "components": [
                {
                  "internalType": "int256",
                  "name": "value",
                  "type": "int256"
                },
                {
                  "internalType": "uint256",
                  "name": "totalBet",
                  "type": "uint256"
                }
              ],
              "internalType": "struct BetBase.Option[]",
              "name": "options",
              "type": "tuple[]"
            },
            {
              "internalType": "bool",
              "name": "hasRestrictedOptions",
              "type": "bool"
            }
          ],
          "internalType": "struct BetBase.ReturnedBet",
          "name": "",
          "type": "tuple"
        }
      ],
      "stateMutability": "view",
      "type": "function"
    },
    {
      "inputs": [
        {
          "internalType": "string",
          "name": "betId",
          "type": "string"
        }
      ],
      "name": "getEncryptedData",
      "outputs": [
        {
          "internalType": "bytes",
          "name": "",
          "type": "bytes"
        }
      ],
      "stateMutability": "view",
      "type": "function"
    },
    {
      "inputs": [
        {
          "internalType": "string",
          "name": "betId",
          "type": "string"
        },
        {
          "internalType": "uint256",
          "name": "guessId",
          "type": "uint256"
        }
      ],
      "name": "getGuess",
      "outputs": [
        {
          "components": [
            {
              "internalType": "uint256",
              "name": "id",
              "type": "uint256"
            },
            {
              "internalType": "address payable",
              "name": "bettor",
              "type": "address"
            },
            {
              "internalType": "uint256",
              "name": "amount",
              "type": "uint256"
            },
            {
              "internalType": "bool",
              "name": "evaluated",
              "type": "bool"
            },
            {
              "internalType": "int256",
              "name": "guess",
              "type": "int256"
            },
            {
              "internalType": "int256",
              "name": "nonce",
              "type": "int256"
            }
          ],
          "internalType": "struct BetBase.Guess",
          "name": "",
          "type": "tuple"
        }
      ],
      "stateMutability": "view",
      "type": "function"
    },
    {
      "inputs": [
        {
          "internalType": "string",
          "name": "betId",
          "type": "string"
        }
      ],
      "name": "getGuesses",
      "outputs": [
        {
          "components": [
            {
              "internalType": "uint256",
              "name": "id",
              "type": "uint256"
            },
            {
              "internalType": "address payable",
              "name": "bettor",
              "type": "address"
            },
            {
              "internalType": "uint256",
              "name": "amount",
              "type": "uint256"
            },
            {
              "internalType": "bool",
              "name": "evaluated",
              "type": "bool"
            },
            {
              "internalType": "int256",
              "name": "guess",
              "type": "int256"
            },
            {
              "internalType": "int256",
              "name": "nonce",
              "type": "int256"
            }
          ],
          "internalType": "struct BetBase.Guess[]",
          "name": "",
          "type": "tuple[]"
        }
      ],
      "stateMutability": "view",
      "type": "function"
    },
    {
      "inputs": [
        {
          "internalType": "string",
          "name": "betId",
          "type": "string"
        }
      ],
      "name": "getOptions",
      "outputs": [
        {
          "components": [
            {
              "internalType": "int256",
              "name": "value",
              "type": "int256"
            },
            {
              "internalType": "uint256",
              "name": "totalBet",
              "type": "uint256"
            }
          ],
          "internalType": "struct BetBase.Option[]",
          "name": "",
          "type": "tuple[]"
        }
      ],
      "stateMutability": "view",
      "type": "function"
    },
    {
      "inputs": [
        {
          "internalType": "string",
          "name": "betId",
          "type": "string"
        }
      ],
      "name": "getSecretBet",
      "outputs": [
        {
          "components": [
            {
              "internalType": "string",
              "name": "id",
              "type": "string"
            },
            {
              "internalType": "address payable",
              "name": "owner",
              "type": "address"
            },
            {
              "internalType": "int256",
              "name": "answer",
              "type": "int256"
            },
            {
              "internalType": "uint256",
              "name": "totalBets",
              "type": "uint256"
            },
            {
              "internalType": "uint256",
              "name": "betLimit",
              "type": "uint256"
            },
            {
              "internalType": "uint256",
              "name": "course",
              "type": "uint256"
            },
            {
              "internalType": "string",
              "name": "name",
              "type": "string"
            },
            {
              "internalType": "string",
              "name": "description",
              "type": "string"
            },
            {
              "internalType": "uint256",
              "name": "bettingDeadline",
              "type": "uint256"
            },
            {
              "internalType": "uint256",
              "name": "answerRevealDeadline",
              "type": "uint256"
            },
            {
              "internalType": "uint256",
              "name": "prizeClaimDeadline",
              "type": "uint256"
            },
            {
              "internalType": "enum BetBase.Status",
              "name": "status",
              "type": "uint8"
            },
            {
              "components": [
                {
                  "internalType": "int256",
                  "name": "value",
                  "type": "int256"
                },
                {
                  "internalType": "uint256",
                  "name": "totalBet",
                  "type": "uint256"
                }
              ],
              "internalType": "struct BetBase.Option[]",
              "name": "options",
              "type": "tuple[]"
            },
            {
              "internalType": "bool",
              "name": "hasRestrictedOptions",
              "type": "bool"
            }
          ],
          "internalType": "struct BetBase.ReturnedBet",
          "name": "",
          "type": "tuple"
        }
      ],
      "stateMutability": "view",
      "type": "function"
    },
    {
      "inputs": [
        {
          "internalType": "string",
          "name": "guessStorageId",
          "type": "string"
        }
      ],
      "name": "getSecretEncryptedData",
      "outputs": [
        {
          "internalType": "bytes",
          "name": "",
          "type": "bytes"
        }
      ],
      "stateMutability": "view",
      "type": "function"
    },
    {
      "inputs": [
        {
          "internalType": "address",
          "name": "owner",
          "type": "address"
        }
      ],
      "name": "getUserBets",
      "outputs": [
        {
          "components": [
            {
              "internalType": "string",
              "name": "id",
              "type": "string"
            },
            {
              "internalType": "address payable",
              "name": "owner",
              "type": "address"
            },
            {
              "internalType": "int256",
              "name": "answer",
              "type": "int256"
            },
            {
              "internalType": "uint256",
              "name": "totalBets",
              "type": "uint256"
            },
            {
              "internalType": "uint256",
              "name": "betLimit",
              "type": "uint256"
            },
            {
              "internalType": "uint256",
              "name": "course",
              "type": "uint256"
            },
            {
              "internalType": "string",
              "name": "name",
              "type": "string"
            },
            {
              "internalType": "string",
              "name": "description",
              "type": "string"
            },
            {
              "internalType": "uint256",
              "name": "bettingDeadline",
              "type": "uint256"
            },
            {
              "internalType": "uint256",
              "name": "answerRevealDeadline",
              "type": "uint256"
            },
            {
              "internalType": "uint256",
              "name": "prizeClaimDeadline",
              "type": "uint256"
            },
            {
              "internalType": "enum BetBase.Status",
              "name": "status",
              "type": "uint8"
            },
            {
              "components": [
                {
                  "internalType": "int256",
                  "name": "value",
                  "type": "int256"
                },
                {
                  "internalType": "uint256",
                  "name": "totalBet",
                  "type": "uint256"
                }
              ],
              "internalType": "struct BetBase.Option[]",
              "name": "options",
              "type": "tuple[]"
            },
            {
              "internalType": "bool",
              "name": "hasRestrictedOptions",
              "type": "bool"
            }
          ],
          "internalType": "struct BetBase.ReturnedBet[]",
          "name": "",
          "type": "tuple[]"
        }
      ],
      "stateMutability": "view",
      "type": "function"
    },
    {
      "inputs": [
        {
          "internalType": "address",
          "name": "owner",
          "type": "address"
        }
      ],
      "name": "getUserBetsNormal",
      "outputs": [
        {
          "components": [
            {
              "internalType": "string",
              "name": "id",
              "type": "string"
            },
            {
              "internalType": "address payable",
              "name": "owner",
              "type": "address"
            },
            {
              "internalType": "int256",
              "name": "answer",
              "type": "int256"
            },
            {
              "internalType": "uint256",
              "name": "totalBets",
              "type": "uint256"
            },
            {
              "internalType": "uint256",
              "name": "betLimit",
              "type": "uint256"
            },
            {
              "internalType": "uint256",
              "name": "course",
              "type": "uint256"
            },
            {
              "internalType": "string",
              "name": "name",
              "type": "string"
            },
            {
              "internalType": "string",
              "name": "description",
              "type": "string"
            },
            {
              "internalType": "uint256",
              "name": "bettingDeadline",
              "type": "uint256"
            },
            {
              "internalType": "uint256",
              "name": "answerRevealDeadline",
              "type": "uint256"
            },
            {
              "internalType": "uint256",
              "name": "prizeClaimDeadline",
              "type": "uint256"
            },
            {
              "internalType": "enum BetBase.Status",
              "name": "status",
              "type": "uint8"
            },
            {
              "components": [
                {
                  "internalType": "int256",
                  "name": "value",
                  "type": "int256"
                },
                {
                  "internalType": "uint256",
                  "name": "totalBet",
                  "type": "uint256"
                }
              ],
              "internalType": "struct BetBase.Option[]",
              "name": "options",
              "type": "tuple[]"
            },
            {
              "internalType": "bool",
              "name": "hasRestrictedOptions",
              "type": "bool"
            }
          ],
          "internalType": "struct BetBase.ReturnedBet[]",
          "name": "",
          "type": "tuple[]"
        }
      ],
      "stateMutability": "view",
      "type": "function"
    },
    {
      "inputs": [
        {
          "internalType": "address",
          "name": "guesser",
          "type": "address"
        }
      ],
      "name": "getUserGuesses",
      "outputs": [
        {
          "components": [
            {
              "internalType": "uint256",
              "name": "guessId",
              "type": "uint256"
            },
            {
              "internalType": "string",
              "name": "betId",
              "type": "string"
            }
          ],
          "internalType": "struct BetBase.UserGuess[]",
          "name": "",
          "type": "tuple[]"
        }
      ],
      "stateMutability": "view",
      "type": "function"
    },
    {
      "inputs": [
        {
          "internalType": "address",
          "name": "owner",
          "type": "address"
        }
      ],
      "name": "getUserSecretBets",
      "outputs": [
        {
          "components": [
            {
              "internalType": "string",
              "name": "id",
              "type": "string"
            },
            {
              "internalType": "address payable",
              "name": "owner",
              "type": "address"
            },
            {
              "internalType": "int256",
              "name": "answer",
              "type": "int256"
            },
            {
              "internalType": "uint256",
              "name": "totalBets",
              "type": "uint256"
            },
            {
              "internalType": "uint256",
              "name": "betLimit",
              "type": "uint256"
            },
            {
              "internalType": "uint256",
              "name": "course",
              "type": "uint256"
            },
            {
              "internalType": "string",
              "name": "name",
              "type": "string"
            },
            {
              "internalType": "string",
              "name": "description",
              "type": "string"
            },
            {
              "internalType": "uint256",
              "name": "bettingDeadline",
              "type": "uint256"
            },
            {
              "internalType": "uint256",
              "name": "answerRevealDeadline",
              "type": "uint256"
            },
            {
              "internalType": "uint256",
              "name": "prizeClaimDeadline",
              "type": "uint256"
            },
            {
              "internalType": "enum BetBase.Status",
              "name": "status",
              "type": "uint8"
            },
            {
              "components": [
                {
                  "internalType": "int256",
                  "name": "value",
                  "type": "int256"
                },
                {
                  "internalType": "uint256",
                  "name": "totalBet",
                  "type": "uint256"
                }
              ],
              "internalType": "struct BetBase.Option[]",
              "name": "options",
              "type": "tuple[]"
            },
            {
              "internalType": "bool",
              "name": "hasRestrictedOptions",
              "type": "bool"
            }
          ],
          "internalType": "struct BetBase.ReturnedBet[]",
          "name": "",
          "type": "tuple[]"
        }
      ],
      "stateMutability": "view",
      "type": "function"
    },
    {
      "inputs": [
        {
          "internalType": "uint256",
          "name": "money",
          "type": "uint256"
        },
        {
          "internalType": "uint256",
          "name": "course",
          "type": "uint256"
        }
      ],
      "name": "multMoney",
      "outputs": [
        {
          "internalType": "uint256",
          "name": "",
          "type": "uint256"
        }
      ],
      "stateMutability": "pure",
      "type": "function"
    },
    {
      "inputs": [
        {
          "internalType": "string",
          "name": "betId",
          "type": "string"
        }
      ],
      "name": "topUp",
      "outputs": [],
      "stateMutability": "payable",
      "type": "function"
    },
    {
      "inputs": [
        {
          "internalType": "address",
          "name": "",
          "type": "address"
        },
        {
          "internalType": "uint256",
          "name": "",
          "type": "uint256"
        }
      ],
      "name": "userBets",
      "outputs": [
        {
          "internalType": "string",
          "name": "",
          "type": "string"
        }
      ],
      "stateMutability": "view",
      "type": "function"
    },
    {
      "inputs": [
        {
          "internalType": "address",
          "name": "",
          "type": "address"
        },
        {
          "internalType": "uint256",
          "name": "",
          "type": "uint256"
        }
      ],
      "name": "userGuesses",
      "outputs": [
        {
          "internalType": "uint256",
          "name": "guessId",
          "type": "uint256"
        },
        {
          "internalType": "string",
          "name": "betId",
          "type": "string"
        }
      ],
      "stateMutability": "view",
      "type": "function"
    },
    {
      "inputs": [
        {
          "internalType": "int256",
          "name": "answer",
          "type": "int256"
        },
        {
          "internalType": "int256",
          "name": "nonce",
          "type": "int256"
        }
      ],
      "name": "valueToBinary",
      "outputs": [
        {
          "internalType": "bytes",
          "name": "",
          "type": "bytes"
        }
      ],
      "stateMutability": "pure",
      "type": "function"
    },
    {
      "inputs": [
        {
          "internalType": "string",
          "name": "betId",
          "type": "string"
        },
        {
          "internalType": "address",
          "name": "guesser",
          "type": "address"
        }
      ],
      "name": "whitelistAddress",
      "outputs": [],
      "stateMutability": "nonpayable",
      "type": "function"
    }
  ],
  "bytecode": "0x608060405234801561001057600080fd5b5060405162002378380380620023788339810160408190526100319161005b565b6001600081905580546001600160a01b0319166001600160a01b039290921691909117905561008b565b60006020828403121561006d57600080fd5b81516001600160a01b038116811461008457600080fd5b9392505050565b6122dd806200009b6000396000f3fe60806040526004361061010e5760003560e01c80637f68d5ba116100a55780639ee4e3eb11610074578063c678da5211610059578063c678da5214610300578063c78aa48d1461032e578063d8b322641461035b57600080fd5b80639ee4e3eb146102e0578063acf694a71461011357600080fd5b80637f68d5ba146102455780638068aa681461027257806387d4455714610292578063970d593d146102b257600080fd5b80632d754dda116100e15780632d754dda146101ab5780633a77383f146101cb57806349e4622c146101f85780636a74d6c61461021857600080fd5b8063078d16001461011357806309cc5551146101495780631c099e461461015e5780632d56657d1461017e575b600080fd5b34801561011f57600080fd5b5061013361012e366004611ac2565b610388565b6040516101409190611cd2565b60405180910390f35b61015c610157366004611ce5565b610438565b005b34801561016a57600080fd5b5061015c610179366004611d6f565b61073e565b34801561018a57600080fd5b5061019e610199366004611dc1565b6109f5565b6040516101409190611dde565b3480156101b757600080fd5b5061019e6101c6366004611dc1565b610ba4565b3480156101d757600080fd5b506101eb6101e6366004611ac2565b610d36565b6040516101409190611e40565b34801561020457600080fd5b506101eb610213366004611ac2565b610dbb565b34801561022457600080fd5b50610238610233366004611e53565b610eae565b6040516101409190611e98565b34801561025157600080fd5b50610265610260366004611ac2565b611000565b6040516101409190611ee6565b34801561027e57600080fd5b506101eb61028d366004611f38565b611105565b34801561029e57600080fd5b506101eb6102ad366004611f64565b6111be565b3480156102be57600080fd5b506102d26102cd366004611f64565b6111e7565b604051908152602001610140565b3480156102ec57600080fd5b5061019e6102fb366004611dc1565b61120d565b34801561030c57600080fd5b5061032061031b366004611f38565b61139f565b604051610140929190611f86565b34801561033a57600080fd5b5061034e610349366004611dc1565b611468565b6040516101409190611f9f565b34801561036757600080fd5b5061037b610376366004611ac2565b611579565b6040516101409190612013565b610390611974565b816003816040516103a19190612095565b90815260405190819003602001902080546103bb906120b1565b905060001415816040516020016103d291906120e5565b604051602081830303815290604052906104085760405162461bcd60e51b81526004016103ff9190611e40565b60405180910390fd5b5061042f60038460405161041c9190612095565b90815260200160405180910390206116a2565b91505b50919050565b81818080601f016020809104026020016040519081016040528093929190818152602001838380828437600092019190915250506040516003925061047f91508390612095565b9081526040519081900360200190208054610499906120b1565b905060001415816040516020016104b091906120e5565b604051602081830303815290604052906104dd5760405162461bcd60e51b81526004016103ff9190611e40565b5082828080601f016020809104026020016040519081016040528093929190818152602001838380828437600092019190915250506040516003925061052591508390612095565b908152602001604051809103902060090154421061057d5760405162461bcd60e51b81526020600482015260156024820152742132ba1034b9903737903637b733b2b91037b832b760591b60448201526064016103ff565b600160038260405161058f9190612095565b908152604051908190036020019020600c015460ff1660048111156105b6576105b6611b4f565b146105fb5760405162461bcd60e51b81526020600482015260156024820152742132ba1034b9903737903637b733b2b91037b832b760591b60448201526064016103ff565b83838080601f016020809104026020016040519081016040528093929190818152602001838380828437600092019190915250506040516003925061064291508390612095565b90815260405190819003602001902060030154336001600160a01b03909116146106ae5760405162461bcd60e51b815260206004820152601860248201527f596f75206e65656420746f20626520746865206f776e6572000000000000000060448201526064016103ff565b60013410156106ff5760405162461bcd60e51b815260206004820152601b60248201527f596f75206e65656420746f2073656e6420736f6d65206d6f6e6579000000000060448201526064016103ff565b346003868660405161071292919061212a565b908152602001604051809103902060070160008282546107329190612150565b90915550505050505050565b8160038160405161074f9190612095565b9081526040519081900360200190208054610769906120b1565b9050600014158160405160200161078091906120e5565b604051602081830303815290604052906107ad5760405162461bcd60e51b81526004016103ff9190611e40565b50826003816040516107bf9190612095565b90815260200160405180910390206009015442106108175760405162461bcd60e51b81526020600482015260156024820152742132ba1034b9903737903637b733b2b91037b832b760591b60448201526064016103ff565b60016003826040516108299190612095565b908152604051908190036020019020600c015460ff16600481111561085057610850611b4f565b146108955760405162461bcd60e51b81526020600482015260156024820152742132ba1034b9903737903637b733b2b91037b832b760591b60448201526064016103ff565b60006003856040516108a79190612095565b908152604051908190036020019020600c81015490915060ff610100909104166109395760405162461bcd60e51b815260206004820152603760248201527f596f752063616e6e6f742061646420746f2077686974656c697374206966207460448201527f6865726520776173206e6f74206f6e65206265666f726500000000000000000060648201526084016103ff565b6001600160a01b0384166000908152600d8201602052604090205460ff16156109c95760405162461bcd60e51b8152602060048201526024808201527f4775657373657220686173206265656e2077686974656c6973746520616c726560448201527f6164792e0000000000000000000000000000000000000000000000000000000060648201526084016103ff565b6001600160a01b039093166000908152600d909301602052505060409020805460ff1916600117905550565b6001600160a01b0381166000908152600260209081526040808320805482518185028101850190935280835260609493849084015b82821015610ad6578382906000526020600020018054610a49906120b1565b80601f0160208091040260200160405190810160405280929190818152602001828054610a75906120b1565b8015610ac25780601f10610a9757610100808354040283529160200191610ac2565b820191906000526020600020905b815481529060010190602001808311610aa557829003601f168201915b505050505081526020019060010190610a2a565b5050505090506000815167ffffffffffffffff811115610af857610af86119fd565b604051908082528060200260200182016040528015610b3157816020015b610b1e611974565b815260200190600190039081610b165790505b50905060005b8151811015610b9c57610b6c6003848381518110610b5757610b57612163565b602002602001015160405161041c9190612095565b828281518110610b7e57610b7e612163565b60200260200101819052508080610b9490612179565b915050610b37565b509392505050565b6001600160a01b0381166000908152600260209081526040808320805482518185028101850190935280835260609493849084015b82821015610c85578382906000526020600020018054610bf8906120b1565b80601f0160208091040260200160405190810160405280929190818152602001828054610c24906120b1565b8015610c715780601f10610c4657610100808354040283529160200191610c71565b820191906000526020600020905b815481529060010190602001808311610c5457829003601f168201915b505050505081526020019060010190610bd9565b5050505090506000815167ffffffffffffffff811115610ca757610ca76119fd565b604051908082528060200260200182016040528015610ce057816020015b610ccd611974565b815260200190600190039081610cc55790505b50905060005b8151811015610b9c57610d066003848381518110610b5757610b57612163565b828281518110610d1857610d18612163565b60200260200101819052508080610d2e90612179565b915050610ce6565b60015460405163407288c360e11b81526060916000916001600160a01b03909116906380e5118690610d6c908690600401611e40565b600060405180830381865afa158015610d89573d6000803e3d6000fd5b505050506040513d6000823e601f3d908101601f19168201604052610db191908101906121c2565b9695505050505050565b606081600381604051610dce9190612095565b9081526040519081900360200190208054610de8906120b1565b90506000141581604051602001610dff91906120e5565b60405160208183030381529060405290610e2c5760405162461bcd60e51b81526004016103ff9190611e40565b5060015460405163407288c360e11b81526000916001600160a01b0316906380e5118690610e5e908790600401611e40565b600060405180830381865afa158015610e7b573d6000803e3d6000fd5b505050506040513d6000823e601f3d908101601f19168201604052610ea391908101906121c2565b979650505050505050565b610ef26040518060c001604052806000815260200160006001600160a01b031681526020016000815260200160001515815260200160008152602001600081525090565b82600381604051610f039190612095565b9081526040519081900360200190208054610f1d906120b1565b90506000141581604051602001610f3491906120e5565b60405160208183030381529060405290610f615760405162461bcd60e51b81526004016103ff9190611e40565b50600384604051610f729190612095565b9081526020016040518091039020600f018381548110610f9457610f94612163565b60009182526020918290206040805160c08101825260069093029091018054835260018101546001600160a01b031693830193909352600283015490820152600382015460ff16151560608201526004820154608082015260059091015460a082015291505092915050565b6060816003816040516110139190612095565b908152604051908190036020019020805461102d906120b1565b9050600014158160405160200161104491906120e5565b604051602081830303815290604052906110715760405162461bcd60e51b81526004016103ff9190611e40565b506003836040516110829190612095565b9081526020016040518091039020601001805480602002602001604051908101604052809291908181526020016000905b828210156110f9578382906000526020600020906002020160405180604001604052908160008201548152602001600182015481525050815260200190600101906110b3565b50505050915050919050565b6002602052816000526040600020818154811061112157600080fd5b9060005260206000200160009150915050805461113d906120b1565b80601f0160208091040260200160405190810160405280929190818152602001828054611169906120b1565b80156111b65780601f1061118b576101008083540402835291602001916111b6565b820191906000526020600020905b81548152906001019060200180831161119957829003601f168201915b505050505081565b604080516020810184905280820183905281518082038301815260609091019091525b92915050565b600067016345785d8a00006111fc838561226e565b6112069190612285565b9392505050565b6001600160a01b0381166000908152600260209081526040808320805482518185028101850190935280835260609493849084015b828210156112ee578382906000526020600020018054611261906120b1565b80601f016020809104026020016040519081016040528092919081815260200182805461128d906120b1565b80156112da5780601f106112af576101008083540402835291602001916112da565b820191906000526020600020905b8154815290600101906020018083116112bd57829003601f168201915b505050505081526020019060010190611242565b5050505090506000815167ffffffffffffffff811115611310576113106119fd565b60405190808252806020026020018201604052801561134957816020015b611336611974565b81526020019060019003908161132e5790505b50905060005b8151811015610b9c5761136f6003848381518110610b5757610b57612163565b82828151811061138157611381612163565b6020026020010181905250808061139790612179565b91505061134f565b600460205281600052604060002081815481106113bb57600080fd5b9060005260206000209060020201600091509150508060000154908060010180546113e5906120b1565b80601f0160208091040260200160405190810160405280929190818152602001828054611411906120b1565b801561145e5780601f106114335761010080835404028352916020019161145e565b820191906000526020600020905b81548152906001019060200180831161144157829003601f168201915b5050505050905082565b6001600160a01b0381166000908152600460209081526040808320805482518185028101850190935280835260609492939192909184015b8282101561156e5783829060005260206000209060020201604051806040016040529081600082015481526020016001820180546114dd906120b1565b80601f0160208091040260200160405190810160405280929190818152602001828054611509906120b1565b80156115565780601f1061152b57610100808354040283529160200191611556565b820191906000526020600020905b81548152906001019060200180831161153957829003601f168201915b505050505081525050815260200190600101906114a0565b505050509050919050565b60608160038160405161158c9190612095565b90815260405190819003602001902080546115a6906120b1565b905060001415816040516020016115bd91906120e5565b604051602081830303815290604052906115ea5760405162461bcd60e51b81526004016103ff9190611e40565b506003836040516115fb9190612095565b9081526020016040518091039020600f01805480602002602001604051908101604052809291908181526020016000905b828210156110f95760008481526020908190206040805160c08101825260068602909201805483526001808201546001600160a01b031684860152600282015492840192909252600381015460ff1615156060840152600481015460808401526005015460a0830152908352909201910161162c565b6116aa611974565b604051806101c001604052808360000180546116c5906120b1565b80601f01602080910402602001604051908101604052809291908181526020018280546116f1906120b1565b801561173e5780601f106117135761010080835404028352916020019161173e565b820191906000526020600020905b81548152906001019060200180831161172157829003601f168201915b505050918352505060038401546001600160a01b03166020820152600484015460408201526006840154606082015260078401546080820152600884015460a082015260018401805460c090920191611796906120b1565b80601f01602080910402602001604051908101604052809291908181526020018280546117c2906120b1565b801561180f5780601f106117e45761010080835404028352916020019161180f565b820191906000526020600020905b8154815290600101906020018083116117f257829003601f168201915b50505050508152602001836002018054611828906120b1565b80601f0160208091040260200160405190810160405280929190818152602001828054611854906120b1565b80156118a15780601f10611876576101008083540402835291602001916118a1565b820191906000526020600020905b81548152906001019060200180831161188457829003601f168201915b505050918352505060098401546020820152600a8401546040820152600b8401546060820152600c84015460809091019060ff1660048111156118e6576118e6611b4f565b815260200183601001805480602002602001604051908101604052809291908181526020016000905b828210156119555783829060005260206000209060020201604051806040016040529081600082015481526020016001820154815250508152602001906001019061190f565b5050509082525060139093015460ff1615156020909301929092525090565b604051806101c001604052806060815260200160006001600160a01b03168152602001600081526020016000815260200160008152602001600081526020016060815260200160608152602001600081526020016000815260200160008152602001600060048111156119e9576119e9611b4f565b815260606020820152600060409091015290565b634e487b7160e01b600052604160045260246000fd5b604051601f8201601f1916810167ffffffffffffffff81118282101715611a3c57611a3c6119fd565b604052919050565b600067ffffffffffffffff821115611a5e57611a5e6119fd565b50601f01601f191660200190565b600082601f830112611a7d57600080fd5b8135611a90611a8b82611a44565b611a13565b818152846020838601011115611aa557600080fd5b816020850160208301376000918101602001919091529392505050565b600060208284031215611ad457600080fd5b813567ffffffffffffffff811115611aeb57600080fd5b611af784828501611a6c565b949350505050565b60005b83811015611b1a578181015183820152602001611b02565b50506000910152565b60008151808452611b3b816020860160208601611aff565b601f01601f19169290920160200192915050565b634e487b7160e01b600052602160045260246000fd5b60058110611b8357634e487b7160e01b600052602160045260246000fd5b9052565b600081518084526020808501945080840160005b83811015611bc5578151805188526020908101519088015260408701965090820190600101611b9b565b509495945050505050565b60006101c08251818552611be682860182611b23565b9150506020830151611c0360208601826001600160a01b03169052565b5060408301516040850152606083015160608501526080830151608085015260a083015160a085015260c083015184820360c0860152611c438282611b23565b91505060e083015184820360e0860152611c5d8282611b23565b610100858101519087015261012080860151908701526101408086015190870152610160808601519193509150611c9682870182611b65565b50506101808084015185830382870152611cb08382611b87565b925050506101a080840151611cc88287018215159052565b5090949350505050565b6020815260006112066020830184611bd0565b60008060208385031215611cf857600080fd5b823567ffffffffffffffff80821115611d1057600080fd5b818501915085601f830112611d2457600080fd5b813581811115611d3357600080fd5b866020828501011115611d4557600080fd5b60209290920196919550909350505050565b6001600160a01b0381168114611d6c57600080fd5b50565b60008060408385031215611d8257600080fd5b823567ffffffffffffffff811115611d9957600080fd5b611da585828601611a6c565b9250506020830135611db681611d57565b809150509250929050565b600060208284031215611dd357600080fd5b813561120681611d57565b6000602080830181845280855180835260408601915060408160051b870101925083870160005b82811015611e3357603f19888603018452611e21858351611bd0565b94509285019290850190600101611e05565b5092979650505050505050565b6020815260006112066020830184611b23565b60008060408385031215611e6657600080fd5b823567ffffffffffffffff811115611e7d57600080fd5b611e8985828601611a6c565b95602094909401359450505050565b60c081016111e18284805182526001600160a01b036020820151166020830152604081015160408301526060810151151560608301526080810151608083015260a081015160a08301525050565b6020808252825182820181905260009190848201906040850190845b81811015611f2c578351805184526020908101519084015260408301938501939250600101611f02565b50909695505050505050565b60008060408385031215611f4b57600080fd5b8235611f5681611d57565b946020939093013593505050565b60008060408385031215611f7757600080fd5b50508035926020909101359150565b828152604060208201526000611af76040830184611b23565b60006020808301818452808551808352604092508286019150828160051b87010184880160005b8381101561200557888303603f19018552815180518452870151878401879052611ff287850182611b23565b9588019593505090860190600101611fc6565b509098975050505050505050565b6020808252825182820181905260009190848201906040850190845b81811015611f2c57612082838551805182526001600160a01b036020820151166020830152604081015160408301526060810151151560608301526080810151608083015260a081015160a08301525050565b9284019260c0929092019160010161202f565b600082516120a7818460208701611aff565b9190910192915050565b600181811c908216806120c557607f821691505b60208210810361043257634e487b7160e01b600052602260045260246000fd5b7f4261736542657420646f6573206e6f742065786973743a20000000000000000081526000825161211d816018850160208701611aff565b9190910160180192915050565b8183823760009101908152919050565b634e487b7160e01b600052601160045260246000fd5b808201808211156111e1576111e161213a565b634e487b7160e01b600052603260045260246000fd5b60006001820161218b5761218b61213a565b5060010190565b60006121a0611a8b84611a44565b90508281528383830111156121b457600080fd5b611206836020830184611aff565b600080600080608085870312156121d857600080fd5b845167ffffffffffffffff808211156121f057600080fd5b818701915087601f83011261220457600080fd5b61221388835160208501612192565b95506020870151915061222582611d57565b6040870151606088015192955093508082111561224157600080fd5b508501601f8101871361225357600080fd5b61226287825160208401612192565b91505092959194509250565b80820281158282048414176111e1576111e161213a565b6000826122a257634e487b7160e01b600052601260045260246000fd5b50049056fea26469706673582212204052a4e42cba730638d102a38c516b0f0b5f6aced9a76e923147c09fe091fe1a64736f6c63430008110033",
  "linkReferences": {},
  "deployedLinkReferences": {}
}