{
  "_format": "hh-sol-artifact-1",
  "contractName": "BetNumber",
  "sourceName": "chain/contracts/BetNumber.sol",
  "abi": [
    {
      "inputs": [
        {
          "internalType": "address",
          "name": "storageContractAddress",
          "type": "address"
        }
      ],
      "stateMutability": "nonpayable",
      "type": "constructor"
    },
    {
      "inputs": [
        {
          "internalType": "string",
          "name": "betId",
          "type": "string"
        },
        {
          "internalType": "int256",
          "name": "guess",
          "type": "int256"
        }
      ],
      "name": "bet",
      "outputs": [
        {
          "components": [
            {
              "internalType": "uint256",
              "name": "id",
              "type": "uint256"
            },
            {
              "internalType": "address payable",
              "name": "bettor",
              "type": "address"
            },
            {
              "internalType": "uint256",
              "name": "amount",
              "type": "uint256"
            },
            {
              "internalType": "bool",
              "name": "evaluated",
              "type": "bool"
            },
            {
              "internalType": "int256",
              "name": "guess",
              "type": "int256"
            },
            {
              "internalType": "int256",
              "name": "nonce",
              "type": "int256"
            }
          ],
          "internalType": "struct BetBase.Guess",
          "name": "",
          "type": "tuple"
        }
      ],
      "stateMutability": "payable",
      "type": "function"
    },
    {
      "inputs": [
        {
          "internalType": "string",
          "name": "id",
          "type": "string"
        },
        {
          "internalType": "string",
          "name": "name",
          "type": "string"
        },
        {
          "internalType": "string",
          "name": "description",
          "type": "string"
        },
        {
          "internalType": "uint256",
          "name": "hash",
          "type": "uint256"
        },
        {
          "internalType": "bytes",
          "name": "encryptedData",
          "type": "bytes"
        },
        {
          "internalType": "uint256",
          "name": "course",
          "type": "uint256"
        },
        {
          "internalType": "uint256",
          "name": "bettingDeadline",
          "type": "uint256"
        },
        {
          "internalType": "uint256",
          "name": "answerRevealDeadline",
          "type": "uint256"
        },
        {
          "internalType": "address[]",
          "name": "whitelist",
          "type": "address[]"
        },
        {
          "internalType": "address[]",
          "name": "blacklist",
          "type": "address[]"
        },
        {
          "internalType": "int256[]",
          "name": "restrictedOptions",
          "type": "int256[]"
        }
      ],
      "name": "createBet",
      "outputs": [],
      "stateMutability": "payable",
      "type": "function"
    },
    {
      "inputs": [
        {
          "internalType": "string",
          "name": "id",
          "type": "string"
        },
        {
          "internalType": "string",
          "name": "name",
          "type": "string"
        },
        {
          "internalType": "string",
          "name": "description",
          "type": "string"
        },
        {
          "internalType": "uint256",
          "name": "hash",
          "type": "uint256"
        },
        {
          "internalType": "uint256",
          "name": "course",
          "type": "uint256"
        },
        {
          "internalType": "uint256",
          "name": "bettingDeadline",
          "type": "uint256"
        },
        {
          "internalType": "uint256",
          "name": "answerRevealDeadline",
          "type": "uint256"
        },
        {
          "internalType": "address[]",
          "name": "whitelist",
          "type": "address[]"
        },
        {
          "internalType": "address[]",
          "name": "blacklist",
          "type": "address[]"
        },
        {
          "internalType": "int256[]",
          "name": "restrictedOptions",
          "type": "int256[]"
        }
      ],
      "name": "createBet",
      "outputs": [],
      "stateMutability": "payable",
      "type": "function"
    },
    {
      "inputs": [
        {
          "internalType": "string",
          "name": "betId",
          "type": "string"
        }
      ],
      "name": "forceFinishBet",
      "outputs": [],
      "stateMutability": "nonpayable",
      "type": "function"
    },
    {
      "inputs": [
        {
          "internalType": "string",
          "name": "betId",
          "type": "string"
        }
      ],
      "name": "getBet",
      "outputs": [
        {
          "components": [
            {
              "internalType": "string",
              "name": "id",
              "type": "string"
            },
            {
              "internalType": "address payable",
              "name": "owner",
              "type": "address"
            },
            {
              "internalType": "int256",
              "name": "answer",
              "type": "int256"
            },
            {
              "internalType": "uint256",
              "name": "totalBets",
              "type": "uint256"
            },
            {
              "internalType": "uint256",
              "name": "betLimit",
              "type": "uint256"
            },
            {
              "internalType": "uint256",
              "name": "course",
              "type": "uint256"
            },
            {
              "internalType": "string",
              "name": "name",
              "type": "string"
            },
            {
              "internalType": "string",
              "name": "description",
              "type": "string"
            },
            {
              "internalType": "uint256",
              "name": "bettingDeadline",
              "type": "uint256"
            },
            {
              "internalType": "uint256",
              "name": "answerRevealDeadline",
              "type": "uint256"
            },
            {
              "internalType": "uint256",
              "name": "prizeClaimDeadline",
              "type": "uint256"
            },
            {
              "internalType": "enum BetBase.Status",
              "name": "status",
              "type": "uint8"
            },
            {
              "components": [
                {
                  "internalType": "int256",
                  "name": "value",
                  "type": "int256"
                },
                {
                  "internalType": "uint256",
                  "name": "totalBet",
                  "type": "uint256"
                }
              ],
              "internalType": "struct BetBase.Option[]",
              "name": "options",
              "type": "tuple[]"
            },
            {
              "internalType": "bool",
              "name": "hasRestrictedOptions",
              "type": "bool"
            }
          ],
          "internalType": "struct BetBase.ReturnedBet",
          "name": "",
          "type": "tuple"
        }
      ],
      "stateMutability": "view",
      "type": "function"
    },
    {
      "inputs": [
        {
          "internalType": "string",
          "name": "betId",
          "type": "string"
        }
      ],
      "name": "getEncryptedData",
      "outputs": [
        {
          "internalType": "bytes",
          "name": "",
          "type": "bytes"
        }
      ],
      "stateMutability": "view",
      "type": "function"
    },
    {
      "inputs": [
        {
          "internalType": "string",
          "name": "betId",
          "type": "string"
        },
        {
          "internalType": "uint256",
          "name": "guessId",
          "type": "uint256"
        }
      ],
      "name": "getGuess",
      "outputs": [
        {
          "components": [
            {
              "internalType": "uint256",
              "name": "id",
              "type": "uint256"
            },
            {
              "internalType": "address payable",
              "name": "bettor",
              "type": "address"
            },
            {
              "internalType": "uint256",
              "name": "amount",
              "type": "uint256"
            },
            {
              "internalType": "bool",
              "name": "evaluated",
              "type": "bool"
            },
            {
              "internalType": "int256",
              "name": "guess",
              "type": "int256"
            },
            {
              "internalType": "int256",
              "name": "nonce",
              "type": "int256"
            }
          ],
          "internalType": "struct BetBase.Guess",
          "name": "",
          "type": "tuple"
        }
      ],
      "stateMutability": "view",
      "type": "function"
    },
    {
      "inputs": [
        {
          "internalType": "string",
          "name": "betId",
          "type": "string"
        }
      ],
      "name": "getGuesses",
      "outputs": [
        {
          "components": [
            {
              "internalType": "uint256",
              "name": "id",
              "type": "uint256"
            },
            {
              "internalType": "address payable",
              "name": "bettor",
              "type": "address"
            },
            {
              "internalType": "uint256",
              "name": "amount",
              "type": "uint256"
            },
            {
              "internalType": "bool",
              "name": "evaluated",
              "type": "bool"
            },
            {
              "internalType": "int256",
              "name": "guess",
              "type": "int256"
            },
            {
              "internalType": "int256",
              "name": "nonce",
              "type": "int256"
            }
          ],
          "internalType": "struct BetBase.Guess[]",
          "name": "",
          "type": "tuple[]"
        }
      ],
      "stateMutability": "view",
      "type": "function"
    },
    {
      "inputs": [
        {
          "internalType": "string",
          "name": "betId",
          "type": "string"
        }
      ],
      "name": "getOptions",
      "outputs": [
        {
          "components": [
            {
              "internalType": "int256",
              "name": "value",
              "type": "int256"
            },
            {
              "internalType": "uint256",
              "name": "totalBet",
              "type": "uint256"
            }
          ],
          "internalType": "struct BetBase.Option[]",
          "name": "",
          "type": "tuple[]"
        }
      ],
      "stateMutability": "view",
      "type": "function"
    },
    {
      "inputs": [
        {
          "internalType": "string",
          "name": "betId",
          "type": "string"
        }
      ],
      "name": "getSecretBet",
      "outputs": [
        {
          "components": [
            {
              "internalType": "string",
              "name": "id",
              "type": "string"
            },
            {
              "internalType": "address payable",
              "name": "owner",
              "type": "address"
            },
            {
              "internalType": "int256",
              "name": "answer",
              "type": "int256"
            },
            {
              "internalType": "uint256",
              "name": "totalBets",
              "type": "uint256"
            },
            {
              "internalType": "uint256",
              "name": "betLimit",
              "type": "uint256"
            },
            {
              "internalType": "uint256",
              "name": "course",
              "type": "uint256"
            },
            {
              "internalType": "string",
              "name": "name",
              "type": "string"
            },
            {
              "internalType": "string",
              "name": "description",
              "type": "string"
            },
            {
              "internalType": "uint256",
              "name": "bettingDeadline",
              "type": "uint256"
            },
            {
              "internalType": "uint256",
              "name": "answerRevealDeadline",
              "type": "uint256"
            },
            {
              "internalType": "uint256",
              "name": "prizeClaimDeadline",
              "type": "uint256"
            },
            {
              "internalType": "enum BetBase.Status",
              "name": "status",
              "type": "uint8"
            },
            {
              "components": [
                {
                  "internalType": "int256",
                  "name": "value",
                  "type": "int256"
                },
                {
                  "internalType": "uint256",
                  "name": "totalBet",
                  "type": "uint256"
                }
              ],
              "internalType": "struct BetBase.Option[]",
              "name": "options",
              "type": "tuple[]"
            },
            {
              "internalType": "bool",
              "name": "hasRestrictedOptions",
              "type": "bool"
            }
          ],
          "internalType": "struct BetBase.ReturnedBet",
          "name": "",
          "type": "tuple"
        }
      ],
      "stateMutability": "view",
      "type": "function"
    },
    {
      "inputs": [
        {
          "internalType": "string",
          "name": "guessStorageId",
          "type": "string"
        }
      ],
      "name": "getSecretEncryptedData",
      "outputs": [
        {
          "internalType": "bytes",
          "name": "",
          "type": "bytes"
        }
      ],
      "stateMutability": "view",
      "type": "function"
    },
    {
      "inputs": [
        {
          "internalType": "address",
          "name": "owner",
          "type": "address"
        }
      ],
      "name": "getUserBets",
      "outputs": [
        {
          "components": [
            {
              "internalType": "string",
              "name": "id",
              "type": "string"
            },
            {
              "internalType": "address payable",
              "name": "owner",
              "type": "address"
            },
            {
              "internalType": "int256",
              "name": "answer",
              "type": "int256"
            },
            {
              "internalType": "uint256",
              "name": "totalBets",
              "type": "uint256"
            },
            {
              "internalType": "uint256",
              "name": "betLimit",
              "type": "uint256"
            },
            {
              "internalType": "uint256",
              "name": "course",
              "type": "uint256"
            },
            {
              "internalType": "string",
              "name": "name",
              "type": "string"
            },
            {
              "internalType": "string",
              "name": "description",
              "type": "string"
            },
            {
              "internalType": "uint256",
              "name": "bettingDeadline",
              "type": "uint256"
            },
            {
              "internalType": "uint256",
              "name": "answerRevealDeadline",
              "type": "uint256"
            },
            {
              "internalType": "uint256",
              "name": "prizeClaimDeadline",
              "type": "uint256"
            },
            {
              "internalType": "enum BetBase.Status",
              "name": "status",
              "type": "uint8"
            },
            {
              "components": [
                {
                  "internalType": "int256",
                  "name": "value",
                  "type": "int256"
                },
                {
                  "internalType": "uint256",
                  "name": "totalBet",
                  "type": "uint256"
                }
              ],
              "internalType": "struct BetBase.Option[]",
              "name": "options",
              "type": "tuple[]"
            },
            {
              "internalType": "bool",
              "name": "hasRestrictedOptions",
              "type": "bool"
            }
          ],
          "internalType": "struct BetBase.ReturnedBet[]",
          "name": "",
          "type": "tuple[]"
        }
      ],
      "stateMutability": "view",
      "type": "function"
    },
    {
      "inputs": [
        {
          "internalType": "address",
          "name": "owner",
          "type": "address"
        }
      ],
      "name": "getUserBetsNormal",
      "outputs": [
        {
          "components": [
            {
              "internalType": "string",
              "name": "id",
              "type": "string"
            },
            {
              "internalType": "address payable",
              "name": "owner",
              "type": "address"
            },
            {
              "internalType": "int256",
              "name": "answer",
              "type": "int256"
            },
            {
              "internalType": "uint256",
              "name": "totalBets",
              "type": "uint256"
            },
            {
              "internalType": "uint256",
              "name": "betLimit",
              "type": "uint256"
            },
            {
              "internalType": "uint256",
              "name": "course",
              "type": "uint256"
            },
            {
              "internalType": "string",
              "name": "name",
              "type": "string"
            },
            {
              "internalType": "string",
              "name": "description",
              "type": "string"
            },
            {
              "internalType": "uint256",
              "name": "bettingDeadline",
              "type": "uint256"
            },
            {
              "internalType": "uint256",
              "name": "answerRevealDeadline",
              "type": "uint256"
            },
            {
              "internalType": "uint256",
              "name": "prizeClaimDeadline",
              "type": "uint256"
            },
            {
              "internalType": "enum BetBase.Status",
              "name": "status",
              "type": "uint8"
            },
            {
              "components": [
                {
                  "internalType": "int256",
                  "name": "value",
                  "type": "int256"
                },
                {
                  "internalType": "uint256",
                  "name": "totalBet",
                  "type": "uint256"
                }
              ],
              "internalType": "struct BetBase.Option[]",
              "name": "options",
              "type": "tuple[]"
            },
            {
              "internalType": "bool",
              "name": "hasRestrictedOptions",
              "type": "bool"
            }
          ],
          "internalType": "struct BetBase.ReturnedBet[]",
          "name": "",
          "type": "tuple[]"
        }
      ],
      "stateMutability": "view",
      "type": "function"
    },
    {
      "inputs": [
        {
          "internalType": "address",
          "name": "guesser",
          "type": "address"
        }
      ],
      "name": "getUserGuesses",
      "outputs": [
        {
          "components": [
            {
              "internalType": "uint256",
              "name": "guessId",
              "type": "uint256"
            },
            {
              "internalType": "string",
              "name": "betId",
              "type": "string"
            }
          ],
          "internalType": "struct BetBase.UserGuess[]",
          "name": "",
          "type": "tuple[]"
        }
      ],
      "stateMutability": "view",
      "type": "function"
    },
    {
      "inputs": [
        {
          "internalType": "address",
          "name": "owner",
          "type": "address"
        }
      ],
      "name": "getUserSecretBets",
      "outputs": [
        {
          "components": [
            {
              "internalType": "string",
              "name": "id",
              "type": "string"
            },
            {
              "internalType": "address payable",
              "name": "owner",
              "type": "address"
            },
            {
              "internalType": "int256",
              "name": "answer",
              "type": "int256"
            },
            {
              "internalType": "uint256",
              "name": "totalBets",
              "type": "uint256"
            },
            {
              "internalType": "uint256",
              "name": "betLimit",
              "type": "uint256"
            },
            {
              "internalType": "uint256",
              "name": "course",
              "type": "uint256"
            },
            {
              "internalType": "string",
              "name": "name",
              "type": "string"
            },
            {
              "internalType": "string",
              "name": "description",
              "type": "string"
            },
            {
              "internalType": "uint256",
              "name": "bettingDeadline",
              "type": "uint256"
            },
            {
              "internalType": "uint256",
              "name": "answerRevealDeadline",
              "type": "uint256"
            },
            {
              "internalType": "uint256",
              "name": "prizeClaimDeadline",
              "type": "uint256"
            },
            {
              "internalType": "enum BetBase.Status",
              "name": "status",
              "type": "uint8"
            },
            {
              "components": [
                {
                  "internalType": "int256",
                  "name": "value",
                  "type": "int256"
                },
                {
                  "internalType": "uint256",
                  "name": "totalBet",
                  "type": "uint256"
                }
              ],
              "internalType": "struct BetBase.Option[]",
              "name": "options",
              "type": "tuple[]"
            },
            {
              "internalType": "bool",
              "name": "hasRestrictedOptions",
              "type": "bool"
            }
          ],
          "internalType": "struct BetBase.ReturnedBet[]",
          "name": "",
          "type": "tuple[]"
        }
      ],
      "stateMutability": "view",
      "type": "function"
    },
    {
      "inputs": [
        {
          "internalType": "uint256",
          "name": "money",
          "type": "uint256"
        },
        {
          "internalType": "uint256",
          "name": "course",
          "type": "uint256"
        }
      ],
      "name": "multMoney",
      "outputs": [
        {
          "internalType": "uint256",
          "name": "",
          "type": "uint256"
        }
      ],
      "stateMutability": "pure",
      "type": "function"
    },
    {
      "inputs": [
        {
          "internalType": "string",
          "name": "betId",
          "type": "string"
        },
        {
          "internalType": "int256",
          "name": "revealedNumber",
          "type": "int256"
        },
        {
          "internalType": "int256",
          "name": "nonce",
          "type": "int256"
        }
      ],
      "name": "revealNumber",
      "outputs": [],
      "stateMutability": "nonpayable",
      "type": "function"
    },
    {
      "inputs": [
        {
          "internalType": "string",
          "name": "betId",
          "type": "string"
        }
      ],
      "name": "topUp",
      "outputs": [],
      "stateMutability": "payable",
      "type": "function"
    },
    {
      "inputs": [
        {
          "internalType": "address",
          "name": "",
          "type": "address"
        },
        {
          "internalType": "uint256",
          "name": "",
          "type": "uint256"
        }
      ],
      "name": "userBets",
      "outputs": [
        {
          "internalType": "string",
          "name": "",
          "type": "string"
        }
      ],
      "stateMutability": "view",
      "type": "function"
    },
    {
      "inputs": [
        {
          "internalType": "address",
          "name": "",
          "type": "address"
        },
        {
          "internalType": "uint256",
          "name": "",
          "type": "uint256"
        }
      ],
      "name": "userGuesses",
      "outputs": [
        {
          "internalType": "uint256",
          "name": "guessId",
          "type": "uint256"
        },
        {
          "internalType": "string",
          "name": "betId",
          "type": "string"
        }
      ],
      "stateMutability": "view",
      "type": "function"
    },
    {
      "inputs": [
        {
          "internalType": "int256",
          "name": "answer",
          "type": "int256"
        },
        {
          "internalType": "int256",
          "name": "nonce",
          "type": "int256"
        }
      ],
      "name": "valueToBinary",
      "outputs": [
        {
          "internalType": "bytes",
          "name": "",
          "type": "bytes"
        }
      ],
      "stateMutability": "pure",
      "type": "function"
    },
    {
      "inputs": [
        {
          "internalType": "string",
          "name": "betId",
          "type": "string"
        },
        {
          "internalType": "address",
          "name": "guesser",
          "type": "address"
        }
      ],
      "name": "whitelistAddress",
      "outputs": [],
      "stateMutability": "nonpayable",
      "type": "function"
    }
  ],
  "bytecode": "0x60806040523480156200001157600080fd5b50604051620047cf380380620047cf83398101604081905262000034916200005f565b6001600081905580546001600160a01b0319166001600160a01b039290921691909117905562000091565b6000602082840312156200007257600080fd5b81516001600160a01b03811681146200008a57600080fd5b9392505050565b61472e80620000a16000396000f3fe6080604052600436106101755760003560e01c806387d44557116100cb578063acf694a71161007f578063c7da4a1a11610059578063c7da4a1a146103fb578063d8b322641461041b578063f473375f1461044857600080fd5b8063acf694a71461017a578063c678da52146103a0578063c78aa48d146103ce57600080fd5b8063970d593d116100b0578063970d593d1461033f5780639ee4e3eb1461036d578063a82366cc1461038d57600080fd5b806387d445571461030c5780639662901a1461032c57600080fd5b80632d754dda1161012d5780636a74d6c6116101075780636a74d6c6146102925780637f68d5ba146102bf5780638068aa68146102ec57600080fd5b80632d754dda146102255780633a77383f1461024557806349e4622c1461027257600080fd5b80631b6ea2751161015e5780631b6ea275146101c55780631c099e46146101d85780632d56657d146101f857600080fd5b8063078d16001461017a57806309cc5551146101b0575b600080fd5b34801561018657600080fd5b5061019a610195366004613843565b610468565b6040516101a79190613a53565b60405180910390f35b6101c36101be366004613aaf565b610518565b005b6101c36101d3366004613bf7565b61081e565b3480156101e457600080fd5b506101c36101f3366004613d76565b610992565b34801561020457600080fd5b50610218610213366004613dc8565b610c49565b6040516101a79190613de5565b34801561023157600080fd5b50610218610240366004613dc8565b610df8565b34801561025157600080fd5b50610265610260366004613843565b610f8a565b6040516101a79190613e47565b34801561027e57600080fd5b5061026561028d366004613843565b61100f565b34801561029e57600080fd5b506102b26102ad366004613e5a565b611102565b6040516101a79190613e9f565b3480156102cb57600080fd5b506102df6102da366004613843565b611254565b6040516101a79190613eed565b3480156102f857600080fd5b50610265610307366004613f3f565b611359565b34801561031857600080fd5b50610265610327366004613f6b565b611412565b6101c361033a366004613f8d565b61143b565b34801561034b57600080fd5b5061035f61035a366004613f6b565b6115ac565b6040519081526020016101a7565b34801561037957600080fd5b50610218610388366004613dc8565b6115d2565b6102b261039b3660046140b8565b611764565b3480156103ac57600080fd5b506103c06103bb366004613f3f565b611ed5565b6040516101a7929190614104565b3480156103da57600080fd5b506103ee6103e9366004613dc8565b611f9e565b6040516101a7919061411d565b34801561040757600080fd5b506101c3610416366004613aaf565b6120af565b34801561042757600080fd5b5061043b610436366004613843565b61236c565b6040516101a79190614191565b34801561045457600080fd5b506101c3610463366004614213565b612495565b6104706136f5565b816003816040516104819190614264565b908152604051908190036020019020805461049b90614280565b905060001415816040516020016104b291906142b4565b604051602081830303815290604052906104e85760405162461bcd60e51b81526004016104df9190613e47565b60405180910390fd5b5061050f6003846040516104fc9190614264565b9081526020016040518091039020612aae565b91505b50919050565b81818080601f016020809104026020016040519081016040528093929190818152602001838380828437600092019190915250506040516003925061055f91508390614264565b908152604051908190036020019020805461057990614280565b9050600014158160405160200161059091906142b4565b604051602081830303815290604052906105bd5760405162461bcd60e51b81526004016104df9190613e47565b5082828080601f016020809104026020016040519081016040528093929190818152602001838380828437600092019190915250506040516003925061060591508390614264565b908152602001604051809103902060090154421061065d5760405162461bcd60e51b81526020600482015260156024820152742132ba1034b9903737903637b733b2b91037b832b760591b60448201526064016104df565b600160038260405161066f9190614264565b908152604051908190036020019020600c015460ff166004811115610696576106966138d0565b146106db5760405162461bcd60e51b81526020600482015260156024820152742132ba1034b9903737903637b733b2b91037b832b760591b60448201526064016104df565b83838080601f016020809104026020016040519081016040528093929190818152602001838380828437600092019190915250506040516003925061072291508390614264565b90815260405190819003602001902060030154336001600160a01b039091161461078e5760405162461bcd60e51b815260206004820152601860248201527f596f75206e65656420746f20626520746865206f776e6572000000000000000060448201526064016104df565b60013410156107df5760405162461bcd60e51b815260206004820152601b60248201527f596f75206e65656420746f2073656e6420736f6d65206d6f6e6579000000000060448201526064016104df565b34600386866040516107f29291906142f9565b90815260200160405180910390206007016000828254610812919061431f565b90915550505050505050565b4285101561086e5760405162461bcd60e51b815260206004820152601760248201527f646561646c696e6520616c72656164792070617373656400000000000000000060448201526064016104df565b8484101561087b57600080fd5b67016345785d8a000086116108e35760405162461bcd60e51b815260206004820152602860248201527f596f757220636f75727365206e6565647320746f20626520686967686572207460448201526768616e203165313760c01b60648201526084016104df565b6001546040517f6c7841b50000000000000000000000000000000000000000000000000000000081526001600160a01b0390911690636c7841b590610932908f908f908d908d9060040161435b565b600060405180830381600087803b15801561094c57600080fd5b505af1158015610960573d6000803e3d6000fd5b505050506109728c8c87876000612d80565b6109848c8c8c8c33348c8a8a8a612eae565b505050505050505050505050565b816003816040516109a39190614264565b90815260405190819003602001902080546109bd90614280565b905060001415816040516020016109d491906142b4565b60405160208183030381529060405290610a015760405162461bcd60e51b81526004016104df9190613e47565b5082600381604051610a139190614264565b9081526020016040518091039020600901544210610a6b5760405162461bcd60e51b81526020600482015260156024820152742132ba1034b9903737903637b733b2b91037b832b760591b60448201526064016104df565b6001600382604051610a7d9190614264565b908152604051908190036020019020600c015460ff166004811115610aa457610aa46138d0565b14610ae95760405162461bcd60e51b81526020600482015260156024820152742132ba1034b9903737903637b733b2b91037b832b760591b60448201526064016104df565b6000600385604051610afb9190614264565b908152604051908190036020019020600c81015490915060ff61010090910416610b8d5760405162461bcd60e51b815260206004820152603760248201527f596f752063616e6e6f742061646420746f2077686974656c697374206966207460448201527f6865726520776173206e6f74206f6e65206265666f726500000000000000000060648201526084016104df565b6001600160a01b0384166000908152600d8201602052604090205460ff1615610c1d5760405162461bcd60e51b8152602060048201526024808201527f4775657373657220686173206265656e2077686974656c6973746520616c726560448201527f6164792e0000000000000000000000000000000000000000000000000000000060648201526084016104df565b6001600160a01b039093166000908152600d909301602052505060409020805460ff1916600117905550565b6001600160a01b0381166000908152600260209081526040808320805482518185028101850190935280835260609493849084015b82821015610d2a578382906000526020600020018054610c9d90614280565b80601f0160208091040260200160405190810160405280929190818152602001828054610cc990614280565b8015610d165780601f10610ceb57610100808354040283529160200191610d16565b820191906000526020600020905b815481529060010190602001808311610cf957829003601f168201915b505050505081526020019060010190610c7e565b5050505090506000815167ffffffffffffffff811115610d4c57610d4c61377e565b604051908082528060200260200182016040528015610d8557816020015b610d726136f5565b815260200190600190039081610d6a5790505b50905060005b8151811015610df057610dc06003848381518110610dab57610dab614387565b60200260200101516040516104fc9190614264565b828281518110610dd257610dd2614387565b60200260200101819052508080610de89061439d565b915050610d8b565b509392505050565b6001600160a01b0381166000908152600260209081526040808320805482518185028101850190935280835260609493849084015b82821015610ed9578382906000526020600020018054610e4c90614280565b80601f0160208091040260200160405190810160405280929190818152602001828054610e7890614280565b8015610ec55780601f10610e9a57610100808354040283529160200191610ec5565b820191906000526020600020905b815481529060010190602001808311610ea857829003601f168201915b505050505081526020019060010190610e2d565b5050505090506000815167ffffffffffffffff811115610efb57610efb61377e565b604051908082528060200260200182016040528015610f3457816020015b610f216136f5565b815260200190600190039081610f195790505b50905060005b8151811015610df057610f5a6003848381518110610dab57610dab614387565b828281518110610f6c57610f6c614387565b60200260200101819052508080610f829061439d565b915050610f3a565b60015460405163407288c360e11b81526060916000916001600160a01b03909116906380e5118690610fc0908690600401613e47565b600060405180830381865afa158015610fdd573d6000803e3d6000fd5b505050506040513d6000823e601f3d908101601f1916820160405261100591908101906143e6565b9695505050505050565b6060816003816040516110229190614264565b908152604051908190036020019020805461103c90614280565b9050600014158160405160200161105391906142b4565b604051602081830303815290604052906110805760405162461bcd60e51b81526004016104df9190613e47565b5060015460405163407288c360e11b81526000916001600160a01b0316906380e51186906110b2908790600401613e47565b600060405180830381865afa1580156110cf573d6000803e3d6000fd5b505050506040513d6000823e601f3d908101601f191682016040526110f791908101906143e6565b979650505050505050565b6111466040518060c001604052806000815260200160006001600160a01b031681526020016000815260200160001515815260200160008152602001600081525090565b826003816040516111579190614264565b908152604051908190036020019020805461117190614280565b9050600014158160405160200161118891906142b4565b604051602081830303815290604052906111b55760405162461bcd60e51b81526004016104df9190613e47565b506003846040516111c69190614264565b9081526020016040518091039020600f0183815481106111e8576111e8614387565b60009182526020918290206040805160c08101825260069093029091018054835260018101546001600160a01b031693830193909352600283015490820152600382015460ff16151560608201526004820154608082015260059091015460a082015291505092915050565b6060816003816040516112679190614264565b908152604051908190036020019020805461128190614280565b9050600014158160405160200161129891906142b4565b604051602081830303815290604052906112c55760405162461bcd60e51b81526004016104df9190613e47565b506003836040516112d69190614264565b9081526020016040518091039020601001805480602002602001604051908101604052809291908181526020016000905b8282101561134d57838290600052602060002090600202016040518060400160405290816000820154815260200160018201548152505081526020019060010190611307565b50505050915050919050565b6002602052816000526040600020818154811061137557600080fd5b9060005260206000200160009150915050805461139190614280565b80601f01602080910402602001604051908101604052809291908181526020018280546113bd90614280565b801561140a5780601f106113df5761010080835404028352916020019161140a565b820191906000526020600020905b8154815290600101906020018083116113ed57829003601f168201915b505050505081565b604080516020810184905280820183905281518082038301815260609091019091525b92915050565b4285101561148b5760405162461bcd60e51b815260206004820152601760248201527f646561646c696e6520616c72656164792070617373656400000000000000000060448201526064016104df565b8484101561149857600080fd5b67016345785d8a000086116115005760405162461bcd60e51b815260206004820152602860248201527f596f757220636f75727365206e6565647320746f20626520686967686572207460448201526768616e203165313760c01b60648201526084016104df565b6001546040517f91a81bc30000000000000000000000000000000000000000000000000000000081526001600160a01b03909116906391a81bc39061154d908e908e908c90600401614492565b600060405180830381600087803b15801561156757600080fd5b505af115801561157b573d6000803e3d6000fd5b5050505061158d8b8b87876000612d80565b61159f8b8b8b8b33348c8a8a8a612eae565b5050505050505050505050565b600067016345785d8a00006115c183856144b6565b6115cb91906144cd565b9392505050565b6001600160a01b0381166000908152600260209081526040808320805482518185028101850190935280835260609493849084015b828210156116b357838290600052602060002001805461162690614280565b80601f016020809104026020016040519081016040528092919081815260200182805461165290614280565b801561169f5780601f106116745761010080835404028352916020019161169f565b820191906000526020600020905b81548152906001019060200180831161168257829003601f168201915b505050505081526020019060010190611607565b5050505090506000815167ffffffffffffffff8111156116d5576116d561377e565b60405190808252806020026020018201604052801561170e57816020015b6116fb6136f5565b8152602001906001900390816116f35790505b50905060005b8151811015610df0576117346003848381518110610dab57610dab614387565b82828151811061174657611746614387565b6020026020010181905250808061175c9061439d565b915050611714565b6117a86040518060c001604052806000815260200160006001600160a01b031681526020016000815260200160001515815260200160008152602001600081525090565b60013410156117f95760405162461bcd60e51b815260206004820152601b60248201527f596f75206e65656420746f2073656e6420736f6d65206d6f6e6579000000000060448201526064016104df565b83838080601f016020809104026020016040519081016040528093929190818152602001838380828437600092019190915250506040516003925061184091508390614264565b908152604051908190036020019020805461185a90614280565b9050600014158160405160200161187191906142b4565b6040516020818303038152906040529061189e5760405162461bcd60e51b81526004016104df9190613e47565b5084848080601f01602080910402602001604051908101604052809392919081815260200183838082843760009201919091525050604051600392506118e691508390614264565b908152602001604051809103902060090154421061193e5760405162461bcd60e51b81526020600482015260156024820152742132ba1034b9903737903637b733b2b91037b832b760591b60448201526064016104df565b60016003826040516119509190614264565b908152604051908190036020019020600c015460ff166004811115611977576119776138d0565b146119bc5760405162461bcd60e51b81526020600482015260156024820152742132ba1034b9903737903637b733b2b91037b832b760591b60448201526064016104df565b85858080601f0160208091040260200160405190810160405280939291908181526020018383808284376000920191909152505060405160039250611a0391508390614264565b908152604051908190036020019020600c015460ff610100909104161580611a5c5750600381604051611a369190614264565b9081526040805160209281900383019020336000908152600d90910190925290205460ff165b611ace5760405162461bcd60e51b815260206004820152603c60248201527f43726561746572206f66207468652062657420646964206e6f742077616e742060448201527f796f7520746f2074616b65207061727420696e2074686973206265740000000060648201526084016104df565b86868080601f0160208091040260200160405190810160405280939291908181526020018383808284376000920191909152505060405160039250611b1591508390614264565b9081526040805160209281900383019020336000908152600e90910190925290205460ff1615611b875760405162461bcd60e51b815260206004820152601e60248201527f596f75207765726520626c61636b6c697374656420627920617574686f72000060448201526064016104df565b600060038989604051611b9b9291906142f9565b90815260405190819003602001902060038101549091506001600160a01b03163303611c095760405162461bcd60e51b815260206004820152601f60248201527f596f752063616e6e6f7420626574206f6e20796f7572206f776e204265742e0060448201526064016104df565b8060070154611c2e348360060154611c21919061431f565b61035a8460080154613432565b1115611cc85760405162461bcd60e51b815260206004820152605360248201527f5468657265206973206e6f7420656e6f756768206d6f6e657920696e2061207660448201527f61756c7420746f2070617920796f7520696620796f752077696e2e205468652060648201527f6d6f737420796f752063616e2062657420697300000000000000000000000000608482015260a4016104df565b600f8101546040805160c081018252828152336020808301919091523482840152600060608301819052608083018c905260a083018190528b815260128601909152919091205460ff16611d8057601383015460ff1615611d805760405162461bcd60e51b815260206004820152602c60248201527f42657474696e67206973207265737472696374656420746f206f6e6c7920676960448201526b3b32b71037b83a34b7b7399760a11b60648201526084016104df565b611d8a8382613446565b34836006016000828254611d9e919061431f565b9091555050600f83018054600180820183556000928352602080842085516006909402019283558481015191830180547fffffffffffffffffffffffff0000000000000000000000000000000000000000166001600160a01b03909316929092179091556040808501516002840155606085015160038401805460ff1916911515919091179055608085015160048085019190915560a08601516005909401939093553384529181529181902081518083018352845181528251601f8f018590048502810185019093528d835290929091828201918f908f90819084018382808284376000920182905250939094525050835460018181018655948252602091829020845160029092020190815590830151929390929083019150611ec3908261453e565b50919c9b505050505050505050505050565b60046020528160005260406000208181548110611ef157600080fd5b906000526020600020906002020160009150915050806000015490806001018054611f1b90614280565b80601f0160208091040260200160405190810160405280929190818152602001828054611f4790614280565b8015611f945780601f10611f6957610100808354040283529160200191611f94565b820191906000526020600020905b815481529060010190602001808311611f7757829003601f168201915b5050505050905082565b6001600160a01b0381166000908152600460209081526040808320805482518185028101850190935280835260609492939192909184015b828210156120a457838290600052602060002090600202016040518060400160405290816000820154815260200160018201805461201390614280565b80601f016020809104026020016040519081016040528092919081815260200182805461203f90614280565b801561208c5780601f106120615761010080835404028352916020019161208c565b820191906000526020600020905b81548152906001019060200180831161206f57829003601f168201915b50505050508152505081526020019060010190611fd6565b505050509050919050565b6002600054036121015760405162461bcd60e51b815260206004820152601f60248201527f5265656e7472616e637947756172643a207265656e7472616e742063616c6c0060448201526064016104df565b6002600055604080516020601f8401819004810282018101909252828152908390839081908401838280828437600092019190915250506040516003925061214b91508390614264565b908152604051908190036020019020805461216590614280565b9050600014158160405160200161217c91906142b4565b604051602081830303815290604052906121a95760405162461bcd60e51b81526004016104df9190613e47565b5082828080601f016020809104026020016040519081016040528093929190818152602001838380828437600092019190915250600192506121e9915050565b6003826040516121f99190614264565b908152604051908190036020019020600c015460ff166004811115612220576122206138d0565b146122655760405162461bcd60e51b81526020600482015260156024820152742132ba1034b9903737903637b733b2b91037b832b760591b60448201526064016104df565b83838080601f01602080910402602001604051908101604052809392919081815260200183838082843760009201919091525050604051600392506122ac91508390614264565b9081526020016040518091039020600a015442116123325760405162461bcd60e51b815260206004820152603660248201527f497420697320746f6f20736f6f6e2c20616e737765617252657665616c44656160448201527f646c696e6520776173206e6f7420726561636865642e0000000000000000000060648201526084016104df565b6000600386866040516123469291906142f9565b9081526020016040518091039020905061235f8161359a565b5050600160005550505050565b60608160038160405161237f9190614264565b908152604051908190036020019020805461239990614280565b905060001415816040516020016123b091906142b4565b604051602081830303815290604052906123dd5760405162461bcd60e51b81526004016104df9190613e47565b506003836040516123ee9190614264565b9081526020016040518091039020600f01805480602002602001604051908101604052809291908181526020016000905b8282101561134d5760008481526020908190206040805160c08101825260068602909201805483526001808201546001600160a01b031684860152600282015492840192909252600381015460ff1615156060840152600481015460808401526005015460a0830152908352909201910161241f565b6002600054036124e75760405162461bcd60e51b815260206004820152601f60248201527f5265656e7472616e637947756172643a207265656e7472616e742063616c6c0060448201526064016104df565b6002600055604080516020601f8601819004810282018101909252848152908590859081908401838280828437600092019190915250506040516003925061253191508390614264565b908152604051908190036020019020805461254b90614280565b9050600014158160405160200161256291906142b4565b6040516020818303038152906040529061258f5760405162461bcd60e51b81526004016104df9190613e47565b5084848080601f01602080910402602001604051908101604052809392919081815260200183838082843760009201919091525050604051600392506125d791508390614264565b908152602001604051809103902060090154421161265d5760405162461bcd60e51b815260206004820152602960248201527f497420697320746f6f20736f6f6e2c20646561646c696e6520776173206e6f7460448201527f20726561636865642e000000000000000000000000000000000000000000000060648201526084016104df565b60038160405161266d9190614264565b9081526020016040518091039020600a01544211156126ce5760405162461bcd60e51b815260206004820152600f60248201527f497420697320746f6f206c6174652e000000000000000000000000000000000060448201526064016104df565b85858080601f016020809104026020016040519081016040528093929190818152602001838380828437600092019190915250506040516003925061271591508390614264565b90815260405190819003602001902060030154336001600160a01b03909116146127815760405162461bcd60e51b815260206004820152601860248201527f596f75206e65656420746f20626520746865206f776e6572000000000000000060448201526064016104df565b86868080601f016020809104026020016040519081016040528093929190818152602001838380828437600092019190915250600192506127c0915050565b6003826040516127d09190614264565b908152604051908190036020019020600c015460ff1660048111156127f7576127f76138d0565b1461283c5760405162461bcd60e51b81526020600482015260156024820152742132ba1034b9903737903637b733b2b91037b832b760591b60448201526064016104df565b6000600389896040516128509291906142f9565b9081526040519081900360200190206001549091506001600160a01b031663ca52d5168a8a61287f8b8b611412565b6040518463ffffffff1660e01b815260040161289d939291906145fe565b600060405180830381600087803b1580156128b757600080fd5b505af11580156128cb573d6000803e3d6000fd5b505050506004810187905560058101869055601381015460ff1680156129025750600087815260128201602052604090205460ff16155b15612916576129108161359a565b50612a9f565b6000805b600f830154811015612a3057600083600f01828154811061293d5761293d614387565b60009182526020918290206040805160c08101825260069093029091018054835260018101546001600160a01b031693830193909352600283015490820152600382015460ff161515606082015260048201546080820181905260059092015460a082015291508a9003612a165780602001516001600160a01b03166108fc6129ce836040015187600801546115ac565b6040518115909202916000818181858888f193505050501580156129f6573d6000803e3d6000fd5b50612a09816040015185600801546115ac565b612a13908461431f565b92505b600160609091015280612a288161439d565b91505061291a565b506003820154600683015460078401546001600160a01b03909216916108fc918491612a5c919061431f565b612a669190614624565b6040518115909202916000818181858888f19350505050158015612a8e573d6000803e3d6000fd5b5050600c01805460ff191660041790555b50506001600055505050505050565b612ab66136f5565b604051806101c00160405280836000018054612ad190614280565b80601f0160208091040260200160405190810160405280929190818152602001828054612afd90614280565b8015612b4a5780601f10612b1f57610100808354040283529160200191612b4a565b820191906000526020600020905b815481529060010190602001808311612b2d57829003601f168201915b505050918352505060038401546001600160a01b03166020820152600484015460408201526006840154606082015260078401546080820152600884015460a082015260018401805460c090920191612ba290614280565b80601f0160208091040260200160405190810160405280929190818152602001828054612bce90614280565b8015612c1b5780601f10612bf057610100808354040283529160200191612c1b565b820191906000526020600020905b815481529060010190602001808311612bfe57829003601f168201915b50505050508152602001836002018054612c3490614280565b80601f0160208091040260200160405190810160405280929190818152602001828054612c6090614280565b8015612cad5780601f10612c8257610100808354040283529160200191612cad565b820191906000526020600020905b815481529060010190602001808311612c9057829003601f168201915b505050918352505060098401546020820152600a8401546040820152600b8401546060820152600c84015460809091019060ff166004811115612cf257612cf26138d0565b815260200183601001805480602002602001604051908101604052809291908181526020016000905b82821015612d6157838290600052602060002090600202016040518060400160405290816000820154815260200160018201548152505081526020019060010190612d1b565b5050509082525060139093015460ff1615156020909301929092525090565b84848080601f0160208091040260200160405190810160405280939291908181526020018383808284376000920191909152505060405160039250612dc791508390614264565b9081526040519081900360200190208054612de190614280565b159050612e305760405162461bcd60e51b815260206004820152601260248201527f42657420616c726561647920657869737473000000000000000000000000000060448201526064016104df565b8360038787604051612e439291906142f9565b9081526020016040518091039020600901819055508260038787604051612e6b9291906142f9565b9081526020016040518091039020600a01819055508160038787604051612e939291906142f9565b908152604051908190036020019020600b0155505050505050565b89898080601f0160208091040260200160405190810160405280939291908181526020018383808284376000920191909152505060405160039250612ef591508390614264565b9081526040519081900360200190208054612f0f90614280565b159050612f5e5760405162461bcd60e51b815260206004820152601260248201527f42657420616c726561647920657869737473000000000000000000000000000060448201526064016104df565b8a8a60038d8d604051612f729291906142f9565b90815260405190819003602001902091612f8d919083614637565b508860038c8c604051612fa19291906142f9565b90815260200160405180910390206001019081612fbe919061453e565b508760038c8c604051612fd29291906142f9565b90815260200160405180910390206002019081612fef919061453e565b508660038c8c6040516130039291906142f9565b908152602001604051809103902060030160006101000a8154816001600160a01b0302191690836001600160a01b03160217905550600060038c8c60405161304c9291906142f9565b9081526020016040518091039020600601819055508560038c8c6040516130749291906142f9565b9081526020016040518091039020600701819055508460038c8c60405161309c9291906142f9565b908152602001604051809103902060080181905550600160038c8c6040516130c59291906142f9565b908152604051908190036020019020600c01805460ff191660018360048111156130f1576130f16138d0565b02179055508351156131c457600160038c8c6040516131119291906142f9565b908152604051908190036020019020600c0180549115156101000261ff001990921691909117905560005b84518110156131c257600160038d8d6040516131599291906142f9565b9081526020016040518091039020600d01600087848151811061317e5761317e614387565b6020908102919091018101516001600160a01b03168252810191909152604001600020805460ff1916911515919091179055806131ba8161439d565b91505061313c565b505b8251156132565760005b835181101561325457600160038d8d6040516131eb9291906142f9565b9081526020016040518091039020600e01600086848151811061321057613210614387565b6020908102919091018101516001600160a01b03168252810191909152604001600020805460ff19169115159190911790558061324c8161439d565b9150506131ce565b505b81511561340857600160038c8c6040516132719291906142f9565b908152604051908190036020019020601301805491151560ff1990921691909117905560005b825181101561340657600160038d8d6040516132b49291906142f9565b908152602001604051809103902060120160008584815181106132d9576132d9614387565b6020026020010151815260200190815260200160002060006101000a81548160ff02191690831515021790555060038c8c6040516133189291906142f9565b908152604051908190036020018120601001549060039061333c908f908f906142f9565b9081526020016040518091039020601101600085848151811061336157613361614387565b602002602001015181526020019081526020016000208190555060038c8c60405161338d9291906142f9565b908152602001604051809103902060100160405180604001604052808584815181106133bb576133bb614387565b602090810291909101810151825260009181018290528354600181810186559483529181902083516002909302019182559190910151910155806133fe8161439d565b915050613297565b505b336000908152600260209081526040822080546001810182559083529120016109848b8d83614637565b600061143567016345785d8a000083614624565b6080810151600090815260128301602052604090205460ff1661353e57601382015460ff16156134cd5760405162461bcd60e51b815260206004820152602c60248201527f42657474696e67206973207265737472696374656420746f206f6e6c7920676960448201526b3b32b71037b83a34b7b7399760a11b60648201526084016104df565b60808101805160009081526012840160209081526040808320805460ff19166001908117909155601087018054865186526011909801845282852088905582518084018452955186529190950151848301908152868601825590835291209151600290940290910192835551910155565b608081015160009081526011830160205260409081902054908201516010840180548390811061357057613570614387565b90600052602060002090600202016001016000828254613590919061431f565b9091555050505050565b60005b600f82015481101561367557600082600f0182815481106135c0576135c0614387565b60009182526020918290206040805160c08101825260069093029091018054835260018101546001600160a01b03169383018490526002810154918301829052600381015460ff1615156060840152600481015460808401526005015460a083015260088601549193506108fc9161363891906115ac565b6040518115909202916000818181858888f19350505050158015613660573d6000803e3d6000fd5b5050808061366d9061439d565b91505061359d565b506003810154600682015460088301546001600160a01b03909216916108fc9161369e916115ac565b836006015484600701546136b2919061431f565b6136bc9190614624565b6040518115909202916000818181858888f193505050501580156136e4573d6000803e3d6000fd5b50600c01805460ff19166004179055565b604051806101c001604052806060815260200160006001600160a01b031681526020016000815260200160008152602001600081526020016000815260200160608152602001606081526020016000815260200160008152602001600081526020016000600481111561376a5761376a6138d0565b815260606020820152600060409091015290565b634e487b7160e01b600052604160045260246000fd5b604051601f8201601f1916810167ffffffffffffffff811182821017156137bd576137bd61377e565b604052919050565b600067ffffffffffffffff8211156137df576137df61377e565b50601f01601f191660200190565b600082601f8301126137fe57600080fd5b813561381161380c826137c5565b613794565b81815284602083860101111561382657600080fd5b816020850160208301376000918101602001919091529392505050565b60006020828403121561385557600080fd5b813567ffffffffffffffff81111561386c57600080fd5b613878848285016137ed565b949350505050565b60005b8381101561389b578181015183820152602001613883565b50506000910152565b600081518084526138bc816020860160208601613880565b601f01601f19169290920160200192915050565b634e487b7160e01b600052602160045260246000fd5b6005811061390457634e487b7160e01b600052602160045260246000fd5b9052565b600081518084526020808501945080840160005b8381101561394657815180518852602090810151908801526040870196509082019060010161391c565b509495945050505050565b60006101c08251818552613967828601826138a4565b915050602083015161398460208601826001600160a01b03169052565b5060408301516040850152606083015160608501526080830151608085015260a083015160a085015260c083015184820360c08601526139c482826138a4565b91505060e083015184820360e08601526139de82826138a4565b610100858101519087015261012080860151908701526101408086015190870152610160808601519193509150613a17828701826138e6565b50506101808084015185830382870152613a318382613908565b925050506101a080840151613a498287018215159052565b5090949350505050565b6020815260006115cb6020830184613951565b60008083601f840112613a7857600080fd5b50813567ffffffffffffffff811115613a9057600080fd5b602083019150836020828501011115613aa857600080fd5b9250929050565b60008060208385031215613ac257600080fd5b823567ffffffffffffffff811115613ad957600080fd5b613ae585828601613a66565b90969095509350505050565b600067ffffffffffffffff821115613b0b57613b0b61377e565b5060051b60200190565b6001600160a01b0381168114613b2a57600080fd5b50565b600082601f830112613b3e57600080fd5b81356020613b4e61380c83613af1565b82815260059290921b84018101918181019086841115613b6d57600080fd5b8286015b84811015613b91578035613b8481613b15565b8352918301918301613b71565b509695505050505050565b600082601f830112613bad57600080fd5b81356020613bbd61380c83613af1565b82815260059290921b84018101918181019086841115613bdc57600080fd5b8286015b84811015613b915780358352918301918301613be0565b6000806000806000806000806000806000806101608d8f031215613c1a57600080fd5b67ffffffffffffffff8d351115613c3057600080fd5b613c3d8e8e358f01613a66565b909c509a5067ffffffffffffffff60208e01351115613c5b57600080fd5b613c6b8e60208f01358f016137ed565b995067ffffffffffffffff60408e01351115613c8657600080fd5b613c968e60408f01358f016137ed565b985060608d0135975067ffffffffffffffff60808e01351115613cb857600080fd5b613cc88e60808f01358f016137ed565b965060a08d0135955060c08d0135945060e08d0135935067ffffffffffffffff6101008e01351115613cf957600080fd5b613d0a8e6101008f01358f01613b2d565b925067ffffffffffffffff6101208e01351115613d2657600080fd5b613d378e6101208f01358f01613b2d565b915067ffffffffffffffff6101408e01351115613d5357600080fd5b613d648e6101408f01358f01613b9c565b90509295989b509295989b509295989b565b60008060408385031215613d8957600080fd5b823567ffffffffffffffff811115613da057600080fd5b613dac858286016137ed565b9250506020830135613dbd81613b15565b809150509250929050565b600060208284031215613dda57600080fd5b81356115cb81613b15565b6000602080830181845280855180835260408601915060408160051b870101925083870160005b82811015613e3a57603f19888603018452613e28858351613951565b94509285019290850190600101613e0c565b5092979650505050505050565b6020815260006115cb60208301846138a4565b60008060408385031215613e6d57600080fd5b823567ffffffffffffffff811115613e8457600080fd5b613e90858286016137ed565b95602094909401359450505050565b60c081016114358284805182526001600160a01b036020820151166020830152604081015160408301526060810151151560608301526080810151608083015260a081015160a08301525050565b6020808252825182820181905260009190848201906040850190845b81811015613f33578351805184526020908101519084015260408301938501939250600101613f09565b50909695505050505050565b60008060408385031215613f5257600080fd5b8235613f5d81613b15565b946020939093013593505050565b60008060408385031215613f7e57600080fd5b50508035926020909101359150565b60008060008060008060008060008060006101408c8e031215613faf57600080fd5b67ffffffffffffffff808d351115613fc657600080fd5b613fd38e8e358f01613a66565b909c509a5060208d0135811015613fe957600080fd5b613ff98e60208f01358f016137ed565b99508060408e0135111561400c57600080fd5b61401c8e60408f01358f016137ed565b985060608d0135975060808d0135965060a08d0135955060c08d013594508060e08e0135111561404b57600080fd5b61405b8e60e08f01358f01613b2d565b9350806101008e0135111561406f57600080fd5b6140808e6101008f01358f01613b2d565b9250806101208e0135111561409457600080fd5b506140a68d6101208e01358e01613b9c565b90509295989b509295989b9093969950565b6000806000604084860312156140cd57600080fd5b833567ffffffffffffffff8111156140e457600080fd5b6140f086828701613a66565b909790965060209590950135949350505050565b82815260406020820152600061387860408301846138a4565b60006020808301818452808551808352604092508286019150828160051b87010184880160005b8381101561418357888303603f19018552815180518452870151878401879052614170878501826138a4565b9588019593505090860190600101614144565b509098975050505050505050565b6020808252825182820181905260009190848201906040850190845b81811015613f3357614200838551805182526001600160a01b036020820151166020830152604081015160408301526060810151151560608301526080810151608083015260a081015160a08301525050565b9284019260c092909201916001016141ad565b6000806000806060858703121561422957600080fd5b843567ffffffffffffffff81111561424057600080fd5b61424c87828801613a66565b90989097506020870135966040013595509350505050565b60008251614276818460208701613880565b9190910192915050565b600181811c9082168061429457607f821691505b60208210810361051257634e487b7160e01b600052602260045260246000fd5b7f4261736542657420646f6573206e6f742065786973743a2000000000000000008152600082516142ec816018850160208701613880565b9190910160180192915050565b8183823760009101908152919050565b634e487b7160e01b600052601160045260246000fd5b8082018082111561143557611435614309565b81835281816020850137506000828201602090810191909152601f909101601f19169091010190565b60608152600061436f606083018688614332565b84602084015282810360408401526110f781856138a4565b634e487b7160e01b600052603260045260246000fd5b6000600182016143af576143af614309565b5060010190565b60006143c461380c846137c5565b90508281528383830111156143d857600080fd5b6115cb836020830184613880565b600080600080608085870312156143fc57600080fd5b845167ffffffffffffffff8082111561441457600080fd5b818701915087601f83011261442857600080fd5b614437888351602085016143b6565b95506020870151915061444982613b15565b6040870151606088015192955093508082111561446557600080fd5b508501601f8101871361447757600080fd5b614486878251602084016143b6565b91505092959194509250565b6040815260006144a6604083018587614332565b9050826020830152949350505050565b808202811582820484141761143557611435614309565b6000826144ea57634e487b7160e01b600052601260045260246000fd5b500490565b601f82111561453957600081815260208120601f850160051c810160208610156145165750805b601f850160051c820191505b8181101561453557828155600101614522565b5050505b505050565b815167ffffffffffffffff8111156145585761455861377e565b61456c816145668454614280565b846144ef565b602080601f8311600181146145a157600084156145895750858301515b600019600386901b1c1916600185901b178555614535565b600085815260208120601f198616915b828110156145d0578886015182559484019460019091019084016145b1565b50858210156145ee5787850151600019600388901b60f8161c191681555b5050505050600190811b01905550565b604081526000614612604083018587614332565b828103602084015261100581856138a4565b8181038181111561143557611435614309565b67ffffffffffffffff83111561464f5761464f61377e565b6146638361465d8354614280565b836144ef565b6000601f841160018114614697576000851561467f5750838201355b600019600387901b1c1916600186901b1783556146f1565b600083815260209020601f19861690835b828110156146c857868501358255602094850194600190920191016146a8565b50868210156146e55760001960f88860031b161c19848701351681555b505060018560011b0183555b505050505056fea264697066735822122072b0bf77e4ad34b17d88cd0649b4d341b49b6515c87568ab5e360a78900cafb264736f6c63430008110033",
  "linkReferences": {},
  "deployedLinkReferences": {}
}