{"chain/contracts/BetMarket.sol":{"BetMarket":{"abi":[{"inputs":[{"internalType":"string","name":"betId","type":"string"},{"internalType":"uint256","name":"orderId","type":"uint256"}],"name":"cancelOrder","outputs":[],"stateMutability":"nonpayable","type":"function"},{"inputs":[{"internalType":"string","name":"id","type":"string"},{"internalType":"string","name":"name","type":"string"},{"internalType":"string","name":"description","type":"string"},{"internalType":"address payable","name":"arbitrator","type":"address"},{"internalType":"string[]","name":"options","type":"string[]"},{"internalType":"uint256","name":"bettingDeadline","type":"uint256"},{"internalType":"uint256","name":"answerRevealDeadline","type":"uint256"}],"name":"createBet","outputs":[],"stateMutability":"payable","type":"function"},{"inputs":[{"internalType":"string","name":"betId","type":"string"},{"internalType":"uint256","name":"optionId","type":"uint256"},{"internalType":"uint256","name":"amountOTM","type":"uint256"}],"name":"createBuyOrder","outputs":[],"stateMutability":"payable","type":"function"},{"inputs":[{"internalType":"string","name":"betId","type":"string"},{"internalType":"uint256","name":"optionId","type":"uint256"},{"internalType":"uint256","name":"amountOTM","type":"uint256"},{"internalType":"uint256","name":"amountWei","type":"uint256"}],"name":"createSellOrder","outputs":[],"stateMutability":"nonpayable","type":"function"},{"inputs":[{"internalType":"address","name":"user","type":"address"},{"internalType":"string","name":"betId","type":"string"}],"name":"ensureParticipates","outputs":[],"stateMutability":"nonpayable","type":"function"},{"inputs":[{"internalType":"string","name":"betId","type":"string"},{"internalType":"uint256","name":"orderId","type":"uint256"},{"internalType":"uint256","name":"amountOTM","type":"uint256"}],"name":"fillBuyOrder","outputs":[],"stateMutability":"nonpayable","type":"function"},{"inputs":[{"internalType":"string","name":"betId","type":"string"},{"internalType":"uint256","name":"orderId","type":"uint256"}],"name":"fillSellOrder","outputs":[],"stateMutability":"payable","type":"function"},{"inputs":[{"internalType":"string","name":"betId","type":"string"}],"name":"forceFinishBet","outputs":[],"stateMutability":"nonpayable","type":"function"},{"inputs":[{"internalType":"string","name":"betId","type":"string"}],"name":"getBet","outputs":[{"components":[{"internalType":"string","name":"id","type":"string"},{"internalType":"string","name":"name","type":"string"},{"internalType":"string","name":"description","type":"string"},{"internalType":"uint256","name":"value","type":"uint256"},{"internalType":"address payable","name":"owner","type":"address"},{"internalType":"address payable","name":"arbitrator","type":"address"},{"internalType":"string[]","name":"options","type":"string[]"},{"components":[{"internalType":"address payable","name":"user","type":"address"},{"internalType":"uint256[]","name":"tokens","type":"uint256[]"}],"internalType":"struct BetMarket.Balance[]","name":"balances","type":"tuple[]"},{"internalType":"uint256","name":"bettingDeadline","type":"uint256"},{"internalType":"uint256","name":"answerRevealDeadline","type":"uint256"},{"components":[{"internalType":"address payable","name":"creator","type":"address"},{"internalType":"address","name":"filler","type":"address"},{"internalType":"uint256","name":"optionId","type":"uint256"},{"internalType":"uint256","name":"amountOTM","type":"uint256"},{"internalType":"uint256","name":"amountWei","type":"uint256"},{"internalType":"enum BetMarket.OrderStatus","name":"status","type":"uint8"},{"internalType":"enum BetMarket.OrderType","name":"orderType","type":"uint8"}],"internalType":"struct BetMarket.Order[]","name":"orders","type":"tuple[]"},{"internalType":"enum BetMarket.BetStatus","name":"status","type":"uint8"},{"internalType":"uint256","name":"winningOptionId","type":"uint256"}],"internalType":"struct BetMarket.Bet","name":"","type":"tuple"}],"stateMutability":"view","type":"function"},{"inputs":[{"internalType":"address","name":"user","type":"address"}],"name":"getBetsParticipated","outputs":[{"components":[{"internalType":"string","name":"id","type":"string"},{"internalType":"string","name":"name","type":"string"},{"internalType":"string","name":"description","type":"string"},{"internalType":"uint256","name":"value","type":"uint256"},{"internalType":"address payable","name":"owner","type":"address"},{"internalType":"address payable","name":"arbitrator","type":"address"},{"internalType":"string[]","name":"options","type":"string[]"},{"components":[{"internalType":"address payable","name":"user","type":"address"},{"internalType":"uint256[]","name":"tokens","type":"uint256[]"}],"internalType":"struct BetMarket.Balance[]","name":"balances","type":"tuple[]"},{"internalType":"uint256","name":"bettingDeadline","type":"uint256"},{"internalType":"uint256","name":"answerRevealDeadline","type":"uint256"},{"components":[{"internalType":"address payable","name":"creator","type":"address"},{"internalType":"address","name":"filler","type":"address"},{"internalType":"uint256","name":"optionId","type":"uint256"},{"internalType":"uint256","name":"amountOTM","type":"uint256"},{"internalType":"uint256","name":"amountWei","type":"uint256"},{"internalType":"enum BetMarket.OrderStatus","name":"status","type":"uint8"},{"internalType":"enum BetMarket.OrderType","name":"orderType","type":"uint8"}],"internalType":"struct BetMarket.Order[]","name":"orders","type":"tuple[]"},{"internalType":"enum BetMarket.BetStatus","name":"status","type":"uint8"},{"internalType":"uint256","name":"winningOptionId","type":"uint256"}],"internalType":"struct BetMarket.Bet[]","name":"","type":"tuple[]"}],"stateMutability":"view","type":"function"},{"inputs":[{"internalType":"string","name":"betId","type":"string"}],"name":"getOrders","outputs":[{"components":[{"internalType":"address payable","name":"creator","type":"address"},{"internalType":"address","name":"filler","type":"address"},{"internalType":"uint256","name":"optionId","type":"uint256"},{"internalType":"uint256","name":"amountOTM","type":"uint256"},{"internalType":"uint256","name":"amountWei","type":"uint256"},{"internalType":"enum BetMarket.OrderStatus","name":"status","type":"uint8"},{"internalType":"enum BetMarket.OrderType","name":"orderType","type":"uint8"}],"internalType":"struct BetMarket.Order[]","name":"","type":"tuple[]"}],"stateMutability":"view","type":"function"},{"inputs":[{"internalType":"string","name":"betId","type":"string"},{"internalType":"address payable","name":"user","type":"address"}],"name":"getUserBalance","outputs":[{"components":[{"internalType":"address payable","name":"user","type":"address"},{"internalType":"uint256[]","name":"tokens","type":"uint256[]"}],"internalType":"struct BetMarket.Balance","name":"","type":"tuple"}],"stateMutability":"view","type":"function"},{"inputs":[{"internalType":"address","name":"user","type":"address"}],"name":"getUserBets","outputs":[{"components":[{"internalType":"string","name":"id","type":"string"},{"internalType":"string","name":"name","type":"string"},{"internalType":"string","name":"description","type":"string"},{"internalType":"uint256","name":"value","type":"uint256"},{"internalType":"address payable","name":"owner","type":"address"},{"internalType":"address payable","name":"arbitrator","type":"address"},{"internalType":"string[]","name":"options","type":"string[]"},{"components":[{"internalType":"address payable","name":"user","type":"address"},{"internalType":"uint256[]","name":"tokens","type":"uint256[]"}],"internalType":"struct BetMarket.Balance[]","name":"balances","type":"tuple[]"},{"internalType":"uint256","name":"bettingDeadline","type":"uint256"},{"internalType":"uint256","name":"answerRevealDeadline","type":"uint256"},{"components":[{"internalType":"address payable","name":"creator","type":"address"},{"internalType":"address","name":"filler","type":"address"},{"internalType":"uint256","name":"optionId","type":"uint256"},{"internalType":"uint256","name":"amountOTM","type":"uint256"},{"internalType":"uint256","name":"amountWei","type":"uint256"},{"internalType":"enum BetMarket.OrderStatus","name":"status","type":"uint8"},{"internalType":"enum BetMarket.OrderType","name":"orderType","type":"uint8"}],"internalType":"struct BetMarket.Order[]","name":"orders","type":"tuple[]"},{"internalType":"enum BetMarket.BetStatus","name":"status","type":"uint8"},{"internalType":"uint256","name":"winningOptionId","type":"uint256"}],"internalType":"struct BetMarket.Bet[]","name":"","type":"tuple[]"}],"stateMutability":"view","type":"function"},{"inputs":[{"internalType":"string","name":"betId","type":"string"},{"internalType":"uint256","name":"winningOptionId","type":"uint256"}],"name":"resolveBet","outputs":[],"stateMutability":"nonpayable","type":"function"}],"devdoc":{"kind":"dev","methods":{},"version":1},"evm":{"bytecode":{"linkReferences":{},"object":"608060405234801561001057600080fd5b50614d46806100206000396000f3fe6080604052600436106100dd5760003560e01c8063a1484f251161007f578063d0d17b8711610059578063d0d17b8714610220578063ef329c2c14610240578063f42e769914610260578063fc2bf0551461028d57600080fd5b8063a1484f25146101da578063b1002409146101ed578063c7da4a1a1461020057600080fd5b8063312e25d3116100bb578063312e25d3146101675780634bc40123146101875780637eeafd34146101a75780639617e885146101ba57600080fd5b8063078d1600146100e2578063098de6d0146101185780632d56657d1461013a575b600080fd5b3480156100ee57600080fd5b506101026100fd366004614204565b6102ba565b60405161010f9190614586565b60405180910390f35b34801561012457600080fd5b506101386101333660046145b5565b61084e565b005b34801561014657600080fd5b5061015a610155366004614605565b6108f6565b60405161010f9190614622565b34801561017357600080fd5b5061015a610182366004614605565b610f9f565b34801561019357600080fd5b506101386101a2366004614684565b611640565b6101386101b53660046146c9565b611ab5565b3480156101c657600080fd5b506101386101d5366004614684565b611df5565b6101386101e8366004614684565b612111565b6101386101fb36600461480f565b6126d9565b34801561020c57600080fd5b5061013861021b3660046148e5565b612bff565b34801561022c57600080fd5b5061013861023b3660046146c9565b612fb9565b34801561024c57600080fd5b5061013861025b366004614927565b613618565b34801561026c57600080fd5b5061028061027b366004614204565b6139de565b60405161010f919061497b565b34801561029957600080fd5b506102ad6102a836600461498e565b613b7e565b60405161010f91906149e0565b6102c2614062565b816000816040516102d391906149f3565b90815260405190819003602001902080546102ed90614a0f565b90506000036103385760405162461bcd60e51b815260206004820152601260248201527110995d08191bd95cc81b9bdd08195e1a5cdd60721b60448201526064015b60405180910390fd5b60008360405161034891906149f3565b9081526020016040518091039020604051806101a001604052908160008201805461037290614a0f565b80601f016020809104026020016040519081016040528092919081815260200182805461039e90614a0f565b80156103eb5780601f106103c0576101008083540402835291602001916103eb565b820191906000526020600020905b8154815290600101906020018083116103ce57829003601f168201915b5050505050815260200160018201805461040490614a0f565b80601f016020809104026020016040519081016040528092919081815260200182805461043090614a0f565b801561047d5780601f106104525761010080835404028352916020019161047d565b820191906000526020600020905b81548152906001019060200180831161046057829003601f168201915b5050505050815260200160028201805461049690614a0f565b80601f01602080910402602001604051908101604052809291908181526020018280546104c290614a0f565b801561050f5780601f106104e45761010080835404028352916020019161050f565b820191906000526020600020905b8154815290600101906020018083116104f257829003601f168201915b5050509183525050600382015460208083019190915260048301546001600160a01b0390811660408085019190915260058501549091166060840152600684018054825181850281018501909352808352608090940193919290919060009084015b8282101561061d57838290600052602060002001805461059090614a0f565b80601f01602080910402602001604051908101604052809291908181526020018280546105bc90614a0f565b80156106095780601f106105de57610100808354040283529160200191610609565b820191906000526020600020905b8154815290600101906020018083116105ec57829003601f168201915b505050505081526020019060010190610571565b50505050815260200160078201805480602002602001604051908101604052809291908181526020016000905b828210156106df5760008481526020908190206040805180820182526002860290920180546001600160a01b031683526001810180548351818702810187019094528084529394919385830193928301828280156106c757602002820191906000526020600020905b8154815260200190600101908083116106b3575b5050505050815250508152602001906001019061064a565b5050505081526020016008820154815260200160098201548152602001600a8201805480602002602001604051908101604052809291908181526020016000905b828210156108005760008481526020908190206040805160e0810182526006860290920180546001600160a01b03908116845260018201541693830193909352600280840154918301919091526003830154606083015260048301546080830152600583015491929160a084019160ff909116908111156107a3576107a3614394565b60028111156107b4576107b4614394565b81526020016005820160019054906101000a900460ff1660018111156107dc576107dc614394565b60018111156107ed576107ed614394565b8152505081526020019060010190610720565b50505090825250600b82015460209091019060ff16600181111561082657610826614394565b600181111561083757610837614394565b8152602001600c8201548152505091505b50919050565b60038160405161085e91906149f3565b90815260408051602092819003830190206001600160a01b0385166000908152925290205460ff166108f257600160038260405161089c91906149f3565b90815260408051602092819003830190206001600160a01b0386166000908152908352818120805460ff19169415159490941790935560028252822080546001810182559083529120016108f08282614a89565b505b5050565b6001600160a01b0381166000908152600160209081526040808320805482518185028101850190935280835260609493849084015b828210156109d757838290600052602060002001805461094a90614a0f565b80601f016020809104026020016040519081016040528092919081815260200182805461097690614a0f565b80156109c35780601f10610998576101008083540402835291602001916109c3565b820191906000526020600020905b8154815290600101906020018083116109a657829003601f168201915b50505050508152602001906001019061092b565b5050505090506000815167ffffffffffffffff8111156109f9576109f961414d565b604051908082528060200260200182016040528015610a3257816020015b610a1f614062565b815260200190600190039081610a175790505b50905060005b8151811015610f97576000838281518110610a5557610a55614b49565b6020026020010151604051610a6a91906149f3565b9081526020016040518091039020604051806101a0016040529081600082018054610a9490614a0f565b80601f0160208091040260200160405190810160405280929190818152602001828054610ac090614a0f565b8015610b0d5780601f10610ae257610100808354040283529160200191610b0d565b820191906000526020600020905b815481529060010190602001808311610af057829003601f168201915b50505050508152602001600182018054610b2690614a0f565b80601f0160208091040260200160405190810160405280929190818152602001828054610b5290614a0f565b8015610b9f5780601f10610b7457610100808354040283529160200191610b9f565b820191906000526020600020905b815481529060010190602001808311610b8257829003601f168201915b50505050508152602001600282018054610bb890614a0f565b80601f0160208091040260200160405190810160405280929190818152602001828054610be490614a0f565b8015610c315780601f10610c0657610100808354040283529160200191610c31565b820191906000526020600020905b815481529060010190602001808311610c1457829003601f168201915b5050509183525050600382015460208083019190915260048301546001600160a01b0390811660408085019190915260058501549091166060840152600684018054825181850281018501909352808352608090940193919290919060009084015b82821015610d3f578382906000526020600020018054610cb290614a0f565b80601f0160208091040260200160405190810160405280929190818152602001828054610cde90614a0f565b8015610d2b5780601f10610d0057610100808354040283529160200191610d2b565b820191906000526020600020905b815481529060010190602001808311610d0e57829003601f168201915b505050505081526020019060010190610c93565b50505050815260200160078201805480602002602001604051908101604052809291908181526020016000905b82821015610e015760008481526020908190206040805180820182526002860290920180546001600160a01b03168352600181018054835181870281018701909452808452939491938583019392830182828015610de957602002820191906000526020600020905b815481526020019060010190808311610dd5575b50505050508152505081526020019060010190610d6c565b5050505081526020016008820154815260200160098201548152602001600a8201805480602002602001604051908101604052809291908181526020016000905b82821015610f225760008481526020908190206040805160e0810182526006860290920180546001600160a01b03908116845260018201541693830193909352600280840154918301919091526003830154606083015260048301546080830152600583015491929160a084019160ff90911690811115610ec557610ec5614394565b6002811115610ed657610ed6614394565b81526020016005820160019054906101000a900460ff166001811115610efe57610efe614394565b6001811115610f0f57610f0f614394565b8152505081526020019060010190610e42565b50505090825250600b82015460209091019060ff166001811115610f4857610f48614394565b6001811115610f5957610f59614394565b8152602001600c82015481525050828281518110610f7957610f79614b49565b60200260200101819052508080610f8f90614b75565b915050610a38565b509392505050565b6001600160a01b0381166000908152600260209081526040808320805482518185028101850190935280835260609493849084015b82821015611080578382906000526020600020018054610ff390614a0f565b80601f016020809104026020016040519081016040528092919081815260200182805461101f90614a0f565b801561106c5780601f106110415761010080835404028352916020019161106c565b820191906000526020600020905b81548152906001019060200180831161104f57829003601f168201915b505050505081526020019060010190610fd4565b5050505090506000815167ffffffffffffffff8111156110a2576110a261414d565b6040519080825280602002602001820160405280156110db57816020015b6110c8614062565b8152602001906001900390816110c05790505b50905060005b8151811015610f975760008382815181106110fe576110fe614b49565b602002602001015160405161111391906149f3565b9081526020016040518091039020604051806101a001604052908160008201805461113d90614a0f565b80601f016020809104026020016040519081016040528092919081815260200182805461116990614a0f565b80156111b65780601f1061118b576101008083540402835291602001916111b6565b820191906000526020600020905b81548152906001019060200180831161119957829003601f168201915b505050505081526020016001820180546111cf90614a0f565b80601f01602080910402602001604051908101604052809291908181526020018280546111fb90614a0f565b80156112485780601f1061121d57610100808354040283529160200191611248565b820191906000526020600020905b81548152906001019060200180831161122b57829003601f168201915b5050505050815260200160028201805461126190614a0f565b80601f016020809104026020016040519081016040528092919081815260200182805461128d90614a0f565b80156112da5780601f106112af576101008083540402835291602001916112da565b820191906000526020600020905b8154815290600101906020018083116112bd57829003601f168201915b5050509183525050600382015460208083019190915260048301546001600160a01b0390811660408085019190915260058501549091166060840152600684018054825181850281018501909352808352608090940193919290919060009084015b828210156113e857838290600052602060002001805461135b90614a0f565b80601f016020809104026020016040519081016040528092919081815260200182805461138790614a0f565b80156113d45780601f106113a9576101008083540402835291602001916113d4565b820191906000526020600020905b8154815290600101906020018083116113b757829003601f168201915b50505050508152602001906001019061133c565b50505050815260200160078201805480602002602001604051908101604052809291908181526020016000905b828210156114aa5760008481526020908190206040805180820182526002860290920180546001600160a01b0316835260018101805483518187028101870190945280845293949193858301939283018282801561149257602002820191906000526020600020905b81548152602001906001019080831161147e575b50505050508152505081526020019060010190611415565b5050505081526020016008820154815260200160098201548152602001600a8201805480602002602001604051908101604052809291908181526020016000905b828210156115cb5760008481526020908190206040805160e0810182526006860290920180546001600160a01b03908116845260018201541693830193909352600280840154918301919091526003830154606083015260048301546080830152600583015491929160a084019160ff9091169081111561156e5761156e614394565b600281111561157f5761157f614394565b81526020016005820160019054906101000a900460ff1660018111156115a7576115a7614394565b60018111156115b8576115b8614394565b81525050815260200190600101906114eb565b50505090825250600b82015460209091019060ff1660018111156115f1576115f1614394565b600181111561160257611602614394565b8152602001600c8201548152505082828151811061162257611622614b49565b6020026020010181905250808061163890614b75565b9150506110e1565b8160008160405161165191906149f3565b908152604051908190036020019020805461166b90614a0f565b90506000036116b15760405162461bcd60e51b815260206004820152601260248201527110995d08191bd95cc81b9bdd08195e1a5cdd60721b604482015260640161032f565b82600080826040516116c391906149f3565b908152604051908190036020019020600b015460ff1660018111156116ea576116ea614394565b1461172f5760405162461bcd60e51b81526020600482015260156024820152742132ba1034b9903737903637b733b2b91037b832b760591b604482015260640161032f565b6000808560405161174091906149f3565b90815260200160405180910390209050806008015442116117c85760405162461bcd60e51b8152602060048201526024808201527f42657474696e6720646561646c696e6520776173206e6f74207265616368656460448201527f2079657400000000000000000000000000000000000000000000000000000000606482015260840161032f565b80600901544211156118425760405162461bcd60e51b815260206004820152602160248201527f416e737765722072657665616c20646561646c696e652068617320706173736560448201527f6400000000000000000000000000000000000000000000000000000000000000606482015260840161032f565b60058101546001600160a01b031633146118c45760405162461bcd60e51b815260206004820152602360248201527f596f7520617265206e6f74207468652073656c6563746564206172626974726160448201527f746f720000000000000000000000000000000000000000000000000000000000606482015260840161032f565b600681015484106119175760405162461bcd60e51b815260206004820152601a60248201527f54686973206f7074696f6e20646f6573206e6f74206578697374000000000000604482015260640161032f565b600b8101805460ff1916600117905560005b600a82015481101561199557600082600a01828154811061194c5761194c614b49565b600091825260209091206005600690920201015460ff16600281111561197457611974614394565b03611983576119838682611df5565b8061198d81614b75565b915050611929565b5060005b6007820154811015611aa85760008260070182815481106119bc576119bc614b49565b906000526020600020906002020160010186815481106119de576119de614b49565b90600052602060002001541115611a9657816007018181548110611a0457611a04614b49565b60009182526020909120600290910201546007830180546001600160a01b03909216916108fc919084908110611a3c57611a3c614b49565b90600052602060002090600202016001018781548110611a5e57611a5e614b49565b90600052602060002001549081150290604051600060405180830381858888f19350505050158015611a94573d6000803e3d6000fd5b505b80611aa081614b75565b915050611999565b50600c0192909255505050565b6001341015611b065760405162461bcd60e51b815260206004820152601b60248201527f596f75206e65656420746f2073656e6420736f6d65206d6f6e65790000000000604482015260640161032f565b82600081604051611b1791906149f3565b9081526040519081900360200190208054611b3190614a0f565b9050600003611b775760405162461bcd60e51b815260206004820152601260248201527110995d08191bd95cc81b9bdd08195e1a5cdd60721b604482015260640161032f565b83600081604051611b8891906149f3565b9081526020016040518091039020600801544210611be05760405162461bcd60e51b81526020600482015260156024820152742132ba1034b9903737903637b733b2b91037b832b760591b604482015260640161032f565b3483600181611bf0846064614b8e565b611bfa9190614bab565b1015611c565760405162461bcd60e51b815260206004820152602560248201527f5072696365206d757374206265206c6172676572206f7220657175616c20746f60448201526420302e303160d81b606482015260840161032f565b606381611c64846064614b8e565b611c6e9190614bab565b1115611ccb5760405162461bcd60e51b815260206004820152602660248201527f5072696365206d75737420626520736d616c6c6572206f7220657175616c20746044820152656f20302e393960d01b606482015260840161032f565b60008088604051611cdc91906149f3565b90815260408051918290036020908101832060e08401835233845260008285018181529385018c8152606086018c8152346080880190815260a0880184815260c08901859052600a860180546001808201835591875297909520895160069098020180546001600160a01b03199081166001600160a01b03998a1617825598518187018054909a1698169790971790975591516002808701919091559051600386015590516004850155935160058401805493975086959193909260ff19909116918490811115611daf57611daf614394565b021790555060c082015160058201805461ff001916610100836001811115611dd957611dd9614394565b02179055505050611dea338a61084e565b505050505050505050565b81600081604051611e0691906149f3565b9081526040519081900360200190208054611e2090614a0f565b9050600003611e665760405162461bcd60e51b815260206004820152601260248201527110995d08191bd95cc81b9bdd08195e1a5cdd60721b604482015260640161032f565b8282600082604051611e7891906149f3565b908152604051908190036020019020600a01548110611ed95760405162461bcd60e51b815260206004820152601960248201527f54686973206f7264657220646f6573206e6f7420657869737400000000000000604482015260640161032f565b60008086604051611eea91906149f3565b90815260200160405180910390209050600081600a018681548110611f1157611f11614b49565b6000918252602090912060069091020190506001600582015460ff166002811115611f3e57611f3e614394565b03611f965760405162461bcd60e51b815260206004820152602260248201527f54686973206f726465722068617320616c7265616479206265656e2066696c6c604482015261195960f21b606482015260840161032f565b6002600582015460ff166002811115611fb157611fb1614394565b0361200c5760405162461bcd60e51b815260206004820152602560248201527f54686973206f726465722068617320616c7265616479206265656e2063616e63604482015264195b1b195960da1b606482015260840161032f565b80546001600160a01b0316331461208b5760405162461bcd60e51b815260206004820152602560248201527f4f6e6c7920746865206f776e65722063616e2063616e63656c2074686569722060448201527f6f72646572000000000000000000000000000000000000000000000000000000606482015260840161032f565b60058101805460ff19166002179081905560009060ff6101009091041660018111156120b9576120b9614394565b036120f4576004810154604051339180156108fc02916000818181858888f193505050501580156120ee573d6000803e3d6000fd5b50612108565b612108873383600201548460030154613d98565b50505050505050565b60013410156121625760405162461bcd60e51b815260206004820152601b60248201527f596f75206e65656420746f2073656e6420736f6d65206d6f6e65790000000000604482015260640161032f565b8160008160405161217391906149f3565b908152604051908190036020019020805461218d90614a0f565b90506000036121d35760405162461bcd60e51b815260206004820152601260248201527110995d08191bd95cc81b9bdd08195e1a5cdd60721b604482015260640161032f565b826000816040516121e491906149f3565b908152602001604051809103902060080154421061223c5760405162461bcd60e51b81526020600482015260156024820152742132ba1034b9903737903637b733b2b91037b832b760591b604482015260640161032f565b838360008260405161224e91906149f3565b908152604051908190036020019020600a015481106122af5760405162461bcd60e51b815260206004820152601960248201527f54686973206f7264657220646f6573206e6f7420657869737400000000000000604482015260640161032f565b600080876040516122c091906149f3565b90815260200160405180910390209050600081600a0187815481106122e7576122e7614b49565b6000918252602090912060069091020190506002600582015460ff16600281111561231457612314614394565b0361236f5760405162461bcd60e51b815260206004820152602560248201527f54686973206f726465722068617320616c7265616479206265656e2063616e63604482015264195b1b195960da1b606482015260840161032f565b6001600582015460ff16600281111561238a5761238a614394565b036123e25760405162461bcd60e51b815260206004820152602260248201527f54686973206f726465722068617320616c7265616479206265656e2066696c6c604482015261195960f21b606482015260840161032f565b8054336001600160a01b039091160361243d5760405162461bcd60e51b815260206004820152601e60248201527f596f752063616e6e6f742066696c6c20796f7572206f776e206f726465720000604482015260640161032f565b34816004015410156124b75760405162461bcd60e51b815260206004820152602f60248201527f546865206f7264657220646f65736e277420636f6e7461696e20656e6f75676860448201527f206f7574636f6d6520746f6b656e730000000000000000000000000000000000606482015260840161032f565b60058101805460ff191660011790556124d08833613ede565b6124fe8833836002015484600401543486600301546124ef9190614b8e565b6124f99190614bab565b613d98565b80546040516001600160a01b03909116903480156108fc02916000818181858888f19350505050158015612536573d6000803e3d6000fd5b5034816004015411156126c5576040805160e08101825282546001600160a01b031681526000602082018190526002840154928201929092526004830154600384015460608301919061258a903490614b8e565b6125949190614bab565b84600301546125a39190614bcd565b81526020013484600401546125b89190614bcd565b81526020016000815260200160019052600a84018054600181810183556000928352602092839020845160069093020180546001600160a01b039384166001600160a01b0319918216178255938501518183018054919094169416939093179091556040830151600280840191909155606084015160038401556080840151600484015560a084015160058401805495965086959193909260ff1990921691849081111561266857612668614394565b021790555060c082015160058201805461ff00191661010083600181111561269257612692614394565b0217905550505081600401543483600301546126ae9190614b8e565b6126b89190614bab565b6003830155503460048201555b6126cf338961084e565b5050505050505050565b87878080601f016020809104026020016040519081016040528093929190818152602001838380828437600092018290525060405190935061271e92508491506149f3565b908152604051908190036020019020805461273890614a0f565b1590506127875760405162461bcd60e51b815260206004820152601260248201527f42657420616c7265616479206578697374730000000000000000000000000000604482015260640161032f565b428310156127d75760405162461bcd60e51b815260206004820152601760248201527f446561646c696e6520616c726561647920706173736564000000000000000000604482015260640161032f565b8282101561284d5760405162461bcd60e51b815260206004820152603160248201527f416e737765722072657665616c206d757374206265206c61746572207468616e60448201527f2062657474696e6720646561646c696e65000000000000000000000000000000606482015260840161032f565b888860008b8b604051612861929190614be0565b9081526040519081900360200190209161287c919083614bf0565b508660008a8a604051612890929190614be0565b908152602001604051809103902060010190816128ad9190614a89565b508560008a8a6040516128c1929190614be0565b908152602001604051809103902060020190816128de9190614a89565b503460008a8a6040516128f2929190614be0565b9081526020016040518091039020600301819055503360008a8a60405161291a929190614be0565b908152602001604051809103902060040160006101000a8154816001600160a01b0302191690836001600160a01b031602179055508460008a8a604051612962929190614be0565b908152602001604051809103902060050160006101000a8154816001600160a01b0302191690836001600160a01b031602179055508260008a8a6040516129aa929190614be0565b9081526020016040518091039020600801819055508160008a8a6040516129d2929190614be0565b9081526020016040518091039020600901819055506000808a8a6040516129fa929190614be0565b908152604051908190036020019020600b01805460ff191660018381811115612a2557612a25614394565b02179055508351612a37906001614cb1565b60008a8a604051612a49929190614be0565b908152604051908190036020019020600c0155835160009067ffffffffffffffff811115612a7957612a7961414d565b604051908082528060200260200182016040528015612aa2578160200160208202803683370190505b50905060005b8551811015612b405760008b8b604051612ac3929190614be0565b9081526020016040518091039020600601868281518110612ae657612ae6614b49565b60209081029190910181015182546001810184556000938452919092200190612b0f9082614a89565b5034828281518110612b2357612b23614b49565b602090810291909101015280612b3881614b75565b915050612aa8565b5060008a8a604051612b53929190614be0565b90815260408051602092819003830181208183019092523381528281018481526007909201805460018082018355600092835291859020835160029092020180546001600160a01b0319166001600160a01b03909216919091178155925180519294612bc593928501929101906140ed565b50503360009081526001602081815260408320805492830181558352909120019050612bf28a8c83614bf0565b5050505050505050505050565b81818080601f0160208091040260200160405190810160405280939291908181526020018383808284376000920182905250604051909350612c4492508491506149f3565b9081526040519081900360200190208054612c5e90614a0f565b9050600003612ca45760405162461bcd60e51b815260206004820152601260248201527110995d08191bd95cc81b9bdd08195e1a5cdd60721b604482015260640161032f565b82828080601f01602080910402602001604051908101604052809392919081815260200183838082843760009201829052509250612ce0915050565b600082604051612cf091906149f3565b908152604051908190036020019020600b015460ff166001811115612d1757612d17614394565b14612d5c5760405162461bcd60e51b81526020600482015260156024820152742132ba1034b9903737903637b733b2b91037b832b760591b604482015260640161032f565b6000808585604051612d6f929190614be0565b9081526020016040518091039020905080600901544211612df85760405162461bcd60e51b815260206004820152602a60248201527f416e737765722072657665616c20646561646c696e6520776173206e6f74207260448201527f6561636865642079657400000000000000000000000000000000000000000000606482015260840161032f565b600b8101805460ff1916600117905560005b600a820154811015612ead57600082600a018281548110612e2d57612e2d614b49565b600091825260209091206005600690920201015460ff166002811115612e5557612e55614394565b03612e9b57612e9b86868080601f016020809104026020016040519081016040528093929190818152602001838380828437600092019190915250859250611df5915050565b80612ea581614b75565b915050612e0a565b5060005b6007820154811015612fb1576000805b6006840154811015612f2e57836007018381548110612ee257612ee2614b49565b90600052602060002090600202016001018181548110612f0457612f04614b49565b906000526020600020015482612f1a9190614cb1565b915080612f2681614b75565b915050612ec1565b50826007018281548110612f4457612f44614b49565b600091825260209091206002909102015460068401546001600160a01b03909116906108fc90612f749084614bab565b6040518115909202916000818181858888f19350505050158015612f9c573d6000803e3d6000fd5b50508080612fa990614b75565b915050612eb1565b505050505050565b82600081604051612fca91906149f3565b9081526040519081900360200190208054612fe490614a0f565b905060000361302a5760405162461bcd60e51b815260206004820152601260248201527110995d08191bd95cc81b9bdd08195e1a5cdd60721b604482015260640161032f565b8360008160405161303b91906149f3565b90815260200160405180910390206008015442106130935760405162461bcd60e51b81526020600482015260156024820152742132ba1034b9903737903637b733b2b91037b832b760591b604482015260640161032f565b84846000826040516130a591906149f3565b908152604051908190036020019020600a015481106131065760405162461bcd60e51b815260206004820152601960248201527f54686973206f7264657220646f6573206e6f7420657869737400000000000000604482015260640161032f565b600085116131565760405162461bcd60e51b815260206004820152601d60248201527f416d6f756e74206d7573742062652067726561746572207468616e2030000000604482015260640161032f565b6000808860405161316791906149f3565b90815260200160405180910390209050600081600a01888154811061318e5761318e614b49565b6000918252602090912060069091020190506002600582015460ff1660028111156131bb576131bb614394565b036132165760405162461bcd60e51b815260206004820152602560248201527f54686973206f726465722068617320616c7265616479206265656e2063616e63604482015264195b1b195960da1b606482015260840161032f565b6001600582015460ff16600281111561323157613231614394565b036132895760405162461bcd60e51b815260206004820152602260248201527f54686973206f726465722068617320616c7265616479206265656e2066696c6c604482015261195960f21b606482015260840161032f565b8054336001600160a01b03909116036132e45760405162461bcd60e51b815260206004820152601e60248201527f596f752063616e6e6f742066696c6c20796f7572206f776e206f726465720000604482015260640161032f565b868160030154101561335e5760405162461bcd60e51b815260206004820152602f60248201527f546865206f7264657220646f65736e277420636f6e7461696e20656e6f75676860448201527f206f7574636f6d6520746f6b656e730000000000000000000000000000000000606482015260840161032f565b866133698a33613b7e565b6020015182600201548151811061338257613382614b49565b602002602001015110156133d85760405162461bcd60e51b815260206004820152601c60248201527f596f7520646f6e2774206861766520656e6f75676820746f6b656e7300000000604482015260640161032f565b60058101805460ff1916600117905580546133fd908a906001600160a01b0316613ede565b613415893383600201548a6000196124f99190614cc4565b80546002820154613434918b916001600160a01b03909116908a613d98565b6003810154600482015433916108fc9161344e908b614b8e565b6134589190614bab565b6040518115909202916000818181858888f19350505050158015613480573d6000803e3d6000fd5b50868160030154111561360e576040805160e08101825282546001600160a01b03168152600060208201819052600284015492820192909252600383015460608201906134ce908b90614bcd565b8152602001836003015484600401548b6134e89190614b8e565b6134f29190614bab565b84600401546135019190614bcd565b81526020016000815260200160009052600a84018054600181810183556000928352602092839020845160069093020180546001600160a01b039384166001600160a01b0319918216178255938501518183018054919094169416939093179091556040830151600280840191909155606084015160038401556080840151600484015560a084015160058401805495965086959193909260ff199092169184908111156135b1576135b1614394565b021790555060c082015160058201805461ff0019166101008360018111156135db576135db614394565b02179055505050600382015460048301546135f6908a614b8e565b6136009190614bab565b600483015550600381018790555b611dea338a61084e565b8082600181613628846064614b8e565b6136329190614bab565b101561368e5760405162461bcd60e51b815260206004820152602560248201527f5072696365206d757374206265206c6172676572206f7220657175616c20746f60448201526420302e303160d81b606482015260840161032f565b60638161369c846064614b8e565b6136a69190614bab565b11156137035760405162461bcd60e51b815260206004820152602660248201527f5072696365206d75737420626520736d616c6c6572206f7220657175616c20746044820152656f20302e393960d01b606482015260840161032f565b8560008160405161371491906149f3565b908152604051908190036020019020805461372e90614a0f565b90506000036137745760405162461bcd60e51b815260206004820152601260248201527110995d08191bd95cc81b9bdd08195e1a5cdd60721b604482015260640161032f565b8660008160405161378591906149f3565b90815260200160405180910390206008015442106137dd5760405162461bcd60e51b81526020600482015260156024820152742132ba1034b9903737903637b733b2b91037b832b760591b604482015260640161032f565b6000861161382d5760405162461bcd60e51b815260206004820152601d60248201527f416d6f756e74206d7573742062652067726561746572207468616e2030000000604482015260640161032f565b6000808960405161383e91906149f3565b90815260200160405180910390209050600061385a8a33613b7e565b60200151898151811061386f5761386f614b49565b60200260200101519050878110156138c95760405162461bcd60e51b815260206004820152601c60248201527f596f7520646f6e2774206861766520656e6f75676820746f6b656e7300000000604482015260640161032f565b6138db8a338b6124f98c600019614cc4565b6040805160e081018252338152600060208083018281529383018d8152606084018d8152608085018d815260a08601858152600160c08801819052600a8b018054808301825590885295909620875160069096020180546001600160a01b03199081166001600160a01b0397881617825598518188018054909a169616959095179097559151600280850191909155905160038401559051600483015593516005820180549495869593949293919260ff19909216919084908111156139a3576139a3614394565b021790555060c082015160058201805461ff0019166101008360018111156139cd576139cd614394565b02179055505050612bf2338c61084e565b6060816000816040516139f191906149f3565b9081526040519081900360200190208054613a0b90614a0f565b9050600003613a515760405162461bcd60e51b815260206004820152601260248201527110995d08191bd95cc81b9bdd08195e1a5cdd60721b604482015260640161032f565b600083604051613a6191906149f3565b9081526020016040518091039020600a01805480602002602001604051908101604052809291908181526020016000905b82821015613b725760008481526020908190206040805160e0810182526006860290920180546001600160a01b03908116845260018201541693830193909352600280840154918301919091526003830154606083015260048301546080830152600583015491929160a084019160ff90911690811115613b1557613b15614394565b6002811115613b2657613b26614394565b81526020016005820160019054906101000a900460ff166001811115613b4e57613b4e614394565b6001811115613b5f57613b5f614394565b8152505081526020019060010190613a92565b50505050915050919050565b60408051808201909152600081526060602082015282600081604051613ba491906149f3565b9081526040519081900360200190208054613bbe90614a0f565b9050600003613c045760405162461bcd60e51b815260206004820152601260248201527110995d08191bd95cc81b9bdd08195e1a5cdd60721b604482015260640161032f565b60008085604051613c1591906149f3565b9081526020016040518091039020905060005b6007820154811015613d2157846001600160a01b0316826007018281548110613c5357613c53614b49565b60009182526020909120600290910201546001600160a01b031603613d0f57816007018181548110613c8757613c87614b49565b6000918252602091829020604080518082018252600290930290910180546001600160a01b03168352600181018054835181870281018701909452808452939491938583019392830182828015613cfd57602002820191906000526020600020905b815481526020019060010190808311613ce9575b50505050508152505093505050613d91565b80613d1981614b75565b915050613c28565b50600681015460009067ffffffffffffffff811115613d4257613d4261414d565b604051908082528060200260200182016040528015613d6b578160200160208202803683370190505b5090506040518060400160405280866001600160a01b0316815260200182815250935050505b5092915050565b60008085604051613da991906149f3565b9081526020016040518091039020905060005b6007820154811015612fb157846001600160a01b0316826007018281548110613de757613de7614b49565b60009182526020909120600290910201546001600160a01b031603613ecc5760008312613e6a5782826007018281548110613e2457613e24614b49565b90600052602060002090600202016001018581548110613e4657613e46614b49565b906000526020600020016000828254613e5f9190614cb1565b90915550613ecc9050565b613e7683600019614cc4565b826007018281548110613e8b57613e8b614b49565b90600052602060002090600202016001018581548110613ead57613ead614b49565b906000526020600020016000828254613ec69190614bcd565b90915550505b80613ed681614b75565b915050613dbc565b60008083604051613eef91906149f3565b908152602001604051809103902090506000805b6007830154811015613f6357826007018181548110613f2457613f24614b49565b60009182526020909120600290910201546001600160a01b0390811690851603613f515760019150613f63565b80613f5b81614b75565b915050613f03565b508061405c57600682015460009067ffffffffffffffff811115613f8957613f8961414d565b604051908082528060200260200182016040528015613fb2578160200160208202803683370190505b50905060005b6006840154811015613ff5576000828281518110613fd857613fd8614b49565b602090810291909101015280613fed81614b75565b915050613fb8565b50604080518082019091526001600160a01b038581168252602080830184815260078701805460018082018355600092835291849020865160029092020180546001600160a01b03191691909516178455905180516126cf939285019291909101906140ed565b50505050565b604051806101a001604052806060815260200160608152602001606081526020016000815260200160006001600160a01b0316815260200160006001600160a01b031681526020016060815260200160608152602001600081526020016000815260200160608152602001600060018111156140e0576140e0614394565b8152602001600081525090565b828054828255906000526020600020908101928215614128579160200282015b8281111561412857825182559160200191906001019061410d565b50614134929150614138565b5090565b5b808211156141345760008155600101614139565b634e487b7160e01b600052604160045260246000fd5b604051601f8201601f1916810167ffffffffffffffff8111828210171561418c5761418c61414d565b604052919050565b600082601f8301126141a557600080fd5b813567ffffffffffffffff8111156141bf576141bf61414d565b6141d2601f8201601f1916602001614163565b8181528460208386010111156141e757600080fd5b816020850160208301376000918101602001919091529392505050565b60006020828403121561421657600080fd5b813567ffffffffffffffff81111561422d57600080fd5b61423984828501614194565b949350505050565b60005b8381101561425c578181015183820152602001614244565b50506000910152565b6000815180845261427d816020860160208601614241565b601f01601f19169290920160200192915050565b600082825180855260208086019550808260051b84010181860160005b848110156142dc57601f198684030189526142ca838351614265565b988401989250908301906001016142ae565b5090979650505050505050565b6000604083016001600160a01b0383511684526020808401516040828701528281518085526060880191508383019450600092505b8083101561433e578451825293830193600192909201919083019061431e565b509695505050505050565b600082825180855260208086019550808260051b84010181860160005b848110156142dc57601f198684030189526143828383516142e9565b98840198925090830190600101614366565b634e487b7160e01b600052602160045260246000fd5b600281106143ba576143ba614394565b50565b600081518084526020808501945080840160005b8381101561445057815180516001600160a01b03908116895284820151168489015260408082015190890152606080820151908901526080808201519089015260a0808201516003811061442757614427614394565b9089015260c0908101519061443b826143aa565b88015260e090960195908201906001016143d1565b509495945050505050565b614464816143aa565b9052565b60006101a0825181855261447e82860182614265565b915050602083015184820360208601526144988282614265565b915050604083015184820360408601526144b28282614265565b9150506060830151606085015260808301516144d960808601826001600160a01b03169052565b5060a08301516144f460a08601826001600160a01b03169052565b5060c083015184820360c086015261450c8282614291565b91505060e083015184820360e08601526145268282614349565b915050610100808401518186015250610120808401518186015250610140808401518583038287015261455983826143bd565b92505050610160808401516145708287018261445b565b5050610180928301519390920192909252919050565b6020815260006145996020830184614468565b9392505050565b6001600160a01b03811681146143ba57600080fd5b600080604083850312156145c857600080fd5b82356145d3816145a0565b9150602083013567ffffffffffffffff8111156145ef57600080fd5b6145fb85828601614194565b9150509250929050565b60006020828403121561461757600080fd5b8135614599816145a0565b6000602080830181845280855180835260408601915060408160051b870101925083870160005b8281101561467757603f19888603018452614665858351614468565b94509285019290850190600101614649565b5092979650505050505050565b6000806040838503121561469757600080fd5b823567ffffffffffffffff8111156146ae57600080fd5b6146ba85828601614194565b95602094909401359450505050565b6000806000606084860312156146de57600080fd5b833567ffffffffffffffff8111156146f557600080fd5b61470186828701614194565b9660208601359650604090950135949350505050565b60008083601f84011261472957600080fd5b50813567ffffffffffffffff81111561474157600080fd5b60208301915083602082850101111561475957600080fd5b9250929050565b803561476b816145a0565b919050565b600082601f83011261478157600080fd5b8135602067ffffffffffffffff8083111561479e5761479e61414d565b8260051b6147ad838201614163565b93845285810183019383810190888611156147c757600080fd5b84880192505b85831015614803578235848111156147e55760008081fd5b6147f38a87838c0101614194565b83525091840191908401906147cd565b98975050505050505050565b60008060008060008060008060e0898b03121561482b57600080fd5b883567ffffffffffffffff8082111561484357600080fd5b61484f8c838d01614717565b909a50985060208b013591508082111561486857600080fd5b6148748c838d01614194565b975060408b013591508082111561488a57600080fd5b6148968c838d01614194565b96506148a460608c01614760565b955060808b01359150808211156148ba57600080fd5b506148c78b828c01614770565b93505060a0890135915060c089013590509295985092959890939650565b600080602083850312156148f857600080fd5b823567ffffffffffffffff81111561490f57600080fd5b61491b85828601614717565b90969095509350505050565b6000806000806080858703121561493d57600080fd5b843567ffffffffffffffff81111561495457600080fd5b61496087828801614194565b97602087013597506040870135966060013595509350505050565b60208152600061459960208301846143bd565b600080604083850312156149a157600080fd5b823567ffffffffffffffff8111156149b857600080fd5b6149c485828601614194565b92505060208301356149d5816145a0565b809150509250929050565b60208152600061459960208301846142e9565b60008251614a05818460208701614241565b9190910192915050565b600181811c90821680614a2357607f821691505b60208210810361084857634e487b7160e01b600052602260045260246000fd5b601f8211156108f057600081815260208120601f850160051c81016020861015614a6a5750805b601f850160051c820191505b81811015612fb157828155600101614a76565b815167ffffffffffffffff811115614aa357614aa361414d565b614ab781614ab18454614a0f565b84614a43565b602080601f831160018114614aec5760008415614ad45750858301515b600019600386901b1c1916600185901b178555612fb1565b600085815260208120601f198616915b82811015614b1b57888601518255948401946001909101908401614afc565b5085821015614b395787850151600019600388901b60f8161c191681555b5050505050600190811b01905550565b634e487b7160e01b600052603260045260246000fd5b634e487b7160e01b600052601160045260246000fd5b600060018201614b8757614b87614b5f565b5060010190565b8082028115828204841417614ba557614ba5614b5f565b92915050565b600082614bc857634e487b7160e01b600052601260045260246000fd5b500490565b81810381811115614ba557614ba5614b5f565b8183823760009101908152919050565b67ffffffffffffffff831115614c0857614c0861414d565b614c1c83614c168354614a0f565b83614a43565b6000601f841160018114614c505760008515614c385750838201355b600019600387901b1c1916600186901b178355614caa565b600083815260209020601f19861690835b82811015614c815786850135825560209485019460019092019101614c61565b5086821015614c9e5760001960f88860031b161c19848701351681555b505060018560011b0183555b5050505050565b80820180821115614ba557614ba5614b5f565b808202600082127f800000000000000000000000000000000000000000000000000000000000000084141615614cfc57614cfc614b5f565b8181058314821517614ba557614ba5614b5f56fea2646970667358221220bdb6536350f0d70bd4bb29e4e2c0a84155295465854c841383b44a69bfceff4c64736f6c63430008110033","opcodes":"PUSH1 0x80 PUSH1 0x40 MSTORE CALLVALUE DUP1 ISZERO PUSH2 0x10 JUMPI PUSH1 0x0 DUP1 REVERT JUMPDEST POP PUSH2 0x4D46 DUP1 PUSH2 0x20 PUSH1 0x0 CODECOPY PUSH1 0x0 RETURN INVALID PUSH1 0x80 PUSH1 0x40 MSTORE PUSH1 0x4 CALLDATASIZE LT PUSH2 0xDD JUMPI PUSH1 0x0 CALLDATALOAD PUSH1 0xE0 SHR DUP1 PUSH4 0xA1484F25 GT PUSH2 0x7F JUMPI DUP1 PUSH4 0xD0D17B87 GT PUSH2 0x59 JUMPI DUP1 PUSH4 0xD0D17B87 EQ PUSH2 0x220 JUMPI DUP1 PUSH4 0xEF329C2C EQ PUSH2 0x240 JUMPI DUP1 PUSH4 0xF42E7699 EQ PUSH2 0x260 JUMPI DUP1 PUSH4 0xFC2BF055 EQ PUSH2 0x28D JUMPI PUSH1 0x0 DUP1 REVERT JUMPDEST DUP1 PUSH4 0xA1484F25 EQ PUSH2 0x1DA JUMPI DUP1 PUSH4 0xB1002409 EQ PUSH2 0x1ED JUMPI DUP1 PUSH4 0xC7DA4A1A EQ PUSH2 0x200 JUMPI PUSH1 0x0 DUP1 REVERT JUMPDEST DUP1 PUSH4 0x312E25D3 GT PUSH2 0xBB JUMPI DUP1 PUSH4 0x312E25D3 EQ PUSH2 0x167 JUMPI DUP1 PUSH4 0x4BC40123 EQ PUSH2 0x187 JUMPI DUP1 PUSH4 0x7EEAFD34 EQ PUSH2 0x1A7 JUMPI DUP1 PUSH4 0x9617E885 EQ PUSH2 0x1BA JUMPI PUSH1 0x0 DUP1 REVERT JUMPDEST DUP1 PUSH4 0x78D1600 EQ PUSH2 0xE2 JUMPI DUP1 PUSH4 0x98DE6D0 EQ PUSH2 0x118 JUMPI DUP1 PUSH4 0x2D56657D EQ PUSH2 0x13A JUMPI JUMPDEST PUSH1 0x0 DUP1 REVERT JUMPDEST CALLVALUE DUP1 ISZERO PUSH2 0xEE JUMPI PUSH1 0x0 DUP1 REVERT JUMPDEST POP PUSH2 0x102 PUSH2 0xFD CALLDATASIZE PUSH1 0x4 PUSH2 0x4204 JUMP JUMPDEST PUSH2 0x2BA JUMP JUMPDEST PUSH1 0x40 MLOAD PUSH2 0x10F SWAP2 SWAP1 PUSH2 0x4586 JUMP JUMPDEST PUSH1 0x40 MLOAD DUP1 SWAP2 SUB SWAP1 RETURN JUMPDEST CALLVALUE DUP1 ISZERO PUSH2 0x124 JUMPI PUSH1 0x0 DUP1 REVERT JUMPDEST POP PUSH2 0x138 PUSH2 0x133 CALLDATASIZE PUSH1 0x4 PUSH2 0x45B5 JUMP JUMPDEST PUSH2 0x84E JUMP JUMPDEST STOP JUMPDEST CALLVALUE DUP1 ISZERO PUSH2 0x146 JUMPI PUSH1 0x0 DUP1 REVERT JUMPDEST POP PUSH2 0x15A PUSH2 0x155 CALLDATASIZE PUSH1 0x4 PUSH2 0x4605 JUMP JUMPDEST PUSH2 0x8F6 JUMP JUMPDEST PUSH1 0x40 MLOAD PUSH2 0x10F SWAP2 SWAP1 PUSH2 0x4622 JUMP JUMPDEST CALLVALUE DUP1 ISZERO PUSH2 0x173 JUMPI PUSH1 0x0 DUP1 REVERT JUMPDEST POP PUSH2 0x15A PUSH2 0x182 CALLDATASIZE PUSH1 0x4 PUSH2 0x4605 JUMP JUMPDEST PUSH2 0xF9F JUMP JUMPDEST CALLVALUE DUP1 ISZERO PUSH2 0x193 JUMPI PUSH1 0x0 DUP1 REVERT JUMPDEST POP PUSH2 0x138 PUSH2 0x1A2 CALLDATASIZE PUSH1 0x4 PUSH2 0x4684 JUMP JUMPDEST PUSH2 0x1640 JUMP JUMPDEST PUSH2 0x138 PUSH2 0x1B5 CALLDATASIZE PUSH1 0x4 PUSH2 0x46C9 JUMP JUMPDEST PUSH2 0x1AB5 JUMP JUMPDEST CALLVALUE DUP1 ISZERO PUSH2 0x1C6 JUMPI PUSH1 0x0 DUP1 REVERT JUMPDEST POP PUSH2 0x138 PUSH2 0x1D5 CALLDATASIZE PUSH1 0x4 PUSH2 0x4684 JUMP JUMPDEST PUSH2 0x1DF5 JUMP JUMPDEST PUSH2 0x138 PUSH2 0x1E8 CALLDATASIZE PUSH1 0x4 PUSH2 0x4684 JUMP JUMPDEST PUSH2 0x2111 JUMP JUMPDEST PUSH2 0x138 PUSH2 0x1FB CALLDATASIZE PUSH1 0x4 PUSH2 0x480F JUMP JUMPDEST PUSH2 0x26D9 JUMP JUMPDEST CALLVALUE DUP1 ISZERO PUSH2 0x20C JUMPI PUSH1 0x0 DUP1 REVERT JUMPDEST POP PUSH2 0x138 PUSH2 0x21B CALLDATASIZE PUSH1 0x4 PUSH2 0x48E5 JUMP JUMPDEST PUSH2 0x2BFF JUMP JUMPDEST CALLVALUE DUP1 ISZERO PUSH2 0x22C JUMPI PUSH1 0x0 DUP1 REVERT JUMPDEST POP PUSH2 0x138 PUSH2 0x23B CALLDATASIZE PUSH1 0x4 PUSH2 0x46C9 JUMP JUMPDEST PUSH2 0x2FB9 JUMP JUMPDEST CALLVALUE DUP1 ISZERO PUSH2 0x24C JUMPI PUSH1 0x0 DUP1 REVERT JUMPDEST POP PUSH2 0x138 PUSH2 0x25B CALLDATASIZE PUSH1 0x4 PUSH2 0x4927 JUMP JUMPDEST PUSH2 0x3618 JUMP JUMPDEST CALLVALUE DUP1 ISZERO PUSH2 0x26C JUMPI PUSH1 0x0 DUP1 REVERT JUMPDEST POP PUSH2 0x280 PUSH2 0x27B CALLDATASIZE PUSH1 0x4 PUSH2 0x4204 JUMP JUMPDEST PUSH2 0x39DE JUMP JUMPDEST PUSH1 0x40 MLOAD PUSH2 0x10F SWAP2 SWAP1 PUSH2 0x497B JUMP JUMPDEST CALLVALUE DUP1 ISZERO PUSH2 0x299 JUMPI PUSH1 0x0 DUP1 REVERT JUMPDEST POP PUSH2 0x2AD PUSH2 0x2A8 CALLDATASIZE PUSH1 0x4 PUSH2 0x498E JUMP JUMPDEST PUSH2 0x3B7E JUMP JUMPDEST PUSH1 0x40 MLOAD PUSH2 0x10F SWAP2 SWAP1 PUSH2 0x49E0 JUMP JUMPDEST PUSH2 0x2C2 PUSH2 0x4062 JUMP JUMPDEST DUP2 PUSH1 0x0 DUP2 PUSH1 0x40 MLOAD PUSH2 0x2D3 SWAP2 SWAP1 PUSH2 0x49F3 JUMP JUMPDEST SWAP1 DUP2 MSTORE PUSH1 0x40 MLOAD SWAP1 DUP2 SWAP1 SUB PUSH1 0x20 ADD SWAP1 KECCAK256 DUP1 SLOAD PUSH2 0x2ED SWAP1 PUSH2 0x4A0F JUMP JUMPDEST SWAP1 POP PUSH1 0x0 SUB PUSH2 0x338 JUMPI PUSH1 0x40 MLOAD PUSH3 0x461BCD PUSH1 0xE5 SHL DUP2 MSTORE PUSH1 0x20 PUSH1 0x4 DUP3 ADD MSTORE PUSH1 0x12 PUSH1 0x24 DUP3 ADD MSTORE PUSH18 0x10995D08191BD95CC81B9BDD08195E1A5CDD PUSH1 0x72 SHL PUSH1 0x44 DUP3 ADD MSTORE PUSH1 0x64 ADD JUMPDEST PUSH1 0x40 MLOAD DUP1 SWAP2 SUB SWAP1 REVERT JUMPDEST PUSH1 0x0 DUP4 PUSH1 0x40 MLOAD PUSH2 0x348 SWAP2 SWAP1 PUSH2 0x49F3 JUMP JUMPDEST SWAP1 DUP2 MSTORE PUSH1 0x20 ADD PUSH1 0x40 MLOAD DUP1 SWAP2 SUB SWAP1 KECCAK256 PUSH1 0x40 MLOAD DUP1 PUSH2 0x1A0 ADD PUSH1 0x40 MSTORE SWAP1 DUP2 PUSH1 0x0 DUP3 ADD DUP1 SLOAD PUSH2 0x372 SWAP1 PUSH2 0x4A0F JUMP JUMPDEST DUP1 PUSH1 0x1F ADD PUSH1 0x20 DUP1 SWAP2 DIV MUL PUSH1 0x20 ADD PUSH1 0x40 MLOAD SWAP1 DUP2 ADD PUSH1 0x40 MSTORE DUP1 SWAP3 SWAP2 SWAP1 DUP2 DUP2 MSTORE PUSH1 0x20 ADD DUP3 DUP1 SLOAD PUSH2 0x39E SWAP1 PUSH2 0x4A0F JUMP JUMPDEST DUP1 ISZERO PUSH2 0x3EB JUMPI DUP1 PUSH1 0x1F LT PUSH2 0x3C0 JUMPI PUSH2 0x100 DUP1 DUP4 SLOAD DIV MUL DUP4 MSTORE SWAP2 PUSH1 0x20 ADD SWAP2 PUSH2 0x3EB JUMP JUMPDEST DUP3 ADD SWAP2 SWAP1 PUSH1 0x0 MSTORE PUSH1 0x20 PUSH1 0x0 KECCAK256 SWAP1 JUMPDEST DUP2 SLOAD DUP2 MSTORE SWAP1 PUSH1 0x1 ADD SWAP1 PUSH1 0x20 ADD DUP1 DUP4 GT PUSH2 0x3CE JUMPI DUP3 SWAP1 SUB PUSH1 0x1F AND DUP3 ADD SWAP2 JUMPDEST POP POP POP POP POP DUP2 MSTORE PUSH1 0x20 ADD PUSH1 0x1 DUP3 ADD DUP1 SLOAD PUSH2 0x404 SWAP1 PUSH2 0x4A0F JUMP JUMPDEST DUP1 PUSH1 0x1F ADD PUSH1 0x20 DUP1 SWAP2 DIV MUL PUSH1 0x20 ADD PUSH1 0x40 MLOAD SWAP1 DUP2 ADD PUSH1 0x40 MSTORE DUP1 SWAP3 SWAP2 SWAP1 DUP2 DUP2 MSTORE PUSH1 0x20 ADD DUP3 DUP1 SLOAD PUSH2 0x430 SWAP1 PUSH2 0x4A0F JUMP JUMPDEST DUP1 ISZERO PUSH2 0x47D JUMPI DUP1 PUSH1 0x1F LT PUSH2 0x452 JUMPI PUSH2 0x100 DUP1 DUP4 SLOAD DIV MUL DUP4 MSTORE SWAP2 PUSH1 0x20 ADD SWAP2 PUSH2 0x47D JUMP JUMPDEST DUP3 ADD SWAP2 SWAP1 PUSH1 0x0 MSTORE PUSH1 0x20 PUSH1 0x0 KECCAK256 SWAP1 JUMPDEST DUP2 SLOAD DUP2 MSTORE SWAP1 PUSH1 0x1 ADD SWAP1 PUSH1 0x20 ADD DUP1 DUP4 GT PUSH2 0x460 JUMPI DUP3 SWAP1 SUB PUSH1 0x1F AND DUP3 ADD SWAP2 JUMPDEST POP POP POP POP POP DUP2 MSTORE PUSH1 0x20 ADD PUSH1 0x2 DUP3 ADD DUP1 SLOAD PUSH2 0x496 SWAP1 PUSH2 0x4A0F JUMP JUMPDEST DUP1 PUSH1 0x1F ADD PUSH1 0x20 DUP1 SWAP2 DIV MUL PUSH1 0x20 ADD PUSH1 0x40 MLOAD SWAP1 DUP2 ADD PUSH1 0x40 MSTORE DUP1 SWAP3 SWAP2 SWAP1 DUP2 DUP2 MSTORE PUSH1 0x20 ADD DUP3 DUP1 SLOAD PUSH2 0x4C2 SWAP1 PUSH2 0x4A0F JUMP JUMPDEST DUP1 ISZERO PUSH2 0x50F JUMPI DUP1 PUSH1 0x1F LT PUSH2 0x4E4 JUMPI PUSH2 0x100 DUP1 DUP4 SLOAD DIV MUL DUP4 MSTORE SWAP2 PUSH1 0x20 ADD SWAP2 PUSH2 0x50F JUMP JUMPDEST DUP3 ADD SWAP2 SWAP1 PUSH1 0x0 MSTORE PUSH1 0x20 PUSH1 0x0 KECCAK256 SWAP1 JUMPDEST DUP2 SLOAD DUP2 MSTORE SWAP1 PUSH1 0x1 ADD SWAP1 PUSH1 0x20 ADD DUP1 DUP4 GT PUSH2 0x4F2 JUMPI DUP3 SWAP1 SUB PUSH1 0x1F AND DUP3 ADD SWAP2 JUMPDEST POP POP POP SWAP2 DUP4 MSTORE POP POP PUSH1 0x3 DUP3 ADD SLOAD PUSH1 0x20 DUP1 DUP4 ADD SWAP2 SWAP1 SWAP2 MSTORE PUSH1 0x4 DUP4 ADD SLOAD PUSH1 0x1 PUSH1 0x1 PUSH1 0xA0 SHL SUB SWAP1 DUP2 AND PUSH1 0x40 DUP1 DUP6 ADD SWAP2 SWAP1 SWAP2 MSTORE PUSH1 0x5 DUP6 ADD SLOAD SWAP1 SWAP2 AND PUSH1 0x60 DUP5 ADD MSTORE PUSH1 0x6 DUP5 ADD DUP1 SLOAD DUP3 MLOAD DUP2 DUP6 MUL DUP2 ADD DUP6 ADD SWAP1 SWAP4 MSTORE DUP1 DUP4 MSTORE PUSH1 0x80 SWAP1 SWAP5 ADD SWAP4 SWAP2 SWAP3 SWAP1 SWAP2 SWAP1 PUSH1 0x0 SWAP1 DUP5 ADD JUMPDEST DUP3 DUP3 LT ISZERO PUSH2 0x61D JUMPI DUP4 DUP3 SWAP1 PUSH1 0x0 MSTORE PUSH1 0x20 PUSH1 0x0 KECCAK256 ADD DUP1 SLOAD PUSH2 0x590 SWAP1 PUSH2 0x4A0F JUMP JUMPDEST DUP1 PUSH1 0x1F ADD PUSH1 0x20 DUP1 SWAP2 DIV MUL PUSH1 0x20 ADD PUSH1 0x40 MLOAD SWAP1 DUP2 ADD PUSH1 0x40 MSTORE DUP1 SWAP3 SWAP2 SWAP1 DUP2 DUP2 MSTORE PUSH1 0x20 ADD DUP3 DUP1 SLOAD PUSH2 0x5BC SWAP1 PUSH2 0x4A0F JUMP JUMPDEST DUP1 ISZERO PUSH2 0x609 JUMPI DUP1 PUSH1 0x1F LT PUSH2 0x5DE JUMPI PUSH2 0x100 DUP1 DUP4 SLOAD DIV MUL DUP4 MSTORE SWAP2 PUSH1 0x20 ADD SWAP2 PUSH2 0x609 JUMP JUMPDEST DUP3 ADD SWAP2 SWAP1 PUSH1 0x0 MSTORE PUSH1 0x20 PUSH1 0x0 KECCAK256 SWAP1 JUMPDEST DUP2 SLOAD DUP2 MSTORE SWAP1 PUSH1 0x1 ADD SWAP1 PUSH1 0x20 ADD DUP1 DUP4 GT PUSH2 0x5EC JUMPI DUP3 SWAP1 SUB PUSH1 0x1F AND DUP3 ADD SWAP2 JUMPDEST POP POP POP POP POP DUP2 MSTORE PUSH1 0x20 ADD SWAP1 PUSH1 0x1 ADD SWAP1 PUSH2 0x571 JUMP JUMPDEST POP POP POP POP DUP2 MSTORE PUSH1 0x20 ADD PUSH1 0x7 DUP3 ADD DUP1 SLOAD DUP1 PUSH1 0x20 MUL PUSH1 0x20 ADD PUSH1 0x40 MLOAD SWAP1 DUP2 ADD PUSH1 0x40 MSTORE DUP1 SWAP3 SWAP2 SWAP1 DUP2 DUP2 MSTORE PUSH1 0x20 ADD PUSH1 0x0 SWAP1 JUMPDEST DUP3 DUP3 LT ISZERO PUSH2 0x6DF JUMPI PUSH1 0x0 DUP5 DUP2 MSTORE PUSH1 0x20 SWAP1 DUP2 SWAP1 KECCAK256 PUSH1 0x40 DUP1 MLOAD DUP1 DUP3 ADD DUP3 MSTORE PUSH1 0x2 DUP7 MUL SWAP1 SWAP3 ADD DUP1 SLOAD PUSH1 0x1 PUSH1 0x1 PUSH1 0xA0 SHL SUB AND DUP4 MSTORE PUSH1 0x1 DUP2 ADD DUP1 SLOAD DUP4 MLOAD DUP2 DUP8 MUL DUP2 ADD DUP8 ADD SWAP1 SWAP5 MSTORE DUP1 DUP5 MSTORE SWAP4 SWAP5 SWAP2 SWAP4 DUP6 DUP4 ADD SWAP4 SWAP3 DUP4 ADD DUP3 DUP3 DUP1 ISZERO PUSH2 0x6C7 JUMPI PUSH1 0x20 MUL DUP3 ADD SWAP2 SWAP1 PUSH1 0x0 MSTORE PUSH1 0x20 PUSH1 0x0 KECCAK256 SWAP1 JUMPDEST DUP2 SLOAD DUP2 MSTORE PUSH1 0x20 ADD SWAP1 PUSH1 0x1 ADD SWAP1 DUP1 DUP4 GT PUSH2 0x6B3 JUMPI JUMPDEST POP POP POP POP POP DUP2 MSTORE POP POP DUP2 MSTORE PUSH1 0x20 ADD SWAP1 PUSH1 0x1 ADD SWAP1 PUSH2 0x64A JUMP JUMPDEST POP POP POP POP DUP2 MSTORE PUSH1 0x20 ADD PUSH1 0x8 DUP3 ADD SLOAD DUP2 MSTORE PUSH1 0x20 ADD PUSH1 0x9 DUP3 ADD SLOAD DUP2 MSTORE PUSH1 0x20 ADD PUSH1 0xA DUP3 ADD DUP1 SLOAD DUP1 PUSH1 0x20 MUL PUSH1 0x20 ADD PUSH1 0x40 MLOAD SWAP1 DUP2 ADD PUSH1 0x40 MSTORE DUP1 SWAP3 SWAP2 SWAP1 DUP2 DUP2 MSTORE PUSH1 0x20 ADD PUSH1 0x0 SWAP1 JUMPDEST DUP3 DUP3 LT ISZERO PUSH2 0x800 JUMPI PUSH1 0x0 DUP5 DUP2 MSTORE PUSH1 0x20 SWAP1 DUP2 SWAP1 KECCAK256 PUSH1 0x40 DUP1 MLOAD PUSH1 0xE0 DUP2 ADD DUP3 MSTORE PUSH1 0x6 DUP7 MUL SWAP1 SWAP3 ADD DUP1 SLOAD PUSH1 0x1 PUSH1 0x1 PUSH1 0xA0 SHL SUB SWAP1 DUP2 AND DUP5 MSTORE PUSH1 0x1 DUP3 ADD SLOAD AND SWAP4 DUP4 ADD SWAP4 SWAP1 SWAP4 MSTORE PUSH1 0x2 DUP1 DUP5 ADD SLOAD SWAP2 DUP4 ADD SWAP2 SWAP1 SWAP2 MSTORE PUSH1 0x3 DUP4 ADD SLOAD PUSH1 0x60 DUP4 ADD MSTORE PUSH1 0x4 DUP4 ADD SLOAD PUSH1 0x80 DUP4 ADD MSTORE PUSH1 0x5 DUP4 ADD SLOAD SWAP2 SWAP3 SWAP2 PUSH1 0xA0 DUP5 ADD SWAP2 PUSH1 0xFF SWAP1 SWAP2 AND SWAP1 DUP2 GT ISZERO PUSH2 0x7A3 JUMPI PUSH2 0x7A3 PUSH2 0x4394 JUMP JUMPDEST PUSH1 0x2 DUP2 GT ISZERO PUSH2 0x7B4 JUMPI PUSH2 0x7B4 PUSH2 0x4394 JUMP JUMPDEST DUP2 MSTORE PUSH1 0x20 ADD PUSH1 0x5 DUP3 ADD PUSH1 0x1 SWAP1 SLOAD SWAP1 PUSH2 0x100 EXP SWAP1 DIV PUSH1 0xFF AND PUSH1 0x1 DUP2 GT ISZERO PUSH2 0x7DC JUMPI PUSH2 0x7DC PUSH2 0x4394 JUMP JUMPDEST PUSH1 0x1 DUP2 GT ISZERO PUSH2 0x7ED JUMPI PUSH2 0x7ED PUSH2 0x4394 JUMP JUMPDEST DUP2 MSTORE POP POP DUP2 MSTORE PUSH1 0x20 ADD SWAP1 PUSH1 0x1 ADD SWAP1 PUSH2 0x720 JUMP JUMPDEST POP POP POP SWAP1 DUP3 MSTORE POP PUSH1 0xB DUP3 ADD SLOAD PUSH1 0x20 SWAP1 SWAP2 ADD SWAP1 PUSH1 0xFF AND PUSH1 0x1 DUP2 GT ISZERO PUSH2 0x826 JUMPI PUSH2 0x826 PUSH2 0x4394 JUMP JUMPDEST PUSH1 0x1 DUP2 GT ISZERO PUSH2 0x837 JUMPI PUSH2 0x837 PUSH2 0x4394 JUMP JUMPDEST DUP2 MSTORE PUSH1 0x20 ADD PUSH1 0xC DUP3 ADD SLOAD DUP2 MSTORE POP POP SWAP2 POP JUMPDEST POP SWAP2 SWAP1 POP JUMP JUMPDEST PUSH1 0x3 DUP2 PUSH1 0x40 MLOAD PUSH2 0x85E SWAP2 SWAP1 PUSH2 0x49F3 JUMP JUMPDEST SWAP1 DUP2 MSTORE PUSH1 0x40 DUP1 MLOAD PUSH1 0x20 SWAP3 DUP2 SWAP1 SUB DUP4 ADD SWAP1 KECCAK256 PUSH1 0x1 PUSH1 0x1 PUSH1 0xA0 SHL SUB DUP6 AND PUSH1 0x0 SWAP1 DUP2 MSTORE SWAP3 MSTORE SWAP1 KECCAK256 SLOAD PUSH1 0xFF AND PUSH2 0x8F2 JUMPI PUSH1 0x1 PUSH1 0x3 DUP3 PUSH1 0x40 MLOAD PUSH2 0x89C SWAP2 SWAP1 PUSH2 0x49F3 JUMP JUMPDEST SWAP1 DUP2 MSTORE PUSH1 0x40 DUP1 MLOAD PUSH1 0x20 SWAP3 DUP2 SWAP1 SUB DUP4 ADD SWAP1 KECCAK256 PUSH1 0x1 PUSH1 0x1 PUSH1 0xA0 SHL SUB DUP7 AND PUSH1 0x0 SWAP1 DUP2 MSTORE SWAP1 DUP4 MSTORE DUP2 DUP2 KECCAK256 DUP1 SLOAD PUSH1 0xFF NOT AND SWAP5 ISZERO ISZERO SWAP5 SWAP1 SWAP5 OR SWAP1 SWAP4 SSTORE PUSH1 0x2 DUP3 MSTORE DUP3 KECCAK256 DUP1 SLOAD PUSH1 0x1 DUP2 ADD DUP3 SSTORE SWAP1 DUP4 MSTORE SWAP2 KECCAK256 ADD PUSH2 0x8F0 DUP3 DUP3 PUSH2 0x4A89 JUMP JUMPDEST POP JUMPDEST POP POP JUMP JUMPDEST PUSH1 0x1 PUSH1 0x1 PUSH1 0xA0 SHL SUB DUP2 AND PUSH1 0x0 SWAP1 DUP2 MSTORE PUSH1 0x1 PUSH1 0x20 SWAP1 DUP2 MSTORE PUSH1 0x40 DUP1 DUP4 KECCAK256 DUP1 SLOAD DUP3 MLOAD DUP2 DUP6 MUL DUP2 ADD DUP6 ADD SWAP1 SWAP4 MSTORE DUP1 DUP4 MSTORE PUSH1 0x60 SWAP5 SWAP4 DUP5 SWAP1 DUP5 ADD JUMPDEST DUP3 DUP3 LT ISZERO PUSH2 0x9D7 JUMPI DUP4 DUP3 SWAP1 PUSH1 0x0 MSTORE PUSH1 0x20 PUSH1 0x0 KECCAK256 ADD DUP1 SLOAD PUSH2 0x94A SWAP1 PUSH2 0x4A0F JUMP JUMPDEST DUP1 PUSH1 0x1F ADD PUSH1 0x20 DUP1 SWAP2 DIV MUL PUSH1 0x20 ADD PUSH1 0x40 MLOAD SWAP1 DUP2 ADD PUSH1 0x40 MSTORE DUP1 SWAP3 SWAP2 SWAP1 DUP2 DUP2 MSTORE PUSH1 0x20 ADD DUP3 DUP1 SLOAD PUSH2 0x976 SWAP1 PUSH2 0x4A0F JUMP JUMPDEST DUP1 ISZERO PUSH2 0x9C3 JUMPI DUP1 PUSH1 0x1F LT PUSH2 0x998 JUMPI PUSH2 0x100 DUP1 DUP4 SLOAD DIV MUL DUP4 MSTORE SWAP2 PUSH1 0x20 ADD SWAP2 PUSH2 0x9C3 JUMP JUMPDEST DUP3 ADD SWAP2 SWAP1 PUSH1 0x0 MSTORE PUSH1 0x20 PUSH1 0x0 KECCAK256 SWAP1 JUMPDEST DUP2 SLOAD DUP2 MSTORE SWAP1 PUSH1 0x1 ADD SWAP1 PUSH1 0x20 ADD DUP1 DUP4 GT PUSH2 0x9A6 JUMPI DUP3 SWAP1 SUB PUSH1 0x1F AND DUP3 ADD SWAP2 JUMPDEST POP POP POP POP POP DUP2 MSTORE PUSH1 0x20 ADD SWAP1 PUSH1 0x1 ADD SWAP1 PUSH2 0x92B JUMP JUMPDEST POP POP POP POP SWAP1 POP PUSH1 0x0 DUP2 MLOAD PUSH8 0xFFFFFFFFFFFFFFFF DUP2 GT ISZERO PUSH2 0x9F9 JUMPI PUSH2 0x9F9 PUSH2 0x414D JUMP JUMPDEST PUSH1 0x40 MLOAD SWAP1 DUP1 DUP3 MSTORE DUP1 PUSH1 0x20 MUL PUSH1 0x20 ADD DUP3 ADD PUSH1 0x40 MSTORE DUP1 ISZERO PUSH2 0xA32 JUMPI DUP2 PUSH1 0x20 ADD JUMPDEST PUSH2 0xA1F PUSH2 0x4062 JUMP JUMPDEST DUP2 MSTORE PUSH1 0x20 ADD SWAP1 PUSH1 0x1 SWAP1 SUB SWAP1 DUP2 PUSH2 0xA17 JUMPI SWAP1 POP JUMPDEST POP SWAP1 POP PUSH1 0x0 JUMPDEST DUP2 MLOAD DUP2 LT ISZERO PUSH2 0xF97 JUMPI PUSH1 0x0 DUP4 DUP3 DUP2 MLOAD DUP2 LT PUSH2 0xA55 JUMPI PUSH2 0xA55 PUSH2 0x4B49 JUMP JUMPDEST PUSH1 0x20 MUL PUSH1 0x20 ADD ADD MLOAD PUSH1 0x40 MLOAD PUSH2 0xA6A SWAP2 SWAP1 PUSH2 0x49F3 JUMP JUMPDEST SWAP1 DUP2 MSTORE PUSH1 0x20 ADD PUSH1 0x40 MLOAD DUP1 SWAP2 SUB SWAP1 KECCAK256 PUSH1 0x40 MLOAD DUP1 PUSH2 0x1A0 ADD PUSH1 0x40 MSTORE SWAP1 DUP2 PUSH1 0x0 DUP3 ADD DUP1 SLOAD PUSH2 0xA94 SWAP1 PUSH2 0x4A0F JUMP JUMPDEST DUP1 PUSH1 0x1F ADD PUSH1 0x20 DUP1 SWAP2 DIV MUL PUSH1 0x20 ADD PUSH1 0x40 MLOAD SWAP1 DUP2 ADD PUSH1 0x40 MSTORE DUP1 SWAP3 SWAP2 SWAP1 DUP2 DUP2 MSTORE PUSH1 0x20 ADD DUP3 DUP1 SLOAD PUSH2 0xAC0 SWAP1 PUSH2 0x4A0F JUMP JUMPDEST DUP1 ISZERO PUSH2 0xB0D JUMPI DUP1 PUSH1 0x1F LT PUSH2 0xAE2 JUMPI PUSH2 0x100 DUP1 DUP4 SLOAD DIV MUL DUP4 MSTORE SWAP2 PUSH1 0x20 ADD SWAP2 PUSH2 0xB0D JUMP JUMPDEST DUP3 ADD SWAP2 SWAP1 PUSH1 0x0 MSTORE PUSH1 0x20 PUSH1 0x0 KECCAK256 SWAP1 JUMPDEST DUP2 SLOAD DUP2 MSTORE SWAP1 PUSH1 0x1 ADD SWAP1 PUSH1 0x20 ADD DUP1 DUP4 GT PUSH2 0xAF0 JUMPI DUP3 SWAP1 SUB PUSH1 0x1F AND DUP3 ADD SWAP2 JUMPDEST POP POP POP POP POP DUP2 MSTORE PUSH1 0x20 ADD PUSH1 0x1 DUP3 ADD DUP1 SLOAD PUSH2 0xB26 SWAP1 PUSH2 0x4A0F JUMP JUMPDEST DUP1 PUSH1 0x1F ADD PUSH1 0x20 DUP1 SWAP2 DIV MUL PUSH1 0x20 ADD PUSH1 0x40 MLOAD SWAP1 DUP2 ADD PUSH1 0x40 MSTORE DUP1 SWAP3 SWAP2 SWAP1 DUP2 DUP2 MSTORE PUSH1 0x20 ADD DUP3 DUP1 SLOAD PUSH2 0xB52 SWAP1 PUSH2 0x4A0F JUMP JUMPDEST DUP1 ISZERO PUSH2 0xB9F JUMPI DUP1 PUSH1 0x1F LT PUSH2 0xB74 JUMPI PUSH2 0x100 DUP1 DUP4 SLOAD DIV MUL DUP4 MSTORE SWAP2 PUSH1 0x20 ADD SWAP2 PUSH2 0xB9F JUMP JUMPDEST DUP3 ADD SWAP2 SWAP1 PUSH1 0x0 MSTORE PUSH1 0x20 PUSH1 0x0 KECCAK256 SWAP1 JUMPDEST DUP2 SLOAD DUP2 MSTORE SWAP1 PUSH1 0x1 ADD SWAP1 PUSH1 0x20 ADD DUP1 DUP4 GT PUSH2 0xB82 JUMPI DUP3 SWAP1 SUB PUSH1 0x1F AND DUP3 ADD SWAP2 JUMPDEST POP POP POP POP POP DUP2 MSTORE PUSH1 0x20 ADD PUSH1 0x2 DUP3 ADD DUP1 SLOAD PUSH2 0xBB8 SWAP1 PUSH2 0x4A0F JUMP JUMPDEST DUP1 PUSH1 0x1F ADD PUSH1 0x20 DUP1 SWAP2 DIV MUL PUSH1 0x20 ADD PUSH1 0x40 MLOAD SWAP1 DUP2 ADD PUSH1 0x40 MSTORE DUP1 SWAP3 SWAP2 SWAP1 DUP2 DUP2 MSTORE PUSH1 0x20 ADD DUP3 DUP1 SLOAD PUSH2 0xBE4 SWAP1 PUSH2 0x4A0F JUMP JUMPDEST DUP1 ISZERO PUSH2 0xC31 JUMPI DUP1 PUSH1 0x1F LT PUSH2 0xC06 JUMPI PUSH2 0x100 DUP1 DUP4 SLOAD DIV MUL DUP4 MSTORE SWAP2 PUSH1 0x20 ADD SWAP2 PUSH2 0xC31 JUMP JUMPDEST DUP3 ADD SWAP2 SWAP1 PUSH1 0x0 MSTORE PUSH1 0x20 PUSH1 0x0 KECCAK256 SWAP1 JUMPDEST DUP2 SLOAD DUP2 MSTORE SWAP1 PUSH1 0x1 ADD SWAP1 PUSH1 0x20 ADD DUP1 DUP4 GT PUSH2 0xC14 JUMPI DUP3 SWAP1 SUB PUSH1 0x1F AND DUP3 ADD SWAP2 JUMPDEST POP POP POP SWAP2 DUP4 MSTORE POP POP PUSH1 0x3 DUP3 ADD SLOAD PUSH1 0x20 DUP1 DUP4 ADD SWAP2 SWAP1 SWAP2 MSTORE PUSH1 0x4 DUP4 ADD SLOAD PUSH1 0x1 PUSH1 0x1 PUSH1 0xA0 SHL SUB SWAP1 DUP2 AND PUSH1 0x40 DUP1 DUP6 ADD SWAP2 SWAP1 SWAP2 MSTORE PUSH1 0x5 DUP6 ADD SLOAD SWAP1 SWAP2 AND PUSH1 0x60 DUP5 ADD MSTORE PUSH1 0x6 DUP5 ADD DUP1 SLOAD DUP3 MLOAD DUP2 DUP6 MUL DUP2 ADD DUP6 ADD SWAP1 SWAP4 MSTORE DUP1 DUP4 MSTORE PUSH1 0x80 SWAP1 SWAP5 ADD SWAP4 SWAP2 SWAP3 SWAP1 SWAP2 SWAP1 PUSH1 0x0 SWAP1 DUP5 ADD JUMPDEST DUP3 DUP3 LT ISZERO PUSH2 0xD3F JUMPI DUP4 DUP3 SWAP1 PUSH1 0x0 MSTORE PUSH1 0x20 PUSH1 0x0 KECCAK256 ADD DUP1 SLOAD PUSH2 0xCB2 SWAP1 PUSH2 0x4A0F JUMP JUMPDEST DUP1 PUSH1 0x1F ADD PUSH1 0x20 DUP1 SWAP2 DIV MUL PUSH1 0x20 ADD PUSH1 0x40 MLOAD SWAP1 DUP2 ADD PUSH1 0x40 MSTORE DUP1 SWAP3 SWAP2 SWAP1 DUP2 DUP2 MSTORE PUSH1 0x20 ADD DUP3 DUP1 SLOAD PUSH2 0xCDE SWAP1 PUSH2 0x4A0F JUMP JUMPDEST DUP1 ISZERO PUSH2 0xD2B JUMPI DUP1 PUSH1 0x1F LT PUSH2 0xD00 JUMPI PUSH2 0x100 DUP1 DUP4 SLOAD DIV MUL DUP4 MSTORE SWAP2 PUSH1 0x20 ADD SWAP2 PUSH2 0xD2B JUMP JUMPDEST DUP3 ADD SWAP2 SWAP1 PUSH1 0x0 MSTORE PUSH1 0x20 PUSH1 0x0 KECCAK256 SWAP1 JUMPDEST DUP2 SLOAD DUP2 MSTORE SWAP1 PUSH1 0x1 ADD SWAP1 PUSH1 0x20 ADD DUP1 DUP4 GT PUSH2 0xD0E JUMPI DUP3 SWAP1 SUB PUSH1 0x1F AND DUP3 ADD SWAP2 JUMPDEST POP POP POP POP POP DUP2 MSTORE PUSH1 0x20 ADD SWAP1 PUSH1 0x1 ADD SWAP1 PUSH2 0xC93 JUMP JUMPDEST POP POP POP POP DUP2 MSTORE PUSH1 0x20 ADD PUSH1 0x7 DUP3 ADD DUP1 SLOAD DUP1 PUSH1 0x20 MUL PUSH1 0x20 ADD PUSH1 0x40 MLOAD SWAP1 DUP2 ADD PUSH1 0x40 MSTORE DUP1 SWAP3 SWAP2 SWAP1 DUP2 DUP2 MSTORE PUSH1 0x20 ADD PUSH1 0x0 SWAP1 JUMPDEST DUP3 DUP3 LT ISZERO PUSH2 0xE01 JUMPI PUSH1 0x0 DUP5 DUP2 MSTORE PUSH1 0x20 SWAP1 DUP2 SWAP1 KECCAK256 PUSH1 0x40 DUP1 MLOAD DUP1 DUP3 ADD DUP3 MSTORE PUSH1 0x2 DUP7 MUL SWAP1 SWAP3 ADD DUP1 SLOAD PUSH1 0x1 PUSH1 0x1 PUSH1 0xA0 SHL SUB AND DUP4 MSTORE PUSH1 0x1 DUP2 ADD DUP1 SLOAD DUP4 MLOAD DUP2 DUP8 MUL DUP2 ADD DUP8 ADD SWAP1 SWAP5 MSTORE DUP1 DUP5 MSTORE SWAP4 SWAP5 SWAP2 SWAP4 DUP6 DUP4 ADD SWAP4 SWAP3 DUP4 ADD DUP3 DUP3 DUP1 ISZERO PUSH2 0xDE9 JUMPI PUSH1 0x20 MUL DUP3 ADD SWAP2 SWAP1 PUSH1 0x0 MSTORE PUSH1 0x20 PUSH1 0x0 KECCAK256 SWAP1 JUMPDEST DUP2 SLOAD DUP2 MSTORE PUSH1 0x20 ADD SWAP1 PUSH1 0x1 ADD SWAP1 DUP1 DUP4 GT PUSH2 0xDD5 JUMPI JUMPDEST POP POP POP POP POP DUP2 MSTORE POP POP DUP2 MSTORE PUSH1 0x20 ADD SWAP1 PUSH1 0x1 ADD SWAP1 PUSH2 0xD6C JUMP JUMPDEST POP POP POP POP DUP2 MSTORE PUSH1 0x20 ADD PUSH1 0x8 DUP3 ADD SLOAD DUP2 MSTORE PUSH1 0x20 ADD PUSH1 0x9 DUP3 ADD SLOAD DUP2 MSTORE PUSH1 0x20 ADD PUSH1 0xA DUP3 ADD DUP1 SLOAD DUP1 PUSH1 0x20 MUL PUSH1 0x20 ADD PUSH1 0x40 MLOAD SWAP1 DUP2 ADD PUSH1 0x40 MSTORE DUP1 SWAP3 SWAP2 SWAP1 DUP2 DUP2 MSTORE PUSH1 0x20 ADD PUSH1 0x0 SWAP1 JUMPDEST DUP3 DUP3 LT ISZERO PUSH2 0xF22 JUMPI PUSH1 0x0 DUP5 DUP2 MSTORE PUSH1 0x20 SWAP1 DUP2 SWAP1 KECCAK256 PUSH1 0x40 DUP1 MLOAD PUSH1 0xE0 DUP2 ADD DUP3 MSTORE PUSH1 0x6 DUP7 MUL SWAP1 SWAP3 ADD DUP1 SLOAD PUSH1 0x1 PUSH1 0x1 PUSH1 0xA0 SHL SUB SWAP1 DUP2 AND DUP5 MSTORE PUSH1 0x1 DUP3 ADD SLOAD AND SWAP4 DUP4 ADD SWAP4 SWAP1 SWAP4 MSTORE PUSH1 0x2 DUP1 DUP5 ADD SLOAD SWAP2 DUP4 ADD SWAP2 SWAP1 SWAP2 MSTORE PUSH1 0x3 DUP4 ADD SLOAD PUSH1 0x60 DUP4 ADD MSTORE PUSH1 0x4 DUP4 ADD SLOAD PUSH1 0x80 DUP4 ADD MSTORE PUSH1 0x5 DUP4 ADD SLOAD SWAP2 SWAP3 SWAP2 PUSH1 0xA0 DUP5 ADD SWAP2 PUSH1 0xFF SWAP1 SWAP2 AND SWAP1 DUP2 GT ISZERO PUSH2 0xEC5 JUMPI PUSH2 0xEC5 PUSH2 0x4394 JUMP JUMPDEST PUSH1 0x2 DUP2 GT ISZERO PUSH2 0xED6 JUMPI PUSH2 0xED6 PUSH2 0x4394 JUMP JUMPDEST DUP2 MSTORE PUSH1 0x20 ADD PUSH1 0x5 DUP3 ADD PUSH1 0x1 SWAP1 SLOAD SWAP1 PUSH2 0x100 EXP SWAP1 DIV PUSH1 0xFF AND PUSH1 0x1 DUP2 GT ISZERO PUSH2 0xEFE JUMPI PUSH2 0xEFE PUSH2 0x4394 JUMP JUMPDEST PUSH1 0x1 DUP2 GT ISZERO PUSH2 0xF0F JUMPI PUSH2 0xF0F PUSH2 0x4394 JUMP JUMPDEST DUP2 MSTORE POP POP DUP2 MSTORE PUSH1 0x20 ADD SWAP1 PUSH1 0x1 ADD SWAP1 PUSH2 0xE42 JUMP JUMPDEST POP POP POP SWAP1 DUP3 MSTORE POP PUSH1 0xB DUP3 ADD SLOAD PUSH1 0x20 SWAP1 SWAP2 ADD SWAP1 PUSH1 0xFF AND PUSH1 0x1 DUP2 GT ISZERO PUSH2 0xF48 JUMPI PUSH2 0xF48 PUSH2 0x4394 JUMP JUMPDEST PUSH1 0x1 DUP2 GT ISZERO PUSH2 0xF59 JUMPI PUSH2 0xF59 PUSH2 0x4394 JUMP JUMPDEST DUP2 MSTORE PUSH1 0x20 ADD PUSH1 0xC DUP3 ADD SLOAD DUP2 MSTORE POP POP DUP3 DUP3 DUP2 MLOAD DUP2 LT PUSH2 0xF79 JUMPI PUSH2 0xF79 PUSH2 0x4B49 JUMP JUMPDEST PUSH1 0x20 MUL PUSH1 0x20 ADD ADD DUP2 SWAP1 MSTORE POP DUP1 DUP1 PUSH2 0xF8F SWAP1 PUSH2 0x4B75 JUMP JUMPDEST SWAP2 POP POP PUSH2 0xA38 JUMP JUMPDEST POP SWAP4 SWAP3 POP POP POP JUMP JUMPDEST PUSH1 0x1 PUSH1 0x1 PUSH1 0xA0 SHL SUB DUP2 AND PUSH1 0x0 SWAP1 DUP2 MSTORE PUSH1 0x2 PUSH1 0x20 SWAP1 DUP2 MSTORE PUSH1 0x40 DUP1 DUP4 KECCAK256 DUP1 SLOAD DUP3 MLOAD DUP2 DUP6 MUL DUP2 ADD DUP6 ADD SWAP1 SWAP4 MSTORE DUP1 DUP4 MSTORE PUSH1 0x60 SWAP5 SWAP4 DUP5 SWAP1 DUP5 ADD JUMPDEST DUP3 DUP3 LT ISZERO PUSH2 0x1080 JUMPI DUP4 DUP3 SWAP1 PUSH1 0x0 MSTORE PUSH1 0x20 PUSH1 0x0 KECCAK256 ADD DUP1 SLOAD PUSH2 0xFF3 SWAP1 PUSH2 0x4A0F JUMP JUMPDEST DUP1 PUSH1 0x1F ADD PUSH1 0x20 DUP1 SWAP2 DIV MUL PUSH1 0x20 ADD PUSH1 0x40 MLOAD SWAP1 DUP2 ADD PUSH1 0x40 MSTORE DUP1 SWAP3 SWAP2 SWAP1 DUP2 DUP2 MSTORE PUSH1 0x20 ADD DUP3 DUP1 SLOAD PUSH2 0x101F SWAP1 PUSH2 0x4A0F JUMP JUMPDEST DUP1 ISZERO PUSH2 0x106C JUMPI DUP1 PUSH1 0x1F LT PUSH2 0x1041 JUMPI PUSH2 0x100 DUP1 DUP4 SLOAD DIV MUL DUP4 MSTORE SWAP2 PUSH1 0x20 ADD SWAP2 PUSH2 0x106C JUMP JUMPDEST DUP3 ADD SWAP2 SWAP1 PUSH1 0x0 MSTORE PUSH1 0x20 PUSH1 0x0 KECCAK256 SWAP1 JUMPDEST DUP2 SLOAD DUP2 MSTORE SWAP1 PUSH1 0x1 ADD SWAP1 PUSH1 0x20 ADD DUP1 DUP4 GT PUSH2 0x104F JUMPI DUP3 SWAP1 SUB PUSH1 0x1F AND DUP3 ADD SWAP2 JUMPDEST POP POP POP POP POP DUP2 MSTORE PUSH1 0x20 ADD SWAP1 PUSH1 0x1 ADD SWAP1 PUSH2 0xFD4 JUMP JUMPDEST POP POP POP POP SWAP1 POP PUSH1 0x0 DUP2 MLOAD PUSH8 0xFFFFFFFFFFFFFFFF DUP2 GT ISZERO PUSH2 0x10A2 JUMPI PUSH2 0x10A2 PUSH2 0x414D JUMP JUMPDEST PUSH1 0x40 MLOAD SWAP1 DUP1 DUP3 MSTORE DUP1 PUSH1 0x20 MUL PUSH1 0x20 ADD DUP3 ADD PUSH1 0x40 MSTORE DUP1 ISZERO PUSH2 0x10DB JUMPI DUP2 PUSH1 0x20 ADD JUMPDEST PUSH2 0x10C8 PUSH2 0x4062 JUMP JUMPDEST DUP2 MSTORE PUSH1 0x20 ADD SWAP1 PUSH1 0x1 SWAP1 SUB SWAP1 DUP2 PUSH2 0x10C0 JUMPI SWAP1 POP JUMPDEST POP SWAP1 POP PUSH1 0x0 JUMPDEST DUP2 MLOAD DUP2 LT ISZERO PUSH2 0xF97 JUMPI PUSH1 0x0 DUP4 DUP3 DUP2 MLOAD DUP2 LT PUSH2 0x10FE JUMPI PUSH2 0x10FE PUSH2 0x4B49 JUMP JUMPDEST PUSH1 0x20 MUL PUSH1 0x20 ADD ADD MLOAD PUSH1 0x40 MLOAD PUSH2 0x1113 SWAP2 SWAP1 PUSH2 0x49F3 JUMP JUMPDEST SWAP1 DUP2 MSTORE PUSH1 0x20 ADD PUSH1 0x40 MLOAD DUP1 SWAP2 SUB SWAP1 KECCAK256 PUSH1 0x40 MLOAD DUP1 PUSH2 0x1A0 ADD PUSH1 0x40 MSTORE SWAP1 DUP2 PUSH1 0x0 DUP3 ADD DUP1 SLOAD PUSH2 0x113D SWAP1 PUSH2 0x4A0F JUMP JUMPDEST DUP1 PUSH1 0x1F ADD PUSH1 0x20 DUP1 SWAP2 DIV MUL PUSH1 0x20 ADD PUSH1 0x40 MLOAD SWAP1 DUP2 ADD PUSH1 0x40 MSTORE DUP1 SWAP3 SWAP2 SWAP1 DUP2 DUP2 MSTORE PUSH1 0x20 ADD DUP3 DUP1 SLOAD PUSH2 0x1169 SWAP1 PUSH2 0x4A0F JUMP JUMPDEST DUP1 ISZERO PUSH2 0x11B6 JUMPI DUP1 PUSH1 0x1F LT PUSH2 0x118B JUMPI PUSH2 0x100 DUP1 DUP4 SLOAD DIV MUL DUP4 MSTORE SWAP2 PUSH1 0x20 ADD SWAP2 PUSH2 0x11B6 JUMP JUMPDEST DUP3 ADD SWAP2 SWAP1 PUSH1 0x0 MSTORE PUSH1 0x20 PUSH1 0x0 KECCAK256 SWAP1 JUMPDEST DUP2 SLOAD DUP2 MSTORE SWAP1 PUSH1 0x1 ADD SWAP1 PUSH1 0x20 ADD DUP1 DUP4 GT PUSH2 0x1199 JUMPI DUP3 SWAP1 SUB PUSH1 0x1F AND DUP3 ADD SWAP2 JUMPDEST POP POP POP POP POP DUP2 MSTORE PUSH1 0x20 ADD PUSH1 0x1 DUP3 ADD DUP1 SLOAD PUSH2 0x11CF SWAP1 PUSH2 0x4A0F JUMP JUMPDEST DUP1 PUSH1 0x1F ADD PUSH1 0x20 DUP1 SWAP2 DIV MUL PUSH1 0x20 ADD PUSH1 0x40 MLOAD SWAP1 DUP2 ADD PUSH1 0x40 MSTORE DUP1 SWAP3 SWAP2 SWAP1 DUP2 DUP2 MSTORE PUSH1 0x20 ADD DUP3 DUP1 SLOAD PUSH2 0x11FB SWAP1 PUSH2 0x4A0F JUMP JUMPDEST DUP1 ISZERO PUSH2 0x1248 JUMPI DUP1 PUSH1 0x1F LT PUSH2 0x121D JUMPI PUSH2 0x100 DUP1 DUP4 SLOAD DIV MUL DUP4 MSTORE SWAP2 PUSH1 0x20 ADD SWAP2 PUSH2 0x1248 JUMP JUMPDEST DUP3 ADD SWAP2 SWAP1 PUSH1 0x0 MSTORE PUSH1 0x20 PUSH1 0x0 KECCAK256 SWAP1 JUMPDEST DUP2 SLOAD DUP2 MSTORE SWAP1 PUSH1 0x1 ADD SWAP1 PUSH1 0x20 ADD DUP1 DUP4 GT PUSH2 0x122B JUMPI DUP3 SWAP1 SUB PUSH1 0x1F AND DUP3 ADD SWAP2 JUMPDEST POP POP POP POP POP DUP2 MSTORE PUSH1 0x20 ADD PUSH1 0x2 DUP3 ADD DUP1 SLOAD PUSH2 0x1261 SWAP1 PUSH2 0x4A0F JUMP JUMPDEST DUP1 PUSH1 0x1F ADD PUSH1 0x20 DUP1 SWAP2 DIV MUL PUSH1 0x20 ADD PUSH1 0x40 MLOAD SWAP1 DUP2 ADD PUSH1 0x40 MSTORE DUP1 SWAP3 SWAP2 SWAP1 DUP2 DUP2 MSTORE PUSH1 0x20 ADD DUP3 DUP1 SLOAD PUSH2 0x128D SWAP1 PUSH2 0x4A0F JUMP JUMPDEST DUP1 ISZERO PUSH2 0x12DA JUMPI DUP1 PUSH1 0x1F LT PUSH2 0x12AF JUMPI PUSH2 0x100 DUP1 DUP4 SLOAD DIV MUL DUP4 MSTORE SWAP2 PUSH1 0x20 ADD SWAP2 PUSH2 0x12DA JUMP JUMPDEST DUP3 ADD SWAP2 SWAP1 PUSH1 0x0 MSTORE PUSH1 0x20 PUSH1 0x0 KECCAK256 SWAP1 JUMPDEST DUP2 SLOAD DUP2 MSTORE SWAP1 PUSH1 0x1 ADD SWAP1 PUSH1 0x20 ADD DUP1 DUP4 GT PUSH2 0x12BD JUMPI DUP3 SWAP1 SUB PUSH1 0x1F AND DUP3 ADD SWAP2 JUMPDEST POP POP POP SWAP2 DUP4 MSTORE POP POP PUSH1 0x3 DUP3 ADD SLOAD PUSH1 0x20 DUP1 DUP4 ADD SWAP2 SWAP1 SWAP2 MSTORE PUSH1 0x4 DUP4 ADD SLOAD PUSH1 0x1 PUSH1 0x1 PUSH1 0xA0 SHL SUB SWAP1 DUP2 AND PUSH1 0x40 DUP1 DUP6 ADD SWAP2 SWAP1 SWAP2 MSTORE PUSH1 0x5 DUP6 ADD SLOAD SWAP1 SWAP2 AND PUSH1 0x60 DUP5 ADD MSTORE PUSH1 0x6 DUP5 ADD DUP1 SLOAD DUP3 MLOAD DUP2 DUP6 MUL DUP2 ADD DUP6 ADD SWAP1 SWAP4 MSTORE DUP1 DUP4 MSTORE PUSH1 0x80 SWAP1 SWAP5 ADD SWAP4 SWAP2 SWAP3 SWAP1 SWAP2 SWAP1 PUSH1 0x0 SWAP1 DUP5 ADD JUMPDEST DUP3 DUP3 LT ISZERO PUSH2 0x13E8 JUMPI DUP4 DUP3 SWAP1 PUSH1 0x0 MSTORE PUSH1 0x20 PUSH1 0x0 KECCAK256 ADD DUP1 SLOAD PUSH2 0x135B SWAP1 PUSH2 0x4A0F JUMP JUMPDEST DUP1 PUSH1 0x1F ADD PUSH1 0x20 DUP1 SWAP2 DIV MUL PUSH1 0x20 ADD PUSH1 0x40 MLOAD SWAP1 DUP2 ADD PUSH1 0x40 MSTORE DUP1 SWAP3 SWAP2 SWAP1 DUP2 DUP2 MSTORE PUSH1 0x20 ADD DUP3 DUP1 SLOAD PUSH2 0x1387 SWAP1 PUSH2 0x4A0F JUMP JUMPDEST DUP1 ISZERO PUSH2 0x13D4 JUMPI DUP1 PUSH1 0x1F LT PUSH2 0x13A9 JUMPI PUSH2 0x100 DUP1 DUP4 SLOAD DIV MUL DUP4 MSTORE SWAP2 PUSH1 0x20 ADD SWAP2 PUSH2 0x13D4 JUMP JUMPDEST DUP3 ADD SWAP2 SWAP1 PUSH1 0x0 MSTORE PUSH1 0x20 PUSH1 0x0 KECCAK256 SWAP1 JUMPDEST DUP2 SLOAD DUP2 MSTORE SWAP1 PUSH1 0x1 ADD SWAP1 PUSH1 0x20 ADD DUP1 DUP4 GT PUSH2 0x13B7 JUMPI DUP3 SWAP1 SUB PUSH1 0x1F AND DUP3 ADD SWAP2 JUMPDEST POP POP POP POP POP DUP2 MSTORE PUSH1 0x20 ADD SWAP1 PUSH1 0x1 ADD SWAP1 PUSH2 0x133C JUMP JUMPDEST POP POP POP POP DUP2 MSTORE PUSH1 0x20 ADD PUSH1 0x7 DUP3 ADD DUP1 SLOAD DUP1 PUSH1 0x20 MUL PUSH1 0x20 ADD PUSH1 0x40 MLOAD SWAP1 DUP2 ADD PUSH1 0x40 MSTORE DUP1 SWAP3 SWAP2 SWAP1 DUP2 DUP2 MSTORE PUSH1 0x20 ADD PUSH1 0x0 SWAP1 JUMPDEST DUP3 DUP3 LT ISZERO PUSH2 0x14AA JUMPI PUSH1 0x0 DUP5 DUP2 MSTORE PUSH1 0x20 SWAP1 DUP2 SWAP1 KECCAK256 PUSH1 0x40 DUP1 MLOAD DUP1 DUP3 ADD DUP3 MSTORE PUSH1 0x2 DUP7 MUL SWAP1 SWAP3 ADD DUP1 SLOAD PUSH1 0x1 PUSH1 0x1 PUSH1 0xA0 SHL SUB AND DUP4 MSTORE PUSH1 0x1 DUP2 ADD DUP1 SLOAD DUP4 MLOAD DUP2 DUP8 MUL DUP2 ADD DUP8 ADD SWAP1 SWAP5 MSTORE DUP1 DUP5 MSTORE SWAP4 SWAP5 SWAP2 SWAP4 DUP6 DUP4 ADD SWAP4 SWAP3 DUP4 ADD DUP3 DUP3 DUP1 ISZERO PUSH2 0x1492 JUMPI PUSH1 0x20 MUL DUP3 ADD SWAP2 SWAP1 PUSH1 0x0 MSTORE PUSH1 0x20 PUSH1 0x0 KECCAK256 SWAP1 JUMPDEST DUP2 SLOAD DUP2 MSTORE PUSH1 0x20 ADD SWAP1 PUSH1 0x1 ADD SWAP1 DUP1 DUP4 GT PUSH2 0x147E JUMPI JUMPDEST POP POP POP POP POP DUP2 MSTORE POP POP DUP2 MSTORE PUSH1 0x20 ADD SWAP1 PUSH1 0x1 ADD SWAP1 PUSH2 0x1415 JUMP JUMPDEST POP POP POP POP DUP2 MSTORE PUSH1 0x20 ADD PUSH1 0x8 DUP3 ADD SLOAD DUP2 MSTORE PUSH1 0x20 ADD PUSH1 0x9 DUP3 ADD SLOAD DUP2 MSTORE PUSH1 0x20 ADD PUSH1 0xA DUP3 ADD DUP1 SLOAD DUP1 PUSH1 0x20 MUL PUSH1 0x20 ADD PUSH1 0x40 MLOAD SWAP1 DUP2 ADD PUSH1 0x40 MSTORE DUP1 SWAP3 SWAP2 SWAP1 DUP2 DUP2 MSTORE PUSH1 0x20 ADD PUSH1 0x0 SWAP1 JUMPDEST DUP3 DUP3 LT ISZERO PUSH2 0x15CB JUMPI PUSH1 0x0 DUP5 DUP2 MSTORE PUSH1 0x20 SWAP1 DUP2 SWAP1 KECCAK256 PUSH1 0x40 DUP1 MLOAD PUSH1 0xE0 DUP2 ADD DUP3 MSTORE PUSH1 0x6 DUP7 MUL SWAP1 SWAP3 ADD DUP1 SLOAD PUSH1 0x1 PUSH1 0x1 PUSH1 0xA0 SHL SUB SWAP1 DUP2 AND DUP5 MSTORE PUSH1 0x1 DUP3 ADD SLOAD AND SWAP4 DUP4 ADD SWAP4 SWAP1 SWAP4 MSTORE PUSH1 0x2 DUP1 DUP5 ADD SLOAD SWAP2 DUP4 ADD SWAP2 SWAP1 SWAP2 MSTORE PUSH1 0x3 DUP4 ADD SLOAD PUSH1 0x60 DUP4 ADD MSTORE PUSH1 0x4 DUP4 ADD SLOAD PUSH1 0x80 DUP4 ADD MSTORE PUSH1 0x5 DUP4 ADD SLOAD SWAP2 SWAP3 SWAP2 PUSH1 0xA0 DUP5 ADD SWAP2 PUSH1 0xFF SWAP1 SWAP2 AND SWAP1 DUP2 GT ISZERO PUSH2 0x156E JUMPI PUSH2 0x156E PUSH2 0x4394 JUMP JUMPDEST PUSH1 0x2 DUP2 GT ISZERO PUSH2 0x157F JUMPI PUSH2 0x157F PUSH2 0x4394 JUMP JUMPDEST DUP2 MSTORE PUSH1 0x20 ADD PUSH1 0x5 DUP3 ADD PUSH1 0x1 SWAP1 SLOAD SWAP1 PUSH2 0x100 EXP SWAP1 DIV PUSH1 0xFF AND PUSH1 0x1 DUP2 GT ISZERO PUSH2 0x15A7 JUMPI PUSH2 0x15A7 PUSH2 0x4394 JUMP JUMPDEST PUSH1 0x1 DUP2 GT ISZERO PUSH2 0x15B8 JUMPI PUSH2 0x15B8 PUSH2 0x4394 JUMP JUMPDEST DUP2 MSTORE POP POP DUP2 MSTORE PUSH1 0x20 ADD SWAP1 PUSH1 0x1 ADD SWAP1 PUSH2 0x14EB JUMP JUMPDEST POP POP POP SWAP1 DUP3 MSTORE POP PUSH1 0xB DUP3 ADD SLOAD PUSH1 0x20 SWAP1 SWAP2 ADD SWAP1 PUSH1 0xFF AND PUSH1 0x1 DUP2 GT ISZERO PUSH2 0x15F1 JUMPI PUSH2 0x15F1 PUSH2 0x4394 JUMP JUMPDEST PUSH1 0x1 DUP2 GT ISZERO PUSH2 0x1602 JUMPI PUSH2 0x1602 PUSH2 0x4394 JUMP JUMPDEST DUP2 MSTORE PUSH1 0x20 ADD PUSH1 0xC DUP3 ADD SLOAD DUP2 MSTORE POP POP DUP3 DUP3 DUP2 MLOAD DUP2 LT PUSH2 0x1622 JUMPI PUSH2 0x1622 PUSH2 0x4B49 JUMP JUMPDEST PUSH1 0x20 MUL PUSH1 0x20 ADD ADD DUP2 SWAP1 MSTORE POP DUP1 DUP1 PUSH2 0x1638 SWAP1 PUSH2 0x4B75 JUMP JUMPDEST SWAP2 POP POP PUSH2 0x10E1 JUMP JUMPDEST DUP2 PUSH1 0x0 DUP2 PUSH1 0x40 MLOAD PUSH2 0x1651 SWAP2 SWAP1 PUSH2 0x49F3 JUMP JUMPDEST SWAP1 DUP2 MSTORE PUSH1 0x40 MLOAD SWAP1 DUP2 SWAP1 SUB PUSH1 0x20 ADD SWAP1 KECCAK256 DUP1 SLOAD PUSH2 0x166B SWAP1 PUSH2 0x4A0F JUMP JUMPDEST SWAP1 POP PUSH1 0x0 SUB PUSH2 0x16B1 JUMPI PUSH1 0x40 MLOAD PUSH3 0x461BCD PUSH1 0xE5 SHL DUP2 MSTORE PUSH1 0x20 PUSH1 0x4 DUP3 ADD MSTORE PUSH1 0x12 PUSH1 0x24 DUP3 ADD MSTORE PUSH18 0x10995D08191BD95CC81B9BDD08195E1A5CDD PUSH1 0x72 SHL PUSH1 0x44 DUP3 ADD MSTORE PUSH1 0x64 ADD PUSH2 0x32F JUMP JUMPDEST DUP3 PUSH1 0x0 DUP1 DUP3 PUSH1 0x40 MLOAD PUSH2 0x16C3 SWAP2 SWAP1 PUSH2 0x49F3 JUMP JUMPDEST SWAP1 DUP2 MSTORE PUSH1 0x40 MLOAD SWAP1 DUP2 SWAP1 SUB PUSH1 0x20 ADD SWAP1 KECCAK256 PUSH1 0xB ADD SLOAD PUSH1 0xFF AND PUSH1 0x1 DUP2 GT ISZERO PUSH2 0x16EA JUMPI PUSH2 0x16EA PUSH2 0x4394 JUMP JUMPDEST EQ PUSH2 0x172F JUMPI PUSH1 0x40 MLOAD PUSH3 0x461BCD PUSH1 0xE5 SHL DUP2 MSTORE PUSH1 0x20 PUSH1 0x4 DUP3 ADD MSTORE PUSH1 0x15 PUSH1 0x24 DUP3 ADD MSTORE PUSH21 0x2132BA1034B9903737903637B733B2B91037B832B7 PUSH1 0x59 SHL PUSH1 0x44 DUP3 ADD MSTORE PUSH1 0x64 ADD PUSH2 0x32F JUMP JUMPDEST PUSH1 0x0 DUP1 DUP6 PUSH1 0x40 MLOAD PUSH2 0x1740 SWAP2 SWAP1 PUSH2 0x49F3 JUMP JUMPDEST SWAP1 DUP2 MSTORE PUSH1 0x20 ADD PUSH1 0x40 MLOAD DUP1 SWAP2 SUB SWAP1 KECCAK256 SWAP1 POP DUP1 PUSH1 0x8 ADD SLOAD TIMESTAMP GT PUSH2 0x17C8 JUMPI PUSH1 0x40 MLOAD PUSH3 0x461BCD PUSH1 0xE5 SHL DUP2 MSTORE PUSH1 0x20 PUSH1 0x4 DUP3 ADD MSTORE PUSH1 0x24 DUP1 DUP3 ADD MSTORE PUSH32 0x42657474696E6720646561646C696E6520776173206E6F742072656163686564 PUSH1 0x44 DUP3 ADD MSTORE PUSH32 0x2079657400000000000000000000000000000000000000000000000000000000 PUSH1 0x64 DUP3 ADD MSTORE PUSH1 0x84 ADD PUSH2 0x32F JUMP JUMPDEST DUP1 PUSH1 0x9 ADD SLOAD TIMESTAMP GT ISZERO PUSH2 0x1842 JUMPI PUSH1 0x40 MLOAD PUSH3 0x461BCD PUSH1 0xE5 SHL DUP2 MSTORE PUSH1 0x20 PUSH1 0x4 DUP3 ADD MSTORE PUSH1 0x21 PUSH1 0x24 DUP3 ADD MSTORE PUSH32 0x416E737765722072657665616C20646561646C696E6520686173207061737365 PUSH1 0x44 DUP3 ADD MSTORE PUSH32 0x6400000000000000000000000000000000000000000000000000000000000000 PUSH1 0x64 DUP3 ADD MSTORE PUSH1 0x84 ADD PUSH2 0x32F JUMP JUMPDEST PUSH1 0x5 DUP2 ADD SLOAD PUSH1 0x1 PUSH1 0x1 PUSH1 0xA0 SHL SUB AND CALLER EQ PUSH2 0x18C4 JUMPI PUSH1 0x40 MLOAD PUSH3 0x461BCD PUSH1 0xE5 SHL DUP2 MSTORE PUSH1 0x20 PUSH1 0x4 DUP3 ADD MSTORE PUSH1 0x23 PUSH1 0x24 DUP3 ADD MSTORE PUSH32 0x596F7520617265206E6F74207468652073656C65637465642061726269747261 PUSH1 0x44 DUP3 ADD MSTORE PUSH32 0x746F720000000000000000000000000000000000000000000000000000000000 PUSH1 0x64 DUP3 ADD MSTORE PUSH1 0x84 ADD PUSH2 0x32F JUMP JUMPDEST PUSH1 0x6 DUP2 ADD SLOAD DUP5 LT PUSH2 0x1917 JUMPI PUSH1 0x40 MLOAD PUSH3 0x461BCD PUSH1 0xE5 SHL DUP2 MSTORE PUSH1 0x20 PUSH1 0x4 DUP3 ADD MSTORE PUSH1 0x1A PUSH1 0x24 DUP3 ADD MSTORE PUSH32 0x54686973206F7074696F6E20646F6573206E6F74206578697374000000000000 PUSH1 0x44 DUP3 ADD MSTORE PUSH1 0x64 ADD PUSH2 0x32F JUMP JUMPDEST PUSH1 0xB DUP2 ADD DUP1 SLOAD PUSH1 0xFF NOT AND PUSH1 0x1 OR SWAP1 SSTORE PUSH1 0x0 JUMPDEST PUSH1 0xA DUP3 ADD SLOAD DUP2 LT ISZERO PUSH2 0x1995 JUMPI PUSH1 0x0 DUP3 PUSH1 0xA ADD DUP3 DUP2 SLOAD DUP2 LT PUSH2 0x194C JUMPI PUSH2 0x194C PUSH2 0x4B49 JUMP JUMPDEST PUSH1 0x0 SWAP2 DUP3 MSTORE PUSH1 0x20 SWAP1 SWAP2 KECCAK256 PUSH1 0x5 PUSH1 0x6 SWAP1 SWAP3 MUL ADD ADD SLOAD PUSH1 0xFF AND PUSH1 0x2 DUP2 GT ISZERO PUSH2 0x1974 JUMPI PUSH2 0x1974 PUSH2 0x4394 JUMP JUMPDEST SUB PUSH2 0x1983 JUMPI PUSH2 0x1983 DUP7 DUP3 PUSH2 0x1DF5 JUMP JUMPDEST DUP1 PUSH2 0x198D DUP2 PUSH2 0x4B75 JUMP JUMPDEST SWAP2 POP POP PUSH2 0x1929 JUMP JUMPDEST POP PUSH1 0x0 JUMPDEST PUSH1 0x7 DUP3 ADD SLOAD DUP2 LT ISZERO PUSH2 0x1AA8 JUMPI PUSH1 0x0 DUP3 PUSH1 0x7 ADD DUP3 DUP2 SLOAD DUP2 LT PUSH2 0x19BC JUMPI PUSH2 0x19BC PUSH2 0x4B49 JUMP JUMPDEST SWAP1 PUSH1 0x0 MSTORE PUSH1 0x20 PUSH1 0x0 KECCAK256 SWAP1 PUSH1 0x2 MUL ADD PUSH1 0x1 ADD DUP7 DUP2 SLOAD DUP2 LT PUSH2 0x19DE JUMPI PUSH2 0x19DE PUSH2 0x4B49 JUMP JUMPDEST SWAP1 PUSH1 0x0 MSTORE PUSH1 0x20 PUSH1 0x0 KECCAK256 ADD SLOAD GT ISZERO PUSH2 0x1A96 JUMPI DUP2 PUSH1 0x7 ADD DUP2 DUP2 SLOAD DUP2 LT PUSH2 0x1A04 JUMPI PUSH2 0x1A04 PUSH2 0x4B49 JUMP JUMPDEST PUSH1 0x0 SWAP2 DUP3 MSTORE PUSH1 0x20 SWAP1 SWAP2 KECCAK256 PUSH1 0x2 SWAP1 SWAP2 MUL ADD SLOAD PUSH1 0x7 DUP4 ADD DUP1 SLOAD PUSH1 0x1 PUSH1 0x1 PUSH1 0xA0 SHL SUB SWAP1 SWAP3 AND SWAP2 PUSH2 0x8FC SWAP2 SWAP1 DUP5 SWAP1 DUP2 LT PUSH2 0x1A3C JUMPI PUSH2 0x1A3C PUSH2 0x4B49 JUMP JUMPDEST SWAP1 PUSH1 0x0 MSTORE PUSH1 0x20 PUSH1 0x0 KECCAK256 SWAP1 PUSH1 0x2 MUL ADD PUSH1 0x1 ADD DUP8 DUP2 SLOAD DUP2 LT PUSH2 0x1A5E JUMPI PUSH2 0x1A5E PUSH2 0x4B49 JUMP JUMPDEST SWAP1 PUSH1 0x0 MSTORE PUSH1 0x20 PUSH1 0x0 KECCAK256 ADD SLOAD SWAP1 DUP2 ISZERO MUL SWAP1 PUSH1 0x40 MLOAD PUSH1 0x0 PUSH1 0x40 MLOAD DUP1 DUP4 SUB DUP2 DUP6 DUP9 DUP9 CALL SWAP4 POP POP POP POP ISZERO DUP1 ISZERO PUSH2 0x1A94 JUMPI RETURNDATASIZE PUSH1 0x0 DUP1 RETURNDATACOPY RETURNDATASIZE PUSH1 0x0 REVERT JUMPDEST POP JUMPDEST DUP1 PUSH2 0x1AA0 DUP2 PUSH2 0x4B75 JUMP JUMPDEST SWAP2 POP POP PUSH2 0x1999 JUMP JUMPDEST POP PUSH1 0xC ADD SWAP3 SWAP1 SWAP3 SSTORE POP POP POP JUMP JUMPDEST PUSH1 0x1 CALLVALUE LT ISZERO PUSH2 0x1B06 JUMPI PUSH1 0x40 MLOAD PUSH3 0x461BCD PUSH1 0xE5 SHL DUP2 MSTORE PUSH1 0x20 PUSH1 0x4 DUP3 ADD MSTORE PUSH1 0x1B PUSH1 0x24 DUP3 ADD MSTORE PUSH32 0x596F75206E65656420746F2073656E6420736F6D65206D6F6E65790000000000 PUSH1 0x44 DUP3 ADD MSTORE PUSH1 0x64 ADD PUSH2 0x32F JUMP JUMPDEST DUP3 PUSH1 0x0 DUP2 PUSH1 0x40 MLOAD PUSH2 0x1B17 SWAP2 SWAP1 PUSH2 0x49F3 JUMP JUMPDEST SWAP1 DUP2 MSTORE PUSH1 0x40 MLOAD SWAP1 DUP2 SWAP1 SUB PUSH1 0x20 ADD SWAP1 KECCAK256 DUP1 SLOAD PUSH2 0x1B31 SWAP1 PUSH2 0x4A0F JUMP JUMPDEST SWAP1 POP PUSH1 0x0 SUB PUSH2 0x1B77 JUMPI PUSH1 0x40 MLOAD PUSH3 0x461BCD PUSH1 0xE5 SHL DUP2 MSTORE PUSH1 0x20 PUSH1 0x4 DUP3 ADD MSTORE PUSH1 0x12 PUSH1 0x24 DUP3 ADD MSTORE PUSH18 0x10995D08191BD95CC81B9BDD08195E1A5CDD PUSH1 0x72 SHL PUSH1 0x44 DUP3 ADD MSTORE PUSH1 0x64 ADD PUSH2 0x32F JUMP JUMPDEST DUP4 PUSH1 0x0 DUP2 PUSH1 0x40 MLOAD PUSH2 0x1B88 SWAP2 SWAP1 PUSH2 0x49F3 JUMP JUMPDEST SWAP1 DUP2 MSTORE PUSH1 0x20 ADD PUSH1 0x40 MLOAD DUP1 SWAP2 SUB SWAP1 KECCAK256 PUSH1 0x8 ADD SLOAD TIMESTAMP LT PUSH2 0x1BE0 JUMPI PUSH1 0x40 MLOAD PUSH3 0x461BCD PUSH1 0xE5 SHL DUP2 MSTORE PUSH1 0x20 PUSH1 0x4 DUP3 ADD MSTORE PUSH1 0x15 PUSH1 0x24 DUP3 ADD MSTORE PUSH21 0x2132BA1034B9903737903637B733B2B91037B832B7 PUSH1 0x59 SHL PUSH1 0x44 DUP3 ADD MSTORE PUSH1 0x64 ADD PUSH2 0x32F JUMP JUMPDEST CALLVALUE DUP4 PUSH1 0x1 DUP2 PUSH2 0x1BF0 DUP5 PUSH1 0x64 PUSH2 0x4B8E JUMP JUMPDEST PUSH2 0x1BFA SWAP2 SWAP1 PUSH2 0x4BAB JUMP JUMPDEST LT ISZERO PUSH2 0x1C56 JUMPI PUSH1 0x40 MLOAD PUSH3 0x461BCD PUSH1 0xE5 SHL DUP2 MSTORE PUSH1 0x20 PUSH1 0x4 DUP3 ADD MSTORE PUSH1 0x25 PUSH1 0x24 DUP3 ADD MSTORE PUSH32 0x5072696365206D757374206265206C6172676572206F7220657175616C20746F PUSH1 0x44 DUP3 ADD MSTORE PUSH5 0x20302E3031 PUSH1 0xD8 SHL PUSH1 0x64 DUP3 ADD MSTORE PUSH1 0x84 ADD PUSH2 0x32F JUMP JUMPDEST PUSH1 0x63 DUP2 PUSH2 0x1C64 DUP5 PUSH1 0x64 PUSH2 0x4B8E JUMP JUMPDEST PUSH2 0x1C6E SWAP2 SWAP1 PUSH2 0x4BAB JUMP JUMPDEST GT ISZERO PUSH2 0x1CCB JUMPI PUSH1 0x40 MLOAD PUSH3 0x461BCD PUSH1 0xE5 SHL DUP2 MSTORE PUSH1 0x20 PUSH1 0x4 DUP3 ADD MSTORE PUSH1 0x26 PUSH1 0x24 DUP3 ADD MSTORE PUSH32 0x5072696365206D75737420626520736D616C6C6572206F7220657175616C2074 PUSH1 0x44 DUP3 ADD MSTORE PUSH6 0x6F20302E3939 PUSH1 0xD0 SHL PUSH1 0x64 DUP3 ADD MSTORE PUSH1 0x84 ADD PUSH2 0x32F JUMP JUMPDEST PUSH1 0x0 DUP1 DUP9 PUSH1 0x40 MLOAD PUSH2 0x1CDC SWAP2 SWAP1 PUSH2 0x49F3 JUMP JUMPDEST SWAP1 DUP2 MSTORE PUSH1 0x40 DUP1 MLOAD SWAP2 DUP3 SWAP1 SUB PUSH1 0x20 SWAP1 DUP2 ADD DUP4 KECCAK256 PUSH1 0xE0 DUP5 ADD DUP4 MSTORE CALLER DUP5 MSTORE PUSH1 0x0 DUP3 DUP6 ADD DUP2 DUP2 MSTORE SWAP4 DUP6 ADD DUP13 DUP2 MSTORE PUSH1 0x60 DUP7 ADD DUP13 DUP2 MSTORE CALLVALUE PUSH1 0x80 DUP9 ADD SWAP1 DUP2 MSTORE PUSH1 0xA0 DUP9 ADD DUP5 DUP2 MSTORE PUSH1 0xC0 DUP10 ADD DUP6 SWAP1 MSTORE PUSH1 0xA DUP7 ADD DUP1 SLOAD PUSH1 0x1 DUP1 DUP3 ADD DUP4 SSTORE SWAP2 DUP8 MSTORE SWAP8 SWAP1 SWAP6 KECCAK256 DUP10 MLOAD PUSH1 0x6 SWAP1 SWAP9 MUL ADD DUP1 SLOAD PUSH1 0x1 PUSH1 0x1 PUSH1 0xA0 SHL SUB NOT SWAP1 DUP2 AND PUSH1 0x1 PUSH1 0x1 PUSH1 0xA0 SHL SUB SWAP10 DUP11 AND OR DUP3 SSTORE SWAP9 MLOAD DUP2 DUP8 ADD DUP1 SLOAD SWAP1 SWAP11 AND SWAP9 AND SWAP8 SWAP1 SWAP8 OR SWAP1 SWAP8 SSTORE SWAP2 MLOAD PUSH1 0x2 DUP1 DUP8 ADD SWAP2 SWAP1 SWAP2 SSTORE SWAP1 MLOAD PUSH1 0x3 DUP7 ADD SSTORE SWAP1 MLOAD PUSH1 0x4 DUP6 ADD SSTORE SWAP4 MLOAD PUSH1 0x5 DUP5 ADD DUP1 SLOAD SWAP4 SWAP8 POP DUP7 SWAP6 SWAP2 SWAP4 SWAP1 SWAP3 PUSH1 0xFF NOT SWAP1 SWAP2 AND SWAP2 DUP5 SWAP1 DUP2 GT ISZERO PUSH2 0x1DAF JUMPI PUSH2 0x1DAF PUSH2 0x4394 JUMP JUMPDEST MUL OR SWAP1 SSTORE POP PUSH1 0xC0 DUP3 ADD MLOAD PUSH1 0x5 DUP3 ADD DUP1 SLOAD PUSH2 0xFF00 NOT AND PUSH2 0x100 DUP4 PUSH1 0x1 DUP2 GT ISZERO PUSH2 0x1DD9 JUMPI PUSH2 0x1DD9 PUSH2 0x4394 JUMP JUMPDEST MUL OR SWAP1 SSTORE POP POP POP PUSH2 0x1DEA CALLER DUP11 PUSH2 0x84E JUMP JUMPDEST POP POP POP POP POP POP POP POP POP JUMP JUMPDEST DUP2 PUSH1 0x0 DUP2 PUSH1 0x40 MLOAD PUSH2 0x1E06 SWAP2 SWAP1 PUSH2 0x49F3 JUMP JUMPDEST SWAP1 DUP2 MSTORE PUSH1 0x40 MLOAD SWAP1 DUP2 SWAP1 SUB PUSH1 0x20 ADD SWAP1 KECCAK256 DUP1 SLOAD PUSH2 0x1E20 SWAP1 PUSH2 0x4A0F JUMP JUMPDEST SWAP1 POP PUSH1 0x0 SUB PUSH2 0x1E66 JUMPI PUSH1 0x40 MLOAD PUSH3 0x461BCD PUSH1 0xE5 SHL DUP2 MSTORE PUSH1 0x20 PUSH1 0x4 DUP3 ADD MSTORE PUSH1 0x12 PUSH1 0x24 DUP3 ADD MSTORE PUSH18 0x10995D08191BD95CC81B9BDD08195E1A5CDD PUSH1 0x72 SHL PUSH1 0x44 DUP3 ADD MSTORE PUSH1 0x64 ADD PUSH2 0x32F JUMP JUMPDEST DUP3 DUP3 PUSH1 0x0 DUP3 PUSH1 0x40 MLOAD PUSH2 0x1E78 SWAP2 SWAP1 PUSH2 0x49F3 JUMP JUMPDEST SWAP1 DUP2 MSTORE PUSH1 0x40 MLOAD SWAP1 DUP2 SWAP1 SUB PUSH1 0x20 ADD SWAP1 KECCAK256 PUSH1 0xA ADD SLOAD DUP2 LT PUSH2 0x1ED9 JUMPI PUSH1 0x40 MLOAD PUSH3 0x461BCD PUSH1 0xE5 SHL DUP2 MSTORE PUSH1 0x20 PUSH1 0x4 DUP3 ADD MSTORE PUSH1 0x19 PUSH1 0x24 DUP3 ADD MSTORE PUSH32 0x54686973206F7264657220646F6573206E6F7420657869737400000000000000 PUSH1 0x44 DUP3 ADD MSTORE PUSH1 0x64 ADD PUSH2 0x32F JUMP JUMPDEST PUSH1 0x0 DUP1 DUP7 PUSH1 0x40 MLOAD PUSH2 0x1EEA SWAP2 SWAP1 PUSH2 0x49F3 JUMP JUMPDEST SWAP1 DUP2 MSTORE PUSH1 0x20 ADD PUSH1 0x40 MLOAD DUP1 SWAP2 SUB SWAP1 KECCAK256 SWAP1 POP PUSH1 0x0 DUP2 PUSH1 0xA ADD DUP7 DUP2 SLOAD DUP2 LT PUSH2 0x1F11 JUMPI PUSH2 0x1F11 PUSH2 0x4B49 JUMP JUMPDEST PUSH1 0x0 SWAP2 DUP3 MSTORE PUSH1 0x20 SWAP1 SWAP2 KECCAK256 PUSH1 0x6 SWAP1 SWAP2 MUL ADD SWAP1 POP PUSH1 0x1 PUSH1 0x5 DUP3 ADD SLOAD PUSH1 0xFF AND PUSH1 0x2 DUP2 GT ISZERO PUSH2 0x1F3E JUMPI PUSH2 0x1F3E PUSH2 0x4394 JUMP JUMPDEST SUB PUSH2 0x1F96 JUMPI PUSH1 0x40 MLOAD PUSH3 0x461BCD PUSH1 0xE5 SHL DUP2 MSTORE PUSH1 0x20 PUSH1 0x4 DUP3 ADD MSTORE PUSH1 0x22 PUSH1 0x24 DUP3 ADD MSTORE PUSH32 0x54686973206F726465722068617320616C7265616479206265656E2066696C6C PUSH1 0x44 DUP3 ADD MSTORE PUSH2 0x1959 PUSH1 0xF2 SHL PUSH1 0x64 DUP3 ADD MSTORE PUSH1 0x84 ADD PUSH2 0x32F JUMP JUMPDEST PUSH1 0x2 PUSH1 0x5 DUP3 ADD SLOAD PUSH1 0xFF AND PUSH1 0x2 DUP2 GT ISZERO PUSH2 0x1FB1 JUMPI PUSH2 0x1FB1 PUSH2 0x4394 JUMP JUMPDEST SUB PUSH2 0x200C JUMPI PUSH1 0x40 MLOAD PUSH3 0x461BCD PUSH1 0xE5 SHL DUP2 MSTORE PUSH1 0x20 PUSH1 0x4 DUP3 ADD MSTORE PUSH1 0x25 PUSH1 0x24 DUP3 ADD MSTORE PUSH32 0x54686973206F726465722068617320616C7265616479206265656E2063616E63 PUSH1 0x44 DUP3 ADD MSTORE PUSH5 0x195B1B1959 PUSH1 0xDA SHL PUSH1 0x64 DUP3 ADD MSTORE PUSH1 0x84 ADD PUSH2 0x32F JUMP JUMPDEST DUP1 SLOAD PUSH1 0x1 PUSH1 0x1 PUSH1 0xA0 SHL SUB AND CALLER EQ PUSH2 0x208B JUMPI PUSH1 0x40 MLOAD PUSH3 0x461BCD PUSH1 0xE5 SHL DUP2 MSTORE PUSH1 0x20 PUSH1 0x4 DUP3 ADD MSTORE PUSH1 0x25 PUSH1 0x24 DUP3 ADD MSTORE PUSH32 0x4F6E6C7920746865206F776E65722063616E2063616E63656C20746865697220 PUSH1 0x44 DUP3 ADD MSTORE PUSH32 0x6F72646572000000000000000000000000000000000000000000000000000000 PUSH1 0x64 DUP3 ADD MSTORE PUSH1 0x84 ADD PUSH2 0x32F JUMP JUMPDEST PUSH1 0x5 DUP2 ADD DUP1 SLOAD PUSH1 0xFF NOT AND PUSH1 0x2 OR SWAP1 DUP2 SWAP1 SSTORE PUSH1 0x0 SWAP1 PUSH1 0xFF PUSH2 0x100 SWAP1 SWAP2 DIV AND PUSH1 0x1 DUP2 GT ISZERO PUSH2 0x20B9 JUMPI PUSH2 0x20B9 PUSH2 0x4394 JUMP JUMPDEST SUB PUSH2 0x20F4 JUMPI PUSH1 0x4 DUP2 ADD SLOAD PUSH1 0x40 MLOAD CALLER SWAP2 DUP1 ISZERO PUSH2 0x8FC MUL SWAP2 PUSH1 0x0 DUP2 DUP2 DUP2 DUP6 DUP9 DUP9 CALL SWAP4 POP POP POP POP ISZERO DUP1 ISZERO PUSH2 0x20EE JUMPI RETURNDATASIZE PUSH1 0x0 DUP1 RETURNDATACOPY RETURNDATASIZE PUSH1 0x0 REVERT JUMPDEST POP PUSH2 0x2108 JUMP JUMPDEST PUSH2 0x2108 DUP8 CALLER DUP4 PUSH1 0x2 ADD SLOAD DUP5 PUSH1 0x3 ADD SLOAD PUSH2 0x3D98 JUMP JUMPDEST POP POP POP POP POP POP POP JUMP JUMPDEST PUSH1 0x1 CALLVALUE LT ISZERO PUSH2 0x2162 JUMPI PUSH1 0x40 MLOAD PUSH3 0x461BCD PUSH1 0xE5 SHL DUP2 MSTORE PUSH1 0x20 PUSH1 0x4 DUP3 ADD MSTORE PUSH1 0x1B PUSH1 0x24 DUP3 ADD MSTORE PUSH32 0x596F75206E65656420746F2073656E6420736F6D65206D6F6E65790000000000 PUSH1 0x44 DUP3 ADD MSTORE PUSH1 0x64 ADD PUSH2 0x32F JUMP JUMPDEST DUP2 PUSH1 0x0 DUP2 PUSH1 0x40 MLOAD PUSH2 0x2173 SWAP2 SWAP1 PUSH2 0x49F3 JUMP JUMPDEST SWAP1 DUP2 MSTORE PUSH1 0x40 MLOAD SWAP1 DUP2 SWAP1 SUB PUSH1 0x20 ADD SWAP1 KECCAK256 DUP1 SLOAD PUSH2 0x218D SWAP1 PUSH2 0x4A0F JUMP JUMPDEST SWAP1 POP PUSH1 0x0 SUB PUSH2 0x21D3 JUMPI PUSH1 0x40 MLOAD PUSH3 0x461BCD PUSH1 0xE5 SHL DUP2 MSTORE PUSH1 0x20 PUSH1 0x4 DUP3 ADD MSTORE PUSH1 0x12 PUSH1 0x24 DUP3 ADD MSTORE PUSH18 0x10995D08191BD95CC81B9BDD08195E1A5CDD PUSH1 0x72 SHL PUSH1 0x44 DUP3 ADD MSTORE PUSH1 0x64 ADD PUSH2 0x32F JUMP JUMPDEST DUP3 PUSH1 0x0 DUP2 PUSH1 0x40 MLOAD PUSH2 0x21E4 SWAP2 SWAP1 PUSH2 0x49F3 JUMP JUMPDEST SWAP1 DUP2 MSTORE PUSH1 0x20 ADD PUSH1 0x40 MLOAD DUP1 SWAP2 SUB SWAP1 KECCAK256 PUSH1 0x8 ADD SLOAD TIMESTAMP LT PUSH2 0x223C JUMPI PUSH1 0x40 MLOAD PUSH3 0x461BCD PUSH1 0xE5 SHL DUP2 MSTORE PUSH1 0x20 PUSH1 0x4 DUP3 ADD MSTORE PUSH1 0x15 PUSH1 0x24 DUP3 ADD MSTORE PUSH21 0x2132BA1034B9903737903637B733B2B91037B832B7 PUSH1 0x59 SHL PUSH1 0x44 DUP3 ADD MSTORE PUSH1 0x64 ADD PUSH2 0x32F JUMP JUMPDEST DUP4 DUP4 PUSH1 0x0 DUP3 PUSH1 0x40 MLOAD PUSH2 0x224E SWAP2 SWAP1 PUSH2 0x49F3 JUMP JUMPDEST SWAP1 DUP2 MSTORE PUSH1 0x40 MLOAD SWAP1 DUP2 SWAP1 SUB PUSH1 0x20 ADD SWAP1 KECCAK256 PUSH1 0xA ADD SLOAD DUP2 LT PUSH2 0x22AF JUMPI PUSH1 0x40 MLOAD PUSH3 0x461BCD PUSH1 0xE5 SHL DUP2 MSTORE PUSH1 0x20 PUSH1 0x4 DUP3 ADD MSTORE PUSH1 0x19 PUSH1 0x24 DUP3 ADD MSTORE PUSH32 0x54686973206F7264657220646F6573206E6F7420657869737400000000000000 PUSH1 0x44 DUP3 ADD MSTORE PUSH1 0x64 ADD PUSH2 0x32F JUMP JUMPDEST PUSH1 0x0 DUP1 DUP8 PUSH1 0x40 MLOAD PUSH2 0x22C0 SWAP2 SWAP1 PUSH2 0x49F3 JUMP JUMPDEST SWAP1 DUP2 MSTORE PUSH1 0x20 ADD PUSH1 0x40 MLOAD DUP1 SWAP2 SUB SWAP1 KECCAK256 SWAP1 POP PUSH1 0x0 DUP2 PUSH1 0xA ADD DUP8 DUP2 SLOAD DUP2 LT PUSH2 0x22E7 JUMPI PUSH2 0x22E7 PUSH2 0x4B49 JUMP JUMPDEST PUSH1 0x0 SWAP2 DUP3 MSTORE PUSH1 0x20 SWAP1 SWAP2 KECCAK256 PUSH1 0x6 SWAP1 SWAP2 MUL ADD SWAP1 POP PUSH1 0x2 PUSH1 0x5 DUP3 ADD SLOAD PUSH1 0xFF AND PUSH1 0x2 DUP2 GT ISZERO PUSH2 0x2314 JUMPI PUSH2 0x2314 PUSH2 0x4394 JUMP JUMPDEST SUB PUSH2 0x236F JUMPI PUSH1 0x40 MLOAD PUSH3 0x461BCD PUSH1 0xE5 SHL DUP2 MSTORE PUSH1 0x20 PUSH1 0x4 DUP3 ADD MSTORE PUSH1 0x25 PUSH1 0x24 DUP3 ADD MSTORE PUSH32 0x54686973206F726465722068617320616C7265616479206265656E2063616E63 PUSH1 0x44 DUP3 ADD MSTORE PUSH5 0x195B1B1959 PUSH1 0xDA SHL PUSH1 0x64 DUP3 ADD MSTORE PUSH1 0x84 ADD PUSH2 0x32F JUMP JUMPDEST PUSH1 0x1 PUSH1 0x5 DUP3 ADD SLOAD PUSH1 0xFF AND PUSH1 0x2 DUP2 GT ISZERO PUSH2 0x238A JUMPI PUSH2 0x238A PUSH2 0x4394 JUMP JUMPDEST SUB PUSH2 0x23E2 JUMPI PUSH1 0x40 MLOAD PUSH3 0x461BCD PUSH1 0xE5 SHL DUP2 MSTORE PUSH1 0x20 PUSH1 0x4 DUP3 ADD MSTORE PUSH1 0x22 PUSH1 0x24 DUP3 ADD MSTORE PUSH32 0x54686973206F726465722068617320616C7265616479206265656E2066696C6C PUSH1 0x44 DUP3 ADD MSTORE PUSH2 0x1959 PUSH1 0xF2 SHL PUSH1 0x64 DUP3 ADD MSTORE PUSH1 0x84 ADD PUSH2 0x32F JUMP JUMPDEST DUP1 SLOAD CALLER PUSH1 0x1 PUSH1 0x1 PUSH1 0xA0 SHL SUB SWAP1 SWAP2 AND SUB PUSH2 0x243D JUMPI PUSH1 0x40 MLOAD PUSH3 0x461BCD PUSH1 0xE5 SHL DUP2 MSTORE PUSH1 0x20 PUSH1 0x4 DUP3 ADD MSTORE PUSH1 0x1E PUSH1 0x24 DUP3 ADD MSTORE PUSH32 0x596F752063616E6E6F742066696C6C20796F7572206F776E206F726465720000 PUSH1 0x44 DUP3 ADD MSTORE PUSH1 0x64 ADD PUSH2 0x32F JUMP JUMPDEST CALLVALUE DUP2 PUSH1 0x4 ADD SLOAD LT ISZERO PUSH2 0x24B7 JUMPI PUSH1 0x40 MLOAD PUSH3 0x461BCD PUSH1 0xE5 SHL DUP2 MSTORE PUSH1 0x20 PUSH1 0x4 DUP3 ADD MSTORE PUSH1 0x2F PUSH1 0x24 DUP3 ADD MSTORE PUSH32 0x546865206F7264657220646F65736E277420636F6E7461696E20656E6F756768 PUSH1 0x44 DUP3 ADD MSTORE PUSH32 0x206F7574636F6D6520746F6B656E730000000000000000000000000000000000 PUSH1 0x64 DUP3 ADD MSTORE PUSH1 0x84 ADD PUSH2 0x32F JUMP JUMPDEST PUSH1 0x5 DUP2 ADD DUP1 SLOAD PUSH1 0xFF NOT AND PUSH1 0x1 OR SWAP1 SSTORE PUSH2 0x24D0 DUP9 CALLER PUSH2 0x3EDE JUMP JUMPDEST PUSH2 0x24FE DUP9 CALLER DUP4 PUSH1 0x2 ADD SLOAD DUP5 PUSH1 0x4 ADD SLOAD CALLVALUE DUP7 PUSH1 0x3 ADD SLOAD PUSH2 0x24EF SWAP2 SWAP1 PUSH2 0x4B8E JUMP JUMPDEST PUSH2 0x24F9 SWAP2 SWAP1 PUSH2 0x4BAB JUMP JUMPDEST PUSH2 0x3D98 JUMP JUMPDEST DUP1 SLOAD PUSH1 0x40 MLOAD PUSH1 0x1 PUSH1 0x1 PUSH1 0xA0 SHL SUB SWAP1 SWAP2 AND SWAP1 CALLVALUE DUP1 ISZERO PUSH2 0x8FC MUL SWAP2 PUSH1 0x0 DUP2 DUP2 DUP2 DUP6 DUP9 DUP9 CALL SWAP4 POP POP POP POP ISZERO DUP1 ISZERO PUSH2 0x2536 JUMPI RETURNDATASIZE PUSH1 0x0 DUP1 RETURNDATACOPY RETURNDATASIZE PUSH1 0x0 REVERT JUMPDEST POP CALLVALUE DUP2 PUSH1 0x4 ADD SLOAD GT ISZERO PUSH2 0x26C5 JUMPI PUSH1 0x40 DUP1 MLOAD PUSH1 0xE0 DUP2 ADD DUP3 MSTORE DUP3 SLOAD PUSH1 0x1 PUSH1 0x1 PUSH1 0xA0 SHL SUB AND DUP2 MSTORE PUSH1 0x0 PUSH1 0x20 DUP3 ADD DUP2 SWAP1 MSTORE PUSH1 0x2 DUP5 ADD SLOAD SWAP3 DUP3 ADD SWAP3 SWAP1 SWAP3 MSTORE PUSH1 0x4 DUP4 ADD SLOAD PUSH1 0x3 DUP5 ADD SLOAD PUSH1 0x60 DUP4 ADD SWAP2 SWAP1 PUSH2 0x258A SWAP1 CALLVALUE SWAP1 PUSH2 0x4B8E JUMP JUMPDEST PUSH2 0x2594 SWAP2 SWAP1 PUSH2 0x4BAB JUMP JUMPDEST DUP5 PUSH1 0x3 ADD SLOAD PUSH2 0x25A3 SWAP2 SWAP1 PUSH2 0x4BCD JUMP JUMPDEST DUP2 MSTORE PUSH1 0x20 ADD CALLVALUE DUP5 PUSH1 0x4 ADD SLOAD PUSH2 0x25B8 SWAP2 SWAP1 PUSH2 0x4BCD JUMP JUMPDEST DUP2 MSTORE PUSH1 0x20 ADD PUSH1 0x0 DUP2 MSTORE PUSH1 0x20 ADD PUSH1 0x1 SWAP1 MSTORE PUSH1 0xA DUP5 ADD DUP1 SLOAD PUSH1 0x1 DUP2 DUP2 ADD DUP4 SSTORE PUSH1 0x0 SWAP3 DUP4 MSTORE PUSH1 0x20 SWAP3 DUP4 SWAP1 KECCAK256 DUP5 MLOAD PUSH1 0x6 SWAP1 SWAP4 MUL ADD DUP1 SLOAD PUSH1 0x1 PUSH1 0x1 PUSH1 0xA0 SHL SUB SWAP4 DUP5 AND PUSH1 0x1 PUSH1 0x1 PUSH1 0xA0 SHL SUB NOT SWAP2 DUP3 AND OR DUP3 SSTORE SWAP4 DUP6 ADD MLOAD DUP2 DUP4 ADD DUP1 SLOAD SWAP2 SWAP1 SWAP5 AND SWAP5 AND SWAP4 SWAP1 SWAP4 OR SWAP1 SWAP2 SSTORE PUSH1 0x40 DUP4 ADD MLOAD PUSH1 0x2 DUP1 DUP5 ADD SWAP2 SWAP1 SWAP2 SSTORE PUSH1 0x60 DUP5 ADD MLOAD PUSH1 0x3 DUP5 ADD SSTORE PUSH1 0x80 DUP5 ADD MLOAD PUSH1 0x4 DUP5 ADD SSTORE PUSH1 0xA0 DUP5 ADD MLOAD PUSH1 0x5 DUP5 ADD DUP1 SLOAD SWAP6 SWAP7 POP DUP7 SWAP6 SWAP2 SWAP4 SWAP1 SWAP3 PUSH1 0xFF NOT SWAP1 SWAP3 AND SWAP2 DUP5 SWAP1 DUP2 GT ISZERO PUSH2 0x2668 JUMPI PUSH2 0x2668 PUSH2 0x4394 JUMP JUMPDEST MUL OR SWAP1 SSTORE POP PUSH1 0xC0 DUP3 ADD MLOAD PUSH1 0x5 DUP3 ADD DUP1 SLOAD PUSH2 0xFF00 NOT AND PUSH2 0x100 DUP4 PUSH1 0x1 DUP2 GT ISZERO PUSH2 0x2692 JUMPI PUSH2 0x2692 PUSH2 0x4394 JUMP JUMPDEST MUL OR SWAP1 SSTORE POP POP POP DUP2 PUSH1 0x4 ADD SLOAD CALLVALUE DUP4 PUSH1 0x3 ADD SLOAD PUSH2 0x26AE SWAP2 SWAP1 PUSH2 0x4B8E JUMP JUMPDEST PUSH2 0x26B8 SWAP2 SWAP1 PUSH2 0x4BAB JUMP JUMPDEST PUSH1 0x3 DUP4 ADD SSTORE POP CALLVALUE PUSH1 0x4 DUP3 ADD SSTORE JUMPDEST PUSH2 0x26CF CALLER DUP10 PUSH2 0x84E JUMP JUMPDEST POP POP POP POP POP POP POP POP JUMP JUMPDEST DUP8 DUP8 DUP1 DUP1 PUSH1 0x1F ADD PUSH1 0x20 DUP1 SWAP2 DIV MUL PUSH1 0x20 ADD PUSH1 0x40 MLOAD SWAP1 DUP2 ADD PUSH1 0x40 MSTORE DUP1 SWAP4 SWAP3 SWAP2 SWAP1 DUP2 DUP2 MSTORE PUSH1 0x20 ADD DUP4 DUP4 DUP1 DUP3 DUP5 CALLDATACOPY PUSH1 0x0 SWAP3 ADD DUP3 SWAP1 MSTORE POP PUSH1 0x40 MLOAD SWAP1 SWAP4 POP PUSH2 0x271E SWAP3 POP DUP5 SWAP2 POP PUSH2 0x49F3 JUMP JUMPDEST SWAP1 DUP2 MSTORE PUSH1 0x40 MLOAD SWAP1 DUP2 SWAP1 SUB PUSH1 0x20 ADD SWAP1 KECCAK256 DUP1 SLOAD PUSH2 0x2738 SWAP1 PUSH2 0x4A0F JUMP JUMPDEST ISZERO SWAP1 POP PUSH2 0x2787 JUMPI PUSH1 0x40 MLOAD PUSH3 0x461BCD PUSH1 0xE5 SHL DUP2 MSTORE PUSH1 0x20 PUSH1 0x4 DUP3 ADD MSTORE PUSH1 0x12 PUSH1 0x24 DUP3 ADD MSTORE PUSH32 0x42657420616C7265616479206578697374730000000000000000000000000000 PUSH1 0x44 DUP3 ADD MSTORE PUSH1 0x64 ADD PUSH2 0x32F JUMP JUMPDEST TIMESTAMP DUP4 LT ISZERO PUSH2 0x27D7 JUMPI PUSH1 0x40 MLOAD PUSH3 0x461BCD PUSH1 0xE5 SHL DUP2 MSTORE PUSH1 0x20 PUSH1 0x4 DUP3 ADD MSTORE PUSH1 0x17 PUSH1 0x24 DUP3 ADD MSTORE PUSH32 0x446561646C696E6520616C726561647920706173736564000000000000000000 PUSH1 0x44 DUP3 ADD MSTORE PUSH1 0x64 ADD PUSH2 0x32F JUMP JUMPDEST DUP3 DUP3 LT ISZERO PUSH2 0x284D JUMPI PUSH1 0x40 MLOAD PUSH3 0x461BCD PUSH1 0xE5 SHL DUP2 MSTORE PUSH1 0x20 PUSH1 0x4 DUP3 ADD MSTORE PUSH1 0x31 PUSH1 0x24 DUP3 ADD MSTORE PUSH32 0x416E737765722072657665616C206D757374206265206C61746572207468616E PUSH1 0x44 DUP3 ADD MSTORE PUSH32 0x2062657474696E6720646561646C696E65000000000000000000000000000000 PUSH1 0x64 DUP3 ADD MSTORE PUSH1 0x84 ADD PUSH2 0x32F JUMP JUMPDEST DUP9 DUP9 PUSH1 0x0 DUP12 DUP12 PUSH1 0x40 MLOAD PUSH2 0x2861 SWAP3 SWAP2 SWAP1 PUSH2 0x4BE0 JUMP JUMPDEST SWAP1 DUP2 MSTORE PUSH1 0x40 MLOAD SWAP1 DUP2 SWAP1 SUB PUSH1 0x20 ADD SWAP1 KECCAK256 SWAP2 PUSH2 0x287C SWAP2 SWAP1 DUP4 PUSH2 0x4BF0 JUMP JUMPDEST POP DUP7 PUSH1 0x0 DUP11 DUP11 PUSH1 0x40 MLOAD PUSH2 0x2890 SWAP3 SWAP2 SWAP1 PUSH2 0x4BE0 JUMP JUMPDEST SWAP1 DUP2 MSTORE PUSH1 0x20 ADD PUSH1 0x40 MLOAD DUP1 SWAP2 SUB SWAP1 KECCAK256 PUSH1 0x1 ADD SWAP1 DUP2 PUSH2 0x28AD SWAP2 SWAP1 PUSH2 0x4A89 JUMP JUMPDEST POP DUP6 PUSH1 0x0 DUP11 DUP11 PUSH1 0x40 MLOAD PUSH2 0x28C1 SWAP3 SWAP2 SWAP1 PUSH2 0x4BE0 JUMP JUMPDEST SWAP1 DUP2 MSTORE PUSH1 0x20 ADD PUSH1 0x40 MLOAD DUP1 SWAP2 SUB SWAP1 KECCAK256 PUSH1 0x2 ADD SWAP1 DUP2 PUSH2 0x28DE SWAP2 SWAP1 PUSH2 0x4A89 JUMP JUMPDEST POP CALLVALUE PUSH1 0x0 DUP11 DUP11 PUSH1 0x40 MLOAD PUSH2 0x28F2 SWAP3 SWAP2 SWAP1 PUSH2 0x4BE0 JUMP JUMPDEST SWAP1 DUP2 MSTORE PUSH1 0x20 ADD PUSH1 0x40 MLOAD DUP1 SWAP2 SUB SWAP1 KECCAK256 PUSH1 0x3 ADD DUP2 SWAP1 SSTORE POP CALLER PUSH1 0x0 DUP11 DUP11 PUSH1 0x40 MLOAD PUSH2 0x291A SWAP3 SWAP2 SWAP1 PUSH2 0x4BE0 JUMP JUMPDEST SWAP1 DUP2 MSTORE PUSH1 0x20 ADD PUSH1 0x40 MLOAD DUP1 SWAP2 SUB SWAP1 KECCAK256 PUSH1 0x4 ADD PUSH1 0x0 PUSH2 0x100 EXP DUP2 SLOAD DUP2 PUSH1 0x1 PUSH1 0x1 PUSH1 0xA0 SHL SUB MUL NOT AND SWAP1 DUP4 PUSH1 0x1 PUSH1 0x1 PUSH1 0xA0 SHL SUB AND MUL OR SWAP1 SSTORE POP DUP5 PUSH1 0x0 DUP11 DUP11 PUSH1 0x40 MLOAD PUSH2 0x2962 SWAP3 SWAP2 SWAP1 PUSH2 0x4BE0 JUMP JUMPDEST SWAP1 DUP2 MSTORE PUSH1 0x20 ADD PUSH1 0x40 MLOAD DUP1 SWAP2 SUB SWAP1 KECCAK256 PUSH1 0x5 ADD PUSH1 0x0 PUSH2 0x100 EXP DUP2 SLOAD DUP2 PUSH1 0x1 PUSH1 0x1 PUSH1 0xA0 SHL SUB MUL NOT AND SWAP1 DUP4 PUSH1 0x1 PUSH1 0x1 PUSH1 0xA0 SHL SUB AND MUL OR SWAP1 SSTORE POP DUP3 PUSH1 0x0 DUP11 DUP11 PUSH1 0x40 MLOAD PUSH2 0x29AA SWAP3 SWAP2 SWAP1 PUSH2 0x4BE0 JUMP JUMPDEST SWAP1 DUP2 MSTORE PUSH1 0x20 ADD PUSH1 0x40 MLOAD DUP1 SWAP2 SUB SWAP1 KECCAK256 PUSH1 0x8 ADD DUP2 SWAP1 SSTORE POP DUP2 PUSH1 0x0 DUP11 DUP11 PUSH1 0x40 MLOAD PUSH2 0x29D2 SWAP3 SWAP2 SWAP1 PUSH2 0x4BE0 JUMP JUMPDEST SWAP1 DUP2 MSTORE PUSH1 0x20 ADD PUSH1 0x40 MLOAD DUP1 SWAP2 SUB SWAP1 KECCAK256 PUSH1 0x9 ADD DUP2 SWAP1 SSTORE POP PUSH1 0x0 DUP1 DUP11 DUP11 PUSH1 0x40 MLOAD PUSH2 0x29FA SWAP3 SWAP2 SWAP1 PUSH2 0x4BE0 JUMP JUMPDEST SWAP1 DUP2 MSTORE PUSH1 0x40 MLOAD SWAP1 DUP2 SWAP1 SUB PUSH1 0x20 ADD SWAP1 KECCAK256 PUSH1 0xB ADD DUP1 SLOAD PUSH1 0xFF NOT AND PUSH1 0x1 DUP4 DUP2 DUP2 GT ISZERO PUSH2 0x2A25 JUMPI PUSH2 0x2A25 PUSH2 0x4394 JUMP JUMPDEST MUL OR SWAP1 SSTORE POP DUP4 MLOAD PUSH2 0x2A37 SWAP1 PUSH1 0x1 PUSH2 0x4CB1 JUMP JUMPDEST PUSH1 0x0 DUP11 DUP11 PUSH1 0x40 MLOAD PUSH2 0x2A49 SWAP3 SWAP2 SWAP1 PUSH2 0x4BE0 JUMP JUMPDEST SWAP1 DUP2 MSTORE PUSH1 0x40 MLOAD SWAP1 DUP2 SWAP1 SUB PUSH1 0x20 ADD SWAP1 KECCAK256 PUSH1 0xC ADD SSTORE DUP4 MLOAD PUSH1 0x0 SWAP1 PUSH8 0xFFFFFFFFFFFFFFFF DUP2 GT ISZERO PUSH2 0x2A79 JUMPI PUSH2 0x2A79 PUSH2 0x414D JUMP JUMPDEST PUSH1 0x40 MLOAD SWAP1 DUP1 DUP3 MSTORE DUP1 PUSH1 0x20 MUL PUSH1 0x20 ADD DUP3 ADD PUSH1 0x40 MSTORE DUP1 ISZERO PUSH2 0x2AA2 JUMPI DUP2 PUSH1 0x20 ADD PUSH1 0x20 DUP3 MUL DUP1 CALLDATASIZE DUP4 CALLDATACOPY ADD SWAP1 POP JUMPDEST POP SWAP1 POP PUSH1 0x0 JUMPDEST DUP6 MLOAD DUP2 LT ISZERO PUSH2 0x2B40 JUMPI PUSH1 0x0 DUP12 DUP12 PUSH1 0x40 MLOAD PUSH2 0x2AC3 SWAP3 SWAP2 SWAP1 PUSH2 0x4BE0 JUMP JUMPDEST SWAP1 DUP2 MSTORE PUSH1 0x20 ADD PUSH1 0x40 MLOAD DUP1 SWAP2 SUB SWAP1 KECCAK256 PUSH1 0x6 ADD DUP7 DUP3 DUP2 MLOAD DUP2 LT PUSH2 0x2AE6 JUMPI PUSH2 0x2AE6 PUSH2 0x4B49 JUMP JUMPDEST PUSH1 0x20 SWAP1 DUP2 MUL SWAP2 SWAP1 SWAP2 ADD DUP2 ADD MLOAD DUP3 SLOAD PUSH1 0x1 DUP2 ADD DUP5 SSTORE PUSH1 0x0 SWAP4 DUP5 MSTORE SWAP2 SWAP1 SWAP3 KECCAK256 ADD SWAP1 PUSH2 0x2B0F SWAP1 DUP3 PUSH2 0x4A89 JUMP JUMPDEST POP CALLVALUE DUP3 DUP3 DUP2 MLOAD DUP2 LT PUSH2 0x2B23 JUMPI PUSH2 0x2B23 PUSH2 0x4B49 JUMP JUMPDEST PUSH1 0x20 SWAP1 DUP2 MUL SWAP2 SWAP1 SWAP2 ADD ADD MSTORE DUP1 PUSH2 0x2B38 DUP2 PUSH2 0x4B75 JUMP JUMPDEST SWAP2 POP POP PUSH2 0x2AA8 JUMP JUMPDEST POP PUSH1 0x0 DUP11 DUP11 PUSH1 0x40 MLOAD PUSH2 0x2B53 SWAP3 SWAP2 SWAP1 PUSH2 0x4BE0 JUMP JUMPDEST SWAP1 DUP2 MSTORE PUSH1 0x40 DUP1 MLOAD PUSH1 0x20 SWAP3 DUP2 SWAP1 SUB DUP4 ADD DUP2 KECCAK256 DUP2 DUP4 ADD SWAP1 SWAP3 MSTORE CALLER DUP2 MSTORE DUP3 DUP2 ADD DUP5 DUP2 MSTORE PUSH1 0x7 SWAP1 SWAP3 ADD DUP1 SLOAD PUSH1 0x1 DUP1 DUP3 ADD DUP4 SSTORE PUSH1 0x0 SWAP3 DUP4 MSTORE SWAP2 DUP6 SWAP1 KECCAK256 DUP4 MLOAD PUSH1 0x2 SWAP1 SWAP3 MUL ADD DUP1 SLOAD PUSH1 0x1 PUSH1 0x1 PUSH1 0xA0 SHL SUB NOT AND PUSH1 0x1 PUSH1 0x1 PUSH1 0xA0 SHL SUB SWAP1 SWAP3 AND SWAP2 SWAP1 SWAP2 OR DUP2 SSTORE SWAP3 MLOAD DUP1 MLOAD SWAP3 SWAP5 PUSH2 0x2BC5 SWAP4 SWAP3 DUP6 ADD SWAP3 SWAP2 ADD SWAP1 PUSH2 0x40ED JUMP JUMPDEST POP POP CALLER PUSH1 0x0 SWAP1 DUP2 MSTORE PUSH1 0x1 PUSH1 0x20 DUP2 DUP2 MSTORE PUSH1 0x40 DUP4 KECCAK256 DUP1 SLOAD SWAP3 DUP4 ADD DUP2 SSTORE DUP4 MSTORE SWAP1 SWAP2 KECCAK256 ADD SWAP1 POP PUSH2 0x2BF2 DUP11 DUP13 DUP4 PUSH2 0x4BF0 JUMP JUMPDEST POP POP POP POP POP POP POP POP POP POP POP JUMP JUMPDEST DUP2 DUP2 DUP1 DUP1 PUSH1 0x1F ADD PUSH1 0x20 DUP1 SWAP2 DIV MUL PUSH1 0x20 ADD PUSH1 0x40 MLOAD SWAP1 DUP2 ADD PUSH1 0x40 MSTORE DUP1 SWAP4 SWAP3 SWAP2 SWAP1 DUP2 DUP2 MSTORE PUSH1 0x20 ADD DUP4 DUP4 DUP1 DUP3 DUP5 CALLDATACOPY PUSH1 0x0 SWAP3 ADD DUP3 SWAP1 MSTORE POP PUSH1 0x40 MLOAD SWAP1 SWAP4 POP PUSH2 0x2C44 SWAP3 POP DUP5 SWAP2 POP PUSH2 0x49F3 JUMP JUMPDEST SWAP1 DUP2 MSTORE PUSH1 0x40 MLOAD SWAP1 DUP2 SWAP1 SUB PUSH1 0x20 ADD SWAP1 KECCAK256 DUP1 SLOAD PUSH2 0x2C5E SWAP1 PUSH2 0x4A0F JUMP JUMPDEST SWAP1 POP PUSH1 0x0 SUB PUSH2 0x2CA4 JUMPI PUSH1 0x40 MLOAD PUSH3 0x461BCD PUSH1 0xE5 SHL DUP2 MSTORE PUSH1 0x20 PUSH1 0x4 DUP3 ADD MSTORE PUSH1 0x12 PUSH1 0x24 DUP3 ADD MSTORE PUSH18 0x10995D08191BD95CC81B9BDD08195E1A5CDD PUSH1 0x72 SHL PUSH1 0x44 DUP3 ADD MSTORE PUSH1 0x64 ADD PUSH2 0x32F JUMP JUMPDEST DUP3 DUP3 DUP1 DUP1 PUSH1 0x1F ADD PUSH1 0x20 DUP1 SWAP2 DIV MUL PUSH1 0x20 ADD PUSH1 0x40 MLOAD SWAP1 DUP2 ADD PUSH1 0x40 MSTORE DUP1 SWAP4 SWAP3 SWAP2 SWAP1 DUP2 DUP2 MSTORE PUSH1 0x20 ADD DUP4 DUP4 DUP1 DUP3 DUP5 CALLDATACOPY PUSH1 0x0 SWAP3 ADD DUP3 SWAP1 MSTORE POP SWAP3 POP PUSH2 0x2CE0 SWAP2 POP POP JUMP JUMPDEST PUSH1 0x0 DUP3 PUSH1 0x40 MLOAD PUSH2 0x2CF0 SWAP2 SWAP1 PUSH2 0x49F3 JUMP JUMPDEST SWAP1 DUP2 MSTORE PUSH1 0x40 MLOAD SWAP1 DUP2 SWAP1 SUB PUSH1 0x20 ADD SWAP1 KECCAK256 PUSH1 0xB ADD SLOAD PUSH1 0xFF AND PUSH1 0x1 DUP2 GT ISZERO PUSH2 0x2D17 JUMPI PUSH2 0x2D17 PUSH2 0x4394 JUMP JUMPDEST EQ PUSH2 0x2D5C JUMPI PUSH1 0x40 MLOAD PUSH3 0x461BCD PUSH1 0xE5 SHL DUP2 MSTORE PUSH1 0x20 PUSH1 0x4 DUP3 ADD MSTORE PUSH1 0x15 PUSH1 0x24 DUP3 ADD MSTORE PUSH21 0x2132BA1034B9903737903637B733B2B91037B832B7 PUSH1 0x59 SHL PUSH1 0x44 DUP3 ADD MSTORE PUSH1 0x64 ADD PUSH2 0x32F JUMP JUMPDEST PUSH1 0x0 DUP1 DUP6 DUP6 PUSH1 0x40 MLOAD PUSH2 0x2D6F SWAP3 SWAP2 SWAP1 PUSH2 0x4BE0 JUMP JUMPDEST SWAP1 DUP2 MSTORE PUSH1 0x20 ADD PUSH1 0x40 MLOAD DUP1 SWAP2 SUB SWAP1 KECCAK256 SWAP1 POP DUP1 PUSH1 0x9 ADD SLOAD TIMESTAMP GT PUSH2 0x2DF8 JUMPI PUSH1 0x40 MLOAD PUSH3 0x461BCD PUSH1 0xE5 SHL DUP2 MSTORE PUSH1 0x20 PUSH1 0x4 DUP3 ADD MSTORE PUSH1 0x2A PUSH1 0x24 DUP3 ADD MSTORE PUSH32 0x416E737765722072657665616C20646561646C696E6520776173206E6F742072 PUSH1 0x44 DUP3 ADD MSTORE PUSH32 0x6561636865642079657400000000000000000000000000000000000000000000 PUSH1 0x64 DUP3 ADD MSTORE PUSH1 0x84 ADD PUSH2 0x32F JUMP JUMPDEST PUSH1 0xB DUP2 ADD DUP1 SLOAD PUSH1 0xFF NOT AND PUSH1 0x1 OR SWAP1 SSTORE PUSH1 0x0 JUMPDEST PUSH1 0xA DUP3 ADD SLOAD DUP2 LT ISZERO PUSH2 0x2EAD JUMPI PUSH1 0x0 DUP3 PUSH1 0xA ADD DUP3 DUP2 SLOAD DUP2 LT PUSH2 0x2E2D JUMPI PUSH2 0x2E2D PUSH2 0x4B49 JUMP JUMPDEST PUSH1 0x0 SWAP2 DUP3 MSTORE PUSH1 0x20 SWAP1 SWAP2 KECCAK256 PUSH1 0x5 PUSH1 0x6 SWAP1 SWAP3 MUL ADD ADD SLOAD PUSH1 0xFF AND PUSH1 0x2 DUP2 GT ISZERO PUSH2 0x2E55 JUMPI PUSH2 0x2E55 PUSH2 0x4394 JUMP JUMPDEST SUB PUSH2 0x2E9B JUMPI PUSH2 0x2E9B DUP7 DUP7 DUP1 DUP1 PUSH1 0x1F ADD PUSH1 0x20 DUP1 SWAP2 DIV MUL PUSH1 0x20 ADD PUSH1 0x40 MLOAD SWAP1 DUP2 ADD PUSH1 0x40 MSTORE DUP1 SWAP4 SWAP3 SWAP2 SWAP1 DUP2 DUP2 MSTORE PUSH1 0x20 ADD DUP4 DUP4 DUP1 DUP3 DUP5 CALLDATACOPY PUSH1 0x0 SWAP3 ADD SWAP2 SWAP1 SWAP2 MSTORE POP DUP6 SWAP3 POP PUSH2 0x1DF5 SWAP2 POP POP JUMP JUMPDEST DUP1 PUSH2 0x2EA5 DUP2 PUSH2 0x4B75 JUMP JUMPDEST SWAP2 POP POP PUSH2 0x2E0A JUMP JUMPDEST POP PUSH1 0x0 JUMPDEST PUSH1 0x7 DUP3 ADD SLOAD DUP2 LT ISZERO PUSH2 0x2FB1 JUMPI PUSH1 0x0 DUP1 JUMPDEST PUSH1 0x6 DUP5 ADD SLOAD DUP2 LT ISZERO PUSH2 0x2F2E JUMPI DUP4 PUSH1 0x7 ADD DUP4 DUP2 SLOAD DUP2 LT PUSH2 0x2EE2 JUMPI PUSH2 0x2EE2 PUSH2 0x4B49 JUMP JUMPDEST SWAP1 PUSH1 0x0 MSTORE PUSH1 0x20 PUSH1 0x0 KECCAK256 SWAP1 PUSH1 0x2 MUL ADD PUSH1 0x1 ADD DUP2 DUP2 SLOAD DUP2 LT PUSH2 0x2F04 JUMPI PUSH2 0x2F04 PUSH2 0x4B49 JUMP JUMPDEST SWAP1 PUSH1 0x0 MSTORE PUSH1 0x20 PUSH1 0x0 KECCAK256 ADD SLOAD DUP3 PUSH2 0x2F1A SWAP2 SWAP1 PUSH2 0x4CB1 JUMP JUMPDEST SWAP2 POP DUP1 PUSH2 0x2F26 DUP2 PUSH2 0x4B75 JUMP JUMPDEST SWAP2 POP POP PUSH2 0x2EC1 JUMP JUMPDEST POP DUP3 PUSH1 0x7 ADD DUP3 DUP2 SLOAD DUP2 LT PUSH2 0x2F44 JUMPI PUSH2 0x2F44 PUSH2 0x4B49 JUMP JUMPDEST PUSH1 0x0 SWAP2 DUP3 MSTORE PUSH1 0x20 SWAP1 SWAP2 KECCAK256 PUSH1 0x2 SWAP1 SWAP2 MUL ADD SLOAD PUSH1 0x6 DUP5 ADD SLOAD PUSH1 0x1 PUSH1 0x1 PUSH1 0xA0 SHL SUB SWAP1 SWAP2 AND SWAP1 PUSH2 0x8FC SWAP1 PUSH2 0x2F74 SWAP1 DUP5 PUSH2 0x4BAB JUMP JUMPDEST PUSH1 0x40 MLOAD DUP2 ISZERO SWAP1 SWAP3 MUL SWAP2 PUSH1 0x0 DUP2 DUP2 DUP2 DUP6 DUP9 DUP9 CALL SWAP4 POP POP POP POP ISZERO DUP1 ISZERO PUSH2 0x2F9C JUMPI RETURNDATASIZE PUSH1 0x0 DUP1 RETURNDATACOPY RETURNDATASIZE PUSH1 0x0 REVERT JUMPDEST POP POP DUP1 DUP1 PUSH2 0x2FA9 SWAP1 PUSH2 0x4B75 JUMP JUMPDEST SWAP2 POP POP PUSH2 0x2EB1 JUMP JUMPDEST POP POP POP POP POP POP JUMP JUMPDEST DUP3 PUSH1 0x0 DUP2 PUSH1 0x40 MLOAD PUSH2 0x2FCA SWAP2 SWAP1 PUSH2 0x49F3 JUMP JUMPDEST SWAP1 DUP2 MSTORE PUSH1 0x40 MLOAD SWAP1 DUP2 SWAP1 SUB PUSH1 0x20 ADD SWAP1 KECCAK256 DUP1 SLOAD PUSH2 0x2FE4 SWAP1 PUSH2 0x4A0F JUMP JUMPDEST SWAP1 POP PUSH1 0x0 SUB PUSH2 0x302A JUMPI PUSH1 0x40 MLOAD PUSH3 0x461BCD PUSH1 0xE5 SHL DUP2 MSTORE PUSH1 0x20 PUSH1 0x4 DUP3 ADD MSTORE PUSH1 0x12 PUSH1 0x24 DUP3 ADD MSTORE PUSH18 0x10995D08191BD95CC81B9BDD08195E1A5CDD PUSH1 0x72 SHL PUSH1 0x44 DUP3 ADD MSTORE PUSH1 0x64 ADD PUSH2 0x32F JUMP JUMPDEST DUP4 PUSH1 0x0 DUP2 PUSH1 0x40 MLOAD PUSH2 0x303B SWAP2 SWAP1 PUSH2 0x49F3 JUMP JUMPDEST SWAP1 DUP2 MSTORE PUSH1 0x20 ADD PUSH1 0x40 MLOAD DUP1 SWAP2 SUB SWAP1 KECCAK256 PUSH1 0x8 ADD SLOAD TIMESTAMP LT PUSH2 0x3093 JUMPI PUSH1 0x40 MLOAD PUSH3 0x461BCD PUSH1 0xE5 SHL DUP2 MSTORE PUSH1 0x20 PUSH1 0x4 DUP3 ADD MSTORE PUSH1 0x15 PUSH1 0x24 DUP3 ADD MSTORE PUSH21 0x2132BA1034B9903737903637B733B2B91037B832B7 PUSH1 0x59 SHL PUSH1 0x44 DUP3 ADD MSTORE PUSH1 0x64 ADD PUSH2 0x32F JUMP JUMPDEST DUP5 DUP5 PUSH1 0x0 DUP3 PUSH1 0x40 MLOAD PUSH2 0x30A5 SWAP2 SWAP1 PUSH2 0x49F3 JUMP JUMPDEST SWAP1 DUP2 MSTORE PUSH1 0x40 MLOAD SWAP1 DUP2 SWAP1 SUB PUSH1 0x20 ADD SWAP1 KECCAK256 PUSH1 0xA ADD SLOAD DUP2 LT PUSH2 0x3106 JUMPI PUSH1 0x40 MLOAD PUSH3 0x461BCD PUSH1 0xE5 SHL DUP2 MSTORE PUSH1 0x20 PUSH1 0x4 DUP3 ADD MSTORE PUSH1 0x19 PUSH1 0x24 DUP3 ADD MSTORE PUSH32 0x54686973206F7264657220646F6573206E6F7420657869737400000000000000 PUSH1 0x44 DUP3 ADD MSTORE PUSH1 0x64 ADD PUSH2 0x32F JUMP JUMPDEST PUSH1 0x0 DUP6 GT PUSH2 0x3156 JUMPI PUSH1 0x40 MLOAD PUSH3 0x461BCD PUSH1 0xE5 SHL DUP2 MSTORE PUSH1 0x20 PUSH1 0x4 DUP3 ADD MSTORE PUSH1 0x1D PUSH1 0x24 DUP3 ADD MSTORE PUSH32 0x416D6F756E74206D7573742062652067726561746572207468616E2030000000 PUSH1 0x44 DUP3 ADD MSTORE PUSH1 0x64 ADD PUSH2 0x32F JUMP JUMPDEST PUSH1 0x0 DUP1 DUP9 PUSH1 0x40 MLOAD PUSH2 0x3167 SWAP2 SWAP1 PUSH2 0x49F3 JUMP JUMPDEST SWAP1 DUP2 MSTORE PUSH1 0x20 ADD PUSH1 0x40 MLOAD DUP1 SWAP2 SUB SWAP1 KECCAK256 SWAP1 POP PUSH1 0x0 DUP2 PUSH1 0xA ADD DUP9 DUP2 SLOAD DUP2 LT PUSH2 0x318E JUMPI PUSH2 0x318E PUSH2 0x4B49 JUMP JUMPDEST PUSH1 0x0 SWAP2 DUP3 MSTORE PUSH1 0x20 SWAP1 SWAP2 KECCAK256 PUSH1 0x6 SWAP1 SWAP2 MUL ADD SWAP1 POP PUSH1 0x2 PUSH1 0x5 DUP3 ADD SLOAD PUSH1 0xFF AND PUSH1 0x2 DUP2 GT ISZERO PUSH2 0x31BB JUMPI PUSH2 0x31BB PUSH2 0x4394 JUMP JUMPDEST SUB PUSH2 0x3216 JUMPI PUSH1 0x40 MLOAD PUSH3 0x461BCD PUSH1 0xE5 SHL DUP2 MSTORE PUSH1 0x20 PUSH1 0x4 DUP3 ADD MSTORE PUSH1 0x25 PUSH1 0x24 DUP3 ADD MSTORE PUSH32 0x54686973206F726465722068617320616C7265616479206265656E2063616E63 PUSH1 0x44 DUP3 ADD MSTORE PUSH5 0x195B1B1959 PUSH1 0xDA SHL PUSH1 0x64 DUP3 ADD MSTORE PUSH1 0x84 ADD PUSH2 0x32F JUMP JUMPDEST PUSH1 0x1 PUSH1 0x5 DUP3 ADD SLOAD PUSH1 0xFF AND PUSH1 0x2 DUP2 GT ISZERO PUSH2 0x3231 JUMPI PUSH2 0x3231 PUSH2 0x4394 JUMP JUMPDEST SUB PUSH2 0x3289 JUMPI PUSH1 0x40 MLOAD PUSH3 0x461BCD PUSH1 0xE5 SHL DUP2 MSTORE PUSH1 0x20 PUSH1 0x4 DUP3 ADD MSTORE PUSH1 0x22 PUSH1 0x24 DUP3 ADD MSTORE PUSH32 0x54686973206F726465722068617320616C7265616479206265656E2066696C6C PUSH1 0x44 DUP3 ADD MSTORE PUSH2 0x1959 PUSH1 0xF2 SHL PUSH1 0x64 DUP3 ADD MSTORE PUSH1 0x84 ADD PUSH2 0x32F JUMP JUMPDEST DUP1 SLOAD CALLER PUSH1 0x1 PUSH1 0x1 PUSH1 0xA0 SHL SUB SWAP1 SWAP2 AND SUB PUSH2 0x32E4 JUMPI PUSH1 0x40 MLOAD PUSH3 0x461BCD PUSH1 0xE5 SHL DUP2 MSTORE PUSH1 0x20 PUSH1 0x4 DUP3 ADD MSTORE PUSH1 0x1E PUSH1 0x24 DUP3 ADD MSTORE PUSH32 0x596F752063616E6E6F742066696C6C20796F7572206F776E206F726465720000 PUSH1 0x44 DUP3 ADD MSTORE PUSH1 0x64 ADD PUSH2 0x32F JUMP JUMPDEST DUP7 DUP2 PUSH1 0x3 ADD SLOAD LT ISZERO PUSH2 0x335E JUMPI PUSH1 0x40 MLOAD PUSH3 0x461BCD PUSH1 0xE5 SHL DUP2 MSTORE PUSH1 0x20 PUSH1 0x4 DUP3 ADD MSTORE PUSH1 0x2F PUSH1 0x24 DUP3 ADD MSTORE PUSH32 0x546865206F7264657220646F65736E277420636F6E7461696E20656E6F756768 PUSH1 0x44 DUP3 ADD MSTORE PUSH32 0x206F7574636F6D6520746F6B656E730000000000000000000000000000000000 PUSH1 0x64 DUP3 ADD MSTORE PUSH1 0x84 ADD PUSH2 0x32F JUMP JUMPDEST DUP7 PUSH2 0x3369 DUP11 CALLER PUSH2 0x3B7E JUMP JUMPDEST PUSH1 0x20 ADD MLOAD DUP3 PUSH1 0x2 ADD SLOAD DUP2 MLOAD DUP2 LT PUSH2 0x3382 JUMPI PUSH2 0x3382 PUSH2 0x4B49 JUMP JUMPDEST PUSH1 0x20 MUL PUSH1 0x20 ADD ADD MLOAD LT ISZERO PUSH2 0x33D8 JUMPI PUSH1 0x40 MLOAD PUSH3 0x461BCD PUSH1 0xE5 SHL DUP2 MSTORE PUSH1 0x20 PUSH1 0x4 DUP3 ADD MSTORE PUSH1 0x1C PUSH1 0x24 DUP3 ADD MSTORE PUSH32 0x596F7520646F6E2774206861766520656E6F75676820746F6B656E7300000000 PUSH1 0x44 DUP3 ADD MSTORE PUSH1 0x64 ADD PUSH2 0x32F JUMP JUMPDEST PUSH1 0x5 DUP2 ADD DUP1 SLOAD PUSH1 0xFF NOT AND PUSH1 0x1 OR SWAP1 SSTORE DUP1 SLOAD PUSH2 0x33FD SWAP1 DUP11 SWAP1 PUSH1 0x1 PUSH1 0x1 PUSH1 0xA0 SHL SUB AND PUSH2 0x3EDE JUMP JUMPDEST PUSH2 0x3415 DUP10 CALLER DUP4 PUSH1 0x2 ADD SLOAD DUP11 PUSH1 0x0 NOT PUSH2 0x24F9 SWAP2 SWAP1 PUSH2 0x4CC4 JUMP JUMPDEST DUP1 SLOAD PUSH1 0x2 DUP3 ADD SLOAD PUSH2 0x3434 SWAP2 DUP12 SWAP2 PUSH1 0x1 PUSH1 0x1 PUSH1 0xA0 SHL SUB SWAP1 SWAP2 AND SWAP1 DUP11 PUSH2 0x3D98 JUMP JUMPDEST PUSH1 0x3 DUP2 ADD SLOAD PUSH1 0x4 DUP3 ADD SLOAD CALLER SWAP2 PUSH2 0x8FC SWAP2 PUSH2 0x344E SWAP1 DUP12 PUSH2 0x4B8E JUMP JUMPDEST PUSH2 0x3458 SWAP2 SWAP1 PUSH2 0x4BAB JUMP JUMPDEST PUSH1 0x40 MLOAD DUP2 ISZERO SWAP1 SWAP3 MUL SWAP2 PUSH1 0x0 DUP2 DUP2 DUP2 DUP6 DUP9 DUP9 CALL SWAP4 POP POP POP POP ISZERO DUP1 ISZERO PUSH2 0x3480 JUMPI RETURNDATASIZE PUSH1 0x0 DUP1 RETURNDATACOPY RETURNDATASIZE PUSH1 0x0 REVERT JUMPDEST POP DUP7 DUP2 PUSH1 0x3 ADD SLOAD GT ISZERO PUSH2 0x360E JUMPI PUSH1 0x40 DUP1 MLOAD PUSH1 0xE0 DUP2 ADD DUP3 MSTORE DUP3 SLOAD PUSH1 0x1 PUSH1 0x1 PUSH1 0xA0 SHL SUB AND DUP2 MSTORE PUSH1 0x0 PUSH1 0x20 DUP3 ADD DUP2 SWAP1 MSTORE PUSH1 0x2 DUP5 ADD SLOAD SWAP3 DUP3 ADD SWAP3 SWAP1 SWAP3 MSTORE PUSH1 0x3 DUP4 ADD SLOAD PUSH1 0x60 DUP3 ADD SWAP1 PUSH2 0x34CE SWAP1 DUP12 SWAP1 PUSH2 0x4BCD JUMP JUMPDEST DUP2 MSTORE PUSH1 0x20 ADD DUP4 PUSH1 0x3 ADD SLOAD DUP5 PUSH1 0x4 ADD SLOAD DUP12 PUSH2 0x34E8 SWAP2 SWAP1 PUSH2 0x4B8E JUMP JUMPDEST PUSH2 0x34F2 SWAP2 SWAP1 PUSH2 0x4BAB JUMP JUMPDEST DUP5 PUSH1 0x4 ADD SLOAD PUSH2 0x3501 SWAP2 SWAP1 PUSH2 0x4BCD JUMP JUMPDEST DUP2 MSTORE PUSH1 0x20 ADD PUSH1 0x0 DUP2 MSTORE PUSH1 0x20 ADD PUSH1 0x0 SWAP1 MSTORE PUSH1 0xA DUP5 ADD DUP1 SLOAD PUSH1 0x1 DUP2 DUP2 ADD DUP4 SSTORE PUSH1 0x0 SWAP3 DUP4 MSTORE PUSH1 0x20 SWAP3 DUP4 SWAP1 KECCAK256 DUP5 MLOAD PUSH1 0x6 SWAP1 SWAP4 MUL ADD DUP1 SLOAD PUSH1 0x1 PUSH1 0x1 PUSH1 0xA0 SHL SUB SWAP4 DUP5 AND PUSH1 0x1 PUSH1 0x1 PUSH1 0xA0 SHL SUB NOT SWAP2 DUP3 AND OR DUP3 SSTORE SWAP4 DUP6 ADD MLOAD DUP2 DUP4 ADD DUP1 SLOAD SWAP2 SWAP1 SWAP5 AND SWAP5 AND SWAP4 SWAP1 SWAP4 OR SWAP1 SWAP2 SSTORE PUSH1 0x40 DUP4 ADD MLOAD PUSH1 0x2 DUP1 DUP5 ADD SWAP2 SWAP1 SWAP2 SSTORE PUSH1 0x60 DUP5 ADD MLOAD PUSH1 0x3 DUP5 ADD SSTORE PUSH1 0x80 DUP5 ADD MLOAD PUSH1 0x4 DUP5 ADD SSTORE PUSH1 0xA0 DUP5 ADD MLOAD PUSH1 0x5 DUP5 ADD DUP1 SLOAD SWAP6 SWAP7 POP DUP7 SWAP6 SWAP2 SWAP4 SWAP1 SWAP3 PUSH1 0xFF NOT SWAP1 SWAP3 AND SWAP2 DUP5 SWAP1 DUP2 GT ISZERO PUSH2 0x35B1 JUMPI PUSH2 0x35B1 PUSH2 0x4394 JUMP JUMPDEST MUL OR SWAP1 SSTORE POP PUSH1 0xC0 DUP3 ADD MLOAD PUSH1 0x5 DUP3 ADD DUP1 SLOAD PUSH2 0xFF00 NOT AND PUSH2 0x100 DUP4 PUSH1 0x1 DUP2 GT ISZERO PUSH2 0x35DB JUMPI PUSH2 0x35DB PUSH2 0x4394 JUMP JUMPDEST MUL OR SWAP1 SSTORE POP POP POP PUSH1 0x3 DUP3 ADD SLOAD PUSH1 0x4 DUP4 ADD SLOAD PUSH2 0x35F6 SWAP1 DUP11 PUSH2 0x4B8E JUMP JUMPDEST PUSH2 0x3600 SWAP2 SWAP1 PUSH2 0x4BAB JUMP JUMPDEST PUSH1 0x4 DUP4 ADD SSTORE POP PUSH1 0x3 DUP2 ADD DUP8 SWAP1 SSTORE JUMPDEST PUSH2 0x1DEA CALLER DUP11 PUSH2 0x84E JUMP JUMPDEST DUP1 DUP3 PUSH1 0x1 DUP2 PUSH2 0x3628 DUP5 PUSH1 0x64 PUSH2 0x4B8E JUMP JUMPDEST PUSH2 0x3632 SWAP2 SWAP1 PUSH2 0x4BAB JUMP JUMPDEST LT ISZERO PUSH2 0x368E JUMPI PUSH1 0x40 MLOAD PUSH3 0x461BCD PUSH1 0xE5 SHL DUP2 MSTORE PUSH1 0x20 PUSH1 0x4 DUP3 ADD MSTORE PUSH1 0x25 PUSH1 0x24 DUP3 ADD MSTORE PUSH32 0x5072696365206D757374206265206C6172676572206F7220657175616C20746F PUSH1 0x44 DUP3 ADD MSTORE PUSH5 0x20302E3031 PUSH1 0xD8 SHL PUSH1 0x64 DUP3 ADD MSTORE PUSH1 0x84 ADD PUSH2 0x32F JUMP JUMPDEST PUSH1 0x63 DUP2 PUSH2 0x369C DUP5 PUSH1 0x64 PUSH2 0x4B8E JUMP JUMPDEST PUSH2 0x36A6 SWAP2 SWAP1 PUSH2 0x4BAB JUMP JUMPDEST GT ISZERO PUSH2 0x3703 JUMPI PUSH1 0x40 MLOAD PUSH3 0x461BCD PUSH1 0xE5 SHL DUP2 MSTORE PUSH1 0x20 PUSH1 0x4 DUP3 ADD MSTORE PUSH1 0x26 PUSH1 0x24 DUP3 ADD MSTORE PUSH32 0x5072696365206D75737420626520736D616C6C6572206F7220657175616C2074 PUSH1 0x44 DUP3 ADD MSTORE PUSH6 0x6F20302E3939 PUSH1 0xD0 SHL PUSH1 0x64 DUP3 ADD MSTORE PUSH1 0x84 ADD PUSH2 0x32F JUMP JUMPDEST DUP6 PUSH1 0x0 DUP2 PUSH1 0x40 MLOAD PUSH2 0x3714 SWAP2 SWAP1 PUSH2 0x49F3 JUMP JUMPDEST SWAP1 DUP2 MSTORE PUSH1 0x40 MLOAD SWAP1 DUP2 SWAP1 SUB PUSH1 0x20 ADD SWAP1 KECCAK256 DUP1 SLOAD PUSH2 0x372E SWAP1 PUSH2 0x4A0F JUMP JUMPDEST SWAP1 POP PUSH1 0x0 SUB PUSH2 0x3774 JUMPI PUSH1 0x40 MLOAD PUSH3 0x461BCD PUSH1 0xE5 SHL DUP2 MSTORE PUSH1 0x20 PUSH1 0x4 DUP3 ADD MSTORE PUSH1 0x12 PUSH1 0x24 DUP3 ADD MSTORE PUSH18 0x10995D08191BD95CC81B9BDD08195E1A5CDD PUSH1 0x72 SHL PUSH1 0x44 DUP3 ADD MSTORE PUSH1 0x64 ADD PUSH2 0x32F JUMP JUMPDEST DUP7 PUSH1 0x0 DUP2 PUSH1 0x40 MLOAD PUSH2 0x3785 SWAP2 SWAP1 PUSH2 0x49F3 JUMP JUMPDEST SWAP1 DUP2 MSTORE PUSH1 0x20 ADD PUSH1 0x40 MLOAD DUP1 SWAP2 SUB SWAP1 KECCAK256 PUSH1 0x8 ADD SLOAD TIMESTAMP LT PUSH2 0x37DD JUMPI PUSH1 0x40 MLOAD PUSH3 0x461BCD PUSH1 0xE5 SHL DUP2 MSTORE PUSH1 0x20 PUSH1 0x4 DUP3 ADD MSTORE PUSH1 0x15 PUSH1 0x24 DUP3 ADD MSTORE PUSH21 0x2132BA1034B9903737903637B733B2B91037B832B7 PUSH1 0x59 SHL PUSH1 0x44 DUP3 ADD MSTORE PUSH1 0x64 ADD PUSH2 0x32F JUMP JUMPDEST PUSH1 0x0 DUP7 GT PUSH2 0x382D JUMPI PUSH1 0x40 MLOAD PUSH3 0x461BCD PUSH1 0xE5 SHL DUP2 MSTORE PUSH1 0x20 PUSH1 0x4 DUP3 ADD MSTORE PUSH1 0x1D PUSH1 0x24 DUP3 ADD MSTORE PUSH32 0x416D6F756E74206D7573742062652067726561746572207468616E2030000000 PUSH1 0x44 DUP3 ADD MSTORE PUSH1 0x64 ADD PUSH2 0x32F JUMP JUMPDEST PUSH1 0x0 DUP1 DUP10 PUSH1 0x40 MLOAD PUSH2 0x383E SWAP2 SWAP1 PUSH2 0x49F3 JUMP JUMPDEST SWAP1 DUP2 MSTORE PUSH1 0x20 ADD PUSH1 0x40 MLOAD DUP1 SWAP2 SUB SWAP1 KECCAK256 SWAP1 POP PUSH1 0x0 PUSH2 0x385A DUP11 CALLER PUSH2 0x3B7E JUMP JUMPDEST PUSH1 0x20 ADD MLOAD DUP10 DUP2 MLOAD DUP2 LT PUSH2 0x386F JUMPI PUSH2 0x386F PUSH2 0x4B49 JUMP JUMPDEST PUSH1 0x20 MUL PUSH1 0x20 ADD ADD MLOAD SWAP1 POP DUP8 DUP2 LT ISZERO PUSH2 0x38C9 JUMPI PUSH1 0x40 MLOAD PUSH3 0x461BCD PUSH1 0xE5 SHL DUP2 MSTORE PUSH1 0x20 PUSH1 0x4 DUP3 ADD MSTORE PUSH1 0x1C PUSH1 0x24 DUP3 ADD MSTORE PUSH32 0x596F7520646F6E2774206861766520656E6F75676820746F6B656E7300000000 PUSH1 0x44 DUP3 ADD MSTORE PUSH1 0x64 ADD PUSH2 0x32F JUMP JUMPDEST PUSH2 0x38DB DUP11 CALLER DUP12 PUSH2 0x24F9 DUP13 PUSH1 0x0 NOT PUSH2 0x4CC4 JUMP JUMPDEST PUSH1 0x40 DUP1 MLOAD PUSH1 0xE0 DUP2 ADD DUP3 MSTORE CALLER DUP2 MSTORE PUSH1 0x0 PUSH1 0x20 DUP1 DUP4 ADD DUP3 DUP2 MSTORE SWAP4 DUP4 ADD DUP14 DUP2 MSTORE PUSH1 0x60 DUP5 ADD DUP14 DUP2 MSTORE PUSH1 0x80 DUP6 ADD DUP14 DUP2 MSTORE PUSH1 0xA0 DUP7 ADD DUP6 DUP2 MSTORE PUSH1 0x1 PUSH1 0xC0 DUP9 ADD DUP2 SWAP1 MSTORE PUSH1 0xA DUP12 ADD DUP1 SLOAD DUP1 DUP4 ADD DUP3 SSTORE SWAP1 DUP9 MSTORE SWAP6 SWAP1 SWAP7 KECCAK256 DUP8 MLOAD PUSH1 0x6 SWAP1 SWAP7 MUL ADD DUP1 SLOAD PUSH1 0x1 PUSH1 0x1 PUSH1 0xA0 SHL SUB NOT SWAP1 DUP2 AND PUSH1 0x1 PUSH1 0x1 PUSH1 0xA0 SHL SUB SWAP8 DUP9 AND OR DUP3 SSTORE SWAP9 MLOAD DUP2 DUP9 ADD DUP1 SLOAD SWAP1 SWAP11 AND SWAP7 AND SWAP6 SWAP1 SWAP6 OR SWAP1 SWAP8 SSTORE SWAP2 MLOAD PUSH1 0x2 DUP1 DUP6 ADD SWAP2 SWAP1 SWAP2 SSTORE SWAP1 MLOAD PUSH1 0x3 DUP5 ADD SSTORE SWAP1 MLOAD PUSH1 0x4 DUP4 ADD SSTORE SWAP4 MLOAD PUSH1 0x5 DUP3 ADD DUP1 SLOAD SWAP5 SWAP6 DUP7 SWAP6 SWAP4 SWAP5 SWAP3 SWAP4 SWAP2 SWAP3 PUSH1 0xFF NOT SWAP1 SWAP3 AND SWAP2 SWAP1 DUP5 SWAP1 DUP2 GT ISZERO PUSH2 0x39A3 JUMPI PUSH2 0x39A3 PUSH2 0x4394 JUMP JUMPDEST MUL OR SWAP1 SSTORE POP PUSH1 0xC0 DUP3 ADD MLOAD PUSH1 0x5 DUP3 ADD DUP1 SLOAD PUSH2 0xFF00 NOT AND PUSH2 0x100 DUP4 PUSH1 0x1 DUP2 GT ISZERO PUSH2 0x39CD JUMPI PUSH2 0x39CD PUSH2 0x4394 JUMP JUMPDEST MUL OR SWAP1 SSTORE POP POP POP PUSH2 0x2BF2 CALLER DUP13 PUSH2 0x84E JUMP JUMPDEST PUSH1 0x60 DUP2 PUSH1 0x0 DUP2 PUSH1 0x40 MLOAD PUSH2 0x39F1 SWAP2 SWAP1 PUSH2 0x49F3 JUMP JUMPDEST SWAP1 DUP2 MSTORE PUSH1 0x40 MLOAD SWAP1 DUP2 SWAP1 SUB PUSH1 0x20 ADD SWAP1 KECCAK256 DUP1 SLOAD PUSH2 0x3A0B SWAP1 PUSH2 0x4A0F JUMP JUMPDEST SWAP1 POP PUSH1 0x0 SUB PUSH2 0x3A51 JUMPI PUSH1 0x40 MLOAD PUSH3 0x461BCD PUSH1 0xE5 SHL DUP2 MSTORE PUSH1 0x20 PUSH1 0x4 DUP3 ADD MSTORE PUSH1 0x12 PUSH1 0x24 DUP3 ADD MSTORE PUSH18 0x10995D08191BD95CC81B9BDD08195E1A5CDD PUSH1 0x72 SHL PUSH1 0x44 DUP3 ADD MSTORE PUSH1 0x64 ADD PUSH2 0x32F JUMP JUMPDEST PUSH1 0x0 DUP4 PUSH1 0x40 MLOAD PUSH2 0x3A61 SWAP2 SWAP1 PUSH2 0x49F3 JUMP JUMPDEST SWAP1 DUP2 MSTORE PUSH1 0x20 ADD PUSH1 0x40 MLOAD DUP1 SWAP2 SUB SWAP1 KECCAK256 PUSH1 0xA ADD DUP1 SLOAD DUP1 PUSH1 0x20 MUL PUSH1 0x20 ADD PUSH1 0x40 MLOAD SWAP1 DUP2 ADD PUSH1 0x40 MSTORE DUP1 SWAP3 SWAP2 SWAP1 DUP2 DUP2 MSTORE PUSH1 0x20 ADD PUSH1 0x0 SWAP1 JUMPDEST DUP3 DUP3 LT ISZERO PUSH2 0x3B72 JUMPI PUSH1 0x0 DUP5 DUP2 MSTORE PUSH1 0x20 SWAP1 DUP2 SWAP1 KECCAK256 PUSH1 0x40 DUP1 MLOAD PUSH1 0xE0 DUP2 ADD DUP3 MSTORE PUSH1 0x6 DUP7 MUL SWAP1 SWAP3 ADD DUP1 SLOAD PUSH1 0x1 PUSH1 0x1 PUSH1 0xA0 SHL SUB SWAP1 DUP2 AND DUP5 MSTORE PUSH1 0x1 DUP3 ADD SLOAD AND SWAP4 DUP4 ADD SWAP4 SWAP1 SWAP4 MSTORE PUSH1 0x2 DUP1 DUP5 ADD SLOAD SWAP2 DUP4 ADD SWAP2 SWAP1 SWAP2 MSTORE PUSH1 0x3 DUP4 ADD SLOAD PUSH1 0x60 DUP4 ADD MSTORE PUSH1 0x4 DUP4 ADD SLOAD PUSH1 0x80 DUP4 ADD MSTORE PUSH1 0x5 DUP4 ADD SLOAD SWAP2 SWAP3 SWAP2 PUSH1 0xA0 DUP5 ADD SWAP2 PUSH1 0xFF SWAP1 SWAP2 AND SWAP1 DUP2 GT ISZERO PUSH2 0x3B15 JUMPI PUSH2 0x3B15 PUSH2 0x4394 JUMP JUMPDEST PUSH1 0x2 DUP2 GT ISZERO PUSH2 0x3B26 JUMPI PUSH2 0x3B26 PUSH2 0x4394 JUMP JUMPDEST DUP2 MSTORE PUSH1 0x20 ADD PUSH1 0x5 DUP3 ADD PUSH1 0x1 SWAP1 SLOAD SWAP1 PUSH2 0x100 EXP SWAP1 DIV PUSH1 0xFF AND PUSH1 0x1 DUP2 GT ISZERO PUSH2 0x3B4E JUMPI PUSH2 0x3B4E PUSH2 0x4394 JUMP JUMPDEST PUSH1 0x1 DUP2 GT ISZERO PUSH2 0x3B5F JUMPI PUSH2 0x3B5F PUSH2 0x4394 JUMP JUMPDEST DUP2 MSTORE POP POP DUP2 MSTORE PUSH1 0x20 ADD SWAP1 PUSH1 0x1 ADD SWAP1 PUSH2 0x3A92 JUMP JUMPDEST POP POP POP POP SWAP2 POP POP SWAP2 SWAP1 POP JUMP JUMPDEST PUSH1 0x40 DUP1 MLOAD DUP1 DUP3 ADD SWAP1 SWAP2 MSTORE PUSH1 0x0 DUP2 MSTORE PUSH1 0x60 PUSH1 0x20 DUP3 ADD MSTORE DUP3 PUSH1 0x0 DUP2 PUSH1 0x40 MLOAD PUSH2 0x3BA4 SWAP2 SWAP1 PUSH2 0x49F3 JUMP JUMPDEST SWAP1 DUP2 MSTORE PUSH1 0x40 MLOAD SWAP1 DUP2 SWAP1 SUB PUSH1 0x20 ADD SWAP1 KECCAK256 DUP1 SLOAD PUSH2 0x3BBE SWAP1 PUSH2 0x4A0F JUMP JUMPDEST SWAP1 POP PUSH1 0x0 SUB PUSH2 0x3C04 JUMPI PUSH1 0x40 MLOAD PUSH3 0x461BCD PUSH1 0xE5 SHL DUP2 MSTORE PUSH1 0x20 PUSH1 0x4 DUP3 ADD MSTORE PUSH1 0x12 PUSH1 0x24 DUP3 ADD MSTORE PUSH18 0x10995D08191BD95CC81B9BDD08195E1A5CDD PUSH1 0x72 SHL PUSH1 0x44 DUP3 ADD MSTORE PUSH1 0x64 ADD PUSH2 0x32F JUMP JUMPDEST PUSH1 0x0 DUP1 DUP6 PUSH1 0x40 MLOAD PUSH2 0x3C15 SWAP2 SWAP1 PUSH2 0x49F3 JUMP JUMPDEST SWAP1 DUP2 MSTORE PUSH1 0x20 ADD PUSH1 0x40 MLOAD DUP1 SWAP2 SUB SWAP1 KECCAK256 SWAP1 POP PUSH1 0x0 JUMPDEST PUSH1 0x7 DUP3 ADD SLOAD DUP2 LT ISZERO PUSH2 0x3D21 JUMPI DUP5 PUSH1 0x1 PUSH1 0x1 PUSH1 0xA0 SHL SUB AND DUP3 PUSH1 0x7 ADD DUP3 DUP2 SLOAD DUP2 LT PUSH2 0x3C53 JUMPI PUSH2 0x3C53 PUSH2 0x4B49 JUMP JUMPDEST PUSH1 0x0 SWAP2 DUP3 MSTORE PUSH1 0x20 SWAP1 SWAP2 KECCAK256 PUSH1 0x2 SWAP1 SWAP2 MUL ADD SLOAD PUSH1 0x1 PUSH1 0x1 PUSH1 0xA0 SHL SUB AND SUB PUSH2 0x3D0F JUMPI DUP2 PUSH1 0x7 ADD DUP2 DUP2 SLOAD DUP2 LT PUSH2 0x3C87 JUMPI PUSH2 0x3C87 PUSH2 0x4B49 JUMP JUMPDEST PUSH1 0x0 SWAP2 DUP3 MSTORE PUSH1 0x20 SWAP2 DUP3 SWAP1 KECCAK256 PUSH1 0x40 DUP1 MLOAD DUP1 DUP3 ADD DUP3 MSTORE PUSH1 0x2 SWAP1 SWAP4 MUL SWAP1 SWAP2 ADD DUP1 SLOAD PUSH1 0x1 PUSH1 0x1 PUSH1 0xA0 SHL SUB AND DUP4 MSTORE PUSH1 0x1 DUP2 ADD DUP1 SLOAD DUP4 MLOAD DUP2 DUP8 MUL DUP2 ADD DUP8 ADD SWAP1 SWAP5 MSTORE DUP1 DUP5 MSTORE SWAP4 SWAP5 SWAP2 SWAP4 DUP6 DUP4 ADD SWAP4 SWAP3 DUP4 ADD DUP3 DUP3 DUP1 ISZERO PUSH2 0x3CFD JUMPI PUSH1 0x20 MUL DUP3 ADD SWAP2 SWAP1 PUSH1 0x0 MSTORE PUSH1 0x20 PUSH1 0x0 KECCAK256 SWAP1 JUMPDEST DUP2 SLOAD DUP2 MSTORE PUSH1 0x20 ADD SWAP1 PUSH1 0x1 ADD SWAP1 DUP1 DUP4 GT PUSH2 0x3CE9 JUMPI JUMPDEST POP POP POP POP POP DUP2 MSTORE POP POP SWAP4 POP POP POP PUSH2 0x3D91 JUMP JUMPDEST DUP1 PUSH2 0x3D19 DUP2 PUSH2 0x4B75 JUMP JUMPDEST SWAP2 POP POP PUSH2 0x3C28 JUMP JUMPDEST POP PUSH1 0x6 DUP2 ADD SLOAD PUSH1 0x0 SWAP1 PUSH8 0xFFFFFFFFFFFFFFFF DUP2 GT ISZERO PUSH2 0x3D42 JUMPI PUSH2 0x3D42 PUSH2 0x414D JUMP JUMPDEST PUSH1 0x40 MLOAD SWAP1 DUP1 DUP3 MSTORE DUP1 PUSH1 0x20 MUL PUSH1 0x20 ADD DUP3 ADD PUSH1 0x40 MSTORE DUP1 ISZERO PUSH2 0x3D6B JUMPI DUP2 PUSH1 0x20 ADD PUSH1 0x20 DUP3 MUL DUP1 CALLDATASIZE DUP4 CALLDATACOPY ADD SWAP1 POP JUMPDEST POP SWAP1 POP PUSH1 0x40 MLOAD DUP1 PUSH1 0x40 ADD PUSH1 0x40 MSTORE DUP1 DUP7 PUSH1 0x1 PUSH1 0x1 PUSH1 0xA0 SHL SUB AND DUP2 MSTORE PUSH1 0x20 ADD DUP3 DUP2 MSTORE POP SWAP4 POP POP POP JUMPDEST POP SWAP3 SWAP2 POP POP JUMP JUMPDEST PUSH1 0x0 DUP1 DUP6 PUSH1 0x40 MLOAD PUSH2 0x3DA9 SWAP2 SWAP1 PUSH2 0x49F3 JUMP JUMPDEST SWAP1 DUP2 MSTORE PUSH1 0x20 ADD PUSH1 0x40 MLOAD DUP1 SWAP2 SUB SWAP1 KECCAK256 SWAP1 POP PUSH1 0x0 JUMPDEST PUSH1 0x7 DUP3 ADD SLOAD DUP2 LT ISZERO PUSH2 0x2FB1 JUMPI DUP5 PUSH1 0x1 PUSH1 0x1 PUSH1 0xA0 SHL SUB AND DUP3 PUSH1 0x7 ADD DUP3 DUP2 SLOAD DUP2 LT PUSH2 0x3DE7 JUMPI PUSH2 0x3DE7 PUSH2 0x4B49 JUMP JUMPDEST PUSH1 0x0 SWAP2 DUP3 MSTORE PUSH1 0x20 SWAP1 SWAP2 KECCAK256 PUSH1 0x2 SWAP1 SWAP2 MUL ADD SLOAD PUSH1 0x1 PUSH1 0x1 PUSH1 0xA0 SHL SUB AND SUB PUSH2 0x3ECC JUMPI PUSH1 0x0 DUP4 SLT PUSH2 0x3E6A JUMPI DUP3 DUP3 PUSH1 0x7 ADD DUP3 DUP2 SLOAD DUP2 LT PUSH2 0x3E24 JUMPI PUSH2 0x3E24 PUSH2 0x4B49 JUMP JUMPDEST SWAP1 PUSH1 0x0 MSTORE PUSH1 0x20 PUSH1 0x0 KECCAK256 SWAP1 PUSH1 0x2 MUL ADD PUSH1 0x1 ADD DUP6 DUP2 SLOAD DUP2 LT PUSH2 0x3E46 JUMPI PUSH2 0x3E46 PUSH2 0x4B49 JUMP JUMPDEST SWAP1 PUSH1 0x0 MSTORE PUSH1 0x20 PUSH1 0x0 KECCAK256 ADD PUSH1 0x0 DUP3 DUP3 SLOAD PUSH2 0x3E5F SWAP2 SWAP1 PUSH2 0x4CB1 JUMP JUMPDEST SWAP1 SWAP2 SSTORE POP PUSH2 0x3ECC SWAP1 POP JUMP JUMPDEST PUSH2 0x3E76 DUP4 PUSH1 0x0 NOT PUSH2 0x4CC4 JUMP JUMPDEST DUP3 PUSH1 0x7 ADD DUP3 DUP2 SLOAD DUP2 LT PUSH2 0x3E8B JUMPI PUSH2 0x3E8B PUSH2 0x4B49 JUMP JUMPDEST SWAP1 PUSH1 0x0 MSTORE PUSH1 0x20 PUSH1 0x0 KECCAK256 SWAP1 PUSH1 0x2 MUL ADD PUSH1 0x1 ADD DUP6 DUP2 SLOAD DUP2 LT PUSH2 0x3EAD JUMPI PUSH2 0x3EAD PUSH2 0x4B49 JUMP JUMPDEST SWAP1 PUSH1 0x0 MSTORE PUSH1 0x20 PUSH1 0x0 KECCAK256 ADD PUSH1 0x0 DUP3 DUP3 SLOAD PUSH2 0x3EC6 SWAP2 SWAP1 PUSH2 0x4BCD JUMP JUMPDEST SWAP1 SWAP2 SSTORE POP POP JUMPDEST DUP1 PUSH2 0x3ED6 DUP2 PUSH2 0x4B75 JUMP JUMPDEST SWAP2 POP POP PUSH2 0x3DBC JUMP JUMPDEST PUSH1 0x0 DUP1 DUP4 PUSH1 0x40 MLOAD PUSH2 0x3EEF SWAP2 SWAP1 PUSH2 0x49F3 JUMP JUMPDEST SWAP1 DUP2 MSTORE PUSH1 0x20 ADD PUSH1 0x40 MLOAD DUP1 SWAP2 SUB SWAP1 KECCAK256 SWAP1 POP PUSH1 0x0 DUP1 JUMPDEST PUSH1 0x7 DUP4 ADD SLOAD DUP2 LT ISZERO PUSH2 0x3F63 JUMPI DUP3 PUSH1 0x7 ADD DUP2 DUP2 SLOAD DUP2 LT PUSH2 0x3F24 JUMPI PUSH2 0x3F24 PUSH2 0x4B49 JUMP JUMPDEST PUSH1 0x0 SWAP2 DUP3 MSTORE PUSH1 0x20 SWAP1 SWAP2 KECCAK256 PUSH1 0x2 SWAP1 SWAP2 MUL ADD SLOAD PUSH1 0x1 PUSH1 0x1 PUSH1 0xA0 SHL SUB SWAP1 DUP2 AND SWAP1 DUP6 AND SUB PUSH2 0x3F51 JUMPI PUSH1 0x1 SWAP2 POP PUSH2 0x3F63 JUMP JUMPDEST DUP1 PUSH2 0x3F5B DUP2 PUSH2 0x4B75 JUMP JUMPDEST SWAP2 POP POP PUSH2 0x3F03 JUMP JUMPDEST POP DUP1 PUSH2 0x405C JUMPI PUSH1 0x6 DUP3 ADD SLOAD PUSH1 0x0 SWAP1 PUSH8 0xFFFFFFFFFFFFFFFF DUP2 GT ISZERO PUSH2 0x3F89 JUMPI PUSH2 0x3F89 PUSH2 0x414D JUMP JUMPDEST PUSH1 0x40 MLOAD SWAP1 DUP1 DUP3 MSTORE DUP1 PUSH1 0x20 MUL PUSH1 0x20 ADD DUP3 ADD PUSH1 0x40 MSTORE DUP1 ISZERO PUSH2 0x3FB2 JUMPI DUP2 PUSH1 0x20 ADD PUSH1 0x20 DUP3 MUL DUP1 CALLDATASIZE DUP4 CALLDATACOPY ADD SWAP1 POP JUMPDEST POP SWAP1 POP PUSH1 0x0 JUMPDEST PUSH1 0x6 DUP5 ADD SLOAD DUP2 LT ISZERO PUSH2 0x3FF5 JUMPI PUSH1 0x0 DUP3 DUP3 DUP2 MLOAD DUP2 LT PUSH2 0x3FD8 JUMPI PUSH2 0x3FD8 PUSH2 0x4B49 JUMP JUMPDEST PUSH1 0x20 SWAP1 DUP2 MUL SWAP2 SWAP1 SWAP2 ADD ADD MSTORE DUP1 PUSH2 0x3FED DUP2 PUSH2 0x4B75 JUMP JUMPDEST SWAP2 POP POP PUSH2 0x3FB8 JUMP JUMPDEST POP PUSH1 0x40 DUP1 MLOAD DUP1 DUP3 ADD SWAP1 SWAP2 MSTORE PUSH1 0x1 PUSH1 0x1 PUSH1 0xA0 SHL SUB DUP6 DUP2 AND DUP3 MSTORE PUSH1 0x20 DUP1 DUP4 ADD DUP5 DUP2 MSTORE PUSH1 0x7 DUP8 ADD DUP1 SLOAD PUSH1 0x1 DUP1 DUP3 ADD DUP4 SSTORE PUSH1 0x0 SWAP3 DUP4 MSTORE SWAP2 DUP5 SWAP1 KECCAK256 DUP7 MLOAD PUSH1 0x2 SWAP1 SWAP3 MUL ADD DUP1 SLOAD PUSH1 0x1 PUSH1 0x1 PUSH1 0xA0 SHL SUB NOT AND SWAP2 SWAP1 SWAP6 AND OR DUP5 SSTORE SWAP1 MLOAD DUP1 MLOAD PUSH2 0x26CF SWAP4 SWAP3 DUP6 ADD SWAP3 SWAP2 SWAP1 SWAP2 ADD SWAP1 PUSH2 0x40ED JUMP JUMPDEST POP POP POP POP JUMP JUMPDEST PUSH1 0x40 MLOAD DUP1 PUSH2 0x1A0 ADD PUSH1 0x40 MSTORE DUP1 PUSH1 0x60 DUP2 MSTORE PUSH1 0x20 ADD PUSH1 0x60 DUP2 MSTORE PUSH1 0x20 ADD PUSH1 0x60 DUP2 MSTORE PUSH1 0x20 ADD PUSH1 0x0 DUP2 MSTORE PUSH1 0x20 ADD PUSH1 0x0 PUSH1 0x1 PUSH1 0x1 PUSH1 0xA0 SHL SUB AND DUP2 MSTORE PUSH1 0x20 ADD PUSH1 0x0 PUSH1 0x1 PUSH1 0x1 PUSH1 0xA0 SHL SUB AND DUP2 MSTORE PUSH1 0x20 ADD PUSH1 0x60 DUP2 MSTORE PUSH1 0x20 ADD PUSH1 0x60 DUP2 MSTORE PUSH1 0x20 ADD PUSH1 0x0 DUP2 MSTORE PUSH1 0x20 ADD PUSH1 0x0 DUP2 MSTORE PUSH1 0x20 ADD PUSH1 0x60 DUP2 MSTORE PUSH1 0x20 ADD PUSH1 0x0 PUSH1 0x1 DUP2 GT ISZERO PUSH2 0x40E0 JUMPI PUSH2 0x40E0 PUSH2 0x4394 JUMP JUMPDEST DUP2 MSTORE PUSH1 0x20 ADD PUSH1 0x0 DUP2 MSTORE POP SWAP1 JUMP JUMPDEST DUP3 DUP1 SLOAD DUP3 DUP3 SSTORE SWAP1 PUSH1 0x0 MSTORE PUSH1 0x20 PUSH1 0x0 KECCAK256 SWAP1 DUP2 ADD SWAP3 DUP3 ISZERO PUSH2 0x4128 JUMPI SWAP2 PUSH1 0x20 MUL DUP3 ADD JUMPDEST DUP3 DUP2 GT ISZERO PUSH2 0x4128 JUMPI DUP3 MLOAD DUP3 SSTORE SWAP2 PUSH1 0x20 ADD SWAP2 SWAP1 PUSH1 0x1 ADD SWAP1 PUSH2 0x410D JUMP JUMPDEST POP PUSH2 0x4134 SWAP3 SWAP2 POP PUSH2 0x4138 JUMP JUMPDEST POP SWAP1 JUMP JUMPDEST JUMPDEST DUP1 DUP3 GT ISZERO PUSH2 0x4134 JUMPI PUSH1 0x0 DUP2 SSTORE PUSH1 0x1 ADD PUSH2 0x4139 JUMP JUMPDEST PUSH4 0x4E487B71 PUSH1 0xE0 SHL PUSH1 0x0 MSTORE PUSH1 0x41 PUSH1 0x4 MSTORE PUSH1 0x24 PUSH1 0x0 REVERT JUMPDEST PUSH1 0x40 MLOAD PUSH1 0x1F DUP3 ADD PUSH1 0x1F NOT AND DUP2 ADD PUSH8 0xFFFFFFFFFFFFFFFF DUP2 GT DUP3 DUP3 LT OR ISZERO PUSH2 0x418C JUMPI PUSH2 0x418C PUSH2 0x414D JUMP JUMPDEST PUSH1 0x40 MSTORE SWAP2 SWAP1 POP JUMP JUMPDEST PUSH1 0x0 DUP3 PUSH1 0x1F DUP4 ADD SLT PUSH2 0x41A5 JUMPI PUSH1 0x0 DUP1 REVERT JUMPDEST DUP2 CALLDATALOAD PUSH8 0xFFFFFFFFFFFFFFFF DUP2 GT ISZERO PUSH2 0x41BF JUMPI PUSH2 0x41BF PUSH2 0x414D JUMP JUMPDEST PUSH2 0x41D2 PUSH1 0x1F DUP3 ADD PUSH1 0x1F NOT AND PUSH1 0x20 ADD PUSH2 0x4163 JUMP JUMPDEST DUP2 DUP2 MSTORE DUP5 PUSH1 0x20 DUP4 DUP7 ADD ADD GT ISZERO PUSH2 0x41E7 JUMPI PUSH1 0x0 DUP1 REVERT JUMPDEST DUP2 PUSH1 0x20 DUP6 ADD PUSH1 0x20 DUP4 ADD CALLDATACOPY PUSH1 0x0 SWAP2 DUP2 ADD PUSH1 0x20 ADD SWAP2 SWAP1 SWAP2 MSTORE SWAP4 SWAP3 POP POP POP JUMP JUMPDEST PUSH1 0x0 PUSH1 0x20 DUP3 DUP5 SUB SLT ISZERO PUSH2 0x4216 JUMPI PUSH1 0x0 DUP1 REVERT JUMPDEST DUP2 CALLDATALOAD PUSH8 0xFFFFFFFFFFFFFFFF DUP2 GT ISZERO PUSH2 0x422D JUMPI PUSH1 0x0 DUP1 REVERT JUMPDEST PUSH2 0x4239 DUP5 DUP3 DUP6 ADD PUSH2 0x4194 JUMP JUMPDEST SWAP5 SWAP4 POP POP POP POP JUMP JUMPDEST PUSH1 0x0 JUMPDEST DUP4 DUP2 LT ISZERO PUSH2 0x425C JUMPI DUP2 DUP2 ADD MLOAD DUP4 DUP3 ADD MSTORE PUSH1 0x20 ADD PUSH2 0x4244 JUMP JUMPDEST POP POP PUSH1 0x0 SWAP2 ADD MSTORE JUMP JUMPDEST PUSH1 0x0 DUP2 MLOAD DUP1 DUP5 MSTORE PUSH2 0x427D DUP2 PUSH1 0x20 DUP7 ADD PUSH1 0x20 DUP7 ADD PUSH2 0x4241 JUMP JUMPDEST PUSH1 0x1F ADD PUSH1 0x1F NOT AND SWAP3 SWAP1 SWAP3 ADD PUSH1 0x20 ADD SWAP3 SWAP2 POP POP JUMP JUMPDEST PUSH1 0x0 DUP3 DUP3 MLOAD DUP1 DUP6 MSTORE PUSH1 0x20 DUP1 DUP7 ADD SWAP6 POP DUP1 DUP3 PUSH1 0x5 SHL DUP5 ADD ADD DUP2 DUP7 ADD PUSH1 0x0 JUMPDEST DUP5 DUP2 LT ISZERO PUSH2 0x42DC JUMPI PUSH1 0x1F NOT DUP7 DUP5 SUB ADD DUP10 MSTORE PUSH2 0x42CA DUP4 DUP4 MLOAD PUSH2 0x4265 JUMP JUMPDEST SWAP9 DUP5 ADD SWAP9 SWAP3 POP SWAP1 DUP4 ADD SWAP1 PUSH1 0x1 ADD PUSH2 0x42AE JUMP JUMPDEST POP SWAP1 SWAP8 SWAP7 POP POP POP POP POP POP POP JUMP JUMPDEST PUSH1 0x0 PUSH1 0x40 DUP4 ADD PUSH1 0x1 PUSH1 0x1 PUSH1 0xA0 SHL SUB DUP4 MLOAD AND DUP5 MSTORE PUSH1 0x20 DUP1 DUP5 ADD MLOAD PUSH1 0x40 DUP3 DUP8 ADD MSTORE DUP3 DUP2 MLOAD DUP1 DUP6 MSTORE PUSH1 0x60 DUP9 ADD SWAP2 POP DUP4 DUP4 ADD SWAP5 POP PUSH1 0x0 SWAP3 POP JUMPDEST DUP1 DUP4 LT ISZERO PUSH2 0x433E JUMPI DUP5 MLOAD DUP3 MSTORE SWAP4 DUP4 ADD SWAP4 PUSH1 0x1 SWAP3 SWAP1 SWAP3 ADD SWAP2 SWAP1 DUP4 ADD SWAP1 PUSH2 0x431E JUMP JUMPDEST POP SWAP7 SWAP6 POP POP POP POP POP POP JUMP JUMPDEST PUSH1 0x0 DUP3 DUP3 MLOAD DUP1 DUP6 MSTORE PUSH1 0x20 DUP1 DUP7 ADD SWAP6 POP DUP1 DUP3 PUSH1 0x5 SHL DUP5 ADD ADD DUP2 DUP7 ADD PUSH1 0x0 JUMPDEST DUP5 DUP2 LT ISZERO PUSH2 0x42DC JUMPI PUSH1 0x1F NOT DUP7 DUP5 SUB ADD DUP10 MSTORE PUSH2 0x4382 DUP4 DUP4 MLOAD PUSH2 0x42E9 JUMP JUMPDEST SWAP9 DUP5 ADD SWAP9 SWAP3 POP SWAP1 DUP4 ADD SWAP1 PUSH1 0x1 ADD PUSH2 0x4366 JUMP JUMPDEST PUSH4 0x4E487B71 PUSH1 0xE0 SHL PUSH1 0x0 MSTORE PUSH1 0x21 PUSH1 0x4 MSTORE PUSH1 0x24 PUSH1 0x0 REVERT JUMPDEST PUSH1 0x2 DUP2 LT PUSH2 0x43BA JUMPI PUSH2 0x43BA PUSH2 0x4394 JUMP JUMPDEST POP JUMP JUMPDEST PUSH1 0x0 DUP2 MLOAD DUP1 DUP5 MSTORE PUSH1 0x20 DUP1 DUP6 ADD SWAP5 POP DUP1 DUP5 ADD PUSH1 0x0 JUMPDEST DUP4 DUP2 LT ISZERO PUSH2 0x4450 JUMPI DUP2 MLOAD DUP1 MLOAD PUSH1 0x1 PUSH1 0x1 PUSH1 0xA0 SHL SUB SWAP1 DUP2 AND DUP10 MSTORE DUP5 DUP3 ADD MLOAD AND DUP5 DUP10 ADD MSTORE PUSH1 0x40 DUP1 DUP3 ADD MLOAD SWAP1 DUP10 ADD MSTORE PUSH1 0x60 DUP1 DUP3 ADD MLOAD SWAP1 DUP10 ADD MSTORE PUSH1 0x80 DUP1 DUP3 ADD MLOAD SWAP1 DUP10 ADD MSTORE PUSH1 0xA0 DUP1 DUP3 ADD MLOAD PUSH1 0x3 DUP2 LT PUSH2 0x4427 JUMPI PUSH2 0x4427 PUSH2 0x4394 JUMP JUMPDEST SWAP1 DUP10 ADD MSTORE PUSH1 0xC0 SWAP1 DUP2 ADD MLOAD SWAP1 PUSH2 0x443B DUP3 PUSH2 0x43AA JUMP JUMPDEST DUP9 ADD MSTORE PUSH1 0xE0 SWAP1 SWAP7 ADD SWAP6 SWAP1 DUP3 ADD SWAP1 PUSH1 0x1 ADD PUSH2 0x43D1 JUMP JUMPDEST POP SWAP5 SWAP6 SWAP5 POP POP POP POP POP JUMP JUMPDEST PUSH2 0x4464 DUP2 PUSH2 0x43AA JUMP JUMPDEST SWAP1 MSTORE JUMP JUMPDEST PUSH1 0x0 PUSH2 0x1A0 DUP3 MLOAD DUP2 DUP6 MSTORE PUSH2 0x447E DUP3 DUP7 ADD DUP3 PUSH2 0x4265 JUMP JUMPDEST SWAP2 POP POP PUSH1 0x20 DUP4 ADD MLOAD DUP5 DUP3 SUB PUSH1 0x20 DUP7 ADD MSTORE PUSH2 0x4498 DUP3 DUP3 PUSH2 0x4265 JUMP JUMPDEST SWAP2 POP POP PUSH1 0x40 DUP4 ADD MLOAD DUP5 DUP3 SUB PUSH1 0x40 DUP7 ADD MSTORE PUSH2 0x44B2 DUP3 DUP3 PUSH2 0x4265 JUMP JUMPDEST SWAP2 POP POP PUSH1 0x60 DUP4 ADD MLOAD PUSH1 0x60 DUP6 ADD MSTORE PUSH1 0x80 DUP4 ADD MLOAD PUSH2 0x44D9 PUSH1 0x80 DUP7 ADD DUP3 PUSH1 0x1 PUSH1 0x1 PUSH1 0xA0 SHL SUB AND SWAP1 MSTORE JUMP JUMPDEST POP PUSH1 0xA0 DUP4 ADD MLOAD PUSH2 0x44F4 PUSH1 0xA0 DUP7 ADD DUP3 PUSH1 0x1 PUSH1 0x1 PUSH1 0xA0 SHL SUB AND SWAP1 MSTORE JUMP JUMPDEST POP PUSH1 0xC0 DUP4 ADD MLOAD DUP5 DUP3 SUB PUSH1 0xC0 DUP7 ADD MSTORE PUSH2 0x450C DUP3 DUP3 PUSH2 0x4291 JUMP JUMPDEST SWAP2 POP POP PUSH1 0xE0 DUP4 ADD MLOAD DUP5 DUP3 SUB PUSH1 0xE0 DUP7 ADD MSTORE PUSH2 0x4526 DUP3 DUP3 PUSH2 0x4349 JUMP JUMPDEST SWAP2 POP POP PUSH2 0x100 DUP1 DUP5 ADD MLOAD DUP2 DUP7 ADD MSTORE POP PUSH2 0x120 DUP1 DUP5 ADD MLOAD DUP2 DUP7 ADD MSTORE POP PUSH2 0x140 DUP1 DUP5 ADD MLOAD DUP6 DUP4 SUB DUP3 DUP8 ADD MSTORE PUSH2 0x4559 DUP4 DUP3 PUSH2 0x43BD JUMP JUMPDEST SWAP3 POP POP POP PUSH2 0x160 DUP1 DUP5 ADD MLOAD PUSH2 0x4570 DUP3 DUP8 ADD DUP3 PUSH2 0x445B JUMP JUMPDEST POP POP PUSH2 0x180 SWAP3 DUP4 ADD MLOAD SWAP4 SWAP1 SWAP3 ADD SWAP3 SWAP1 SWAP3 MSTORE SWAP2 SWAP1 POP JUMP JUMPDEST PUSH1 0x20 DUP2 MSTORE PUSH1 0x0 PUSH2 0x4599 PUSH1 0x20 DUP4 ADD DUP5 PUSH2 0x4468 JUMP JUMPDEST SWAP4 SWAP3 POP POP POP JUMP JUMPDEST PUSH1 0x1 PUSH1 0x1 PUSH1 0xA0 SHL SUB DUP2 AND DUP2 EQ PUSH2 0x43BA JUMPI PUSH1 0x0 DUP1 REVERT JUMPDEST PUSH1 0x0 DUP1 PUSH1 0x40 DUP4 DUP6 SUB SLT ISZERO PUSH2 0x45C8 JUMPI PUSH1 0x0 DUP1 REVERT JUMPDEST DUP3 CALLDATALOAD PUSH2 0x45D3 DUP2 PUSH2 0x45A0 JUMP JUMPDEST SWAP2 POP PUSH1 0x20 DUP4 ADD CALLDATALOAD PUSH8 0xFFFFFFFFFFFFFFFF DUP2 GT ISZERO PUSH2 0x45EF JUMPI PUSH1 0x0 DUP1 REVERT JUMPDEST PUSH2 0x45FB DUP6 DUP3 DUP7 ADD PUSH2 0x4194 JUMP JUMPDEST SWAP2 POP POP SWAP3 POP SWAP3 SWAP1 POP JUMP JUMPDEST PUSH1 0x0 PUSH1 0x20 DUP3 DUP5 SUB SLT ISZERO PUSH2 0x4617 JUMPI PUSH1 0x0 DUP1 REVERT JUMPDEST DUP2 CALLDATALOAD PUSH2 0x4599 DUP2 PUSH2 0x45A0 JUMP JUMPDEST PUSH1 0x0 PUSH1 0x20 DUP1 DUP4 ADD DUP2 DUP5 MSTORE DUP1 DUP6 MLOAD DUP1 DUP4 MSTORE PUSH1 0x40 DUP7 ADD SWAP2 POP PUSH1 0x40 DUP2 PUSH1 0x5 SHL DUP8 ADD ADD SWAP3 POP DUP4 DUP8 ADD PUSH1 0x0 JUMPDEST DUP3 DUP2 LT ISZERO PUSH2 0x4677 JUMPI PUSH1 0x3F NOT DUP9 DUP7 SUB ADD DUP5 MSTORE PUSH2 0x4665 DUP6 DUP4 MLOAD PUSH2 0x4468 JUMP JUMPDEST SWAP5 POP SWAP3 DUP6 ADD SWAP3 SWAP1 DUP6 ADD SWAP1 PUSH1 0x1 ADD PUSH2 0x4649 JUMP JUMPDEST POP SWAP3 SWAP8 SWAP7 POP POP POP POP POP POP POP JUMP JUMPDEST PUSH1 0x0 DUP1 PUSH1 0x40 DUP4 DUP6 SUB SLT ISZERO PUSH2 0x4697 JUMPI PUSH1 0x0 DUP1 REVERT JUMPDEST DUP3 CALLDATALOAD PUSH8 0xFFFFFFFFFFFFFFFF DUP2 GT ISZERO PUSH2 0x46AE JUMPI PUSH1 0x0 DUP1 REVERT JUMPDEST PUSH2 0x46BA DUP6 DUP3 DUP7 ADD PUSH2 0x4194 JUMP JUMPDEST SWAP6 PUSH1 0x20 SWAP5 SWAP1 SWAP5 ADD CALLDATALOAD SWAP5 POP POP POP POP JUMP JUMPDEST PUSH1 0x0 DUP1 PUSH1 0x0 PUSH1 0x60 DUP5 DUP7 SUB SLT ISZERO PUSH2 0x46DE JUMPI PUSH1 0x0 DUP1 REVERT JUMPDEST DUP4 CALLDATALOAD PUSH8 0xFFFFFFFFFFFFFFFF DUP2 GT ISZERO PUSH2 0x46F5 JUMPI PUSH1 0x0 DUP1 REVERT JUMPDEST PUSH2 0x4701 DUP7 DUP3 DUP8 ADD PUSH2 0x4194 JUMP JUMPDEST SWAP7 PUSH1 0x20 DUP7 ADD CALLDATALOAD SWAP7 POP PUSH1 0x40 SWAP1 SWAP6 ADD CALLDATALOAD SWAP5 SWAP4 POP POP POP POP JUMP JUMPDEST PUSH1 0x0 DUP1 DUP4 PUSH1 0x1F DUP5 ADD SLT PUSH2 0x4729 JUMPI PUSH1 0x0 DUP1 REVERT JUMPDEST POP DUP2 CALLDATALOAD PUSH8 0xFFFFFFFFFFFFFFFF DUP2 GT ISZERO PUSH2 0x4741 JUMPI PUSH1 0x0 DUP1 REVERT JUMPDEST PUSH1 0x20 DUP4 ADD SWAP2 POP DUP4 PUSH1 0x20 DUP3 DUP6 ADD ADD GT ISZERO PUSH2 0x4759 JUMPI PUSH1 0x0 DUP1 REVERT JUMPDEST SWAP3 POP SWAP3 SWAP1 POP JUMP JUMPDEST DUP1 CALLDATALOAD PUSH2 0x476B DUP2 PUSH2 0x45A0 JUMP JUMPDEST SWAP2 SWAP1 POP JUMP JUMPDEST PUSH1 0x0 DUP3 PUSH1 0x1F DUP4 ADD SLT PUSH2 0x4781 JUMPI PUSH1 0x0 DUP1 REVERT JUMPDEST DUP2 CALLDATALOAD PUSH1 0x20 PUSH8 0xFFFFFFFFFFFFFFFF DUP1 DUP4 GT ISZERO PUSH2 0x479E JUMPI PUSH2 0x479E PUSH2 0x414D JUMP JUMPDEST DUP3 PUSH1 0x5 SHL PUSH2 0x47AD DUP4 DUP3 ADD PUSH2 0x4163 JUMP JUMPDEST SWAP4 DUP5 MSTORE DUP6 DUP2 ADD DUP4 ADD SWAP4 DUP4 DUP2 ADD SWAP1 DUP9 DUP7 GT ISZERO PUSH2 0x47C7 JUMPI PUSH1 0x0 DUP1 REVERT JUMPDEST DUP5 DUP9 ADD SWAP3 POP JUMPDEST DUP6 DUP4 LT ISZERO PUSH2 0x4803 JUMPI DUP3 CALLDATALOAD DUP5 DUP2 GT ISZERO PUSH2 0x47E5 JUMPI PUSH1 0x0 DUP1 DUP2 REVERT JUMPDEST PUSH2 0x47F3 DUP11 DUP8 DUP4 DUP13 ADD ADD PUSH2 0x4194 JUMP JUMPDEST DUP4 MSTORE POP SWAP2 DUP5 ADD SWAP2 SWAP1 DUP5 ADD SWAP1 PUSH2 0x47CD JUMP JUMPDEST SWAP9 SWAP8 POP POP POP POP POP POP POP POP JUMP JUMPDEST PUSH1 0x0 DUP1 PUSH1 0x0 DUP1 PUSH1 0x0 DUP1 PUSH1 0x0 DUP1 PUSH1 0xE0 DUP10 DUP12 SUB SLT ISZERO PUSH2 0x482B JUMPI PUSH1 0x0 DUP1 REVERT JUMPDEST DUP9 CALLDATALOAD PUSH8 0xFFFFFFFFFFFFFFFF DUP1 DUP3 GT ISZERO PUSH2 0x4843 JUMPI PUSH1 0x0 DUP1 REVERT JUMPDEST PUSH2 0x484F DUP13 DUP4 DUP14 ADD PUSH2 0x4717 JUMP JUMPDEST SWAP1 SWAP11 POP SWAP9 POP PUSH1 0x20 DUP12 ADD CALLDATALOAD SWAP2 POP DUP1 DUP3 GT ISZERO PUSH2 0x4868 JUMPI PUSH1 0x0 DUP1 REVERT JUMPDEST PUSH2 0x4874 DUP13 DUP4 DUP14 ADD PUSH2 0x4194 JUMP JUMPDEST SWAP8 POP PUSH1 0x40 DUP12 ADD CALLDATALOAD SWAP2 POP DUP1 DUP3 GT ISZERO PUSH2 0x488A JUMPI PUSH1 0x0 DUP1 REVERT JUMPDEST PUSH2 0x4896 DUP13 DUP4 DUP14 ADD PUSH2 0x4194 JUMP JUMPDEST SWAP7 POP PUSH2 0x48A4 PUSH1 0x60 DUP13 ADD PUSH2 0x4760 JUMP JUMPDEST SWAP6 POP PUSH1 0x80 DUP12 ADD CALLDATALOAD SWAP2 POP DUP1 DUP3 GT ISZERO PUSH2 0x48BA JUMPI PUSH1 0x0 DUP1 REVERT JUMPDEST POP PUSH2 0x48C7 DUP12 DUP3 DUP13 ADD PUSH2 0x4770 JUMP JUMPDEST SWAP4 POP POP PUSH1 0xA0 DUP10 ADD CALLDATALOAD SWAP2 POP PUSH1 0xC0 DUP10 ADD CALLDATALOAD SWAP1 POP SWAP3 SWAP6 SWAP9 POP SWAP3 SWAP6 SWAP9 SWAP1 SWAP4 SWAP7 POP JUMP JUMPDEST PUSH1 0x0 DUP1 PUSH1 0x20 DUP4 DUP6 SUB SLT ISZERO PUSH2 0x48F8 JUMPI PUSH1 0x0 DUP1 REVERT JUMPDEST DUP3 CALLDATALOAD PUSH8 0xFFFFFFFFFFFFFFFF DUP2 GT ISZERO PUSH2 0x490F JUMPI PUSH1 0x0 DUP1 REVERT JUMPDEST PUSH2 0x491B DUP6 DUP3 DUP7 ADD PUSH2 0x4717 JUMP JUMPDEST SWAP1 SWAP7 SWAP1 SWAP6 POP SWAP4 POP POP POP POP JUMP JUMPDEST PUSH1 0x0 DUP1 PUSH1 0x0 DUP1 PUSH1 0x80 DUP6 DUP8 SUB SLT ISZERO PUSH2 0x493D JUMPI PUSH1 0x0 DUP1 REVERT JUMPDEST DUP5 CALLDATALOAD PUSH8 0xFFFFFFFFFFFFFFFF DUP2 GT ISZERO PUSH2 0x4954 JUMPI PUSH1 0x0 DUP1 REVERT JUMPDEST PUSH2 0x4960 DUP8 DUP3 DUP9 ADD PUSH2 0x4194 JUMP JUMPDEST SWAP8 PUSH1 0x20 DUP8 ADD CALLDATALOAD SWAP8 POP PUSH1 0x40 DUP8 ADD CALLDATALOAD SWAP7 PUSH1 0x60 ADD CALLDATALOAD SWAP6 POP SWAP4 POP POP POP POP JUMP JUMPDEST PUSH1 0x20 DUP2 MSTORE PUSH1 0x0 PUSH2 0x4599 PUSH1 0x20 DUP4 ADD DUP5 PUSH2 0x43BD JUMP JUMPDEST PUSH1 0x0 DUP1 PUSH1 0x40 DUP4 DUP6 SUB SLT ISZERO PUSH2 0x49A1 JUMPI PUSH1 0x0 DUP1 REVERT JUMPDEST DUP3 CALLDATALOAD PUSH8 0xFFFFFFFFFFFFFFFF DUP2 GT ISZERO PUSH2 0x49B8 JUMPI PUSH1 0x0 DUP1 REVERT JUMPDEST PUSH2 0x49C4 DUP6 DUP3 DUP7 ADD PUSH2 0x4194 JUMP JUMPDEST SWAP3 POP POP PUSH1 0x20 DUP4 ADD CALLDATALOAD PUSH2 0x49D5 DUP2 PUSH2 0x45A0 JUMP JUMPDEST DUP1 SWAP2 POP POP SWAP3 POP SWAP3 SWAP1 POP JUMP JUMPDEST PUSH1 0x20 DUP2 MSTORE PUSH1 0x0 PUSH2 0x4599 PUSH1 0x20 DUP4 ADD DUP5 PUSH2 0x42E9 JUMP JUMPDEST PUSH1 0x0 DUP3 MLOAD PUSH2 0x4A05 DUP2 DUP5 PUSH1 0x20 DUP8 ADD PUSH2 0x4241 JUMP JUMPDEST SWAP2 SWAP1 SWAP2 ADD SWAP3 SWAP2 POP POP JUMP JUMPDEST PUSH1 0x1 DUP2 DUP2 SHR SWAP1 DUP3 AND DUP1 PUSH2 0x4A23 JUMPI PUSH1 0x7F DUP3 AND SWAP2 POP JUMPDEST PUSH1 0x20 DUP3 LT DUP2 SUB PUSH2 0x848 JUMPI PUSH4 0x4E487B71 PUSH1 0xE0 SHL PUSH1 0x0 MSTORE PUSH1 0x22 PUSH1 0x4 MSTORE PUSH1 0x24 PUSH1 0x0 REVERT JUMPDEST PUSH1 0x1F DUP3 GT ISZERO PUSH2 0x8F0 JUMPI PUSH1 0x0 DUP2 DUP2 MSTORE PUSH1 0x20 DUP2 KECCAK256 PUSH1 0x1F DUP6 ADD PUSH1 0x5 SHR DUP2 ADD PUSH1 0x20 DUP7 LT ISZERO PUSH2 0x4A6A JUMPI POP DUP1 JUMPDEST PUSH1 0x1F DUP6 ADD PUSH1 0x5 SHR DUP3 ADD SWAP2 POP JUMPDEST DUP2 DUP2 LT ISZERO PUSH2 0x2FB1 JUMPI DUP3 DUP2 SSTORE PUSH1 0x1 ADD PUSH2 0x4A76 JUMP JUMPDEST DUP2 MLOAD PUSH8 0xFFFFFFFFFFFFFFFF DUP2 GT ISZERO PUSH2 0x4AA3 JUMPI PUSH2 0x4AA3 PUSH2 0x414D JUMP JUMPDEST PUSH2 0x4AB7 DUP2 PUSH2 0x4AB1 DUP5 SLOAD PUSH2 0x4A0F JUMP JUMPDEST DUP5 PUSH2 0x4A43 JUMP JUMPDEST PUSH1 0x20 DUP1 PUSH1 0x1F DUP4 GT PUSH1 0x1 DUP2 EQ PUSH2 0x4AEC JUMPI PUSH1 0x0 DUP5 ISZERO PUSH2 0x4AD4 JUMPI POP DUP6 DUP4 ADD MLOAD JUMPDEST PUSH1 0x0 NOT PUSH1 0x3 DUP7 SWAP1 SHL SHR NOT AND PUSH1 0x1 DUP6 SWAP1 SHL OR DUP6 SSTORE PUSH2 0x2FB1 JUMP JUMPDEST PUSH1 0x0 DUP6 DUP2 MSTORE PUSH1 0x20 DUP2 KECCAK256 PUSH1 0x1F NOT DUP7 AND SWAP2 JUMPDEST DUP3 DUP2 LT ISZERO PUSH2 0x4B1B JUMPI DUP9 DUP7 ADD MLOAD DUP3 SSTORE SWAP5 DUP5 ADD SWAP5 PUSH1 0x1 SWAP1 SWAP2 ADD SWAP1 DUP5 ADD PUSH2 0x4AFC JUMP JUMPDEST POP DUP6 DUP3 LT ISZERO PUSH2 0x4B39 JUMPI DUP8 DUP6 ADD MLOAD PUSH1 0x0 NOT PUSH1 0x3 DUP9 SWAP1 SHL PUSH1 0xF8 AND SHR NOT AND DUP2 SSTORE JUMPDEST POP POP POP POP POP PUSH1 0x1 SWAP1 DUP2 SHL ADD SWAP1 SSTORE POP JUMP JUMPDEST PUSH4 0x4E487B71 PUSH1 0xE0 SHL PUSH1 0x0 MSTORE PUSH1 0x32 PUSH1 0x4 MSTORE PUSH1 0x24 PUSH1 0x0 REVERT JUMPDEST PUSH4 0x4E487B71 PUSH1 0xE0 SHL PUSH1 0x0 MSTORE PUSH1 0x11 PUSH1 0x4 MSTORE PUSH1 0x24 PUSH1 0x0 REVERT JUMPDEST PUSH1 0x0 PUSH1 0x1 DUP3 ADD PUSH2 0x4B87 JUMPI PUSH2 0x4B87 PUSH2 0x4B5F JUMP JUMPDEST POP PUSH1 0x1 ADD SWAP1 JUMP JUMPDEST DUP1 DUP3 MUL DUP2 ISZERO DUP3 DUP3 DIV DUP5 EQ OR PUSH2 0x4BA5 JUMPI PUSH2 0x4BA5 PUSH2 0x4B5F JUMP JUMPDEST SWAP3 SWAP2 POP POP JUMP JUMPDEST PUSH1 0x0 DUP3 PUSH2 0x4BC8 JUMPI PUSH4 0x4E487B71 PUSH1 0xE0 SHL PUSH1 0x0 MSTORE PUSH1 0x12 PUSH1 0x4 MSTORE PUSH1 0x24 PUSH1 0x0 REVERT JUMPDEST POP DIV SWAP1 JUMP JUMPDEST DUP2 DUP2 SUB DUP2 DUP2 GT ISZERO PUSH2 0x4BA5 JUMPI PUSH2 0x4BA5 PUSH2 0x4B5F JUMP JUMPDEST DUP2 DUP4 DUP3 CALLDATACOPY PUSH1 0x0 SWAP2 ADD SWAP1 DUP2 MSTORE SWAP2 SWAP1 POP JUMP JUMPDEST PUSH8 0xFFFFFFFFFFFFFFFF DUP4 GT ISZERO PUSH2 0x4C08 JUMPI PUSH2 0x4C08 PUSH2 0x414D JUMP JUMPDEST PUSH2 0x4C1C DUP4 PUSH2 0x4C16 DUP4 SLOAD PUSH2 0x4A0F JUMP JUMPDEST DUP4 PUSH2 0x4A43 JUMP JUMPDEST PUSH1 0x0 PUSH1 0x1F DUP5 GT PUSH1 0x1 DUP2 EQ PUSH2 0x4C50 JUMPI PUSH1 0x0 DUP6 ISZERO PUSH2 0x4C38 JUMPI POP DUP4 DUP3 ADD CALLDATALOAD JUMPDEST PUSH1 0x0 NOT PUSH1 0x3 DUP8 SWAP1 SHL SHR NOT AND PUSH1 0x1 DUP7 SWAP1 SHL OR DUP4 SSTORE PUSH2 0x4CAA JUMP JUMPDEST PUSH1 0x0 DUP4 DUP2 MSTORE PUSH1 0x20 SWAP1 KECCAK256 PUSH1 0x1F NOT DUP7 AND SWAP1 DUP4 JUMPDEST DUP3 DUP2 LT ISZERO PUSH2 0x4C81 JUMPI DUP7 DUP6 ADD CALLDATALOAD DUP3 SSTORE PUSH1 0x20 SWAP5 DUP6 ADD SWAP5 PUSH1 0x1 SWAP1 SWAP3 ADD SWAP2 ADD PUSH2 0x4C61 JUMP JUMPDEST POP DUP7 DUP3 LT ISZERO PUSH2 0x4C9E JUMPI PUSH1 0x0 NOT PUSH1 0xF8 DUP9 PUSH1 0x3 SHL AND SHR NOT DUP5 DUP8 ADD CALLDATALOAD AND DUP2 SSTORE JUMPDEST POP POP PUSH1 0x1 DUP6 PUSH1 0x1 SHL ADD DUP4 SSTORE JUMPDEST POP POP POP POP POP JUMP JUMPDEST DUP1 DUP3 ADD DUP1 DUP3 GT ISZERO PUSH2 0x4BA5 JUMPI PUSH2 0x4BA5 PUSH2 0x4B5F JUMP JUMPDEST DUP1 DUP3 MUL PUSH1 0x0 DUP3 SLT PUSH32 0x8000000000000000000000000000000000000000000000000000000000000000 DUP5 EQ AND ISZERO PUSH2 0x4CFC JUMPI PUSH2 0x4CFC PUSH2 0x4B5F JUMP JUMPDEST DUP2 DUP2 SDIV DUP4 EQ DUP3 ISZERO OR PUSH2 0x4BA5 JUMPI PUSH2 0x4BA5 PUSH2 0x4B5F JUMP INVALID LOG2 PUSH5 0x6970667358 0x22 SLT KECCAK256 0xBD 0xB6 MSTORE8 PUSH4 0x50F0D70B 0xD4 0xBB 0x29 0xE4 0xE2 0xC0 0xA8 COINBASE SSTORE 0x29 SLOAD PUSH6 0x854C841383B4 0x4A PUSH10 0xBFCEFF4C64736F6C6343 STOP ADDMOD GT STOP CALLER "},"gasEstimates":{"creation":{"codeDepositCost":"3956400","executionCost":"4513","totalCost":"3960913"},"external":{"cancelOrder(string,uint256)":"infinite","createBet(string,string,string,address,string[],uint256,uint256)":"infinite","createBuyOrder(string,uint256,uint256)":"infinite","createSellOrder(string,uint256,uint256,uint256)":"infinite","ensureParticipates(address,string)":"infinite","fillBuyOrder(string,uint256,uint256)":"infinite","fillSellOrder(string,uint256)":"infinite","forceFinishBet(string)":"infinite","getBet(string)":"infinite","getBetsParticipated(address)":"infinite","getOrders(string)":"infinite","getUserBalance(string,address)":"infinite","getUserBets(address)":"infinite","resolveBet(string,uint256)":"infinite"},"internal":{"initialiseUserBalance(string memory,address payable)":"infinite","moveTokens(string memory,address payable,uint256,int256)":"infinite"}},"methodIdentifiers":{"cancelOrder(string,uint256)":"9617e885","createBet(string,string,string,address,string[],uint256,uint256)":"b1002409","createBuyOrder(string,uint256,uint256)":"7eeafd34","createSellOrder(string,uint256,uint256,uint256)":"ef329c2c","ensureParticipates(address,string)":"098de6d0","fillBuyOrder(string,uint256,uint256)":"d0d17b87","fillSellOrder(string,uint256)":"a1484f25","forceFinishBet(string)":"c7da4a1a","getBet(string)":"078d1600","getBetsParticipated(address)":"312e25d3","getOrders(string)":"f42e7699","getUserBalance(string,address)":"fc2bf055","getUserBets(address)":"2d56657d","resolveBet(string,uint256)":"4bc40123"}},"storageLayout":{"storage":[{"astId":83,"contract":"chain/contracts/BetMarket.sol:BetMarket","label":"storedBets","offset":0,"slot":"0","type":"t_mapping(t_string_memory_ptr,t_struct(Bet)68_storage)"},{"astId":88,"contract":"chain/contracts/BetMarket.sol:BetMarket","label":"userBets","offset":0,"slot":"1","type":"t_mapping(t_address,t_array(t_string_storage)dyn_storage)"},{"astId":93,"contract":"chain/contracts/BetMarket.sol:BetMarket","label":"betsUserParticipate","offset":0,"slot":"2","type":"t_mapping(t_address,t_array(t_string_storage)dyn_storage)"},{"astId":99,"contract":"chain/contracts/BetMarket.sol:BetMarket","label":"doesParticipate","offset":0,"slot":"3","type":"t_mapping(t_string_memory_ptr,t_mapping(t_address,t_bool))"}],"types":{"t_address":{"encoding":"inplace","label":"address","numberOfBytes":"20"},"t_address_payable":{"encoding":"inplace","label":"address payable","numberOfBytes":"20"},"t_array(t_string_storage)dyn_storage":{"base":"t_string_storage","encoding":"dynamic_array","label":"string[]","numberOfBytes":"32"},"t_array(t_struct(Balance)35_storage)dyn_storage":{"base":"t_struct(Balance)35_storage","encoding":"dynamic_array","label":"struct BetMarket.Balance[]","numberOfBytes":"32"},"t_array(t_struct(Order)29_storage)dyn_storage":{"base":"t_struct(Order)29_storage","encoding":"dynamic_array","label":"struct BetMarket.Order[]","numberOfBytes":"32"},"t_array(t_uint256)dyn_storage":{"base":"t_uint256","encoding":"dynamic_array","label":"uint256[]","numberOfBytes":"32"},"t_bool":{"encoding":"inplace","label":"bool","numberOfBytes":"1"},"t_enum(BetStatus)5":{"encoding":"inplace","label":"enum BetMarket.BetStatus","numberOfBytes":"1"},"t_enum(OrderStatus)9":{"encoding":"inplace","label":"enum BetMarket.OrderStatus","numberOfBytes":"1"},"t_enum(OrderType)12":{"encoding":"inplace","label":"enum BetMarket.OrderType","numberOfBytes":"1"},"t_mapping(t_address,t_array(t_string_storage)dyn_storage)":{"encoding":"mapping","key":"t_address","label":"mapping(address => string[])","numberOfBytes":"32","value":"t_array(t_string_storage)dyn_storage"},"t_mapping(t_address,t_bool)":{"encoding":"mapping","key":"t_address","label":"mapping(address => bool)","numberOfBytes":"32","value":"t_bool"},"t_mapping(t_string_memory_ptr,t_mapping(t_address,t_bool))":{"encoding":"mapping","key":"t_string_memory_ptr","label":"mapping(string => mapping(address => bool))","numberOfBytes":"32","value":"t_mapping(t_address,t_bool)"},"t_mapping(t_string_memory_ptr,t_struct(Bet)68_storage)":{"encoding":"mapping","key":"t_string_memory_ptr","label":"mapping(string => struct BetMarket.Bet)","numberOfBytes":"32","value":"t_struct(Bet)68_storage"},"t_string_memory_ptr":{"encoding":"bytes","label":"string","numberOfBytes":"32"},"t_string_storage":{"encoding":"bytes","label":"string","numberOfBytes":"32"},"t_struct(Balance)35_storage":{"encoding":"inplace","label":"struct BetMarket.Balance","members":[{"astId":31,"contract":"chain/contracts/BetMarket.sol:BetMarket","label":"user","offset":0,"slot":"0","type":"t_address_payable"},{"astId":34,"contract":"chain/contracts/BetMarket.sol:BetMarket","label":"tokens","offset":0,"slot":"1","type":"t_array(t_uint256)dyn_storage"}],"numberOfBytes":"64"},"t_struct(Bet)68_storage":{"encoding":"inplace","label":"struct BetMarket.Bet","members":[{"astId":37,"contract":"chain/contracts/BetMarket.sol:BetMarket","label":"id","offset":0,"slot":"0","type":"t_string_storage"},{"astId":39,"contract":"chain/contracts/BetMarket.sol:BetMarket","label":"name","offset":0,"slot":"1","type":"t_string_storage"},{"astId":41,"contract":"chain/contracts/BetMarket.sol:BetMarket","label":"description","offset":0,"slot":"2","type":"t_string_storage"},{"astId":43,"contract":"chain/contracts/BetMarket.sol:BetMarket","label":"value","offset":0,"slot":"3","type":"t_uint256"},{"astId":45,"contract":"chain/contracts/BetMarket.sol:BetMarket","label":"owner","offset":0,"slot":"4","type":"t_address_payable"},{"astId":47,"contract":"chain/contracts/BetMarket.sol:BetMarket","label":"arbitrator","offset":0,"slot":"5","type":"t_address_payable"},{"astId":50,"contract":"chain/contracts/BetMarket.sol:BetMarket","label":"options","offset":0,"slot":"6","type":"t_array(t_string_storage)dyn_storage"},{"astId":54,"contract":"chain/contracts/BetMarket.sol:BetMarket","label":"balances","offset":0,"slot":"7","type":"t_array(t_struct(Balance)35_storage)dyn_storage"},{"astId":56,"contract":"chain/contracts/BetMarket.sol:BetMarket","label":"bettingDeadline","offset":0,"slot":"8","type":"t_uint256"},{"astId":58,"contract":"chain/contracts/BetMarket.sol:BetMarket","label":"answerRevealDeadline","offset":0,"slot":"9","type":"t_uint256"},{"astId":62,"contract":"chain/contracts/BetMarket.sol:BetMarket","label":"orders","offset":0,"slot":"10","type":"t_array(t_struct(Order)29_storage)dyn_storage"},{"astId":65,"contract":"chain/contracts/BetMarket.sol:BetMarket","label":"status","offset":0,"slot":"11","type":"t_enum(BetStatus)5"},{"astId":67,"contract":"chain/contracts/BetMarket.sol:BetMarket","label":"winningOptionId","offset":0,"slot":"12","type":"t_uint256"}],"numberOfBytes":"416"},"t_struct(Order)29_storage":{"encoding":"inplace","label":"struct BetMarket.Order","members":[{"astId":14,"contract":"chain/contracts/BetMarket.sol:BetMarket","label":"creator","offset":0,"slot":"0","type":"t_address_payable"},{"astId":16,"contract":"chain/contracts/BetMarket.sol:BetMarket","label":"filler","offset":0,"slot":"1","type":"t_address"},{"astId":18,"contract":"chain/contracts/BetMarket.sol:BetMarket","label":"optionId","offset":0,"slot":"2","type":"t_uint256"},{"astId":20,"contract":"chain/contracts/BetMarket.sol:BetMarket","label":"amountOTM","offset":0,"slot":"3","type":"t_uint256"},{"astId":22,"contract":"chain/contracts/BetMarket.sol:BetMarket","label":"amountWei","offset":0,"slot":"4","type":"t_uint256"},{"astId":25,"contract":"chain/contracts/BetMarket.sol:BetMarket","label":"status","offset":0,"slot":"5","type":"t_enum(OrderStatus)9"},{"astId":28,"contract":"chain/contracts/BetMarket.sol:BetMarket","label":"orderType","offset":1,"slot":"5","type":"t_enum(OrderType)12"}],"numberOfBytes":"192"},"t_uint256":{"encoding":"inplace","label":"uint256","numberOfBytes":"32"}}},"userdoc":{"kind":"user","methods":{},"notice":"Library SafeMath used to prevent overflows and underflows","version":1}}}}