{
  "_format": "hh-sol-artifact-1",
  "contractName": "BetNumberSecretAnswer",
  "sourceName": "chain/contracts/BetNumberSecretAnswer.sol",
  "abi": [
    {
      "inputs": [
        {
          "internalType": "address",
          "name": "storageContractAddress",
          "type": "address"
        }
      ],
      "stateMutability": "nonpayable",
      "type": "constructor"
    },
    {
      "inputs": [
        {
          "internalType": "string",
          "name": "betId",
          "type": "string"
        },
        {
          "internalType": "uint256",
          "name": "guessHash",
          "type": "uint256"
        }
      ],
      "name": "bet",
      "outputs": [
        {
          "components": [
            {
              "internalType": "uint256",
              "name": "id",
              "type": "uint256"
            },
            {
              "internalType": "address payable",
              "name": "bettor",
              "type": "address"
            },
            {
              "internalType": "uint256",
              "name": "amount",
              "type": "uint256"
            },
            {
              "internalType": "bool",
              "name": "evaluated",
              "type": "bool"
            },
            {
              "internalType": "int256",
              "name": "guess",
              "type": "int256"
            },
            {
              "internalType": "int256",
              "name": "nonce",
              "type": "int256"
            }
          ],
          "internalType": "struct BetBase.Guess",
          "name": "",
          "type": "tuple"
        }
      ],
      "stateMutability": "payable",
      "type": "function"
    },
    {
      "inputs": [
        {
          "internalType": "string",
          "name": "id",
          "type": "string"
        },
        {
          "internalType": "string",
          "name": "name",
          "type": "string"
        },
        {
          "internalType": "string",
          "name": "description",
          "type": "string"
        },
        {
          "internalType": "uint256",
          "name": "course",
          "type": "uint256"
        },
        {
          "internalType": "uint256",
          "name": "bettingDeadline",
          "type": "uint256"
        },
        {
          "internalType": "uint256",
          "name": "answerRevealDeadline",
          "type": "uint256"
        },
        {
          "internalType": "uint256",
          "name": "prizeClaimDeadline",
          "type": "uint256"
        },
        {
          "internalType": "address[]",
          "name": "whitelist",
          "type": "address[]"
        },
        {
          "internalType": "address[]",
          "name": "blacklist",
          "type": "address[]"
        },
        {
          "internalType": "int256[]",
          "name": "restrictedOptions",
          "type": "int256[]"
        }
      ],
      "name": "createBet",
      "outputs": [],
      "stateMutability": "payable",
      "type": "function"
    },
    {
      "inputs": [
        {
          "internalType": "string",
          "name": "betId",
          "type": "string"
        },
        {
          "internalType": "uint256",
          "name": "guessHash",
          "type": "uint256"
        },
        {
          "internalType": "bytes",
          "name": "encryptedGuess",
          "type": "bytes"
        }
      ],
      "name": "encryptedBet",
      "outputs": [
        {
          "components": [
            {
              "internalType": "uint256",
              "name": "id",
              "type": "uint256"
            },
            {
              "internalType": "address payable",
              "name": "bettor",
              "type": "address"
            },
            {
              "internalType": "uint256",
              "name": "amount",
              "type": "uint256"
            },
            {
              "internalType": "bool",
              "name": "evaluated",
              "type": "bool"
            },
            {
              "internalType": "int256",
              "name": "guess",
              "type": "int256"
            },
            {
              "internalType": "int256",
              "name": "nonce",
              "type": "int256"
            }
          ],
          "internalType": "struct BetBase.Guess",
          "name": "",
          "type": "tuple"
        }
      ],
      "stateMutability": "payable",
      "type": "function"
    },
    {
      "inputs": [
        {
          "internalType": "string",
          "name": "betId",
          "type": "string"
        }
      ],
      "name": "forceFinishBet",
      "outputs": [],
      "stateMutability": "nonpayable",
      "type": "function"
    },
    {
      "inputs": [
        {
          "internalType": "string",
          "name": "betId",
          "type": "string"
        }
      ],
      "name": "getBet",
      "outputs": [
        {
          "components": [
            {
              "internalType": "string",
              "name": "id",
              "type": "string"
            },
            {
              "internalType": "address payable",
              "name": "owner",
              "type": "address"
            },
            {
              "internalType": "int256",
              "name": "answer",
              "type": "int256"
            },
            {
              "internalType": "uint256",
              "name": "totalBets",
              "type": "uint256"
            },
            {
              "internalType": "uint256",
              "name": "betLimit",
              "type": "uint256"
            },
            {
              "internalType": "uint256",
              "name": "course",
              "type": "uint256"
            },
            {
              "internalType": "string",
              "name": "name",
              "type": "string"
            },
            {
              "internalType": "string",
              "name": "description",
              "type": "string"
            },
            {
              "internalType": "uint256",
              "name": "bettingDeadline",
              "type": "uint256"
            },
            {
              "internalType": "uint256",
              "name": "answerRevealDeadline",
              "type": "uint256"
            },
            {
              "internalType": "uint256",
              "name": "prizeClaimDeadline",
              "type": "uint256"
            },
            {
              "internalType": "enum BetBase.Status",
              "name": "status",
              "type": "uint8"
            },
            {
              "components": [
                {
                  "internalType": "int256",
                  "name": "value",
                  "type": "int256"
                },
                {
                  "internalType": "uint256",
                  "name": "totalBet",
                  "type": "uint256"
                }
              ],
              "internalType": "struct BetBase.Option[]",
              "name": "options",
              "type": "tuple[]"
            },
            {
              "internalType": "bool",
              "name": "hasRestrictedOptions",
              "type": "bool"
            }
          ],
          "internalType": "struct BetBase.ReturnedBet",
          "name": "",
          "type": "tuple"
        }
      ],
      "stateMutability": "view",
      "type": "function"
    },
    {
      "inputs": [
        {
          "internalType": "string",
          "name": "betId",
          "type": "string"
        }
      ],
      "name": "getEncryptedData",
      "outputs": [
        {
          "internalType": "bytes",
          "name": "",
          "type": "bytes"
        }
      ],
      "stateMutability": "view",
      "type": "function"
    },
    {
      "inputs": [
        {
          "internalType": "string",
          "name": "betId",
          "type": "string"
        },
        {
          "internalType": "uint256",
          "name": "guessId",
          "type": "uint256"
        }
      ],
      "name": "getGuess",
      "outputs": [
        {
          "components": [
            {
              "internalType": "uint256",
              "name": "id",
              "type": "uint256"
            },
            {
              "internalType": "address payable",
              "name": "bettor",
              "type": "address"
            },
            {
              "internalType": "uint256",
              "name": "amount",
              "type": "uint256"
            },
            {
              "internalType": "bool",
              "name": "evaluated",
              "type": "bool"
            },
            {
              "internalType": "int256",
              "name": "guess",
              "type": "int256"
            },
            {
              "internalType": "int256",
              "name": "nonce",
              "type": "int256"
            }
          ],
          "internalType": "struct BetBase.Guess",
          "name": "",
          "type": "tuple"
        }
      ],
      "stateMutability": "view",
      "type": "function"
    },
    {
      "inputs": [
        {
          "internalType": "string",
          "name": "betId",
          "type": "string"
        }
      ],
      "name": "getGuesses",
      "outputs": [
        {
          "components": [
            {
              "internalType": "uint256",
              "name": "id",
              "type": "uint256"
            },
            {
              "internalType": "address payable",
              "name": "bettor",
              "type": "address"
            },
            {
              "internalType": "uint256",
              "name": "amount",
              "type": "uint256"
            },
            {
              "internalType": "bool",
              "name": "evaluated",
              "type": "bool"
            },
            {
              "internalType": "int256",
              "name": "guess",
              "type": "int256"
            },
            {
              "internalType": "int256",
              "name": "nonce",
              "type": "int256"
            }
          ],
          "internalType": "struct BetBase.Guess[]",
          "name": "",
          "type": "tuple[]"
        }
      ],
      "stateMutability": "view",
      "type": "function"
    },
    {
      "inputs": [
        {
          "internalType": "string",
          "name": "betId",
          "type": "string"
        }
      ],
      "name": "getOptions",
      "outputs": [
        {
          "components": [
            {
              "internalType": "int256",
              "name": "value",
              "type": "int256"
            },
            {
              "internalType": "uint256",
              "name": "totalBet",
              "type": "uint256"
            }
          ],
          "internalType": "struct BetBase.Option[]",
          "name": "",
          "type": "tuple[]"
        }
      ],
      "stateMutability": "view",
      "type": "function"
    },
    {
      "inputs": [
        {
          "internalType": "string",
          "name": "betId",
          "type": "string"
        }
      ],
      "name": "getSecretBet",
      "outputs": [
        {
          "components": [
            {
              "internalType": "string",
              "name": "id",
              "type": "string"
            },
            {
              "internalType": "address payable",
              "name": "owner",
              "type": "address"
            },
            {
              "internalType": "int256",
              "name": "answer",
              "type": "int256"
            },
            {
              "internalType": "uint256",
              "name": "totalBets",
              "type": "uint256"
            },
            {
              "internalType": "uint256",
              "name": "betLimit",
              "type": "uint256"
            },
            {
              "internalType": "uint256",
              "name": "course",
              "type": "uint256"
            },
            {
              "internalType": "string",
              "name": "name",
              "type": "string"
            },
            {
              "internalType": "string",
              "name": "description",
              "type": "string"
            },
            {
              "internalType": "uint256",
              "name": "bettingDeadline",
              "type": "uint256"
            },
            {
              "internalType": "uint256",
              "name": "answerRevealDeadline",
              "type": "uint256"
            },
            {
              "internalType": "uint256",
              "name": "prizeClaimDeadline",
              "type": "uint256"
            },
            {
              "internalType": "enum BetBase.Status",
              "name": "status",
              "type": "uint8"
            },
            {
              "components": [
                {
                  "internalType": "int256",
                  "name": "value",
                  "type": "int256"
                },
                {
                  "internalType": "uint256",
                  "name": "totalBet",
                  "type": "uint256"
                }
              ],
              "internalType": "struct BetBase.Option[]",
              "name": "options",
              "type": "tuple[]"
            },
            {
              "internalType": "bool",
              "name": "hasRestrictedOptions",
              "type": "bool"
            }
          ],
          "internalType": "struct BetBase.ReturnedBet",
          "name": "",
          "type": "tuple"
        }
      ],
      "stateMutability": "view",
      "type": "function"
    },
    {
      "inputs": [
        {
          "internalType": "string",
          "name": "guessStorageId",
          "type": "string"
        }
      ],
      "name": "getSecretEncryptedData",
      "outputs": [
        {
          "internalType": "bytes",
          "name": "",
          "type": "bytes"
        }
      ],
      "stateMutability": "view",
      "type": "function"
    },
    {
      "inputs": [
        {
          "internalType": "address",
          "name": "owner",
          "type": "address"
        }
      ],
      "name": "getUserBets",
      "outputs": [
        {
          "components": [
            {
              "internalType": "string",
              "name": "id",
              "type": "string"
            },
            {
              "internalType": "address payable",
              "name": "owner",
              "type": "address"
            },
            {
              "internalType": "int256",
              "name": "answer",
              "type": "int256"
            },
            {
              "internalType": "uint256",
              "name": "totalBets",
              "type": "uint256"
            },
            {
              "internalType": "uint256",
              "name": "betLimit",
              "type": "uint256"
            },
            {
              "internalType": "uint256",
              "name": "course",
              "type": "uint256"
            },
            {
              "internalType": "string",
              "name": "name",
              "type": "string"
            },
            {
              "internalType": "string",
              "name": "description",
              "type": "string"
            },
            {
              "internalType": "uint256",
              "name": "bettingDeadline",
              "type": "uint256"
            },
            {
              "internalType": "uint256",
              "name": "answerRevealDeadline",
              "type": "uint256"
            },
            {
              "internalType": "uint256",
              "name": "prizeClaimDeadline",
              "type": "uint256"
            },
            {
              "internalType": "enum BetBase.Status",
              "name": "status",
              "type": "uint8"
            },
            {
              "components": [
                {
                  "internalType": "int256",
                  "name": "value",
                  "type": "int256"
                },
                {
                  "internalType": "uint256",
                  "name": "totalBet",
                  "type": "uint256"
                }
              ],
              "internalType": "struct BetBase.Option[]",
              "name": "options",
              "type": "tuple[]"
            },
            {
              "internalType": "bool",
              "name": "hasRestrictedOptions",
              "type": "bool"
            }
          ],
          "internalType": "struct BetBase.ReturnedBet[]",
          "name": "",
          "type": "tuple[]"
        }
      ],
      "stateMutability": "view",
      "type": "function"
    },
    {
      "inputs": [
        {
          "internalType": "address",
          "name": "owner",
          "type": "address"
        }
      ],
      "name": "getUserBetsNormal",
      "outputs": [
        {
          "components": [
            {
              "internalType": "string",
              "name": "id",
              "type": "string"
            },
            {
              "internalType": "address payable",
              "name": "owner",
              "type": "address"
            },
            {
              "internalType": "int256",
              "name": "answer",
              "type": "int256"
            },
            {
              "internalType": "uint256",
              "name": "totalBets",
              "type": "uint256"
            },
            {
              "internalType": "uint256",
              "name": "betLimit",
              "type": "uint256"
            },
            {
              "internalType": "uint256",
              "name": "course",
              "type": "uint256"
            },
            {
              "internalType": "string",
              "name": "name",
              "type": "string"
            },
            {
              "internalType": "string",
              "name": "description",
              "type": "string"
            },
            {
              "internalType": "uint256",
              "name": "bettingDeadline",
              "type": "uint256"
            },
            {
              "internalType": "uint256",
              "name": "answerRevealDeadline",
              "type": "uint256"
            },
            {
              "internalType": "uint256",
              "name": "prizeClaimDeadline",
              "type": "uint256"
            },
            {
              "internalType": "enum BetBase.Status",
              "name": "status",
              "type": "uint8"
            },
            {
              "components": [
                {
                  "internalType": "int256",
                  "name": "value",
                  "type": "int256"
                },
                {
                  "internalType": "uint256",
                  "name": "totalBet",
                  "type": "uint256"
                }
              ],
              "internalType": "struct BetBase.Option[]",
              "name": "options",
              "type": "tuple[]"
            },
            {
              "internalType": "bool",
              "name": "hasRestrictedOptions",
              "type": "bool"
            }
          ],
          "internalType": "struct BetBase.ReturnedBet[]",
          "name": "",
          "type": "tuple[]"
        }
      ],
      "stateMutability": "view",
      "type": "function"
    },
    {
      "inputs": [
        {
          "internalType": "address",
          "name": "guesser",
          "type": "address"
        }
      ],
      "name": "getUserGuesses",
      "outputs": [
        {
          "components": [
            {
              "internalType": "uint256",
              "name": "guessId",
              "type": "uint256"
            },
            {
              "internalType": "string",
              "name": "betId",
              "type": "string"
            }
          ],
          "internalType": "struct BetBase.UserGuess[]",
          "name": "",
          "type": "tuple[]"
        }
      ],
      "stateMutability": "view",
      "type": "function"
    },
    {
      "inputs": [
        {
          "internalType": "address",
          "name": "owner",
          "type": "address"
        }
      ],
      "name": "getUserSecretBets",
      "outputs": [
        {
          "components": [
            {
              "internalType": "string",
              "name": "id",
              "type": "string"
            },
            {
              "internalType": "address payable",
              "name": "owner",
              "type": "address"
            },
            {
              "internalType": "int256",
              "name": "answer",
              "type": "int256"
            },
            {
              "internalType": "uint256",
              "name": "totalBets",
              "type": "uint256"
            },
            {
              "internalType": "uint256",
              "name": "betLimit",
              "type": "uint256"
            },
            {
              "internalType": "uint256",
              "name": "course",
              "type": "uint256"
            },
            {
              "internalType": "string",
              "name": "name",
              "type": "string"
            },
            {
              "internalType": "string",
              "name": "description",
              "type": "string"
            },
            {
              "internalType": "uint256",
              "name": "bettingDeadline",
              "type": "uint256"
            },
            {
              "internalType": "uint256",
              "name": "answerRevealDeadline",
              "type": "uint256"
            },
            {
              "internalType": "uint256",
              "name": "prizeClaimDeadline",
              "type": "uint256"
            },
            {
              "internalType": "enum BetBase.Status",
              "name": "status",
              "type": "uint8"
            },
            {
              "components": [
                {
                  "internalType": "int256",
                  "name": "value",
                  "type": "int256"
                },
                {
                  "internalType": "uint256",
                  "name": "totalBet",
                  "type": "uint256"
                }
              ],
              "internalType": "struct BetBase.Option[]",
              "name": "options",
              "type": "tuple[]"
            },
            {
              "internalType": "bool",
              "name": "hasRestrictedOptions",
              "type": "bool"
            }
          ],
          "internalType": "struct BetBase.ReturnedBet[]",
          "name": "",
          "type": "tuple[]"
        }
      ],
      "stateMutability": "view",
      "type": "function"
    },
    {
      "inputs": [
        {
          "internalType": "uint256",
          "name": "money",
          "type": "uint256"
        },
        {
          "internalType": "uint256",
          "name": "course",
          "type": "uint256"
        }
      ],
      "name": "multMoney",
      "outputs": [
        {
          "internalType": "uint256",
          "name": "",
          "type": "uint256"
        }
      ],
      "stateMutability": "pure",
      "type": "function"
    },
    {
      "inputs": [
        {
          "internalType": "string",
          "name": "betId",
          "type": "string"
        },
        {
          "internalType": "uint256",
          "name": "guessId",
          "type": "uint256"
        },
        {
          "internalType": "int256",
          "name": "guessedNumber",
          "type": "int256"
        },
        {
          "internalType": "int256",
          "name": "nonce",
          "type": "int256"
        }
      ],
      "name": "revealGuess",
      "outputs": [],
      "stateMutability": "nonpayable",
      "type": "function"
    },
    {
      "inputs": [
        {
          "internalType": "string",
          "name": "betId",
          "type": "string"
        },
        {
          "internalType": "int256",
          "name": "revealedNumber",
          "type": "int256"
        }
      ],
      "name": "revealNumber",
      "outputs": [],
      "stateMutability": "nonpayable",
      "type": "function"
    },
    {
      "inputs": [
        {
          "internalType": "string",
          "name": "betId",
          "type": "string"
        }
      ],
      "name": "topUp",
      "outputs": [],
      "stateMutability": "payable",
      "type": "function"
    },
    {
      "inputs": [
        {
          "internalType": "address",
          "name": "",
          "type": "address"
        },
        {
          "internalType": "uint256",
          "name": "",
          "type": "uint256"
        }
      ],
      "name": "userBets",
      "outputs": [
        {
          "internalType": "string",
          "name": "",
          "type": "string"
        }
      ],
      "stateMutability": "view",
      "type": "function"
    },
    {
      "inputs": [
        {
          "internalType": "address",
          "name": "",
          "type": "address"
        },
        {
          "internalType": "uint256",
          "name": "",
          "type": "uint256"
        }
      ],
      "name": "userGuesses",
      "outputs": [
        {
          "internalType": "uint256",
          "name": "guessId",
          "type": "uint256"
        },
        {
          "internalType": "string",
          "name": "betId",
          "type": "string"
        }
      ],
      "stateMutability": "view",
      "type": "function"
    },
    {
      "inputs": [
        {
          "internalType": "int256",
          "name": "answer",
          "type": "int256"
        },
        {
          "internalType": "int256",
          "name": "nonce",
          "type": "int256"
        }
      ],
      "name": "valueToBinary",
      "outputs": [
        {
          "internalType": "bytes",
          "name": "",
          "type": "bytes"
        }
      ],
      "stateMutability": "pure",
      "type": "function"
    },
    {
      "inputs": [
        {
          "internalType": "string",
          "name": "betId",
          "type": "string"
        },
        {
          "internalType": "address",
          "name": "guesser",
          "type": "address"
        }
      ],
      "name": "whitelistAddress",
      "outputs": [],
      "stateMutability": "nonpayable",
      "type": "function"
    }
  ],
  "bytecode": "0x60806040523480156200001157600080fd5b5060405162004b7e38038062004b7e83398101604081905262000034916200005f565b6001600081905580546001600160a01b0319166001600160a01b039290921691909117905562000091565b6000602082840312156200007257600080fd5b81516001600160a01b03811681146200008a57600080fd5b9392505050565b614add80620000a16000396000f3fe6080604052600436106101805760003560e01c80638068aa68116100d6578063c678da521161007f578063c7da4a1a11610059578063c7da4a1a14610433578063d8b3226414610453578063e9c20cb91461048057600080fd5b8063c678da52146103b8578063c78aa48d146103e6578063c7a8d6f41461041357600080fd5b8063970d593d116100b0578063970d593d1461036a5780639ee4e3eb14610398578063acf694a71461018557600080fd5b80638068aa681461031757806387d44557146103375780639662901a1461035757600080fd5b80633a77383f11610138578063543588e411610112578063543588e4146102aa5780636a74d6c6146102ca5780637f68d5ba146102ea57600080fd5b80633a77383f1461023d5780633afa90bc1461026a57806349e4622c1461028a57600080fd5b80631c099e46116101695780631c099e46146101d05780632d56657d146101f05780632d754dda1461021d57600080fd5b8063078d16001461018557806309cc5551146101bb575b600080fd5b34801561019157600080fd5b506101a56101a0366004613cf8565b610493565b6040516101b29190613f00565b60405180910390f35b6101ce6101c9366004613f5c565b610543565b005b3480156101dc57600080fd5b506101ce6101eb366004613fb6565b610849565b3480156101fc57600080fd5b5061021061020b366004614008565b610b00565b6040516101b29190614025565b34801561022957600080fd5b50610210610238366004614008565b610caf565b34801561024957600080fd5b5061025d610258366004613cf8565b610e41565b6040516101b29190614087565b61027d61027836600461409a565b610ec6565b6040516101b29190614121565b34801561029657600080fd5b5061025d6102a5366004613cf8565b611690565b3480156102b657600080fd5b506101ce6102c536600461416f565b611783565b3480156102d657600080fd5b5061027d6102e53660046141bb565b611ae5565b3480156102f657600080fd5b5061030a610305366004613cf8565b611c37565b6040516101b29190614200565b34801561032357600080fd5b5061025d610332366004614252565b611d3c565b34801561034357600080fd5b5061025d61035236600461427e565b611df5565b6101ce61036536600461438e565b611e1e565b34801561037657600080fd5b5061038a61038536600461427e565b611eb3565b6040519081526020016101b2565b3480156103a457600080fd5b506102106103b3366004614008565b611ed9565b3480156103c457600080fd5b506103d86103d3366004614252565b61206b565b6040516101b29291906144b9565b3480156103f257600080fd5b50610406610401366004614008565b612134565b6040516101b291906144d2565b34801561041f57600080fd5b506101ce61042e366004614546565b612245565b34801561043f57600080fd5b506101ce61044e366004613f5c565b612891565b34801561045f57600080fd5b5061047361046e366004613cf8565b612c68565b6040516101b291906145a0565b61027d61048e36600461416f565b612d91565b61049b613ba2565b816003816040516104ac9190614622565b90815260405190819003602001902080546104c69061463e565b905060001415816040516020016104dd9190614672565b604051602081830303815290604052906105135760405162461bcd60e51b815260040161050a9190614087565b60405180910390fd5b5061053a6003846040516105279190614622565b9081526020016040518091039020612df8565b91505b50919050565b81818080601f016020809104026020016040519081016040528093929190818152602001838380828437600092019190915250506040516003925061058a91508390614622565b90815260405190819003602001902080546105a49061463e565b905060001415816040516020016105bb9190614672565b604051602081830303815290604052906105e85760405162461bcd60e51b815260040161050a9190614087565b5082828080601f016020809104026020016040519081016040528093929190818152602001838380828437600092019190915250506040516003925061063091508390614622565b90815260200160405180910390206009015442106106885760405162461bcd60e51b81526020600482015260156024820152742132ba1034b9903737903637b733b2b91037b832b760591b604482015260640161050a565b600160038260405161069a9190614622565b908152604051908190036020019020600c015460ff1660048111156106c1576106c1613d7d565b146107065760405162461bcd60e51b81526020600482015260156024820152742132ba1034b9903737903637b733b2b91037b832b760591b604482015260640161050a565b83838080601f016020809104026020016040519081016040528093929190818152602001838380828437600092019190915250506040516003925061074d91508390614622565b90815260405190819003602001902060030154336001600160a01b03909116146107b95760405162461bcd60e51b815260206004820152601860248201527f596f75206e65656420746f20626520746865206f776e65720000000000000000604482015260640161050a565b600134101561080a5760405162461bcd60e51b815260206004820152601b60248201527f596f75206e65656420746f2073656e6420736f6d65206d6f6e65790000000000604482015260640161050a565b346003868660405161081d9291906146b7565b9081526020016040518091039020600701600082825461083d91906146dd565b90915550505050505050565b8160038160405161085a9190614622565b90815260405190819003602001902080546108749061463e565b9050600014158160405160200161088b9190614672565b604051602081830303815290604052906108b85760405162461bcd60e51b815260040161050a9190614087565b50826003816040516108ca9190614622565b90815260200160405180910390206009015442106109225760405162461bcd60e51b81526020600482015260156024820152742132ba1034b9903737903637b733b2b91037b832b760591b604482015260640161050a565b60016003826040516109349190614622565b908152604051908190036020019020600c015460ff16600481111561095b5761095b613d7d565b146109a05760405162461bcd60e51b81526020600482015260156024820152742132ba1034b9903737903637b733b2b91037b832b760591b604482015260640161050a565b60006003856040516109b29190614622565b908152604051908190036020019020600c81015490915060ff61010090910416610a445760405162461bcd60e51b815260206004820152603760248201527f596f752063616e6e6f742061646420746f2077686974656c697374206966207460448201527f6865726520776173206e6f74206f6e65206265666f7265000000000000000000606482015260840161050a565b6001600160a01b0384166000908152600d8201602052604090205460ff1615610ad45760405162461bcd60e51b8152602060048201526024808201527f4775657373657220686173206265656e2077686974656c6973746520616c726560448201527f6164792e00000000000000000000000000000000000000000000000000000000606482015260840161050a565b6001600160a01b039093166000908152600d909301602052505060409020805460ff1916600117905550565b6001600160a01b0381166000908152600260209081526040808320805482518185028101850190935280835260609493849084015b82821015610be1578382906000526020600020018054610b549061463e565b80601f0160208091040260200160405190810160405280929190818152602001828054610b809061463e565b8015610bcd5780601f10610ba257610100808354040283529160200191610bcd565b820191906000526020600020905b815481529060010190602001808311610bb057829003601f168201915b505050505081526020019060010190610b35565b5050505090506000815167ffffffffffffffff811115610c0357610c03613c2b565b604051908082528060200260200182016040528015610c3c57816020015b610c29613ba2565b815260200190600190039081610c215790505b50905060005b8151811015610ca757610c776003848381518110610c6257610c626146f0565b60200260200101516040516105279190614622565b828281518110610c8957610c896146f0565b60200260200101819052508080610c9f90614706565b915050610c42565b509392505050565b6001600160a01b0381166000908152600260209081526040808320805482518185028101850190935280835260609493849084015b82821015610d90578382906000526020600020018054610d039061463e565b80601f0160208091040260200160405190810160405280929190818152602001828054610d2f9061463e565b8015610d7c5780601f10610d5157610100808354040283529160200191610d7c565b820191906000526020600020905b815481529060010190602001808311610d5f57829003601f168201915b505050505081526020019060010190610ce4565b5050505090506000815167ffffffffffffffff811115610db257610db2613c2b565b604051908082528060200260200182016040528015610deb57816020015b610dd8613ba2565b815260200190600190039081610dd05790505b50905060005b8151811015610ca757610e116003848381518110610c6257610c626146f0565b828281518110610e2357610e236146f0565b60200260200101819052508080610e3990614706565b915050610df1565b60015460405163407288c360e11b81526060916000916001600160a01b03909116906380e5118690610e77908690600401614087565b600060405180830381865afa158015610e94573d6000803e3d6000fd5b505050506040513d6000823e601f3d908101601f19168201604052610ebc919081019061474f565b9695505050505050565b610f0a6040518060c001604052806000815260200160006001600160a01b031681526020016000815260200160001515815260200160008152602001600081525090565b600260005403610f5c5760405162461bcd60e51b815260206004820152601f60248201527f5265656e7472616e637947756172643a207265656e7472616e742063616c6c00604482015260640161050a565b60026000556001341015610fb25760405162461bcd60e51b815260206004820152601b60248201527f596f75206e65656420746f2073656e6420736f6d65206d6f6e65790000000000604482015260640161050a565b84848080601f0160208091040260200160405190810160405280939291908181526020018383808284376000920191909152505060405160039250610ff991508390614622565b90815260405190819003602001902080546110139061463e565b9050600014158160405160200161102a9190614672565b604051602081830303815290604052906110575760405162461bcd60e51b815260040161050a9190614087565b5085858080601f016020809104026020016040519081016040528093929190818152602001838380828437600092019190915250506040516003925061109f91508390614622565b90815260200160405180910390206009015442106110f75760405162461bcd60e51b81526020600482015260156024820152742132ba1034b9903737903637b733b2b91037b832b760591b604482015260640161050a565b60016003826040516111099190614622565b908152604051908190036020019020600c015460ff16600481111561113057611130613d7d565b146111755760405162461bcd60e51b81526020600482015260156024820152742132ba1034b9903737903637b733b2b91037b832b760591b604482015260640161050a565b86868080601f01602080910402602001604051908101604052809392919081815260200183838082843760009201919091525050604051600392506111bc91508390614622565b908152604051908190036020019020600c015460ff61010090910416158061121557506003816040516111ef9190614622565b9081526040805160209281900383019020336000908152600d90910190925290205460ff165b6112875760405162461bcd60e51b815260206004820152603c60248201527f43726561746572206f66207468652062657420646964206e6f742077616e742060448201527f796f7520746f2074616b65207061727420696e20746869732062657400000000606482015260840161050a565b87878080601f01602080910402602001604051908101604052809392919081815260200183838082843760009201919091525050604051600392506112ce91508390614622565b9081526040805160209281900383019020336000908152600e90910190925290205460ff16156113405760405162461bcd60e51b815260206004820152601e60248201527f596f75207765726520626c61636b6c697374656420627920617574686f720000604482015260640161050a565b600060038a8a6040516113549291906146b7565b90815260200160405180910390209050806007015461138934836006015461137c91906146dd565b61038584600801546130ca565b11156114235760405162461bcd60e51b815260206004820152605360248201527f5468657265206973206e6f7420656e6f756768206d6f6e657920696e2061207660448201527f61756c7420746f2070617920796f7520696620796f752077696e2e205468652060648201527f6d6f737420796f752063616e2062657420697300000000000000000000000000608482015260a40161050a565b3481600601600082825461143791906146dd565b9091555050600f81015460008b8b61144e846130de565b604051602001611460939291906147ef565b60408051601f19818403018152908290526001547f6c7841b50000000000000000000000000000000000000000000000000000000083529092506001600160a01b031690636c7841b5906114bc9084908e908e90600401614816565b600060405180830381600087803b1580156114d657600080fd5b505af11580156114ea573d6000803e3d6000fd5b5050505060006040518060c00160405280848152602001336001600160a01b03168152602001348152602001600015158152602001600081526020016000815250905083600f018190806001815401808255809150506001900390600052602060002090600602016000909190919091506000820151816000015560208201518160010160006101000a8154816001600160a01b0302191690836001600160a01b031602179055506040820151816002015560608201518160030160006101000a81548160ff0219169083151502179055506080820151816004015560a08201518160050155505060046000336001600160a01b03166001600160a01b031681526020019081526020016000206040518060400160405280836000015181526020018f8f8080601f01602080910402602001604051908101604052809392919081815260200183838082843760009201829052509390945250508354600181810186559482526020918290208451600290920201908155908301519293909290830191506116789082614890565b50506001600055509c9b505050505050505050505050565b6060816003816040516116a39190614622565b90815260405190819003602001902080546116bd9061463e565b905060001415816040516020016116d49190614672565b604051602081830303815290604052906117015760405162461bcd60e51b815260040161050a9190614087565b5060015460405163407288c360e11b81526000916001600160a01b0316906380e5118690611733908790600401614087565b600060405180830381865afa158015611750573d6000803e3d6000fd5b505050506040513d6000823e601f3d908101601f19168201604052611778919081019061474f565b979650505050505050565b6002600054036117d55760405162461bcd60e51b815260206004820152601f60248201527f5265656e7472616e637947756172643a207265656e7472616e742063616c6c00604482015260640161050a565b6002600055604080516020601f8501819004810282018101909252838152908490849081908401838280828437600092019190915250506040516003925061181f91508390614622565b90815260405190819003602001902080546118399061463e565b905060001415816040516020016118509190614672565b6040516020818303038152906040529061187d5760405162461bcd60e51b815260040161050a9190614087565b5083838080601f016020809104026020016040519081016040528093929190818152602001838380828437600092019190915250600192506118bd915050565b6003826040516118cd9190614622565b908152604051908190036020019020600c015460ff1660048111156118f4576118f4613d7d565b146119395760405162461bcd60e51b81526020600482015260156024820152742132ba1034b9903737903637b733b2b91037b832b760591b604482015260640161050a565b84848080601f016020809104026020016040519081016040528093929190818152602001838380828437600092019190915250506040516003925061198091508390614622565b90815260200160405180910390206009015442116119f25760405162461bcd60e51b815260206004820152602960248201527f497420697320746f6f20736f6f6e2c20646561646c696e6520776173206e6f74604482015268103932b0b1b432b21760b91b606482015260840161050a565b600381604051611a029190614622565b9081526020016040518091039020600a0154421115611a635760405162461bcd60e51b815260206004820152600f60248201527f497420697320746f6f206c6174652e0000000000000000000000000000000000604482015260640161050a565b600060038787604051611a779291906146b7565b90815260405190819003602001902060048101869055601381015490915060ff168015611ab55750600085815260128201602052604090205460ff16155b15611ac957611ac381613213565b50611ad8565b600c01805460ff191660031790555b5050600160005550505050565b611b296040518060c001604052806000815260200160006001600160a01b031681526020016000815260200160001515815260200160008152602001600081525090565b82600381604051611b3a9190614622565b9081526040519081900360200190208054611b549061463e565b90506000141581604051602001611b6b9190614672565b60405160208183030381529060405290611b985760405162461bcd60e51b815260040161050a9190614087565b50600384604051611ba99190614622565b9081526020016040518091039020600f018381548110611bcb57611bcb6146f0565b60009182526020918290206040805160c08101825260069093029091018054835260018101546001600160a01b031693830193909352600283015490820152600382015460ff16151560608201526004820154608082015260059091015460a082015291505092915050565b606081600381604051611c4a9190614622565b9081526040519081900360200190208054611c649061463e565b90506000141581604051602001611c7b9190614672565b60405160208183030381529060405290611ca85760405162461bcd60e51b815260040161050a9190614087565b50600383604051611cb99190614622565b9081526020016040518091039020601001805480602002602001604051908101604052809291908181526020016000905b82821015611d3057838290600052602060002090600202016040518060400160405290816000820154815260200160018201548152505081526020019060010190611cea565b50505050915050919050565b60026020528160005260406000208181548110611d5857600080fd5b90600052602060002001600091509150508054611d749061463e565b80601f0160208091040260200160405190810160405280929190818152602001828054611da09061463e565b8015611ded5780601f10611dc257610100808354040283529160200191611ded565b820191906000526020600020905b815481529060010190602001808311611dd057829003601f168201915b505050505081565b604080516020810184905280820183905281518082038301815260609091019091525b92915050565b42861015611e6e5760405162461bcd60e51b815260206004820152601760248201527f446561646c696e6520616c726561647920706173736564000000000000000000604482015260640161050a565b85851015611e7b57600080fd5b848411611e8757600080fd5b611e948b8b88888861337d565b611ea68b8b8b8b33348d8a8a8a6134ab565b5050505050505050505050565b600067016345785d8a0000611ec88385614950565b611ed2919061497d565b9392505050565b6001600160a01b0381166000908152600260209081526040808320805482518185028101850190935280835260609493849084015b82821015611fba578382906000526020600020018054611f2d9061463e565b80601f0160208091040260200160405190810160405280929190818152602001828054611f599061463e565b8015611fa65780601f10611f7b57610100808354040283529160200191611fa6565b820191906000526020600020905b815481529060010190602001808311611f8957829003601f168201915b505050505081526020019060010190611f0e565b5050505090506000815167ffffffffffffffff811115611fdc57611fdc613c2b565b60405190808252806020026020018201604052801561201557816020015b612002613ba2565b815260200190600190039081611ffa5790505b50905060005b8151811015610ca75761203b6003848381518110610c6257610c626146f0565b82828151811061204d5761204d6146f0565b6020026020010181905250808061206390614706565b91505061201b565b6004602052816000526040600020818154811061208757600080fd5b9060005260206000209060020201600091509150508060000154908060010180546120b19061463e565b80601f01602080910402602001604051908101604052809291908181526020018280546120dd9061463e565b801561212a5780601f106120ff5761010080835404028352916020019161212a565b820191906000526020600020905b81548152906001019060200180831161210d57829003601f168201915b5050505050905082565b6001600160a01b0381166000908152600460209081526040808320805482518185028101850190935280835260609492939192909184015b8282101561223a5783829060005260206000209060020201604051806040016040529081600082015481526020016001820180546121a99061463e565b80601f01602080910402602001604051908101604052809291908181526020018280546121d59061463e565b80156122225780601f106121f757610100808354040283529160200191612222565b820191906000526020600020905b81548152906001019060200180831161220557829003601f168201915b5050505050815250508152602001906001019061216c565b505050509050919050565b6002600054036122975760405162461bcd60e51b815260206004820152601f60248201527f5265656e7472616e637947756172643a207265656e7472616e742063616c6c00604482015260640161050a565b6002600055604080516020601f870181900481028201810190925285815290869086908190840183828082843760009201919091525050604051600392506122e191508390614622565b90815260405190819003602001902080546122fb9061463e565b905060001415816040516020016123129190614672565b6040516020818303038152906040529061233f5760405162461bcd60e51b815260040161050a9190614087565b5085858080601f0160208091040260200160405190810160405280939291908181526020018383808284376000920191909152505060405187925060039150612389908490614622565b9081526020016040518091039020600f0181815481106123ab576123ab6146f0565b60009182526020909120600690910201600101546001600160a01b031633146124165760405162461bcd60e51b815260206004820152601960248201527f596f75206e65656420746f2062652074686520626574746f7200000000000000604482015260640161050a565b87878080601f01602080910402602001604051908101604052809392919081815260200183838082843760009201919091525060039250612455915050565b6003826040516124659190614622565b908152604051908190036020019020600c015460ff16600481111561248c5761248c613d7d565b146124d95760405162461bcd60e51b815260206004820152601f60248201527f42657420737461747573206973206e6f7420616e737765722072657665616c00604482015260640161050a565b88888080601f016020809104026020016040519081016040528093929190818152602001838380828437600092019190915250506040516003925061252091508390614622565b9081526020016040518091039020600a015442116125925760405162461bcd60e51b815260206004820152602960248201527f497420697320746f6f20736f6f6e2c20646561646c696e6520776173206e6f74604482015268103932b0b1b432b21760b91b606482015260840161050a565b6003816040516125a29190614622565b9081526020016040518091039020600b01544211156126295760405162461bcd60e51b815260206004820152602e60248201527f497420697320616c7265616479206166746572207072697a6520636c61696d2060448201527f646561646c696e65206c6174652e000000000000000000000000000000000000606482015260840161050a565b600060038b8b60405161263d9291906146b7565b9081526020016040518091039020905060008b8b61265a8c6130de565b60405160200161266c939291906147ef565b60408051601f198184030181529190526001549091506001600160a01b031663ca52d5168261269b8c8c611df5565b6040518363ffffffff1660e01b81526004016126b8929190614991565b600060405180830381600087803b1580156126d257600080fd5b505af11580156126e6573d6000803e3d6000fd5b50505050600082600f018b81548110612701576127016146f0565b60009182526020909120600690910201600381015490915060ff16156127695760405162461bcd60e51b815260206004820152601760248201527f477565737320616c7265616479206576616c7561746564000000000000000000604482015260640161050a565b600481018a90556005810189905560038101805460ff191660019081179091556040805160c08101825283548152828401546001600160a01b031660208201526002840154918101919091526060810191909152608081018b905260a081018a90526127d6908490613a3d565b826004015481600401540361283b576001810154600282015460088501546001600160a01b03909216916108fc9161280d91611eb3565b6040518115909202916000818181858888f19350505050158015612835573d6000803e3d6000fd5b5061287d565b600383015460028201546040516001600160a01b039092169181156108fc0291906000818181858888f1935050505015801561287b573d6000803e3d6000fd5b505b505060016000555050505050505050505050565b6002600054036128e35760405162461bcd60e51b815260206004820152601f60248201527f5265656e7472616e637947756172643a207265656e7472616e742063616c6c00604482015260640161050a565b6002600055604080516020601f8401819004810282018101909252828152908390839081908401838280828437600092019190915250506040516003925061292d91508390614622565b90815260405190819003602001902080546129479061463e565b9050600014158160405160200161295e9190614672565b6040516020818303038152906040529061298b5760405162461bcd60e51b815260040161050a9190614087565b506000600384846040516129a09291906146b7565b90815260405190819003602001902090506004600c82015460ff1660048111156129cc576129cc613d7d565b03612a195760405162461bcd60e51b815260206004820152601760248201527f42657420697320616c72656164792066696e6973686564000000000000000000604482015260640161050a565b6001600c82015460ff166004811115612a3457612a34613d7d565b03612ac15780600a01544211612ab25760405162461bcd60e51b815260206004820152603560248201527f497420697320746f6f20736f6f6e2c20616e7377657252657665616c4465616460448201527f6c696e6520776173206e6f7420726561636865642e0000000000000000000000606482015260840161050a565b612abb81613213565b50612c5e565b80600b01544211612b3a5760405162461bcd60e51b815260206004820152603360248201527f497420697320746f6f20736f6f6e2c207072697a65436c61696d446561646c6960448201527f6e6520776173206e6f7420726561636865642e00000000000000000000000000606482015260840161050a565b6000805b600f830154811015612bfd57600083600f018281548110612b6157612b616146f0565b60009182526020918290206040805160c08101825260069093029091018054835260018101546001600160a01b031693830193909352600283015490820152600382015460ff1615801560608301526004830154608083015260059092015460a08201529150612bea57612bdd81604001518560080154611eb3565b612be790846146dd565b92505b5080612bf581614706565b915050612b3e565b50600c8201805460ff19166004179055600382015460078301546001600160a01b03909116906108fc90612c329084906149bf565b6040518115909202916000818181858888f19350505050158015612c5a573d6000803e3d6000fd5b5050505b5050600160005550565b606081600381604051612c7b9190614622565b9081526040519081900360200190208054612c959061463e565b90506000141581604051602001612cac9190614672565b60405160208183030381529060405290612cd95760405162461bcd60e51b815260040161050a9190614087565b50600383604051612cea9190614622565b9081526020016040518091039020600f01805480602002602001604051908101604052809291908181526020016000905b82821015611d305760008481526020908190206040805160c08101825260068602909201805483526001808201546001600160a01b031684860152600282015492840192909252600381015460ff1615156060840152600481015460808401526005015460a08301529083529092019101612d1b565b612dd56040518060c001604052806000815260200160006001600160a01b031681526020016000815260200160001515815260200160008152602001600081525090565b612df084848460405180602001604052806000815250610ec6565b949350505050565b612e00613ba2565b604051806101c00160405280836000018054612e1b9061463e565b80601f0160208091040260200160405190810160405280929190818152602001828054612e479061463e565b8015612e945780601f10612e6957610100808354040283529160200191612e94565b820191906000526020600020905b815481529060010190602001808311612e7757829003601f168201915b505050918352505060038401546001600160a01b03166020820152600484015460408201526006840154606082015260078401546080820152600884015460a082015260018401805460c090920191612eec9061463e565b80601f0160208091040260200160405190810160405280929190818152602001828054612f189061463e565b8015612f655780601f10612f3a57610100808354040283529160200191612f65565b820191906000526020600020905b815481529060010190602001808311612f4857829003601f168201915b50505050508152602001836002018054612f7e9061463e565b80601f0160208091040260200160405190810160405280929190818152602001828054612faa9061463e565b8015612ff75780601f10612fcc57610100808354040283529160200191612ff7565b820191906000526020600020905b815481529060010190602001808311612fda57829003601f168201915b505050918352505060098401546020820152600a8401546040820152600b8401546060820152600c84015460809091019060ff16600481111561303c5761303c613d7d565b815260200183601001805480602002602001604051908101604052809291908181526020016000905b828210156130ab57838290600052602060002090600202016040518060400160405290816000820154815260200160018201548152505081526020019060010190613065565b5050509082525060139093015460ff1615156020909301929092525090565b6000611e1867016345785d8a0000836149bf565b60608160000361312157505060408051808201909152600181527f3000000000000000000000000000000000000000000000000000000000000000602082015290565b8160005b811561314b578061313581614706565b91506131449050600a8361497d565b9150613125565b60008167ffffffffffffffff81111561316657613166613c2b565b6040519080825280601f01601f191660200182016040528015613190576020820181803683370190505b5090505b8415612df0576131a56001836149bf565b91506131b2600a866149d2565b6131bd9060306146dd565b60f81b8183815181106131d2576131d26146f0565b60200101907effffffffffffffffffffffffffffffffffffffffffffffffffffffffffffff1916908160001a90535061320c600a8661497d565b9450613194565b600c8101805460ff1916600417905560005b600f8201548110156132fd57600082600f018281548110613248576132486146f0565b60009182526020918290206040805160c08101825260069093029091018054835260018101546001600160a01b03169383018490526002810154918301829052600381015460ff1615156060840152600481015460808401526005015460a083015260088601549193506108fc916132c09190611eb3565b6040518115909202916000818181858888f193505050501580156132e8573d6000803e3d6000fd5b505080806132f590614706565b915050613225565b506003810154600682015460088301546001600160a01b03909216916108fc9161332691611eb3565b8360060154846007015461333a91906146dd565b61334491906149bf565b6040518115909202916000818181858888f1935050505015801561336c573d6000803e3d6000fd5b50600c01805460ff19166004179055565b84848080601f01602080910402602001604051908101604052809392919081815260200183838082843760009201919091525050604051600392506133c491508390614622565b90815260405190819003602001902080546133de9061463e565b15905061342d5760405162461bcd60e51b815260206004820152601260248201527f42657420616c7265616479206578697374730000000000000000000000000000604482015260640161050a565b83600387876040516134409291906146b7565b90815260200160405180910390206009018190555082600387876040516134689291906146b7565b9081526020016040518091039020600a018190555081600387876040516134909291906146b7565b908152604051908190036020019020600b0155505050505050565b89898080601f01602080910402602001604051908101604052809392919081815260200183838082843760009201919091525050604051600392506134f291508390614622565b908152604051908190036020019020805461350c9061463e565b15905061355b5760405162461bcd60e51b815260206004820152601260248201527f42657420616c7265616479206578697374730000000000000000000000000000604482015260640161050a565b8a8a60038d8d60405161356f9291906146b7565b9081526040519081900360200190209161358a9190836149e6565b508860038c8c60405161359e9291906146b7565b908152602001604051809103902060010190816135bb9190614890565b508760038c8c6040516135cf9291906146b7565b908152602001604051809103902060020190816135ec9190614890565b508660038c8c6040516136009291906146b7565b908152602001604051809103902060030160006101000a8154816001600160a01b0302191690836001600160a01b03160217905550600060038c8c6040516136499291906146b7565b9081526020016040518091039020600601819055508560038c8c6040516136719291906146b7565b9081526020016040518091039020600701819055508460038c8c6040516136999291906146b7565b908152602001604051809103902060080181905550600160038c8c6040516136c29291906146b7565b908152604051908190036020019020600c01805460ff191660018360048111156136ee576136ee613d7d565b02179055508351156137c157600160038c8c60405161370e9291906146b7565b908152604051908190036020019020600c0180549115156101000261ff001990921691909117905560005b84518110156137bf57600160038d8d6040516137569291906146b7565b9081526020016040518091039020600d01600087848151811061377b5761377b6146f0565b6020908102919091018101516001600160a01b03168252810191909152604001600020805460ff1916911515919091179055806137b781614706565b915050613739565b505b8251156138535760005b835181101561385157600160038d8d6040516137e89291906146b7565b9081526020016040518091039020600e01600086848151811061380d5761380d6146f0565b6020908102919091018101516001600160a01b03168252810191909152604001600020805460ff19169115159190911790558061384981614706565b9150506137cb565b505b815115613a0557600160038c8c60405161386e9291906146b7565b908152604051908190036020019020601301805491151560ff1990921691909117905560005b8251811015613a0357600160038d8d6040516138b19291906146b7565b908152602001604051809103902060120160008584815181106138d6576138d66146f0565b6020026020010151815260200190815260200160002060006101000a81548160ff02191690831515021790555060038c8c6040516139159291906146b7565b9081526040519081900360200181206010015490600390613939908f908f906146b7565b9081526020016040518091039020601101600085848151811061395e5761395e6146f0565b602002602001015181526020019081526020016000208190555060038c8c60405161398a9291906146b7565b908152602001604051809103902060100160405180604001604052808584815181106139b8576139b86146f0565b602090810291909101810151825260009181018290528354600181810186559483529181902083516002909302019182559190910151910155806139fb81614706565b915050613894565b505b33600090815260026020908152604082208054600181018255908352912001613a2f8b8d836149e6565b505050505050505050505050565b6080810151600090815260128301602052604090205460ff16613b4657601382015460ff1615613ad55760405162461bcd60e51b815260206004820152602c60248201527f42657474696e67206973207265737472696374656420746f206f6e6c7920676960448201527f76656e206f7074696f6e732e0000000000000000000000000000000000000000606482015260840161050a565b60808101805160009081526012840160209081526040808320805460ff19166001908117909155601087018054865186526011909801845282852088905582518084018452955186529190950151848301908152868601825590835291209151600290940290910192835551910155565b6080810151600090815260118301602052604090819020549082015160108401805483908110613b7857613b786146f0565b90600052602060002090600202016001016000828254613b9891906146dd565b9091555050505050565b604051806101c001604052806060815260200160006001600160a01b0316815260200160008152602001600081526020016000815260200160008152602001606081526020016060815260200160008152602001600081526020016000815260200160006004811115613c1757613c17613d7d565b815260606020820152600060409091015290565b634e487b7160e01b600052604160045260246000fd5b604051601f8201601f1916810167ffffffffffffffff81118282101715613c6a57613c6a613c2b565b604052919050565b600067ffffffffffffffff821115613c8c57613c8c613c2b565b50601f01601f191660200190565b6000613cad613ca884613c72565b613c41565b9050828152838383011115613cc157600080fd5b828260208301376000602084830101529392505050565b600082601f830112613ce957600080fd5b611ed283833560208501613c9a565b600060208284031215613d0a57600080fd5b813567ffffffffffffffff811115613d2157600080fd5b612df084828501613cd8565b60005b83811015613d48578181015183820152602001613d30565b50506000910152565b60008151808452613d69816020860160208601613d2d565b601f01601f19169290920160200192915050565b634e487b7160e01b600052602160045260246000fd5b60058110613db157634e487b7160e01b600052602160045260246000fd5b9052565b600081518084526020808501945080840160005b83811015613df3578151805188526020908101519088015260408701965090820190600101613dc9565b509495945050505050565b60006101c08251818552613e1482860182613d51565b9150506020830151613e3160208601826001600160a01b03169052565b5060408301516040850152606083015160608501526080830151608085015260a083015160a085015260c083015184820360c0860152613e718282613d51565b91505060e083015184820360e0860152613e8b8282613d51565b610100858101519087015261012080860151908701526101408086015190870152610160808601519193509150613ec482870182613d93565b50506101808084015185830382870152613ede8382613db5565b925050506101a080840151613ef68287018215159052565b5090949350505050565b602081526000611ed26020830184613dfe565b60008083601f840112613f2557600080fd5b50813567ffffffffffffffff811115613f3d57600080fd5b602083019150836020828501011115613f5557600080fd5b9250929050565b60008060208385031215613f6f57600080fd5b823567ffffffffffffffff811115613f8657600080fd5b613f9285828601613f13565b90969095509350505050565b6001600160a01b0381168114613fb357600080fd5b50565b60008060408385031215613fc957600080fd5b823567ffffffffffffffff811115613fe057600080fd5b613fec85828601613cd8565b9250506020830135613ffd81613f9e565b809150509250929050565b60006020828403121561401a57600080fd5b8135611ed281613f9e565b6000602080830181845280855180835260408601915060408160051b870101925083870160005b8281101561407a57603f19888603018452614068858351613dfe565b9450928501929085019060010161404c565b5092979650505050505050565b602081526000611ed26020830184613d51565b600080600080606085870312156140b057600080fd5b843567ffffffffffffffff808211156140c857600080fd5b6140d488838901613f13565b90965094506020870135935060408701359150808211156140f457600080fd5b508501601f8101871361410657600080fd5b61411587823560208401613c9a565b91505092959194509250565b60c08101611e188284805182526001600160a01b036020820151166020830152604081015160408301526060810151151560608301526080810151608083015260a081015160a08301525050565b60008060006040848603121561418457600080fd5b833567ffffffffffffffff81111561419b57600080fd5b6141a786828701613f13565b909790965060209590950135949350505050565b600080604083850312156141ce57600080fd5b823567ffffffffffffffff8111156141e557600080fd5b6141f185828601613cd8565b95602094909401359450505050565b6020808252825182820181905260009190848201906040850190845b8181101561424657835180518452602090810151908401526040830193850193925060010161421c565b50909695505050505050565b6000806040838503121561426557600080fd5b823561427081613f9e565b946020939093013593505050565b6000806040838503121561429157600080fd5b50508035926020909101359150565b600067ffffffffffffffff8211156142ba576142ba613c2b565b5060051b60200190565b600082601f8301126142d557600080fd5b813560206142e5613ca8836142a0565b82815260059290921b8401810191818101908684111561430457600080fd5b8286015b8481101561432857803561431b81613f9e565b8352918301918301614308565b509695505050505050565b600082601f83011261434457600080fd5b81356020614354613ca8836142a0565b82815260059290921b8401810191818101908684111561437357600080fd5b8286015b848110156143285780358352918301918301614377565b60008060008060008060008060008060006101408c8e0312156143b057600080fd5b67ffffffffffffffff808d3511156143c757600080fd5b6143d48e8e358f01613f13565b909c509a5060208d01358110156143ea57600080fd5b6143fa8e60208f01358f01613cd8565b99508060408e0135111561440d57600080fd5b61441d8e60408f01358f01613cd8565b985060608d0135975060808d0135965060a08d0135955060c08d013594508060e08e0135111561444c57600080fd5b61445c8e60e08f01358f016142c4565b9350806101008e0135111561447057600080fd5b6144818e6101008f01358f016142c4565b9250806101208e0135111561449557600080fd5b506144a78d6101208e01358e01614333565b90509295989b509295989b9093969950565b828152604060208201526000612df06040830184613d51565b60006020808301818452808551808352604092508286019150828160051b87010184880160005b8381101561453857888303603f1901855281518051845287015187840187905261452587850182613d51565b95880195935050908601906001016144f9565b509098975050505050505050565b60008060008060006080868803121561455e57600080fd5b853567ffffffffffffffff81111561457557600080fd5b61458188828901613f13565b9099909850602088013597604081013597506060013595509350505050565b6020808252825182820181905260009190848201906040850190845b818110156142465761460f838551805182526001600160a01b036020820151166020830152604081015160408301526060810151151560608301526080810151608083015260a081015160a08301525050565b9284019260c092909201916001016145bc565b60008251614634818460208701613d2d565b9190910192915050565b600181811c9082168061465257607f821691505b60208210810361053d57634e487b7160e01b600052602260045260246000fd5b7f4261736542657420646f6573206e6f742065786973743a2000000000000000008152600082516146aa816018850160208701613d2d565b9190910160180192915050565b8183823760009101908152919050565b634e487b7160e01b600052601160045260246000fd5b80820180821115611e1857611e186146c7565b634e487b7160e01b600052603260045260246000fd5b600060018201614718576147186146c7565b5060010190565b600061472d613ca884613c72565b905082815283838301111561474157600080fd5b611ed2836020830184613d2d565b6000806000806080858703121561476557600080fd5b845167ffffffffffffffff8082111561477d57600080fd5b818701915087601f83011261479157600080fd5b6147a08883516020850161471f565b9550602087015191506147b282613f9e565b604087015160608801519295509350808211156147ce57600080fd5b508501601f810187136147e057600080fd5b6141158782516020840161471f565b82848237600083820160008152835161480c818360208801613d2d565b0195945050505050565b6060815260006148296060830186613d51565b8460208401528281036040840152610ebc8185613d51565b601f82111561488b57600081815260208120601f850160051c810160208610156148685750805b601f850160051c820191505b8181101561488757828155600101614874565b5050505b505050565b815167ffffffffffffffff8111156148aa576148aa613c2b565b6148be816148b8845461463e565b84614841565b602080601f8311600181146148f357600084156148db5750858301515b600019600386901b1c1916600185901b178555614887565b600085815260208120601f198616915b8281101561492257888601518255948401946001909101908401614903565b50858210156149405787850151600019600388901b60f8161c191681555b5050505050600190811b01905550565b8082028115828204841417611e1857611e186146c7565b634e487b7160e01b600052601260045260246000fd5b60008261498c5761498c614967565b500490565b6040815260006149a46040830185613d51565b82810360208401526149b68185613d51565b95945050505050565b81810381811115611e1857611e186146c7565b6000826149e1576149e1614967565b500690565b67ffffffffffffffff8311156149fe576149fe613c2b565b614a1283614a0c835461463e565b83614841565b6000601f841160018114614a465760008515614a2e5750838201355b600019600387901b1c1916600186901b178355614aa0565b600083815260209020601f19861690835b82811015614a775786850135825560209485019460019092019101614a57565b5086821015614a945760001960f88860031b161c19848701351681555b505060018560011b0183555b505050505056fea2646970667358221220d39ba7c7a1f51842fb40f2f33120544db5b2e3195caf3332d0572c63b817677d64736f6c63430008110033",
  "linkReferences": {},
  "deployedLinkReferences": {}
}