{
  "_format": "hh-sol-artifact-1",
  "contractName": "BetNumber",
  "sourceName": "chain/contracts/red_black_tree/BetNumber.sol",
  "abi": [
    {
      "inputs": [
        {
          "internalType": "address",
          "name": "storageContractAddress",
          "type": "address"
        }
      ],
      "stateMutability": "nonpayable",
      "type": "constructor"
    },
    {
      "inputs": [
        {
          "internalType": "bytes16",
          "name": "betId",
          "type": "bytes16"
        },
        {
          "internalType": "bytes16",
          "name": "guessId",
          "type": "bytes16"
        },
        {
          "internalType": "int256",
          "name": "guess",
          "type": "int256"
        }
      ],
      "name": "bet",
      "outputs": [
        {
          "components": [
            {
              "internalType": "bytes16",
              "name": "id",
              "type": "bytes16"
            },
            {
              "internalType": "address payable",
              "name": "bettor",
              "type": "address"
            },
            {
              "internalType": "uint256",
              "name": "amount",
              "type": "uint256"
            },
            {
              "internalType": "bool",
              "name": "evaluated",
              "type": "bool"
            },
            {
              "internalType": "int256",
              "name": "guess",
              "type": "int256"
            },
            {
              "internalType": "int256",
              "name": "nonce",
              "type": "int256"
            }
          ],
          "internalType": "struct BetBase.Guess",
          "name": "",
          "type": "tuple"
        }
      ],
      "stateMutability": "payable",
      "type": "function"
    },
    {
      "inputs": [
        {
          "internalType": "bytes16",
          "name": "betId",
          "type": "bytes16"
        }
      ],
      "name": "betExists",
      "outputs": [
        {
          "internalType": "bool",
          "name": "",
          "type": "bool"
        }
      ],
      "stateMutability": "view",
      "type": "function"
    },
    {
      "inputs": [
        {
          "internalType": "bytes16",
          "name": "id",
          "type": "bytes16"
        },
        {
          "internalType": "string",
          "name": "name",
          "type": "string"
        },
        {
          "internalType": "uint256",
          "name": "hash",
          "type": "uint256"
        },
        {
          "internalType": "bytes",
          "name": "encryptedData",
          "type": "bytes"
        },
        {
          "internalType": "uint256",
          "name": "course",
          "type": "uint256"
        },
        {
          "internalType": "uint256",
          "name": "bettingDeadline",
          "type": "uint256"
        },
        {
          "internalType": "uint256",
          "name": "answerRevealDeadline",
          "type": "uint256"
        },
        {
          "internalType": "address[]",
          "name": "whitelist",
          "type": "address[]"
        },
        {
          "internalType": "address[]",
          "name": "blacklist",
          "type": "address[]"
        },
        {
          "internalType": "int256[]",
          "name": "restrictedOptions",
          "type": "int256[]"
        }
      ],
      "name": "createBet",
      "outputs": [],
      "stateMutability": "payable",
      "type": "function"
    },
    {
      "inputs": [
        {
          "internalType": "bytes16",
          "name": "id",
          "type": "bytes16"
        },
        {
          "internalType": "string",
          "name": "name",
          "type": "string"
        },
        {
          "internalType": "uint256",
          "name": "hash",
          "type": "uint256"
        },
        {
          "internalType": "uint256",
          "name": "course",
          "type": "uint256"
        },
        {
          "internalType": "uint256",
          "name": "bettingDeadline",
          "type": "uint256"
        },
        {
          "internalType": "uint256",
          "name": "answerRevealDeadline",
          "type": "uint256"
        },
        {
          "internalType": "address[]",
          "name": "whitelist",
          "type": "address[]"
        },
        {
          "internalType": "address[]",
          "name": "blacklist",
          "type": "address[]"
        },
        {
          "internalType": "int256[]",
          "name": "restrictedOptions",
          "type": "int256[]"
        }
      ],
      "name": "createBet",
      "outputs": [],
      "stateMutability": "payable",
      "type": "function"
    },
    {
      "inputs": [
        {
          "internalType": "bytes16",
          "name": "betId",
          "type": "bytes16"
        }
      ],
      "name": "forceFinishBet",
      "outputs": [],
      "stateMutability": "nonpayable",
      "type": "function"
    },
    {
      "inputs": [
        {
          "internalType": "bytes16",
          "name": "betId",
          "type": "bytes16"
        }
      ],
      "name": "getBet",
      "outputs": [
        {
          "components": [
            {
              "internalType": "bytes16",
              "name": "id",
              "type": "bytes16"
            },
            {
              "internalType": "address payable",
              "name": "owner",
              "type": "address"
            },
            {
              "internalType": "int256",
              "name": "answer",
              "type": "int256"
            },
            {
              "internalType": "uint256",
              "name": "totalBets",
              "type": "uint256"
            },
            {
              "internalType": "uint256",
              "name": "betLimit",
              "type": "uint256"
            },
            {
              "internalType": "uint256",
              "name": "course",
              "type": "uint256"
            },
            {
              "internalType": "string",
              "name": "name",
              "type": "string"
            },
            {
              "internalType": "uint256",
              "name": "bettingDeadline",
              "type": "uint256"
            },
            {
              "internalType": "uint256",
              "name": "answerRevealDeadline",
              "type": "uint256"
            }
          ],
          "internalType": "struct BetBase.ReturnedBet",
          "name": "",
          "type": "tuple"
        }
      ],
      "stateMutability": "view",
      "type": "function"
    },
    {
      "inputs": [
        {
          "internalType": "bytes16",
          "name": "betId",
          "type": "bytes16"
        }
      ],
      "name": "getEncryptedData",
      "outputs": [
        {
          "internalType": "bytes",
          "name": "",
          "type": "bytes"
        }
      ],
      "stateMutability": "view",
      "type": "function"
    },
    {
      "inputs": [
        {
          "internalType": "bytes16",
          "name": "guessId",
          "type": "bytes16"
        }
      ],
      "name": "getGuess",
      "outputs": [
        {
          "components": [
            {
              "internalType": "bytes16",
              "name": "id",
              "type": "bytes16"
            },
            {
              "internalType": "address payable",
              "name": "bettor",
              "type": "address"
            },
            {
              "internalType": "uint256",
              "name": "amount",
              "type": "uint256"
            },
            {
              "internalType": "bool",
              "name": "evaluated",
              "type": "bool"
            },
            {
              "internalType": "int256",
              "name": "guess",
              "type": "int256"
            },
            {
              "internalType": "int256",
              "name": "nonce",
              "type": "int256"
            }
          ],
          "internalType": "struct BetBase.Guess",
          "name": "",
          "type": "tuple"
        }
      ],
      "stateMutability": "view",
      "type": "function"
    },
    {
      "inputs": [
        {
          "internalType": "bytes16",
          "name": "betId",
          "type": "bytes16"
        }
      ],
      "name": "getGuesses",
      "outputs": [
        {
          "internalType": "bytes16[]",
          "name": "",
          "type": "bytes16[]"
        }
      ],
      "stateMutability": "view",
      "type": "function"
    },
    {
      "inputs": [
        {
          "internalType": "bytes16",
          "name": "betId",
          "type": "bytes16"
        }
      ],
      "name": "getOptions",
      "outputs": [
        {
          "components": [
            {
              "internalType": "int256",
              "name": "value",
              "type": "int256"
            },
            {
              "internalType": "uint256",
              "name": "totalBet",
              "type": "uint256"
            }
          ],
          "internalType": "struct BetBase.Option[]",
          "name": "",
          "type": "tuple[]"
        }
      ],
      "stateMutability": "view",
      "type": "function"
    },
    {
      "inputs": [],
      "name": "getTop10Bets",
      "outputs": [
        {
          "internalType": "bytes16[]",
          "name": "",
          "type": "bytes16[]"
        }
      ],
      "stateMutability": "view",
      "type": "function"
    },
    {
      "inputs": [
        {
          "internalType": "address",
          "name": "owner",
          "type": "address"
        }
      ],
      "name": "getUserBets",
      "outputs": [
        {
          "components": [
            {
              "internalType": "bytes16",
              "name": "id",
              "type": "bytes16"
            },
            {
              "internalType": "address payable",
              "name": "owner",
              "type": "address"
            },
            {
              "internalType": "int256",
              "name": "answer",
              "type": "int256"
            },
            {
              "internalType": "uint256",
              "name": "totalBets",
              "type": "uint256"
            },
            {
              "internalType": "uint256",
              "name": "betLimit",
              "type": "uint256"
            },
            {
              "internalType": "uint256",
              "name": "course",
              "type": "uint256"
            },
            {
              "internalType": "string",
              "name": "name",
              "type": "string"
            },
            {
              "internalType": "uint256",
              "name": "bettingDeadline",
              "type": "uint256"
            },
            {
              "internalType": "uint256",
              "name": "answerRevealDeadline",
              "type": "uint256"
            }
          ],
          "internalType": "struct BetBase.ReturnedBet[]",
          "name": "",
          "type": "tuple[]"
        }
      ],
      "stateMutability": "view",
      "type": "function"
    },
    {
      "inputs": [
        {
          "internalType": "address",
          "name": "owner",
          "type": "address"
        }
      ],
      "name": "getUserBetsNormal",
      "outputs": [
        {
          "components": [
            {
              "internalType": "bytes16",
              "name": "id",
              "type": "bytes16"
            },
            {
              "internalType": "address payable",
              "name": "owner",
              "type": "address"
            },
            {
              "internalType": "int256",
              "name": "answer",
              "type": "int256"
            },
            {
              "internalType": "uint256",
              "name": "totalBets",
              "type": "uint256"
            },
            {
              "internalType": "uint256",
              "name": "betLimit",
              "type": "uint256"
            },
            {
              "internalType": "uint256",
              "name": "course",
              "type": "uint256"
            },
            {
              "internalType": "string",
              "name": "name",
              "type": "string"
            },
            {
              "internalType": "uint256",
              "name": "bettingDeadline",
              "type": "uint256"
            },
            {
              "internalType": "uint256",
              "name": "answerRevealDeadline",
              "type": "uint256"
            }
          ],
          "internalType": "struct BetBase.ReturnedBet[]",
          "name": "",
          "type": "tuple[]"
        }
      ],
      "stateMutability": "view",
      "type": "function"
    },
    {
      "inputs": [
        {
          "internalType": "bytes16",
          "name": "guesId",
          "type": "bytes16"
        }
      ],
      "name": "guessExists",
      "outputs": [
        {
          "internalType": "bool",
          "name": "",
          "type": "bool"
        }
      ],
      "stateMutability": "view",
      "type": "function"
    },
    {
      "inputs": [
        {
          "internalType": "uint256",
          "name": "money",
          "type": "uint256"
        },
        {
          "internalType": "uint256",
          "name": "course",
          "type": "uint256"
        }
      ],
      "name": "multMoney",
      "outputs": [
        {
          "internalType": "uint256",
          "name": "",
          "type": "uint256"
        }
      ],
      "stateMutability": "pure",
      "type": "function"
    },
    {
      "inputs": [
        {
          "internalType": "bytes16",
          "name": "betId",
          "type": "bytes16"
        },
        {
          "internalType": "int256",
          "name": "revealedNumber",
          "type": "int256"
        },
        {
          "internalType": "int256",
          "name": "nonce",
          "type": "int256"
        }
      ],
      "name": "revealNumber",
      "outputs": [],
      "stateMutability": "nonpayable",
      "type": "function"
    },
    {
      "inputs": [
        {
          "internalType": "bytes16",
          "name": "",
          "type": "bytes16"
        }
      ],
      "name": "storedGuesses",
      "outputs": [
        {
          "internalType": "bytes16",
          "name": "id",
          "type": "bytes16"
        },
        {
          "internalType": "address payable",
          "name": "bettor",
          "type": "address"
        },
        {
          "internalType": "uint256",
          "name": "amount",
          "type": "uint256"
        },
        {
          "internalType": "bool",
          "name": "evaluated",
          "type": "bool"
        },
        {
          "internalType": "int256",
          "name": "guess",
          "type": "int256"
        },
        {
          "internalType": "int256",
          "name": "nonce",
          "type": "int256"
        }
      ],
      "stateMutability": "view",
      "type": "function"
    },
    {
      "inputs": [
        {
          "internalType": "bytes16",
          "name": "betId",
          "type": "bytes16"
        }
      ],
      "name": "topUp",
      "outputs": [],
      "stateMutability": "payable",
      "type": "function"
    },
    {
      "inputs": [
        {
          "internalType": "address",
          "name": "",
          "type": "address"
        },
        {
          "internalType": "uint256",
          "name": "",
          "type": "uint256"
        }
      ],
      "name": "userBets",
      "outputs": [
        {
          "internalType": "bytes16",
          "name": "",
          "type": "bytes16"
        }
      ],
      "stateMutability": "view",
      "type": "function"
    },
    {
      "inputs": [
        {
          "internalType": "address",
          "name": "",
          "type": "address"
        },
        {
          "internalType": "uint256",
          "name": "",
          "type": "uint256"
        }
      ],
      "name": "userGuesses",
      "outputs": [
        {
          "internalType": "bytes16",
          "name": "",
          "type": "bytes16"
        }
      ],
      "stateMutability": "view",
      "type": "function"
    },
    {
      "inputs": [
        {
          "internalType": "int256",
          "name": "answer",
          "type": "int256"
        },
        {
          "internalType": "int256",
          "name": "nonce",
          "type": "int256"
        }
      ],
      "name": "valueToBinary",
      "outputs": [
        {
          "internalType": "bytes",
          "name": "",
          "type": "bytes"
        }
      ],
      "stateMutability": "pure",
      "type": "function"
    },
    {
      "inputs": [
        {
          "internalType": "bytes16",
          "name": "betId",
          "type": "bytes16"
        },
        {
          "internalType": "address",
          "name": "guesser",
          "type": "address"
        }
      ],
      "name": "whitelistAddress",
      "outputs": [],
      "stateMutability": "nonpayable",
      "type": "function"
    }
  ],
  "bytecode": "0x60806040523480156200001157600080fd5b506040516200382c3803806200382c83398101604081905262000034916200005a565b600080546001600160a01b0319166001600160a01b03929092169190911790556200008c565b6000602082840312156200006d57600080fd5b81516001600160a01b03811681146200008557600080fd5b9392505050565b613790806200009c6000396000f3fe6080604052600436106101755760003560e01c8063970d593d116100cb578063b4ad028d1161007f578063df85249511610059578063df852495146105f6578063efed187314610617578063fa69ff961461062a57600080fd5b8063b4ad028d14610594578063c678da52146105b4578063d09ee27d146105d457600080fd5b8063a2ef715a116100b0578063a2ef715a146104a0578063a52fcd24146104c0578063ac0e037d146104ed57600080fd5b8063970d593d146104525780639ee4e3eb1461048057600080fd5b806378d1e7631161012d5780638352606a116101075780638352606a146103de57806385452541146103f157806387d445571461040457600080fd5b806378d1e763146103725780637da1fe34146103855780638068aa68146103a557600080fd5b80632d56657d1161015e5780632d56657d146102f657806367095f1d146103235780636dae643a1461034557600080fd5b806319dc16a71461017a57806325825f21146101ce575b600080fd5b34801561018657600080fd5b506101b9610195366004612d40565b6001600160801b031990811660009081526002602052604090205460801b16151590565b60405190151581526020015b60405180910390f35b3480156101da57600080fd5b506102956101e9366004612d40565b6040805160c081018252600080825260208201819052918101829052606081018290526080810182905260a0810191909152506001600160801b0319908116600090815260046020818152604092839020835160c0810185528154608090811b909616815260018201546001600160a01b031692810192909252600281015493820193909352600383015460ff161515606082015290820154928101929092526005015460a082015290565b6040516101c59190600060c0820190506001600160801b031983511682526001600160a01b036020840151166020830152604083015160408301526060830151151560608301526080830151608083015260a083015160a083015292915050565b34801561030257600080fd5b50610316610311366004612d79565b61064a565b6040516101c59190612e74565b34801561032f57600080fd5b5061034361033e366004612d40565b61081b565b005b34801561035157600080fd5b50610365610360366004612d40565b6109a1565b6040516101c59190612ed6565b610295610380366004612ee9565b610a2b565b34801561039157600080fd5b506103436103a0366004612f2a565b6112b7565b3480156103b157600080fd5b506103c56103c0366004612f63565b61151f565b6040516001600160801b031990911681526020016101c5565b6103436103ec366004613142565b611565565b6103436103ff36600461324d565b61171d565b34801561041057600080fd5b5061044561041f366004613332565b604080516020810193909352828101919091528051808303820181526060909201905290565b6040516101c59190613354565b34801561045e57600080fd5b5061047261046d366004613332565b6118dc565b6040519081526020016101c5565b34801561048c57600080fd5b5061031661049b366004612d79565b6118fe565b3480156104ac57600080fd5b506104456104bb366004612d40565b611a98565b3480156104cc57600080fd5b506104e06104db366004612d40565b611b38565b6040516101c59190613367565b3480156104f957600080fd5b50610552610508366004612d40565b600460208190526000918252604090912080546001820154600283015460038401549484015460059094015460809390931b946001600160a01b0390921693909260ff9092169186565b604080516001600160801b031990971687526001600160a01b0390951660208701529385019290925215156060840152608083015260a082015260c0016101c5565b3480156105a057600080fd5b506103436105af3660046133b6565b611bc5565b3480156105c057600080fd5b506103c56105cf366004612f63565b6120ea565b3480156105e057600080fd5b506105e9612106565b6040516101c591906133eb565b34801561060257600080fd5b506101b9610611366004612d40565b50600090565b610343610625366004612d40565b612386565b34801561063657600080fd5b506105e9610645366004612d40565b6124c3565b6001600160a01b03811660009081526001602090815260408083208054825181850281018501909352808352606094938301828280156106d657602002820191906000526020600020906000905b82829054906101000a900460801b6001600160801b03191681526020019060100190602082600f010492830192600103820291508084116106985790505b505050505090506000815167ffffffffffffffff8111156106f9576106f9612f8f565b60405190808252806020026020018201604052801561078c57816020015b61077960405180610120016040528060006001600160801b031916815260200160006001600160a01b03168152602001600081526020016000815260200160008152602001600081526020016060815260200160008152602001600081525090565b8152602001906001900390816107175790505b50905060005b8151811015610813576107e3600260008584815181106107b4576107b4613439565b60200260200101516001600160801b0319166001600160801b0319168152602001908152602001600020612560565b8282815181106107f5576107f5613439565b6020026020010181905250808061080b90613465565b915050610792565b509392505050565b6001600160801b031980821660009081526002602052604090205460801b1661088b5760405162461bcd60e51b815260206004820152601260248201527f42657420646f6573206e6f74206578697374000000000000000000000000000060448201526064015b60405180910390fd5b6001600160801b0319811660009081526002602052604090206001600b82015460ff1660048111156108bf576108bf61347e565b1461090c5760405162461bcd60e51b815260206004820152601760248201527f42657420697320616c72656164792066696e69736865640000000000000000006044820152606401610882565b806009015442116109855760405162461bcd60e51b815260206004820152603060248201527f497420697320746f6f20736f6f6e2c2062657474696e67446561646c696e652060448201527f776173206e6f7420726561636865642e000000000000000000000000000000006064820152608401610882565b600b8101805460ff1916600417905561099d816126d0565b5050565b610a0360405180610120016040528060006001600160801b031916815260200160006001600160a01b03168152602001600081526020016000815260200160008152602001600081526020016060815260200160008152602001600081525090565b6001600160801b031982166000908152600260205260409020610a2590612560565b92915050565b6040805160c081018252600080825260208201819052918101829052606081018290526080810182905260a08101919091526001600160801b031980851660009081526002602052604090205460801b16610ac85760405162461bcd60e51b815260206004820152601860248201527f546869732062657420646f6573206e6f742065786973747300000000000000006044820152606401610882565b60003411610b185760405162461bcd60e51b815260206004820152601c60248201527f596f75206e65656420746f20626574206174206c6561737420737468000000006044820152606401610882565b6001600160801b031984166000908152600260208190526040909120908101546001600160a01b03163303610b8f5760405162461bcd60e51b815260206004820152601f60248201527f596f752063616e6e6f7420626574206f6e20796f7572206f776e204265742e006044820152606401610882565b6001600b82015460ff166004811115610baa57610baa61347e565b14610bf75760405162461bcd60e51b815260206004820152601760248201527f42657420697320616c72656164792066696e69736865640000000000000000006044820152606401610882565b8060080154421115610c4b5760405162461bcd60e51b815260206004820152601960248201527f596f7520617265206c6174652e20426574206973206f766572000000000000006044820152606401610882565b600b810154610100900460ff161580610c755750336000908152600c8201602052604090205460ff165b610ce75760405162461bcd60e51b815260206004820152603c60248201527f43726561746572206f66207468652062657420646964206e6f742077616e742060448201527f796f7520746f2074616b65207061727420696e207468697320626574000000006064820152608401610882565b336000908152600d8201602052604090205460ff1615610d495760405162461bcd60e51b815260206004820152601e60248201527f596f75207765726520626c61636b6c697374656420627920617574686f7200006044820152606401610882565b8060060154610d6b348360050154610d619190613494565b83600701546118dc565b1115610e055760405162461bcd60e51b815260206004820152605360248201527f5468657265206973206e6f7420656e6f756768206d6f6e657920696e2061207660448201527f61756c7420746f2070617920796f7520696620796f752077696e2e205468652060648201527f6d6f737420796f752063616e2062657420697300000000000000000000000000608482015260a401610882565b6040805160c0810182526001600160801b0319861681523360208083019190915234828401526000606083018190526080830187905260a0830181905286815260118501909152919091205460ff16610f3d57601282015460ff1615610ed35760405162461bcd60e51b815260206004820152602c60248201527f42657474696e67206973207265737472696374656420746f206f6e6c7920676960448201527f76656e206f7074696f6e732e00000000000000000000000000000000000000006064820152608401610882565b60008481526011830160209081526040808320805460ff19166001908117909155600f86018054601088018552838620819055835180850185528a815293870151848601908152818401835591865293909420915160029093029091019182559151910155610f91565b6000848152601083016020526040908190205490820151600f8401805483908110610f6a57610f6a613439565b90600052602060002090600202016001016000828254610f8a9190613494565b9091555050505b6005820180548015913491600090610faa908490613494565b909155505081516001600160801b0319908116600090815260046020818152604080842087518154608091821c97168717825583890151600180840180546001600160a01b0390931673ffffffffffffffffffffffffffffffffffffffff1990931692909217909155838a015160028085019190915560608b01516003808601805492151560ff1990931692909217909155838c01519785019790975560a08b0151600590940193909355600e8b01805480830182559088528588208482040180546010928416830261010090810a9b8c026001600160801b039c8d0219909216919091179091553389529686529387208a51815480840183559189529590972092870490920180549490911c9590911690910290920a9283029290930219909216179055801561116b578254600584810154604051631e2186d960e01b815273__$3f4f693924aac6b48704779d1111bf4396$__93631e2186d99361113693909260809290921b916004019283526001600160801b0319919091166020830152604082015260600190565b60006040518083038186803b15801561114e57600080fd5b505af4158015611162573d6000803e3d6000fd5b505050506112ad565b825460058481015473__$3f4f693924aac6b48704779d1111bf4396$__9263f15cbcf3929160809190911b906111a29034906134a7565b6040517fffffffff0000000000000000000000000000000000000000000000000000000060e086901b16815260048101939093526001600160801b03199091166024830152604482015260640160006040518083038186803b15801561120757600080fd5b505af415801561121b573d6000803e3d6000fd5b50508454600586810154604051631e2186d960e01b815273__$3f4f693924aac6b48704779d1111bf4396$__9550631e2186d9945061127c9360801b91906004019283526001600160801b0319919091166020830152604082015260600190565b60006040518083038186803b15801561129457600080fd5b505af41580156112a8573d6000803e3d6000fd5b505050505b5095945050505050565b6001600160801b031980831660009081526002602052604090205460801b166113225760405162461bcd60e51b815260206004820152601260248201527f42657420646f6573206e6f7420657869737400000000000000000000000000006044820152606401610882565b6001600160801b031982166000908152600260205260409020600b810154610100900460ff166113ba5760405162461bcd60e51b815260206004820152603760248201527f596f752063616e6e6f742061646420746f2077686974656c697374206966207460448201527f6865726520776173206e6f74206f6e65206265666f72650000000000000000006064820152608401610882565b806008015442106114055760405162461bcd60e51b81526020600482015260156024820152742132ba1034b9903737903637b733b2b91037b832b760591b6044820152606401610882565b6001600b82015460ff1660048111156114205761142061347e565b146114655760405162461bcd60e51b81526020600482015260156024820152742132ba1034b9903737903637b733b2b91037b832b760591b6044820152606401610882565b6001600160a01b0382166000908152600c8201602052604090205460ff16156114f55760405162461bcd60e51b8152602060048201526024808201527f4775657373657220686173206265656e2077686974656c6973746520616c726560448201527f6164792e000000000000000000000000000000000000000000000000000000006064820152608401610882565b6001600160a01b039091166000908152600c90910160205260409020805460ff1916600117905550565b6001602052816000526040600020818154811061153b57600080fd5b9060005260206000209060029182820401919006601002915091509054906101000a900460801b81565b428510156115b55760405162461bcd60e51b815260206004820152601760248201527f646561646c696e6520616c7265616479207061737365640000000000000000006044820152606401610882565b848410156115c257600080fd5b6001600160801b0319808b1660009081526002602052604090205460801b161561162e5760405162461bcd60e51b815260206004820152601360248201527f596f75207368616c6c206e6f74207061737321000000000000000000000000006044820152606401610882565b6000341161167e5760405162461bcd60e51b815260206004820152601c60248201527f596f75206e65656420746f20626574206174206c6561737420737468000000006044820152606401610882565b6000546040517f06d3e9ff0000000000000000000000000000000000000000000000000000000081526001600160a01b03909116906306d3e9ff906116cb908d908c908c906004016134ba565b600060405180830381600087803b1580156116e557600080fd5b505af11580156116f9573d6000803e3d6000fd5b505050506117118a8a33348a8a8a60008b8b8b6128d5565b50505050505050505050565b4285101561176d5760405162461bcd60e51b815260206004820152601760248201527f646561646c696e6520616c7265616479207061737365640000000000000000006044820152606401610882565b8484101561177a57600080fd5b6001600160801b0319808a1660009081526002602052604090205460801b16156117e65760405162461bcd60e51b815260206004820152601360248201527f596f75207368616c6c206e6f74207061737321000000000000000000000000006044820152606401610882565b600034116118365760405162461bcd60e51b815260206004820152601c60248201527f596f75206e65656420746f20626574206174206c6561737420737468000000006044820152606401610882565b6000546040517fa63ba28a0000000000000000000000000000000000000000000000000000000081526001600160801b03198b166004820152602481018990526001600160a01b039091169063a63ba28a90604401600060405180830381600087803b1580156118a557600080fd5b505af11580156118b9573d6000803e3d6000fd5b505050506118d1898933348a8a8a60008b8b8b6128d5565b505050505050505050565b6000600a6118ea83856134ec565b6118f49190613503565b6028189392505050565b6001600160a01b038116600090815260016020908152604080832080548251818502810185019093528083526060949383018282801561198a57602002820191906000526020600020906000905b82829054906101000a900460801b6001600160801b03191681526020019060100190602082600f0104928301926001038202915080841161194c5790505b505050505090506000815167ffffffffffffffff8111156119ad576119ad612f8f565b604051908082528060200260200182016040528015611a4057816020015b611a2d60405180610120016040528060006001600160801b031916815260200160006001600160a01b03168152602001600081526020016000815260200160008152602001600081526020016060815260200160008152602001600081525090565b8152602001906001900390816119cb5790505b50905060005b815181101561081357611a68600260008584815181106107b4576107b4613439565b828281518110611a7a57611a7a613439565b60200260200101819052508080611a9090613465565b915050611a46565b600080546040517f301dc5850000000000000000000000000000000000000000000000000000000081526001600160801b031984166004820152606092916001600160a01b03169063301dc58590602401600060405180830381865afa158015611b06573d6000803e3d6000fd5b505050506040513d6000823e601f3d908101601f19168201604052611b2e9190810190613525565b9695505050505050565b6001600160801b031981166000908152600260209081526040808320600f01805482518185028101850190935280835260609492939192909184015b82821015611bba57838290600052602060002090600202016040518060400160405290816000820154815260200160018201548152505081526020019060010190611b74565b505050509050919050565b6001600160801b031980841660009081526002602052604090205460801b16611c305760405162461bcd60e51b815260206004820152601360248201527f42657420646f6573206e6f7420657869737473000000000000000000000000006044820152606401610882565b6001600160801b03198316600090815260026020526040902060088101544211611cc25760405162461bcd60e51b815260206004820152602960248201527f497420697320746f6f20736f6f6e2c20646561646c696e6520776173206e6f7460448201527f20726561636865642e00000000000000000000000000000000000000000000006064820152608401610882565b8060090154421115611d165760405162461bcd60e51b815260206004820152600f60248201527f497420697320746f6f206c6174652e00000000000000000000000000000000006044820152606401610882565b6001600b82015460ff166004811115611d3157611d3161347e565b14611d7e5760405162461bcd60e51b815260206004820152601760248201527f42657420697320616c72656164792066696e69736865640000000000000000006044820152606401610882565b60028101546001600160a01b03163314611dda5760405162461bcd60e51b815260206004820181905260248201527f596f7520617265206e6f7420616e206f776e6572206f662074686973206265746044820152606401610882565b600b8101805460ff191660041790556000546001600160a01b03166305fa513985611e268686604080516020810193909352828101919091528051808303820181526060909201905290565b6040518363ffffffff1660e01b8152600401611e439291906135cd565b600060405180830381600087803b158015611e5d57600080fd5b505af1158015611e71573d6000803e3d6000fd5b50505050601281015460ff168015611e9a5750600083815260118201602052604090205460ff16155b15611eae57611ea8816126d0565b50505050565b6000805b600e830154811015611ffe5760006004600085600e018481548110611ed957611ed9613439565b600091825260208083206002808404909101546001600160801b031960106001958616026101000a909104608090811b82168752868401979097526040958601909420855160c0810187528154881b9095168552928301546001600160a01b03169184019190915281015492820192909252600382015460ff1615156060820152600482015492810183905260059091015460a08201529150869003611fe45780602001516001600160a01b03166108fc611f9c836040015187600701546118dc565b6040518115909202916000818181858888f19350505050158015611fc4573d6000803e3d6000fd5b50611fd7816040015185600701546118dc565b611fe19084613494565b92505b600160609091015280611ff681613465565b915050611eb2565b506002820154600583015460068401546001600160a01b03909216916108fc91849161202a9190613494565b61203491906134a7565b6040518115909202916000818181858888f1935050505015801561205c573d6000803e3d6000fd5b50815460058381015460405163f15cbcf360e01b815273__$3f4f693924aac6b48704779d1111bf4396$__9363f15cbcf3936120be93909260809290921b916004019283526001600160801b0319919091166020830152604082015260600190565b60006040518083038186803b1580156120d657600080fd5b505af41580156118d1573d6000803e3d6000fd5b6003602052816000526040600020818154811061153b57600080fd5b60408051600a8082526101608201909252606091600091906020820161014080368337019050506040517f256a095900000000000000000000000000000000000000000000000000000000815260056004820152909150600090819073__$3f4f693924aac6b48704779d1111bf4396$__9063256a095990602401602060405180830381865af415801561219e573d6000803e3d6000fd5b505050506040513d601f19601f820116820180604052508101906121c291906135f8565b90505b80158015906121d45750600a82105b1561237e5760008181526006602090815260408083206004018054825181850281018501909352808352919290919083018282801561225f57602002820191906000526020600020906000905b82829054906101000a900460801b6001600160801b03191681526020019060100190602082600f010492830192600103820291508084116122215790505b5050505050905060005b8151811080156122795750600a84105b156122e15781818151811061229057612290613439565b60200260200101518585806122a490613465565b9650815181106122b6576122b6613439565b6001600160801b031990921660209283029190910190910152806122d981613465565b915050612269565b506040517f31dc7383000000000000000000000000000000000000000000000000000000008152600560048201526024810183905273__$3f4f693924aac6b48704779d1111bf4396$__906331dc738390604401602060405180830381865af4158015612352573d6000803e3d6000fd5b505050506040513d601f19601f8201168201806040525081019061237691906135f8565b9150506121c5565b509092915050565b6001600160801b031981166000908152600260205260409020600881015442106123ea5760405162461bcd60e51b81526020600482015260156024820152742132ba1034b9903737903637b733b2b91037b832b760591b6044820152606401610882565b6001600b82015460ff1660048111156124055761240561347e565b1461244a5760405162461bcd60e51b81526020600482015260156024820152742132ba1034b9903737903637b733b2b91037b832b760591b6044820152606401610882565b60028101546001600160a01b031633146124a65760405162461bcd60e51b815260206004820152601860248201527f596f75206e65656420746f20626520746865206f776e657200000000000000006044820152606401610882565b348160060160008282546124ba9190613494565b90915550505050565b6001600160801b03198116600090815260026020908152604091829020600e0180548351818402810184019094528084526060939283018282801561255457602002820191906000526020600020906000905b82829054906101000a900460801b6001600160801b03191681526020019060100190602082600f010492830192600103820291508084116125165790505b50505050509050919050565b6125c260405180610120016040528060006001600160801b031916815260200160006001600160a01b03168152602001600081526020016000815260200160008152602001600081526020016060815260200160008152602001600081525090565b604080516101208101825283546001600160801b0319608091821b16825260028501546001600160a01b0316602083015260038501549282019290925260058401546060820152600684015491810191909152600783015460a082015260018301805460c08301919061263490613611565b80601f016020809104026020016040519081016040528092919081815260200182805461266090613611565b80156126ad5780601f10612682576101008083540402835291602001916126ad565b820191906000526020600020905b81548152906001019060200180831161269057829003601f168201915b505050505081526020018360080154815260200183600901548152509050919050565b60005b600e8201548110156127e05760006004600084600e0184815481106126fa576126fa613439565b600091825260208083206002808404909101546001600160801b031960106001958616026101000a909104608090811b82168752868401979097526040958601909420855160c0810187528154881b9095168552928301546001600160a01b0316918401829052820154938301849052600382015460ff16151560608401526004820154948301949094526005015460a082015260078601549093506108fc916127a3916118dc565b6040518115909202916000818181858888f193505050501580156127cb573d6000803e3d6000fd5b505080806127d890613465565b9150506126d3565b506002810154600582015460078301546001600160a01b03909216916108fc91612809916118dc565b836006015461281891906134a7565b6040518115909202916000818181858888f19350505050158015612840573d6000803e3d6000fd5b50805460058281015460405163f15cbcf360e01b815273__$3f4f693924aac6b48704779d1111bf4396$__9363f15cbcf3936128a293909260809290921b916004019283526001600160801b0319919091166020830152604082015260600190565b60006040518083038186803b1580156128ba57600080fd5b505af41580156128ce573d6000803e3d6000fd5b5050505050565b6001600160801b0319808c1660009081526002602052604090205460801b16156129415760405162461bcd60e51b815260206004820152601860248201527f54686973206974656d20616c72656164792065786973747300000000000000006044820152606401610882565b6001600160801b03198b81166000908152600260205260409020805490911660808d901c1781556001016129758b8261369a565b506001600160801b03198b1660009081526002602081905260408220908101805473ffffffffffffffffffffffffffffffffffffffff19166001600160a01b038d16179055600581019190915560068101899055600781018890556008810187905560098101869055600a8101859055600b01805460ff19166001179055825115612aaa576001600160801b03198b166000908152600260205260408120600b01805461ff0019166101001790555b8351811015612aa8576001600160801b03198c1660009081526002602052604081208551600192600c9092019190879085908110612a6457612a64613439565b6020908102919091018101516001600160a01b03168252810191909152604001600020805460ff191691151591909117905580612aa081613465565b915050612a24565b505b815115612b3a5760005b8251811015612b38576001600160801b03198c1660009081526002602052604081208451600192600d9092019190869085908110612af457612af4613439565b6020908102919091018101516001600160a01b03168252810191909152604001600020805460ff191691151591909117905580612b3081613465565b915050612ab4565b505b805115612cbc576001600160801b03198b166000908152600260205260408120601201805460ff191660011790555b8151811015612cba576001600160801b03198c166000908152600260205260408120835160019260119092019190859085908110612ba957612ba9613439565b60209081029190910181015182528181019290925260409081016000908120805460ff1916941515949094179093556001600160801b03198f16835260029091528120600f8101548451909260109092019190859085908110612c0e57612c0e613439565b6020026020010151815260200190815260200160002081905550600260008d6001600160801b0319166001600160801b0319168152602001908152602001600020600f016040518060400160405280848481518110612c6f57612c6f613439565b60209081029190910181015182526000918101829052835460018181018655948352918190208351600290930201918255919091015191015580612cb281613465565b915050612b69565b505b50503360009081526001602081815260408320805480840182559084529220600283040180546001600160801b03939092166010026101000a9283021990911660809b909b1c91909102999099179098555050505050505050565b6001600160801b031981168114612d2d57600080fd5b50565b8035612d3b81612d17565b919050565b600060208284031215612d5257600080fd5b8135612d5d81612d17565b9392505050565b6001600160a01b0381168114612d2d57600080fd5b600060208284031215612d8b57600080fd5b8135612d5d81612d64565b60005b83811015612db1578181015183820152602001612d99565b50506000910152565b60008151808452612dd2816020860160208601612d96565b601f01601f19169290920160200192915050565b60006101206001600160801b031983511684526020830151612e1360208601826001600160a01b03169052565b5060408301516040850152606083015160608501526080830151608085015260a083015160a085015260c08301518160c0860152612e5382860182612dba565b60e08581015190870152610100948501519490950193909352509192915050565b6000602080830181845280855180835260408601915060408160051b870101925083870160005b82811015612ec957603f19888603018452612eb7858351612de6565b94509285019290850190600101612e9b565b5092979650505050505050565b602081526000612d5d6020830184612de6565b600080600060608486031215612efe57600080fd5b8335612f0981612d17565b92506020840135612f1981612d17565b929592945050506040919091013590565b60008060408385031215612f3d57600080fd5b8235612f4881612d17565b91506020830135612f5881612d64565b809150509250929050565b60008060408385031215612f7657600080fd5b8235612f8181612d64565b946020939093013593505050565b634e487b7160e01b600052604160045260246000fd5b604051601f8201601f1916810167ffffffffffffffff81118282101715612fce57612fce612f8f565b604052919050565b600067ffffffffffffffff821115612ff057612ff0612f8f565b50601f01601f191660200190565b600082601f83011261300f57600080fd5b813561302261301d82612fd6565b612fa5565b81815284602083860101111561303757600080fd5b816020850160208301376000918101602001919091529392505050565b600067ffffffffffffffff82111561306e5761306e612f8f565b5060051b60200190565b600082601f83011261308957600080fd5b8135602061309961301d83613054565b82815260059290921b840181019181810190868411156130b857600080fd5b8286015b848110156130dc5780356130cf81612d64565b83529183019183016130bc565b509695505050505050565b600082601f8301126130f857600080fd5b8135602061310861301d83613054565b82815260059290921b8401810191818101908684111561312757600080fd5b8286015b848110156130dc578035835291830191830161312b565b6000806000806000806000806000806101408b8d03121561316257600080fd5b61316b8b612d30565b995060208b013567ffffffffffffffff8082111561318857600080fd5b6131948e838f01612ffe565b9a5060408d0135995060608d01359150808211156131b157600080fd5b6131bd8e838f01612ffe565b985060808d0135975060a08d0135965060c08d0135955060e08d01359150808211156131e857600080fd5b6131f48e838f01613078565b94506101008d013591508082111561320b57600080fd5b6132178e838f01613078565b93506101208d013591508082111561322e57600080fd5b5061323b8d828e016130e7565b9150509295989b9194979a5092959850565b60008060008060008060008060006101208a8c03121561326c57600080fd5b6132758a612d30565b985060208a013567ffffffffffffffff8082111561329257600080fd5b61329e8d838e01612ffe565b995060408c0135985060608c0135975060808c0135965060a08c0135955060c08c01359150808211156132d057600080fd5b6132dc8d838e01613078565b945060e08c01359150808211156132f257600080fd5b6132fe8d838e01613078565b93506101008c013591508082111561331557600080fd5b506133228c828d016130e7565b9150509295985092959850929598565b6000806040838503121561334557600080fd5b50508035926020909101359150565b602081526000612d5d6020830184612dba565b602080825282518282018190526000919060409081850190868401855b828110156133a957815180518552860151868501529284019290850190600101613384565b5091979650505050505050565b6000806000606084860312156133cb57600080fd5b83356133d681612d17565b95602085013595506040909401359392505050565b6020808252825182820181905260009190848201906040850190845b8181101561342d5783516001600160801b03191683529284019291840191600101613407565b50909695505050505050565b634e487b7160e01b600052603260045260246000fd5b634e487b7160e01b600052601160045260246000fd5b6000600182016134775761347761344f565b5060010190565b634e487b7160e01b600052602160045260246000fd5b80820180821115610a2557610a2561344f565b81810381811115610a2557610a2561344f565b6001600160801b0319841681528260208201526060604082015260006134e36060830184612dba565b95945050505050565b8082028115828204841417610a2557610a2561344f565b60008261352057634e487b7160e01b600052601260045260246000fd5b500490565b6000806000806080858703121561353b57600080fd5b845161354681612d17565b602086015190945061355781612d64565b60408601516060870151919450925067ffffffffffffffff81111561357b57600080fd5b8501601f8101871361358c57600080fd5b805161359a61301d82612fd6565b8181528860208385010111156135af57600080fd5b6135c0826020830160208601612d96565b9598949750929550505050565b6001600160801b0319831681526040602082015260006135f06040830184612dba565b949350505050565b60006020828403121561360a57600080fd5b5051919050565b600181811c9082168061362557607f821691505b60208210810361364557634e487b7160e01b600052602260045260246000fd5b50919050565b601f82111561369557600081815260208120601f850160051c810160208610156136725750805b601f850160051c820191505b818110156136915782815560010161367e565b5050505b505050565b815167ffffffffffffffff8111156136b4576136b4612f8f565b6136c8816136c28454613611565b8461364b565b602080601f8311600181146136fd57600084156136e55750858301515b600019600386901b1c1916600185901b178555613691565b600085815260208120601f198616915b8281101561372c5788860151825594840194600190910190840161370d565b508582101561374a5787850151600019600388901b60f8161c191681555b5050505050600190811b0190555056fea2646970667358221220ec3efd779c020c851da2d17c703d1c7557d1e846ebb57cd09f1abc7eadbd8e4364736f6c63430008110033",
  "linkReferences": {
    "chain/contracts/red_black_tree/HitchensOrderStatisticsTreeLib.sol": {
      "HitchensOrderStatisticsTreeLib": [
        {
          "length": 20,
          "start": 4488
        },
        {
          "length": 20,
          "start": 4625
        },
        {
          "length": 20,
          "start": 4816
        },
        {
          "length": 20,
          "start": 8464
        },
        {
          "length": 20,
          "start": 8704
        },
        {
          "length": 20,
          "start": 9140
        },
        {
          "length": 20,
          "start": 10484
        }
      ]
    }
  },
  "deployedLinkReferences": {
    "chain/contracts/red_black_tree/HitchensOrderStatisticsTreeLib.sol": {
      "HitchensOrderStatisticsTreeLib": [
        {
          "length": 20,
          "start": 4332
        },
        {
          "length": 20,
          "start": 4469
        },
        {
          "length": 20,
          "start": 4660
        },
        {
          "length": 20,
          "start": 8308
        },
        {
          "length": 20,
          "start": 8548
        },
        {
          "length": 20,
          "start": 8984
        },
        {
          "length": 20,
          "start": 10328
        }
      ]
    }
  }
}