{
  "_format": "hh-sol-artifact-1",
  "contractName": "BetNumberNoForceFinish",
  "sourceName": "chain/contracts/BetNumberNoForceFinish.sol",
  "abi": [
    {
      "inputs": [
        {
          "internalType": "address",
          "name": "storageContractAddress",
          "type": "address"
        }
      ],
      "stateMutability": "nonpayable",
      "type": "constructor"
    },
    {
      "inputs": [
        {
          "internalType": "string",
          "name": "betId",
          "type": "string"
        },
        {
          "internalType": "int256",
          "name": "guess",
          "type": "int256"
        }
      ],
      "name": "bet",
      "outputs": [
        {
          "components": [
            {
              "internalType": "uint256",
              "name": "id",
              "type": "uint256"
            },
            {
              "internalType": "address payable",
              "name": "bettor",
              "type": "address"
            },
            {
              "internalType": "uint256",
              "name": "amount",
              "type": "uint256"
            },
            {
              "internalType": "bool",
              "name": "evaluated",
              "type": "bool"
            },
            {
              "internalType": "int256",
              "name": "guess",
              "type": "int256"
            },
            {
              "internalType": "int256",
              "name": "nonce",
              "type": "int256"
            }
          ],
          "internalType": "struct BetBase.Guess",
          "name": "",
          "type": "tuple"
        }
      ],
      "stateMutability": "payable",
      "type": "function"
    },
    {
      "inputs": [
        {
          "internalType": "string",
          "name": "betId",
          "type": "string"
        },
        {
          "internalType": "uint256",
          "name": "guessId",
          "type": "uint256"
        }
      ],
      "name": "claimPrize",
      "outputs": [],
      "stateMutability": "nonpayable",
      "type": "function"
    },
    {
      "inputs": [
        {
          "internalType": "string",
          "name": "id",
          "type": "string"
        },
        {
          "internalType": "string",
          "name": "name",
          "type": "string"
        },
        {
          "internalType": "string",
          "name": "description",
          "type": "string"
        },
        {
          "internalType": "uint256",
          "name": "hash",
          "type": "uint256"
        },
        {
          "internalType": "uint256",
          "name": "course",
          "type": "uint256"
        },
        {
          "internalType": "uint256",
          "name": "bettingDeadline",
          "type": "uint256"
        },
        {
          "internalType": "uint256",
          "name": "answerRevealDeadline",
          "type": "uint256"
        },
        {
          "internalType": "uint256",
          "name": "prizeClaimDeadline",
          "type": "uint256"
        },
        {
          "internalType": "address[]",
          "name": "whitelist",
          "type": "address[]"
        },
        {
          "internalType": "address[]",
          "name": "blacklist",
          "type": "address[]"
        },
        {
          "internalType": "int256[]",
          "name": "restrictedOptions",
          "type": "int256[]"
        }
      ],
      "name": "createBet",
      "outputs": [],
      "stateMutability": "payable",
      "type": "function"
    },
    {
      "inputs": [
        {
          "internalType": "string",
          "name": "betId",
          "type": "string"
        }
      ],
      "name": "finishBet",
      "outputs": [],
      "stateMutability": "nonpayable",
      "type": "function"
    },
    {
      "inputs": [
        {
          "internalType": "string",
          "name": "betId",
          "type": "string"
        }
      ],
      "name": "getBet",
      "outputs": [
        {
          "components": [
            {
              "internalType": "string",
              "name": "id",
              "type": "string"
            },
            {
              "internalType": "address payable",
              "name": "owner",
              "type": "address"
            },
            {
              "internalType": "int256",
              "name": "answer",
              "type": "int256"
            },
            {
              "internalType": "uint256",
              "name": "totalBets",
              "type": "uint256"
            },
            {
              "internalType": "uint256",
              "name": "betLimit",
              "type": "uint256"
            },
            {
              "internalType": "uint256",
              "name": "course",
              "type": "uint256"
            },
            {
              "internalType": "string",
              "name": "name",
              "type": "string"
            },
            {
              "internalType": "string",
              "name": "description",
              "type": "string"
            },
            {
              "internalType": "uint256",
              "name": "bettingDeadline",
              "type": "uint256"
            },
            {
              "internalType": "uint256",
              "name": "answerRevealDeadline",
              "type": "uint256"
            },
            {
              "internalType": "uint256",
              "name": "prizeClaimDeadline",
              "type": "uint256"
            },
            {
              "internalType": "enum BetBase.Status",
              "name": "status",
              "type": "uint8"
            },
            {
              "components": [
                {
                  "internalType": "int256",
                  "name": "value",
                  "type": "int256"
                },
                {
                  "internalType": "uint256",
                  "name": "totalBet",
                  "type": "uint256"
                }
              ],
              "internalType": "struct BetBase.Option[]",
              "name": "options",
              "type": "tuple[]"
            },
            {
              "internalType": "bool",
              "name": "hasRestrictedOptions",
              "type": "bool"
            }
          ],
          "internalType": "struct BetBase.ReturnedBet",
          "name": "",
          "type": "tuple"
        }
      ],
      "stateMutability": "view",
      "type": "function"
    },
    {
      "inputs": [
        {
          "internalType": "string",
          "name": "betId",
          "type": "string"
        }
      ],
      "name": "getEncryptedData",
      "outputs": [
        {
          "internalType": "bytes",
          "name": "",
          "type": "bytes"
        }
      ],
      "stateMutability": "view",
      "type": "function"
    },
    {
      "inputs": [
        {
          "internalType": "string",
          "name": "betId",
          "type": "string"
        },
        {
          "internalType": "uint256",
          "name": "guessId",
          "type": "uint256"
        }
      ],
      "name": "getGuess",
      "outputs": [
        {
          "components": [
            {
              "internalType": "uint256",
              "name": "id",
              "type": "uint256"
            },
            {
              "internalType": "address payable",
              "name": "bettor",
              "type": "address"
            },
            {
              "internalType": "uint256",
              "name": "amount",
              "type": "uint256"
            },
            {
              "internalType": "bool",
              "name": "evaluated",
              "type": "bool"
            },
            {
              "internalType": "int256",
              "name": "guess",
              "type": "int256"
            },
            {
              "internalType": "int256",
              "name": "nonce",
              "type": "int256"
            }
          ],
          "internalType": "struct BetBase.Guess",
          "name": "",
          "type": "tuple"
        }
      ],
      "stateMutability": "view",
      "type": "function"
    },
    {
      "inputs": [
        {
          "internalType": "string",
          "name": "betId",
          "type": "string"
        }
      ],
      "name": "getGuesses",
      "outputs": [
        {
          "components": [
            {
              "internalType": "uint256",
              "name": "id",
              "type": "uint256"
            },
            {
              "internalType": "address payable",
              "name": "bettor",
              "type": "address"
            },
            {
              "internalType": "uint256",
              "name": "amount",
              "type": "uint256"
            },
            {
              "internalType": "bool",
              "name": "evaluated",
              "type": "bool"
            },
            {
              "internalType": "int256",
              "name": "guess",
              "type": "int256"
            },
            {
              "internalType": "int256",
              "name": "nonce",
              "type": "int256"
            }
          ],
          "internalType": "struct BetBase.Guess[]",
          "name": "",
          "type": "tuple[]"
        }
      ],
      "stateMutability": "view",
      "type": "function"
    },
    {
      "inputs": [
        {
          "internalType": "string",
          "name": "betId",
          "type": "string"
        }
      ],
      "name": "getOptions",
      "outputs": [
        {
          "components": [
            {
              "internalType": "int256",
              "name": "value",
              "type": "int256"
            },
            {
              "internalType": "uint256",
              "name": "totalBet",
              "type": "uint256"
            }
          ],
          "internalType": "struct BetBase.Option[]",
          "name": "",
          "type": "tuple[]"
        }
      ],
      "stateMutability": "view",
      "type": "function"
    },
    {
      "inputs": [
        {
          "internalType": "string",
          "name": "betId",
          "type": "string"
        }
      ],
      "name": "getSecretBet",
      "outputs": [
        {
          "components": [
            {
              "internalType": "string",
              "name": "id",
              "type": "string"
            },
            {
              "internalType": "address payable",
              "name": "owner",
              "type": "address"
            },
            {
              "internalType": "int256",
              "name": "answer",
              "type": "int256"
            },
            {
              "internalType": "uint256",
              "name": "totalBets",
              "type": "uint256"
            },
            {
              "internalType": "uint256",
              "name": "betLimit",
              "type": "uint256"
            },
            {
              "internalType": "uint256",
              "name": "course",
              "type": "uint256"
            },
            {
              "internalType": "string",
              "name": "name",
              "type": "string"
            },
            {
              "internalType": "string",
              "name": "description",
              "type": "string"
            },
            {
              "internalType": "uint256",
              "name": "bettingDeadline",
              "type": "uint256"
            },
            {
              "internalType": "uint256",
              "name": "answerRevealDeadline",
              "type": "uint256"
            },
            {
              "internalType": "uint256",
              "name": "prizeClaimDeadline",
              "type": "uint256"
            },
            {
              "internalType": "enum BetBase.Status",
              "name": "status",
              "type": "uint8"
            },
            {
              "components": [
                {
                  "internalType": "int256",
                  "name": "value",
                  "type": "int256"
                },
                {
                  "internalType": "uint256",
                  "name": "totalBet",
                  "type": "uint256"
                }
              ],
              "internalType": "struct BetBase.Option[]",
              "name": "options",
              "type": "tuple[]"
            },
            {
              "internalType": "bool",
              "name": "hasRestrictedOptions",
              "type": "bool"
            }
          ],
          "internalType": "struct BetBase.ReturnedBet",
          "name": "",
          "type": "tuple"
        }
      ],
      "stateMutability": "view",
      "type": "function"
    },
    {
      "inputs": [
        {
          "internalType": "string",
          "name": "guessStorageId",
          "type": "string"
        }
      ],
      "name": "getSecretEncryptedData",
      "outputs": [
        {
          "internalType": "bytes",
          "name": "",
          "type": "bytes"
        }
      ],
      "stateMutability": "view",
      "type": "function"
    },
    {
      "inputs": [
        {
          "internalType": "address",
          "name": "owner",
          "type": "address"
        }
      ],
      "name": "getUserBets",
      "outputs": [
        {
          "components": [
            {
              "internalType": "string",
              "name": "id",
              "type": "string"
            },
            {
              "internalType": "address payable",
              "name": "owner",
              "type": "address"
            },
            {
              "internalType": "int256",
              "name": "answer",
              "type": "int256"
            },
            {
              "internalType": "uint256",
              "name": "totalBets",
              "type": "uint256"
            },
            {
              "internalType": "uint256",
              "name": "betLimit",
              "type": "uint256"
            },
            {
              "internalType": "uint256",
              "name": "course",
              "type": "uint256"
            },
            {
              "internalType": "string",
              "name": "name",
              "type": "string"
            },
            {
              "internalType": "string",
              "name": "description",
              "type": "string"
            },
            {
              "internalType": "uint256",
              "name": "bettingDeadline",
              "type": "uint256"
            },
            {
              "internalType": "uint256",
              "name": "answerRevealDeadline",
              "type": "uint256"
            },
            {
              "internalType": "uint256",
              "name": "prizeClaimDeadline",
              "type": "uint256"
            },
            {
              "internalType": "enum BetBase.Status",
              "name": "status",
              "type": "uint8"
            },
            {
              "components": [
                {
                  "internalType": "int256",
                  "name": "value",
                  "type": "int256"
                },
                {
                  "internalType": "uint256",
                  "name": "totalBet",
                  "type": "uint256"
                }
              ],
              "internalType": "struct BetBase.Option[]",
              "name": "options",
              "type": "tuple[]"
            },
            {
              "internalType": "bool",
              "name": "hasRestrictedOptions",
              "type": "bool"
            }
          ],
          "internalType": "struct BetBase.ReturnedBet[]",
          "name": "",
          "type": "tuple[]"
        }
      ],
      "stateMutability": "view",
      "type": "function"
    },
    {
      "inputs": [
        {
          "internalType": "address",
          "name": "owner",
          "type": "address"
        }
      ],
      "name": "getUserBetsNormal",
      "outputs": [
        {
          "components": [
            {
              "internalType": "string",
              "name": "id",
              "type": "string"
            },
            {
              "internalType": "address payable",
              "name": "owner",
              "type": "address"
            },
            {
              "internalType": "int256",
              "name": "answer",
              "type": "int256"
            },
            {
              "internalType": "uint256",
              "name": "totalBets",
              "type": "uint256"
            },
            {
              "internalType": "uint256",
              "name": "betLimit",
              "type": "uint256"
            },
            {
              "internalType": "uint256",
              "name": "course",
              "type": "uint256"
            },
            {
              "internalType": "string",
              "name": "name",
              "type": "string"
            },
            {
              "internalType": "string",
              "name": "description",
              "type": "string"
            },
            {
              "internalType": "uint256",
              "name": "bettingDeadline",
              "type": "uint256"
            },
            {
              "internalType": "uint256",
              "name": "answerRevealDeadline",
              "type": "uint256"
            },
            {
              "internalType": "uint256",
              "name": "prizeClaimDeadline",
              "type": "uint256"
            },
            {
              "internalType": "enum BetBase.Status",
              "name": "status",
              "type": "uint8"
            },
            {
              "components": [
                {
                  "internalType": "int256",
                  "name": "value",
                  "type": "int256"
                },
                {
                  "internalType": "uint256",
                  "name": "totalBet",
                  "type": "uint256"
                }
              ],
              "internalType": "struct BetBase.Option[]",
              "name": "options",
              "type": "tuple[]"
            },
            {
              "internalType": "bool",
              "name": "hasRestrictedOptions",
              "type": "bool"
            }
          ],
          "internalType": "struct BetBase.ReturnedBet[]",
          "name": "",
          "type": "tuple[]"
        }
      ],
      "stateMutability": "view",
      "type": "function"
    },
    {
      "inputs": [
        {
          "internalType": "address",
          "name": "guesser",
          "type": "address"
        }
      ],
      "name": "getUserGuesses",
      "outputs": [
        {
          "components": [
            {
              "internalType": "uint256",
              "name": "guessId",
              "type": "uint256"
            },
            {
              "internalType": "string",
              "name": "betId",
              "type": "string"
            }
          ],
          "internalType": "struct BetBase.UserGuess[]",
          "name": "",
          "type": "tuple[]"
        }
      ],
      "stateMutability": "view",
      "type": "function"
    },
    {
      "inputs": [
        {
          "internalType": "address",
          "name": "owner",
          "type": "address"
        }
      ],
      "name": "getUserSecretBets",
      "outputs": [
        {
          "components": [
            {
              "internalType": "string",
              "name": "id",
              "type": "string"
            },
            {
              "internalType": "address payable",
              "name": "owner",
              "type": "address"
            },
            {
              "internalType": "int256",
              "name": "answer",
              "type": "int256"
            },
            {
              "internalType": "uint256",
              "name": "totalBets",
              "type": "uint256"
            },
            {
              "internalType": "uint256",
              "name": "betLimit",
              "type": "uint256"
            },
            {
              "internalType": "uint256",
              "name": "course",
              "type": "uint256"
            },
            {
              "internalType": "string",
              "name": "name",
              "type": "string"
            },
            {
              "internalType": "string",
              "name": "description",
              "type": "string"
            },
            {
              "internalType": "uint256",
              "name": "bettingDeadline",
              "type": "uint256"
            },
            {
              "internalType": "uint256",
              "name": "answerRevealDeadline",
              "type": "uint256"
            },
            {
              "internalType": "uint256",
              "name": "prizeClaimDeadline",
              "type": "uint256"
            },
            {
              "internalType": "enum BetBase.Status",
              "name": "status",
              "type": "uint8"
            },
            {
              "components": [
                {
                  "internalType": "int256",
                  "name": "value",
                  "type": "int256"
                },
                {
                  "internalType": "uint256",
                  "name": "totalBet",
                  "type": "uint256"
                }
              ],
              "internalType": "struct BetBase.Option[]",
              "name": "options",
              "type": "tuple[]"
            },
            {
              "internalType": "bool",
              "name": "hasRestrictedOptions",
              "type": "bool"
            }
          ],
          "internalType": "struct BetBase.ReturnedBet[]",
          "name": "",
          "type": "tuple[]"
        }
      ],
      "stateMutability": "view",
      "type": "function"
    },
    {
      "inputs": [
        {
          "internalType": "uint256",
          "name": "money",
          "type": "uint256"
        },
        {
          "internalType": "uint256",
          "name": "course",
          "type": "uint256"
        }
      ],
      "name": "multMoney",
      "outputs": [
        {
          "internalType": "uint256",
          "name": "",
          "type": "uint256"
        }
      ],
      "stateMutability": "pure",
      "type": "function"
    },
    {
      "inputs": [
        {
          "internalType": "string",
          "name": "betId",
          "type": "string"
        },
        {
          "internalType": "int256",
          "name": "revealedNumber",
          "type": "int256"
        },
        {
          "internalType": "int256",
          "name": "nonce",
          "type": "int256"
        }
      ],
      "name": "revealNumber",
      "outputs": [],
      "stateMutability": "nonpayable",
      "type": "function"
    },
    {
      "inputs": [
        {
          "internalType": "string",
          "name": "betId",
          "type": "string"
        }
      ],
      "name": "topUp",
      "outputs": [],
      "stateMutability": "payable",
      "type": "function"
    },
    {
      "inputs": [
        {
          "internalType": "address",
          "name": "",
          "type": "address"
        },
        {
          "internalType": "uint256",
          "name": "",
          "type": "uint256"
        }
      ],
      "name": "userBets",
      "outputs": [
        {
          "internalType": "string",
          "name": "",
          "type": "string"
        }
      ],
      "stateMutability": "view",
      "type": "function"
    },
    {
      "inputs": [
        {
          "internalType": "address",
          "name": "",
          "type": "address"
        },
        {
          "internalType": "uint256",
          "name": "",
          "type": "uint256"
        }
      ],
      "name": "userGuesses",
      "outputs": [
        {
          "internalType": "uint256",
          "name": "guessId",
          "type": "uint256"
        },
        {
          "internalType": "string",
          "name": "betId",
          "type": "string"
        }
      ],
      "stateMutability": "view",
      "type": "function"
    },
    {
      "inputs": [
        {
          "internalType": "int256",
          "name": "answer",
          "type": "int256"
        },
        {
          "internalType": "int256",
          "name": "nonce",
          "type": "int256"
        }
      ],
      "name": "valueToBinary",
      "outputs": [
        {
          "internalType": "bytes",
          "name": "",
          "type": "bytes"
        }
      ],
      "stateMutability": "pure",
      "type": "function"
    },
    {
      "inputs": [
        {
          "internalType": "string",
          "name": "betId",
          "type": "string"
        },
        {
          "internalType": "address",
          "name": "guesser",
          "type": "address"
        }
      ],
      "name": "whitelistAddress",
      "outputs": [],
      "stateMutability": "nonpayable",
      "type": "function"
    }
  ],
  "bytecode": "0x60806040523480156200001157600080fd5b50604051620045d0380380620045d083398101604081905262000034916200005f565b6001600081905580546001600160a01b0319166001600160a01b039290921691909117905562000091565b6000602082840312156200007257600080fd5b81516001600160a01b03811681146200008a57600080fd5b9392505050565b61452f80620000a16000396000f3fe6080604052600436106101755760003560e01c80638068aa68116100cb578063acf694a71161007f578063c78aa48d11610059578063c78aa48d146103fb578063d8b3226414610428578063f473375f1461045557600080fd5b8063acf694a71461017a578063b4281165146103ba578063c678da52146103cd57600080fd5b8063970d593d116100b0578063970d593d146103595780639ee4e3eb14610387578063a82366cc146103a757600080fd5b80638068aa681461031957806387d445571461033957600080fd5b80632d754dda1161012d57806349e4622c1161010757806349e4622c1461029f5780636a74d6c6146102bf5780637f68d5ba146102ec57600080fd5b80632d754dda146102325780633a77383f146102525780633ef5451c1461027f57600080fd5b80631887580b1161015e5780631887580b146101c55780631c099e46146101e55780632d56657d1461020557600080fd5b8063078d16001461017a57806309cc5551146101b0575b600080fd5b34801561018657600080fd5b5061019a6101953660046137bf565b610475565b6040516101a791906139cf565b60405180910390f35b6101c36101be366004613a2b565b610525565b005b3480156101d157600080fd5b506101c36101e0366004613a6d565b61082b565b3480156101f157600080fd5b506101c3610200366004613aca565b610d10565b34801561021157600080fd5b50610225610220366004613b1c565b610fc7565b6040516101a79190613b39565b34801561023e57600080fd5b5061022561024d366004613b1c565b611176565b34801561025e57600080fd5b5061027261026d3660046137bf565b611308565b6040516101a79190613b9b565b34801561028b57600080fd5b506101c361029a3660046137bf565b61138d565b3480156102ab57600080fd5b506102726102ba3660046137bf565b611559565b3480156102cb57600080fd5b506102df6102da366004613a6d565b61164c565b6040516101a79190613bae565b3480156102f857600080fd5b5061030c6103073660046137bf565b61179e565b6040516101a79190613bfc565b34801561032557600080fd5b50610272610334366004613c4e565b6118a3565b34801561034557600080fd5b50610272610354366004613c7a565b61195c565b34801561036557600080fd5b50610379610374366004613c7a565b611985565b6040519081526020016101a7565b34801561039357600080fd5b506102256103a2366004613b1c565b6119ab565b6102df6103b5366004613c9c565b611b3d565b6101c36103c8366004613dd6565b6122ae565b3480156103d957600080fd5b506103ed6103e8366004613c4e565b612434565b6040516101a7929190613f31565b34801561040757600080fd5b5061041b610416366004613b1c565b6124fd565b6040516101a79190613f4a565b34801561043457600080fd5b506104486104433660046137bf565b61260e565b6040516101a79190613fbe565b34801561046157600080fd5b506101c3610470366004614040565b612737565b61047d613671565b8160038160405161048e9190614091565b90815260405190819003602001902080546104a8906140ad565b905060001415816040516020016104bf91906140e1565b604051602081830303815290604052906104f55760405162461bcd60e51b81526004016104ec9190613b9b565b60405180910390fd5b5061051c6003846040516105099190614091565b9081526020016040518091039020612b85565b91505b50919050565b81818080601f016020809104026020016040519081016040528093929190818152602001838380828437600092019190915250506040516003925061056c91508390614091565b9081526040519081900360200190208054610586906140ad565b9050600014158160405160200161059d91906140e1565b604051602081830303815290604052906105ca5760405162461bcd60e51b81526004016104ec9190613b9b565b5082828080601f016020809104026020016040519081016040528093929190818152602001838380828437600092019190915250506040516003925061061291508390614091565b908152602001604051809103902060090154421061066a5760405162461bcd60e51b81526020600482015260156024820152742132ba1034b9903737903637b733b2b91037b832b760591b60448201526064016104ec565b600160038260405161067c9190614091565b908152604051908190036020019020600c015460ff1660048111156106a3576106a361384c565b146106e85760405162461bcd60e51b81526020600482015260156024820152742132ba1034b9903737903637b733b2b91037b832b760591b60448201526064016104ec565b83838080601f016020809104026020016040519081016040528093929190818152602001838380828437600092019190915250506040516003925061072f91508390614091565b90815260405190819003602001902060030154336001600160a01b039091161461079b5760405162461bcd60e51b815260206004820152601860248201527f596f75206e65656420746f20626520746865206f776e6572000000000000000060448201526064016104ec565b60013410156107ec5760405162461bcd60e51b815260206004820152601b60248201527f596f75206e65656420746f2073656e6420736f6d65206d6f6e6579000000000060448201526064016104ec565b34600386866040516107ff929190614126565b9081526020016040518091039020600701600082825461081f919061414c565b90915550505050505050565b60026000540361087d5760405162461bcd60e51b815260206004820152601f60248201527f5265656e7472616e637947756172643a207265656e7472616e742063616c6c0060448201526064016104ec565b60026000556040518290600390610895908390614091565b90815260405190819003602001902080546108af906140ad565b905060001415816040516020016108c691906140e1565b604051602081830303815290604052906108f35760405162461bcd60e51b81526004016104ec9190613b9b565b50826003816040516109059190614091565b9081526020016040518091039020600a015442116109775760405162461bcd60e51b815260206004820152602960248201527f497420697320746f6f20736f6f6e2c20646561646c696e6520776173206e6f74604482015268103932b0b1b432b21760b91b60648201526084016104ec565b6003816040516109879190614091565b9081526020016040518091039020600b0154421115610a0e5760405162461bcd60e51b815260206004820152602e60248201527f497420697320616c7265616479206166746572207072697a6520636c61696d2060448201527f646561646c696e65206c6174652e00000000000000000000000000000000000060648201526084016104ec565b8383600382604051610a209190614091565b9081526020016040518091039020600f018181548110610a4257610a4261415f565b60009182526020909120600690910201600101546001600160a01b03163314610aad5760405162461bcd60e51b815260206004820152601960248201527f596f75206e65656420746f2062652074686520626574746f720000000000000060448201526064016104ec565b8585600382604051610abf9190614091565b9081526020016040518091039020600f018181548110610ae157610ae161415f565b600091825260209091206003600690920201015460ff1615610b455760405162461bcd60e51b815260206004820152601a60248201527f477565732077617320616c7265616479206576616c756174656400000000000060448201526064016104ec565b6000600389604051610b579190614091565b90815260200160405180910390209050600081600f018981548110610b7e57610b7e61415f565b6000918252602090912060069091020190506003600c83015460ff166004811115610bab57610bab61384c565b1115610bf15760405162461bcd60e51b81526020600482015260156024820152742132ba1034b9903737903637b733b2b91037b832b760591b60448201526064016104ec565b806004015482600401541480610c1f57506001600c83015460ff166004811115610c1d57610c1d61384c565b145b80610c4f5750601382015460ff168015610c4f57506004820154600090815260128301602052604090205460ff16155b15610cf1576001810154600282015460088401546001600160a01b03909216916108fc91610c7c91611985565b6040518115909202916000818181858888f19350505050158015610ca4573d6000803e3d6000fd5b50610cba81600201546103748460080154612e57565b826007016000828254610ccd9190614175565b90915550506002810154600683018054600090610ceb908490614175565b90915550505b600301805460ff19166001908117909155600055505050505050505050565b81600381604051610d219190614091565b9081526040519081900360200190208054610d3b906140ad565b90506000141581604051602001610d5291906140e1565b60405160208183030381529060405290610d7f5760405162461bcd60e51b81526004016104ec9190613b9b565b5082600381604051610d919190614091565b9081526020016040518091039020600901544210610de95760405162461bcd60e51b81526020600482015260156024820152742132ba1034b9903737903637b733b2b91037b832b760591b60448201526064016104ec565b6001600382604051610dfb9190614091565b908152604051908190036020019020600c015460ff166004811115610e2257610e2261384c565b14610e675760405162461bcd60e51b81526020600482015260156024820152742132ba1034b9903737903637b733b2b91037b832b760591b60448201526064016104ec565b6000600385604051610e799190614091565b908152604051908190036020019020600c81015490915060ff61010090910416610f0b5760405162461bcd60e51b815260206004820152603760248201527f596f752063616e6e6f742061646420746f2077686974656c697374206966207460448201527f6865726520776173206e6f74206f6e65206265666f726500000000000000000060648201526084016104ec565b6001600160a01b0384166000908152600d8201602052604090205460ff1615610f9b5760405162461bcd60e51b8152602060048201526024808201527f4775657373657220686173206265656e2077686974656c6973746520616c726560448201527f6164792e0000000000000000000000000000000000000000000000000000000060648201526084016104ec565b6001600160a01b039093166000908152600d909301602052505060409020805460ff1916600117905550565b6001600160a01b0381166000908152600260209081526040808320805482518185028101850190935280835260609493849084015b828210156110a857838290600052602060002001805461101b906140ad565b80601f0160208091040260200160405190810160405280929190818152602001828054611047906140ad565b80156110945780601f1061106957610100808354040283529160200191611094565b820191906000526020600020905b81548152906001019060200180831161107757829003601f168201915b505050505081526020019060010190610ffc565b5050505090506000815167ffffffffffffffff8111156110ca576110ca6136fa565b60405190808252806020026020018201604052801561110357816020015b6110f0613671565b8152602001906001900390816110e85790505b50905060005b815181101561116e5761113e60038483815181106111295761112961415f565b60200260200101516040516105099190614091565b8282815181106111505761115061415f565b6020026020010181905250808061116690614188565b915050611109565b509392505050565b6001600160a01b0381166000908152600260209081526040808320805482518185028101850190935280835260609493849084015b828210156112575783829060005260206000200180546111ca906140ad565b80601f01602080910402602001604051908101604052809291908181526020018280546111f6906140ad565b80156112435780601f1061121857610100808354040283529160200191611243565b820191906000526020600020905b81548152906001019060200180831161122657829003601f168201915b5050505050815260200190600101906111ab565b5050505090506000815167ffffffffffffffff811115611279576112796136fa565b6040519080825280602002602001820160405280156112b257816020015b61129f613671565b8152602001906001900390816112975790505b50905060005b815181101561116e576112d860038483815181106111295761112961415f565b8282815181106112ea576112ea61415f565b6020026020010181905250808061130090614188565b9150506112b8565b60015460405163407288c360e11b81526060916000916001600160a01b03909116906380e511869061133e908690600401613b9b565b600060405180830381865afa15801561135b573d6000803e3d6000fd5b505050506040513d6000823e601f3d908101601f1916820160405261138391908101906141d1565b9695505050505050565b6002600054036113df5760405162461bcd60e51b815260206004820152601f60248201527f5265656e7472616e637947756172643a207265656e7472616e742063616c6c0060448201526064016104ec565b600260005560405181906003906113f7908390614091565b9081526040519081900360200190208054611411906140ad565b9050600014158160405160200161142891906140e1565b604051602081830303815290604052906114555760405162461bcd60e51b81526004016104ec9190613b9b565b5060006003836040516114689190614091565b9081526020016040518091039020905080600b015442116114f15760405162461bcd60e51b815260206004820152603360248201527f497420697320746f6f20736f6f6e2c207072697a65436c61696d446561646c6960448201527f6e6520776173206e6f7420726561636865642e0000000000000000000000000060648201526084016104ec565b6003810154600682015460078301546001600160a01b03909216916108fc916115199161414c565b6040518115909202916000818181858888f19350505050158015611541573d6000803e3d6000fd5b50600c01805460ff1916600417905550506001600055565b60608160038160405161156c9190614091565b9081526040519081900360200190208054611586906140ad565b9050600014158160405160200161159d91906140e1565b604051602081830303815290604052906115ca5760405162461bcd60e51b81526004016104ec9190613b9b565b5060015460405163407288c360e11b81526000916001600160a01b0316906380e51186906115fc908790600401613b9b565b600060405180830381865afa158015611619573d6000803e3d6000fd5b505050506040513d6000823e601f3d908101601f1916820160405261164191908101906141d1565b979650505050505050565b6116906040518060c001604052806000815260200160006001600160a01b031681526020016000815260200160001515815260200160008152602001600081525090565b826003816040516116a19190614091565b90815260405190819003602001902080546116bb906140ad565b905060001415816040516020016116d291906140e1565b604051602081830303815290604052906116ff5760405162461bcd60e51b81526004016104ec9190613b9b565b506003846040516117109190614091565b9081526020016040518091039020600f0183815481106117325761173261415f565b60009182526020918290206040805160c08101825260069093029091018054835260018101546001600160a01b031693830193909352600283015490820152600382015460ff16151560608201526004820154608082015260059091015460a082015291505092915050565b6060816003816040516117b19190614091565b90815260405190819003602001902080546117cb906140ad565b905060001415816040516020016117e291906140e1565b6040516020818303038152906040529061180f5760405162461bcd60e51b81526004016104ec9190613b9b565b506003836040516118209190614091565b9081526020016040518091039020601001805480602002602001604051908101604052809291908181526020016000905b8282101561189757838290600052602060002090600202016040518060400160405290816000820154815260200160018201548152505081526020019060010190611851565b50505050915050919050565b600260205281600052604060002081815481106118bf57600080fd5b906000526020600020016000915091505080546118db906140ad565b80601f0160208091040260200160405190810160405280929190818152602001828054611907906140ad565b80156119545780601f1061192957610100808354040283529160200191611954565b820191906000526020600020905b81548152906001019060200180831161193757829003601f168201915b505050505081565b604080516020810184905280820183905281518082038301815260609091019091525b92915050565b600067016345785d8a000061199a838561427d565b6119a49190614294565b9392505050565b6001600160a01b0381166000908152600260209081526040808320805482518185028101850190935280835260609493849084015b82821015611a8c5783829060005260206000200180546119ff906140ad565b80601f0160208091040260200160405190810160405280929190818152602001828054611a2b906140ad565b8015611a785780601f10611a4d57610100808354040283529160200191611a78565b820191906000526020600020905b815481529060010190602001808311611a5b57829003601f168201915b5050505050815260200190600101906119e0565b5050505090506000815167ffffffffffffffff811115611aae57611aae6136fa565b604051908082528060200260200182016040528015611ae757816020015b611ad4613671565b815260200190600190039081611acc5790505b50905060005b815181101561116e57611b0d60038483815181106111295761112961415f565b828281518110611b1f57611b1f61415f565b60200260200101819052508080611b3590614188565b915050611aed565b611b816040518060c001604052806000815260200160006001600160a01b031681526020016000815260200160001515815260200160008152602001600081525090565b6001341015611bd25760405162461bcd60e51b815260206004820152601b60248201527f596f75206e65656420746f2073656e6420736f6d65206d6f6e6579000000000060448201526064016104ec565b83838080601f0160208091040260200160405190810160405280939291908181526020018383808284376000920191909152505060405160039250611c1991508390614091565b9081526040519081900360200190208054611c33906140ad565b90506000141581604051602001611c4a91906140e1565b60405160208183030381529060405290611c775760405162461bcd60e51b81526004016104ec9190613b9b565b5084848080601f0160208091040260200160405190810160405280939291908181526020018383808284376000920191909152505060405160039250611cbf91508390614091565b9081526020016040518091039020600901544210611d175760405162461bcd60e51b81526020600482015260156024820152742132ba1034b9903737903637b733b2b91037b832b760591b60448201526064016104ec565b6001600382604051611d299190614091565b908152604051908190036020019020600c015460ff166004811115611d5057611d5061384c565b14611d955760405162461bcd60e51b81526020600482015260156024820152742132ba1034b9903737903637b733b2b91037b832b760591b60448201526064016104ec565b85858080601f0160208091040260200160405190810160405280939291908181526020018383808284376000920191909152505060405160039250611ddc91508390614091565b908152604051908190036020019020600c015460ff610100909104161580611e355750600381604051611e0f9190614091565b9081526040805160209281900383019020336000908152600d90910190925290205460ff165b611ea75760405162461bcd60e51b815260206004820152603c60248201527f43726561746572206f66207468652062657420646964206e6f742077616e742060448201527f796f7520746f2074616b65207061727420696e2074686973206265740000000060648201526084016104ec565b86868080601f0160208091040260200160405190810160405280939291908181526020018383808284376000920191909152505060405160039250611eee91508390614091565b9081526040805160209281900383019020336000908152600e90910190925290205460ff1615611f605760405162461bcd60e51b815260206004820152601e60248201527f596f75207765726520626c61636b6c697374656420627920617574686f72000060448201526064016104ec565b600060038989604051611f74929190614126565b90815260405190819003602001902060038101549091506001600160a01b03163303611fe25760405162461bcd60e51b815260206004820152601f60248201527f596f752063616e6e6f7420626574206f6e20796f7572206f776e204265742e0060448201526064016104ec565b8060070154612007348360060154611ffa919061414c565b6103748460080154612e57565b11156120a15760405162461bcd60e51b815260206004820152605360248201527f5468657265206973206e6f7420656e6f756768206d6f6e657920696e2061207660448201527f61756c7420746f2070617920796f7520696620796f752077696e2e205468652060648201527f6d6f737420796f752063616e2062657420697300000000000000000000000000608482015260a4016104ec565b600f8101546040805160c081018252828152336020808301919091523482840152600060608301819052608083018c905260a083018190528b815260128601909152919091205460ff1661215957601383015460ff16156121595760405162461bcd60e51b815260206004820152602c60248201527f42657474696e67206973207265737472696374656420746f206f6e6c7920676960448201526b3b32b71037b83a34b7b7399760a11b60648201526084016104ec565b6121638382612e6b565b34836006016000828254612177919061414c565b9091555050600f83018054600180820183556000928352602080842085516006909402019283558481015191830180547fffffffffffffffffffffffff0000000000000000000000000000000000000000166001600160a01b03909316929092179091556040808501516002840155606085015160038401805460ff1916911515919091179055608085015160048085019190915560a08601516005909401939093553384529181529181902081518083018352845181528251601f8f018590048502810185019093528d835290929091828201918f908f9081908401838280828437600092018290525093909452505083546001818101865594825260209182902084516002909202019081559083015192939092908301915061229c9082614305565b50919c9b505050505050505050505050565b428610156122fe5760405162461bcd60e51b815260206004820152601760248201527f646561646c696e6520616c72656164792070617373656400000000000000000060448201526064016104ec565b8585101561230b57600080fd5b67016345785d8a000087116123885760405162461bcd60e51b815260206004820152602860248201527f596f757220636f75727365206e6565647320746f20626520686967686572207460448201527f68616e203165313700000000000000000000000000000000000000000000000060648201526084016104ec565b6001546040517f91a81bc30000000000000000000000000000000000000000000000000000000081526001600160a01b03909116906391a81bc3906123d5908f908f908d906004016143ee565b600060405180830381600087803b1580156123ef57600080fd5b505af1158015612403573d6000803e3d6000fd5b505050506124148c8c888888612fbf565b6124268c8c8c8c33348d8a8a8a6130ed565b505050505050505050505050565b6004602052816000526040600020818154811061245057600080fd5b90600052602060002090600202016000915091505080600001549080600101805461247a906140ad565b80601f01602080910402602001604051908101604052809291908181526020018280546124a6906140ad565b80156124f35780601f106124c8576101008083540402835291602001916124f3565b820191906000526020600020905b8154815290600101906020018083116124d657829003601f168201915b5050505050905082565b6001600160a01b0381166000908152600460209081526040808320805482518185028101850190935280835260609492939192909184015b82821015612603578382906000526020600020906002020160405180604001604052908160008201548152602001600182018054612572906140ad565b80601f016020809104026020016040519081016040528092919081815260200182805461259e906140ad565b80156125eb5780601f106125c0576101008083540402835291602001916125eb565b820191906000526020600020905b8154815290600101906020018083116125ce57829003601f168201915b50505050508152505081526020019060010190612535565b505050509050919050565b6060816003816040516126219190614091565b908152604051908190036020019020805461263b906140ad565b9050600014158160405160200161265291906140e1565b6040516020818303038152906040529061267f5760405162461bcd60e51b81526004016104ec9190613b9b565b506003836040516126909190614091565b9081526020016040518091039020600f01805480602002602001604051908101604052809291908181526020016000905b828210156118975760008481526020908190206040805160c08101825260068602909201805483526001808201546001600160a01b031684860152600282015492840192909252600381015460ff1615156060840152600481015460808401526005015460a083015290835290920191016126c1565b6002600054036127895760405162461bcd60e51b815260206004820152601f60248201527f5265656e7472616e637947756172643a207265656e7472616e742063616c6c0060448201526064016104ec565b6002600055604080516020601f860181900481028201810190925284815290859085908190840183828082843760009201919091525050604051600392506127d391508390614091565b90815260405190819003602001902080546127ed906140ad565b9050600014158160405160200161280491906140e1565b604051602081830303815290604052906128315760405162461bcd60e51b81526004016104ec9190613b9b565b5084848080601f016020809104026020016040519081016040528093929190818152602001838380828437600092019190915250506040516003925061287991508390614091565b90815260200160405180910390206009015442116128eb5760405162461bcd60e51b815260206004820152602960248201527f497420697320746f6f20736f6f6e2c20646561646c696e6520776173206e6f74604482015268103932b0b1b432b21760b91b60648201526084016104ec565b6003816040516128fb9190614091565b9081526020016040518091039020600a015442111561295c5760405162461bcd60e51b815260206004820152600f60248201527f497420697320746f6f206c6174652e000000000000000000000000000000000060448201526064016104ec565b85858080601f01602080910402602001604051908101604052809392919081815260200183838082843760009201919091525050604051600392506129a391508390614091565b90815260405190819003602001902060030154336001600160a01b0390911614612a0f5760405162461bcd60e51b815260206004820152601860248201527f596f75206e65656420746f20626520746865206f776e6572000000000000000060448201526064016104ec565b86868080601f01602080910402602001604051908101604052809392919081815260200183838082843760009201919091525060019250612a4e915050565b600382604051612a5e9190614091565b908152604051908190036020019020600c015460ff166004811115612a8557612a8561384c565b14612aca5760405162461bcd60e51b81526020600482015260156024820152742132ba1034b9903737903637b733b2b91037b832b760591b60448201526064016104ec565b600060038989604051612ade929190614126565b9081526040519081900360200190206001549091506001600160a01b031663ca52d5168a8a612b0d8b8b61195c565b6040518463ffffffff1660e01b8152600401612b2b93929190614412565b600060405180830381600087803b158015612b4557600080fd5b505af1158015612b59573d6000803e3d6000fd5b505050506004810196909655505050506005820155600c01805460ff1916600317905550506001600055565b612b8d613671565b604051806101c00160405280836000018054612ba8906140ad565b80601f0160208091040260200160405190810160405280929190818152602001828054612bd4906140ad565b8015612c215780601f10612bf657610100808354040283529160200191612c21565b820191906000526020600020905b815481529060010190602001808311612c0457829003601f168201915b505050918352505060038401546001600160a01b03166020820152600484015460408201526006840154606082015260078401546080820152600884015460a082015260018401805460c090920191612c79906140ad565b80601f0160208091040260200160405190810160405280929190818152602001828054612ca5906140ad565b8015612cf25780601f10612cc757610100808354040283529160200191612cf2565b820191906000526020600020905b815481529060010190602001808311612cd557829003601f168201915b50505050508152602001836002018054612d0b906140ad565b80601f0160208091040260200160405190810160405280929190818152602001828054612d37906140ad565b8015612d845780601f10612d5957610100808354040283529160200191612d84565b820191906000526020600020905b815481529060010190602001808311612d6757829003601f168201915b505050918352505060098401546020820152600a8401546040820152600b8401546060820152600c84015460809091019060ff166004811115612dc957612dc961384c565b815260200183601001805480602002602001604051908101604052809291908181526020016000905b82821015612e3857838290600052602060002090600202016040518060400160405290816000820154815260200160018201548152505081526020019060010190612df2565b5050509082525060139093015460ff1615156020909301929092525090565b600061197f67016345785d8a000083614175565b6080810151600090815260128301602052604090205460ff16612f6357601382015460ff1615612ef25760405162461bcd60e51b815260206004820152602c60248201527f42657474696e67206973207265737472696374656420746f206f6e6c7920676960448201526b3b32b71037b83a34b7b7399760a11b60648201526084016104ec565b60808101805160009081526012840160209081526040808320805460ff19166001908117909155601087018054865186526011909801845282852088905582518084018452955186529190950151848301908152868601825590835291209151600290940290910192835551910155565b6080810151600090815260118301602052604090819020549082015160108401805483908110612f9557612f9561415f565b90600052602060002090600202016001016000828254612fb5919061414c565b9091555050505050565b84848080601f016020809104026020016040519081016040528093929190818152602001838380828437600092019190915250506040516003925061300691508390614091565b9081526040519081900360200190208054613020906140ad565b15905061306f5760405162461bcd60e51b815260206004820152601260248201527f42657420616c726561647920657869737473000000000000000000000000000060448201526064016104ec565b8360038787604051613082929190614126565b90815260200160405180910390206009018190555082600387876040516130aa929190614126565b9081526020016040518091039020600a018190555081600387876040516130d2929190614126565b908152604051908190036020019020600b0155505050505050565b89898080601f016020809104026020016040519081016040528093929190818152602001838380828437600092019190915250506040516003925061313491508390614091565b908152604051908190036020019020805461314e906140ad565b15905061319d5760405162461bcd60e51b815260206004820152601260248201527f42657420616c726561647920657869737473000000000000000000000000000060448201526064016104ec565b8a8a60038d8d6040516131b1929190614126565b908152604051908190036020019020916131cc919083614438565b508860038c8c6040516131e0929190614126565b908152602001604051809103902060010190816131fd9190614305565b508760038c8c604051613211929190614126565b9081526020016040518091039020600201908161322e9190614305565b508660038c8c604051613242929190614126565b908152602001604051809103902060030160006101000a8154816001600160a01b0302191690836001600160a01b03160217905550600060038c8c60405161328b929190614126565b9081526020016040518091039020600601819055508560038c8c6040516132b3929190614126565b9081526020016040518091039020600701819055508460038c8c6040516132db929190614126565b908152602001604051809103902060080181905550600160038c8c604051613304929190614126565b908152604051908190036020019020600c01805460ff191660018360048111156133305761333061384c565b021790555083511561340357600160038c8c604051613350929190614126565b908152604051908190036020019020600c0180549115156101000261ff001990921691909117905560005b845181101561340157600160038d8d604051613398929190614126565b9081526020016040518091039020600d0160008784815181106133bd576133bd61415f565b6020908102919091018101516001600160a01b03168252810191909152604001600020805460ff1916911515919091179055806133f981614188565b91505061337b565b505b8251156134955760005b835181101561349357600160038d8d60405161342a929190614126565b9081526020016040518091039020600e01600086848151811061344f5761344f61415f565b6020908102919091018101516001600160a01b03168252810191909152604001600020805460ff19169115159190911790558061348b81614188565b91505061340d565b505b81511561364757600160038c8c6040516134b0929190614126565b908152604051908190036020019020601301805491151560ff1990921691909117905560005b825181101561364557600160038d8d6040516134f3929190614126565b908152602001604051809103902060120160008584815181106135185761351861415f565b6020026020010151815260200190815260200160002060006101000a81548160ff02191690831515021790555060038c8c604051613557929190614126565b908152604051908190036020018120601001549060039061357b908f908f90614126565b908152602001604051809103902060110160008584815181106135a0576135a061415f565b602002602001015181526020019081526020016000208190555060038c8c6040516135cc929190614126565b908152602001604051809103902060100160405180604001604052808584815181106135fa576135fa61415f565b6020908102919091018101518252600091810182905283546001818101865594835291819020835160029093020191825591909101519101558061363d81614188565b9150506134d6565b505b336000908152600260209081526040822080546001810182559083529120016124268b8d83614438565b604051806101c001604052806060815260200160006001600160a01b03168152602001600081526020016000815260200160008152602001600081526020016060815260200160608152602001600081526020016000815260200160008152602001600060048111156136e6576136e661384c565b815260606020820152600060409091015290565b634e487b7160e01b600052604160045260246000fd5b604051601f8201601f1916810167ffffffffffffffff81118282101715613739576137396136fa565b604052919050565b600067ffffffffffffffff82111561375b5761375b6136fa565b50601f01601f191660200190565b600082601f83011261377a57600080fd5b813561378d61378882613741565b613710565b8181528460208386010111156137a257600080fd5b816020850160208301376000918101602001919091529392505050565b6000602082840312156137d157600080fd5b813567ffffffffffffffff8111156137e857600080fd5b6137f484828501613769565b949350505050565b60005b838110156138175781810151838201526020016137ff565b50506000910152565b600081518084526138388160208601602086016137fc565b601f01601f19169290920160200192915050565b634e487b7160e01b600052602160045260246000fd5b6005811061388057634e487b7160e01b600052602160045260246000fd5b9052565b600081518084526020808501945080840160005b838110156138c2578151805188526020908101519088015260408701965090820190600101613898565b509495945050505050565b60006101c082518185526138e382860182613820565b915050602083015161390060208601826001600160a01b03169052565b5060408301516040850152606083015160608501526080830151608085015260a083015160a085015260c083015184820360c08601526139408282613820565b91505060e083015184820360e086015261395a8282613820565b61010085810151908701526101208086015190870152610140808601519087015261016080860151919350915061399382870182613862565b505061018080840151858303828701526139ad8382613884565b925050506101a0808401516139c58287018215159052565b5090949350505050565b6020815260006119a460208301846138cd565b60008083601f8401126139f457600080fd5b50813567ffffffffffffffff811115613a0c57600080fd5b602083019150836020828501011115613a2457600080fd5b9250929050565b60008060208385031215613a3e57600080fd5b823567ffffffffffffffff811115613a5557600080fd5b613a61858286016139e2565b90969095509350505050565b60008060408385031215613a8057600080fd5b823567ffffffffffffffff811115613a9757600080fd5b613aa385828601613769565b95602094909401359450505050565b6001600160a01b0381168114613ac757600080fd5b50565b60008060408385031215613add57600080fd5b823567ffffffffffffffff811115613af457600080fd5b613b0085828601613769565b9250506020830135613b1181613ab2565b809150509250929050565b600060208284031215613b2e57600080fd5b81356119a481613ab2565b6000602080830181845280855180835260408601915060408160051b870101925083870160005b82811015613b8e57603f19888603018452613b7c8583516138cd565b94509285019290850190600101613b60565b5092979650505050505050565b6020815260006119a46020830184613820565b60c0810161197f8284805182526001600160a01b036020820151166020830152604081015160408301526060810151151560608301526080810151608083015260a081015160a08301525050565b6020808252825182820181905260009190848201906040850190845b81811015613c42578351805184526020908101519084015260408301938501939250600101613c18565b50909695505050505050565b60008060408385031215613c6157600080fd5b8235613c6c81613ab2565b946020939093013593505050565b60008060408385031215613c8d57600080fd5b50508035926020909101359150565b600080600060408486031215613cb157600080fd5b833567ffffffffffffffff811115613cc857600080fd5b613cd4868287016139e2565b909790965060209590950135949350505050565b600067ffffffffffffffff821115613d0257613d026136fa565b5060051b60200190565b600082601f830112613d1d57600080fd5b81356020613d2d61378883613ce8565b82815260059290921b84018101918181019086841115613d4c57600080fd5b8286015b84811015613d70578035613d6381613ab2565b8352918301918301613d50565b509695505050505050565b600082601f830112613d8c57600080fd5b81356020613d9c61378883613ce8565b82815260059290921b84018101918181019086841115613dbb57600080fd5b8286015b84811015613d705780358352918301918301613dbf565b6000806000806000806000806000806000806101608d8f031215613df957600080fd5b67ffffffffffffffff8d351115613e0f57600080fd5b613e1c8e8e358f016139e2565b909c509a5067ffffffffffffffff60208e01351115613e3a57600080fd5b613e4a8e60208f01358f01613769565b995067ffffffffffffffff60408e01351115613e6557600080fd5b613e758e60408f01358f01613769565b985060608d0135975060808d0135965060a08d0135955060c08d0135945060e08d0135935067ffffffffffffffff6101008e01351115613eb457600080fd5b613ec58e6101008f01358f01613d0c565b925067ffffffffffffffff6101208e01351115613ee157600080fd5b613ef28e6101208f01358f01613d0c565b915067ffffffffffffffff6101408e01351115613f0e57600080fd5b613f1f8e6101408f01358f01613d7b565b90509295989b509295989b509295989b565b8281526040602082015260006137f46040830184613820565b60006020808301818452808551808352604092508286019150828160051b87010184880160005b83811015613fb057888303603f19018552815180518452870151878401879052613f9d87850182613820565b9588019593505090860190600101613f71565b509098975050505050505050565b6020808252825182820181905260009190848201906040850190845b81811015613c425761402d838551805182526001600160a01b036020820151166020830152604081015160408301526060810151151560608301526080810151608083015260a081015160a08301525050565b9284019260c09290920191600101613fda565b6000806000806060858703121561405657600080fd5b843567ffffffffffffffff81111561406d57600080fd5b614079878288016139e2565b90989097506020870135966040013595509350505050565b600082516140a38184602087016137fc565b9190910192915050565b600181811c908216806140c157607f821691505b60208210810361051f57634e487b7160e01b600052602260045260246000fd5b7f4261736542657420646f6573206e6f742065786973743a2000000000000000008152600082516141198160188501602087016137fc565b9190910160180192915050565b8183823760009101908152919050565b634e487b7160e01b600052601160045260246000fd5b8082018082111561197f5761197f614136565b634e487b7160e01b600052603260045260246000fd5b8181038181111561197f5761197f614136565b60006001820161419a5761419a614136565b5060010190565b60006141af61378884613741565b90508281528383830111156141c357600080fd5b6119a48360208301846137fc565b600080600080608085870312156141e757600080fd5b845167ffffffffffffffff808211156141ff57600080fd5b818701915087601f83011261421357600080fd5b614222888351602085016141a1565b95506020870151915061423482613ab2565b6040870151606088015192955093508082111561425057600080fd5b508501601f8101871361426257600080fd5b614271878251602084016141a1565b91505092959194509250565b808202811582820484141761197f5761197f614136565b6000826142b157634e487b7160e01b600052601260045260246000fd5b500490565b601f82111561430057600081815260208120601f850160051c810160208610156142dd5750805b601f850160051c820191505b818110156142fc578281556001016142e9565b5050505b505050565b815167ffffffffffffffff81111561431f5761431f6136fa565b6143338161432d84546140ad565b846142b6565b602080601f83116001811461436857600084156143505750858301515b600019600386901b1c1916600185901b1785556142fc565b600085815260208120601f198616915b8281101561439757888601518255948401946001909101908401614378565b50858210156143b55787850151600019600388901b60f8161c191681555b5050505050600190811b01905550565b81835281816020850137506000828201602090810191909152601f909101601f19169091010190565b6040815260006144026040830185876143c5565b9050826020830152949350505050565b6040815260006144266040830185876143c5565b82810360208401526113838185613820565b67ffffffffffffffff831115614450576144506136fa565b6144648361445e83546140ad565b836142b6565b6000601f84116001811461449857600085156144805750838201355b600019600387901b1c1916600186901b1783556144f2565b600083815260209020601f19861690835b828110156144c957868501358255602094850194600190920191016144a9565b50868210156144e65760001960f88860031b161c19848701351681555b505060018560011b0183555b505050505056fea264697066735822122025b10e934a9303083e42fd9e02bbd5b5479c75dd96b9211e253b7e135218c59f64736f6c63430008110033",
  "linkReferences": {},
  "deployedLinkReferences": {}
}