{
  "_format": "hh-sol-artifact-1",
  "contractName": "BetBase",
  "sourceName": "chain/contracts/red_black_tree/BetBase.sol",
  "abi": [
    {
      "inputs": [
        {
          "internalType": "address",
          "name": "storageContractAddress",
          "type": "address"
        }
      ],
      "stateMutability": "nonpayable",
      "type": "constructor"
    },
    {
      "inputs": [
        {
          "internalType": "bytes16",
          "name": "betId",
          "type": "bytes16"
        }
      ],
      "name": "betExists",
      "outputs": [
        {
          "internalType": "bool",
          "name": "",
          "type": "bool"
        }
      ],
      "stateMutability": "view",
      "type": "function"
    },
    {
      "inputs": [
        {
          "internalType": "bytes16",
          "name": "betId",
          "type": "bytes16"
        }
      ],
      "name": "getBet",
      "outputs": [
        {
          "components": [
            {
              "internalType": "bytes16",
              "name": "id",
              "type": "bytes16"
            },
            {
              "internalType": "address payable",
              "name": "owner",
              "type": "address"
            },
            {
              "internalType": "int256",
              "name": "answer",
              "type": "int256"
            },
            {
              "internalType": "uint256",
              "name": "totalBets",
              "type": "uint256"
            },
            {
              "internalType": "uint256",
              "name": "betLimit",
              "type": "uint256"
            },
            {
              "internalType": "uint256",
              "name": "course",
              "type": "uint256"
            },
            {
              "internalType": "string",
              "name": "name",
              "type": "string"
            },
            {
              "internalType": "uint256",
              "name": "bettingDeadline",
              "type": "uint256"
            },
            {
              "internalType": "uint256",
              "name": "answerRevealDeadline",
              "type": "uint256"
            }
          ],
          "internalType": "struct BetBase.ReturnedBet",
          "name": "",
          "type": "tuple"
        }
      ],
      "stateMutability": "view",
      "type": "function"
    },
    {
      "inputs": [
        {
          "internalType": "bytes16",
          "name": "betId",
          "type": "bytes16"
        }
      ],
      "name": "getEncryptedData",
      "outputs": [
        {
          "internalType": "bytes",
          "name": "",
          "type": "bytes"
        }
      ],
      "stateMutability": "view",
      "type": "function"
    },
    {
      "inputs": [
        {
          "internalType": "bytes16",
          "name": "guessId",
          "type": "bytes16"
        }
      ],
      "name": "getGuess",
      "outputs": [
        {
          "components": [
            {
              "internalType": "bytes16",
              "name": "id",
              "type": "bytes16"
            },
            {
              "internalType": "address payable",
              "name": "bettor",
              "type": "address"
            },
            {
              "internalType": "uint256",
              "name": "amount",
              "type": "uint256"
            },
            {
              "internalType": "bool",
              "name": "evaluated",
              "type": "bool"
            },
            {
              "internalType": "int256",
              "name": "guess",
              "type": "int256"
            },
            {
              "internalType": "int256",
              "name": "nonce",
              "type": "int256"
            }
          ],
          "internalType": "struct BetBase.Guess",
          "name": "",
          "type": "tuple"
        }
      ],
      "stateMutability": "view",
      "type": "function"
    },
    {
      "inputs": [
        {
          "internalType": "bytes16",
          "name": "betId",
          "type": "bytes16"
        }
      ],
      "name": "getGuesses",
      "outputs": [
        {
          "internalType": "bytes16[]",
          "name": "",
          "type": "bytes16[]"
        }
      ],
      "stateMutability": "view",
      "type": "function"
    },
    {
      "inputs": [
        {
          "internalType": "bytes16",
          "name": "betId",
          "type": "bytes16"
        }
      ],
      "name": "getOptions",
      "outputs": [
        {
          "components": [
            {
              "internalType": "int256",
              "name": "value",
              "type": "int256"
            },
            {
              "internalType": "uint256",
              "name": "totalBet",
              "type": "uint256"
            }
          ],
          "internalType": "struct BetBase.Option[]",
          "name": "",
          "type": "tuple[]"
        }
      ],
      "stateMutability": "view",
      "type": "function"
    },
    {
      "inputs": [],
      "name": "getTop10Bets",
      "outputs": [
        {
          "internalType": "bytes16[]",
          "name": "",
          "type": "bytes16[]"
        }
      ],
      "stateMutability": "view",
      "type": "function"
    },
    {
      "inputs": [
        {
          "internalType": "address",
          "name": "owner",
          "type": "address"
        }
      ],
      "name": "getUserBets",
      "outputs": [
        {
          "components": [
            {
              "internalType": "bytes16",
              "name": "id",
              "type": "bytes16"
            },
            {
              "internalType": "address payable",
              "name": "owner",
              "type": "address"
            },
            {
              "internalType": "int256",
              "name": "answer",
              "type": "int256"
            },
            {
              "internalType": "uint256",
              "name": "totalBets",
              "type": "uint256"
            },
            {
              "internalType": "uint256",
              "name": "betLimit",
              "type": "uint256"
            },
            {
              "internalType": "uint256",
              "name": "course",
              "type": "uint256"
            },
            {
              "internalType": "string",
              "name": "name",
              "type": "string"
            },
            {
              "internalType": "uint256",
              "name": "bettingDeadline",
              "type": "uint256"
            },
            {
              "internalType": "uint256",
              "name": "answerRevealDeadline",
              "type": "uint256"
            }
          ],
          "internalType": "struct BetBase.ReturnedBet[]",
          "name": "",
          "type": "tuple[]"
        }
      ],
      "stateMutability": "view",
      "type": "function"
    },
    {
      "inputs": [
        {
          "internalType": "address",
          "name": "owner",
          "type": "address"
        }
      ],
      "name": "getUserBetsNormal",
      "outputs": [
        {
          "components": [
            {
              "internalType": "bytes16",
              "name": "id",
              "type": "bytes16"
            },
            {
              "internalType": "address payable",
              "name": "owner",
              "type": "address"
            },
            {
              "internalType": "int256",
              "name": "answer",
              "type": "int256"
            },
            {
              "internalType": "uint256",
              "name": "totalBets",
              "type": "uint256"
            },
            {
              "internalType": "uint256",
              "name": "betLimit",
              "type": "uint256"
            },
            {
              "internalType": "uint256",
              "name": "course",
              "type": "uint256"
            },
            {
              "internalType": "string",
              "name": "name",
              "type": "string"
            },
            {
              "internalType": "uint256",
              "name": "bettingDeadline",
              "type": "uint256"
            },
            {
              "internalType": "uint256",
              "name": "answerRevealDeadline",
              "type": "uint256"
            }
          ],
          "internalType": "struct BetBase.ReturnedBet[]",
          "name": "",
          "type": "tuple[]"
        }
      ],
      "stateMutability": "view",
      "type": "function"
    },
    {
      "inputs": [
        {
          "internalType": "bytes16",
          "name": "guesId",
          "type": "bytes16"
        }
      ],
      "name": "guessExists",
      "outputs": [
        {
          "internalType": "bool",
          "name": "",
          "type": "bool"
        }
      ],
      "stateMutability": "view",
      "type": "function"
    },
    {
      "inputs": [
        {
          "internalType": "uint256",
          "name": "money",
          "type": "uint256"
        },
        {
          "internalType": "uint256",
          "name": "course",
          "type": "uint256"
        }
      ],
      "name": "multMoney",
      "outputs": [
        {
          "internalType": "uint256",
          "name": "",
          "type": "uint256"
        }
      ],
      "stateMutability": "pure",
      "type": "function"
    },
    {
      "inputs": [
        {
          "internalType": "bytes16",
          "name": "",
          "type": "bytes16"
        }
      ],
      "name": "storedGuesses",
      "outputs": [
        {
          "internalType": "bytes16",
          "name": "id",
          "type": "bytes16"
        },
        {
          "internalType": "address payable",
          "name": "bettor",
          "type": "address"
        },
        {
          "internalType": "uint256",
          "name": "amount",
          "type": "uint256"
        },
        {
          "internalType": "bool",
          "name": "evaluated",
          "type": "bool"
        },
        {
          "internalType": "int256",
          "name": "guess",
          "type": "int256"
        },
        {
          "internalType": "int256",
          "name": "nonce",
          "type": "int256"
        }
      ],
      "stateMutability": "view",
      "type": "function"
    },
    {
      "inputs": [
        {
          "internalType": "bytes16",
          "name": "betId",
          "type": "bytes16"
        }
      ],
      "name": "topUp",
      "outputs": [],
      "stateMutability": "payable",
      "type": "function"
    },
    {
      "inputs": [
        {
          "internalType": "address",
          "name": "",
          "type": "address"
        },
        {
          "internalType": "uint256",
          "name": "",
          "type": "uint256"
        }
      ],
      "name": "userBets",
      "outputs": [
        {
          "internalType": "bytes16",
          "name": "",
          "type": "bytes16"
        }
      ],
      "stateMutability": "view",
      "type": "function"
    },
    {
      "inputs": [
        {
          "internalType": "address",
          "name": "",
          "type": "address"
        },
        {
          "internalType": "uint256",
          "name": "",
          "type": "uint256"
        }
      ],
      "name": "userGuesses",
      "outputs": [
        {
          "internalType": "bytes16",
          "name": "",
          "type": "bytes16"
        }
      ],
      "stateMutability": "view",
      "type": "function"
    },
    {
      "inputs": [
        {
          "internalType": "int256",
          "name": "answer",
          "type": "int256"
        },
        {
          "internalType": "int256",
          "name": "nonce",
          "type": "int256"
        }
      ],
      "name": "valueToBinary",
      "outputs": [
        {
          "internalType": "bytes",
          "name": "",
          "type": "bytes"
        }
      ],
      "stateMutability": "pure",
      "type": "function"
    },
    {
      "inputs": [
        {
          "internalType": "bytes16",
          "name": "betId",
          "type": "bytes16"
        },
        {
          "internalType": "address",
          "name": "guesser",
          "type": "address"
        }
      ],
      "name": "whitelistAddress",
      "outputs": [],
      "stateMutability": "nonpayable",
      "type": "function"
    }
  ],
  "bytecode": "0x608060405234801561001057600080fd5b506040516118f73803806118f783398101604081905261002f91610054565b600080546001600160a01b0319166001600160a01b0392909216919091179055610084565b60006020828403121561006657600080fd5b81516001600160a01b038116811461007d57600080fd5b9392505050565b611864806100936000396000f3fe60806040526004361061010e5760003560e01c80639ee4e3eb116100a5578063c678da5211610074578063df85249511610059578063df85249514610516578063efed187314610537578063fa69ff961461054a57600080fd5b8063c678da52146104d4578063d09ee27d146104f457600080fd5b80639ee4e3eb146103c0578063a2ef715a146103e0578063a52fcd2414610400578063ac0e037d1461042d57600080fd5b80637da1fe34116100e15780637da1fe34146102e95780638068aa681461030b57806387d4455714610344578063970d593d1461039257600080fd5b806319dc16a71461011357806325825f21146101675780632d56657d1461028f5780636dae643a146102bc575b600080fd5b34801561011f57600080fd5b5061015261012e366004611360565b6001600160801b031990811660009081526002602052604090205460801b16151590565b60405190151581526020015b60405180910390f35b34801561017357600080fd5b5061022e610182366004611360565b6040805160c081018252600080825260208201819052918101829052606081018290526080810182905260a0810191909152506001600160801b0319908116600090815260046020818152604092839020835160c0810185528154608090811b909616815260018201546001600160a01b031692810192909252600281015493820193909352600383015460ff161515606082015290820154928101929092526005015460a082015290565b60405161015e9190600060c0820190506001600160801b031983511682526001600160a01b036020840151166020830152604083015160408301526060830151151560608301526080830151608083015260a083015160a083015292915050565b34801561029b57600080fd5b506102af6102aa366004611399565b61056a565b60405161015e9190611494565b3480156102c857600080fd5b506102dc6102d7366004611360565b61073b565b60405161015e91906114f6565b3480156102f557600080fd5b50610309610304366004611509565b6107c5565b005b34801561031757600080fd5b5061032b610326366004611542565b610a32565b6040516001600160801b0319909116815260200161015e565b34801561035057600080fd5b5061038561035f36600461156e565b604080516020810193909352828101919091528051808303820181526060909201905290565b60405161015e9190611590565b34801561039e57600080fd5b506103b26103ad36600461156e565b610a78565b60405190815260200161015e565b3480156103cc57600080fd5b506102af6103db366004611399565b610a9a565b3480156103ec57600080fd5b506103856103fb366004611360565b610c34565b34801561040c57600080fd5b5061042061041b366004611360565b610cd4565b60405161015e91906115a3565b34801561043957600080fd5b50610492610448366004611360565b600460208190526000918252604090912080546001820154600283015460038401549484015460059094015460809390931b946001600160a01b0390921693909260ff9092169186565b604080516001600160801b031990971687526001600160a01b0390951660208701529385019290925215156060840152608083015260a082015260c00161015e565b3480156104e057600080fd5b5061032b6104ef366004611542565b610d61565b34801561050057600080fd5b50610509610d7d565b60405161015e91906115f2565b34801561052257600080fd5b50610152610531366004611360565b50600090565b610309610545366004611360565b610ffd565b34801561055657600080fd5b50610509610565366004611360565b61113a565b6001600160a01b03811660009081526001602090815260408083208054825181850281018501909352808352606094938301828280156105f657602002820191906000526020600020906000905b82829054906101000a900460801b6001600160801b03191681526020019060100190602082600f010492830192600103820291508084116105b85790505b505050505090506000815167ffffffffffffffff81111561061957610619611640565b6040519080825280602002602001820160405280156106ac57816020015b61069960405180610120016040528060006001600160801b031916815260200160006001600160a01b03168152602001600081526020016000815260200160008152602001600081526020016060815260200160008152602001600081525090565b8152602001906001900390816106375790505b50905060005b815181101561073357610703600260008584815181106106d4576106d4611656565b60200260200101516001600160801b0319166001600160801b03191681526020019081526020016000206111d7565b82828151811061071557610715611656565b6020026020010181905250808061072b90611682565b9150506106b2565b509392505050565b61079d60405180610120016040528060006001600160801b031916815260200160006001600160a01b03168152602001600081526020016000815260200160008152602001600081526020016060815260200160008152602001600081525090565b6001600160801b0319821660009081526002602052604090206107bf906111d7565b92915050565b6001600160801b031980831660009081526002602052604090205460801b166108355760405162461bcd60e51b815260206004820152601260248201527f42657420646f6573206e6f74206578697374000000000000000000000000000060448201526064015b60405180910390fd5b6001600160801b031982166000908152600260205260409020600b810154610100900460ff166108cd5760405162461bcd60e51b815260206004820152603760248201527f596f752063616e6e6f742061646420746f2077686974656c697374206966207460448201527f6865726520776173206e6f74206f6e65206265666f7265000000000000000000606482015260840161082c565b806008015442106109185760405162461bcd60e51b81526020600482015260156024820152742132ba1034b9903737903637b733b2b91037b832b760591b604482015260640161082c565b6001600b82015460ff1660048111156109335761093361169b565b146109785760405162461bcd60e51b81526020600482015260156024820152742132ba1034b9903737903637b733b2b91037b832b760591b604482015260640161082c565b6001600160a01b0382166000908152600c8201602052604090205460ff1615610a085760405162461bcd60e51b8152602060048201526024808201527f4775657373657220686173206265656e2077686974656c6973746520616c726560448201527f6164792e00000000000000000000000000000000000000000000000000000000606482015260840161082c565b6001600160a01b039091166000908152600c90910160205260409020805460ff1916600117905550565b60016020528160005260406000208181548110610a4e57600080fd5b9060005260206000209060029182820401919006601002915091509054906101000a900460801b81565b6000600a610a8683856116b1565b610a9091906116c8565b6028189392505050565b6001600160a01b0381166000908152600160209081526040808320805482518185028101850190935280835260609493830182828015610b2657602002820191906000526020600020906000905b82829054906101000a900460801b6001600160801b03191681526020019060100190602082600f01049283019260010382029150808411610ae85790505b505050505090506000815167ffffffffffffffff811115610b4957610b49611640565b604051908082528060200260200182016040528015610bdc57816020015b610bc960405180610120016040528060006001600160801b031916815260200160006001600160a01b03168152602001600081526020016000815260200160008152602001600081526020016060815260200160008152602001600081525090565b815260200190600190039081610b675790505b50905060005b815181101561073357610c04600260008584815181106106d4576106d4611656565b828281518110610c1657610c16611656565b60200260200101819052508080610c2c90611682565b915050610be2565b600080546040517f301dc5850000000000000000000000000000000000000000000000000000000081526001600160801b031984166004820152606092916001600160a01b03169063301dc58590602401600060405180830381865afa158015610ca2573d6000803e3d6000fd5b505050506040513d6000823e601f3d908101601f19168201604052610cca91908101906116ea565b9695505050505050565b6001600160801b031981166000908152600260209081526040808320600f01805482518185028101850190935280835260609492939192909184015b82821015610d5657838290600052602060002090600202016040518060400160405290816000820154815260200160018201548152505081526020019060010190610d10565b505050509050919050565b60036020528160005260406000208181548110610a4e57600080fd5b60408051600a8082526101608201909252606091600091906020820161014080368337019050506040517f256a095900000000000000000000000000000000000000000000000000000000815260056004820152909150600090819073__$3f4f693924aac6b48704779d1111bf4396$__9063256a095990602401602060405180830381865af4158015610e15573d6000803e3d6000fd5b505050506040513d601f19601f82011682018060405250810190610e3991906117c8565b90505b8015801590610e4b5750600a82105b15610ff557600081815260066020908152604080832060040180548251818502810185019093528083529192909190830182828015610ed657602002820191906000526020600020906000905b82829054906101000a900460801b6001600160801b03191681526020019060100190602082600f01049283019260010382029150808411610e985790505b5050505050905060005b815181108015610ef05750600a84105b15610f5857818181518110610f0757610f07611656565b6020026020010151858580610f1b90611682565b965081518110610f2d57610f2d611656565b6001600160801b03199092166020928302919091019091015280610f5081611682565b915050610ee0565b506040517f31dc7383000000000000000000000000000000000000000000000000000000008152600560048201526024810183905273__$3f4f693924aac6b48704779d1111bf4396$__906331dc738390604401602060405180830381865af4158015610fc9573d6000803e3d6000fd5b505050506040513d601f19601f82011682018060405250810190610fed91906117c8565b915050610e3c565b509092915050565b6001600160801b031981166000908152600260205260409020600881015442106110615760405162461bcd60e51b81526020600482015260156024820152742132ba1034b9903737903637b733b2b91037b832b760591b604482015260640161082c565b6001600b82015460ff16600481111561107c5761107c61169b565b146110c15760405162461bcd60e51b81526020600482015260156024820152742132ba1034b9903737903637b733b2b91037b832b760591b604482015260640161082c565b60028101546001600160a01b0316331461111d5760405162461bcd60e51b815260206004820152601860248201527f596f75206e65656420746f20626520746865206f776e65720000000000000000604482015260640161082c565b3481600601600082825461113191906117e1565b90915550505050565b6001600160801b03198116600090815260026020908152604091829020600e018054835181840281018401909452808452606093928301828280156111cb57602002820191906000526020600020906000905b82829054906101000a900460801b6001600160801b03191681526020019060100190602082600f0104928301926001038202915080841161118d5790505b50505050509050919050565b61123960405180610120016040528060006001600160801b031916815260200160006001600160a01b03168152602001600081526020016000815260200160008152602001600081526020016060815260200160008152602001600081525090565b604080516101208101825283546001600160801b0319608091821b16825260028501546001600160a01b0316602083015260038501549282019290925260058401546060820152600684015491810191909152600783015460a082015260018301805460c0830191906112ab906117f4565b80601f01602080910402602001604051908101604052809291908181526020018280546112d7906117f4565b80156113245780601f106112f957610100808354040283529160200191611324565b820191906000526020600020905b81548152906001019060200180831161130757829003601f168201915b505050505081526020018360080154815260200183600901548152509050919050565b6001600160801b03198116811461135d57600080fd5b50565b60006020828403121561137257600080fd5b813561137d81611347565b9392505050565b6001600160a01b038116811461135d57600080fd5b6000602082840312156113ab57600080fd5b813561137d81611384565b60005b838110156113d15781810151838201526020016113b9565b50506000910152565b600081518084526113f28160208601602086016113b6565b601f01601f19169290920160200192915050565b60006101206001600160801b03198351168452602083015161143360208601826001600160a01b03169052565b5060408301516040850152606083015160608501526080830151608085015260a083015160a085015260c08301518160c0860152611473828601826113da565b60e08581015190870152610100948501519490950193909352509192915050565b6000602080830181845280855180835260408601915060408160051b870101925083870160005b828110156114e957603f198886030184526114d7858351611406565b945092850192908501906001016114bb565b5092979650505050505050565b60208152600061137d6020830184611406565b6000806040838503121561151c57600080fd5b823561152781611347565b9150602083013561153781611384565b809150509250929050565b6000806040838503121561155557600080fd5b823561156081611384565b946020939093013593505050565b6000806040838503121561158157600080fd5b50508035926020909101359150565b60208152600061137d60208301846113da565b602080825282518282018190526000919060409081850190868401855b828110156115e5578151805185528601518685015292840192908501906001016115c0565b5091979650505050505050565b6020808252825182820181905260009190848201906040850190845b818110156116345783516001600160801b0319168352928401929184019160010161160e565b50909695505050505050565b634e487b7160e01b600052604160045260246000fd5b634e487b7160e01b600052603260045260246000fd5b634e487b7160e01b600052601160045260246000fd5b6000600182016116945761169461166c565b5060010190565b634e487b7160e01b600052602160045260246000fd5b80820281158282048414176107bf576107bf61166c565b6000826116e557634e487b7160e01b600052601260045260246000fd5b500490565b6000806000806080858703121561170057600080fd5b845161170b81611347565b602086015190945061171c81611384565b60408601516060870151919450925067ffffffffffffffff8082111561174157600080fd5b818701915087601f83011261175557600080fd5b81518181111561176757611767611640565b604051601f8201601f19908116603f0116810190838211818310171561178f5761178f611640565b816040528281528a60208487010111156117a857600080fd5b6117b98360208301602088016113b6565b979a9699509497505050505050565b6000602082840312156117da57600080fd5b5051919050565b808201808211156107bf576107bf61166c565b600181811c9082168061180857607f821691505b60208210810361182857634e487b7160e01b600052602260045260246000fd5b5091905056fea2646970667358221220ca6ec9661681e1b51838f672f41cb26d724c9e600a1f7ba7fefa4143ea6a918864736f6c63430008110033",
  "linkReferences": {
    "chain/contracts/red_black_tree/HitchensOrderStatisticsTreeLib.sol": {
      "HitchensOrderStatisticsTreeLib": [
        {
          "length": 20,
          "start": 3694
        },
        {
          "length": 20,
          "start": 4130
        }
      ]
    }
  },
  "deployedLinkReferences": {
    "chain/contracts/red_black_tree/HitchensOrderStatisticsTreeLib.sol": {
      "HitchensOrderStatisticsTreeLib": [
        {
          "length": 20,
          "start": 3547
        },
        {
          "length": 20,
          "start": 3983
        }
      ]
    }
  }
}