{
  "_format": "hh-sol-artifact-1",
  "contractName": "StorageByHash",
  "sourceName": "chain/contracts/red_black_tree/StorageByHash.sol",
  "abi": [
    {
      "inputs": [],
      "stateMutability": "nonpayable",
      "type": "constructor"
    },
    {
      "inputs": [
        {
          "internalType": "bytes",
          "name": "data",
          "type": "bytes"
        }
      ],
      "name": "getHash",
      "outputs": [
        {
          "internalType": "uint256",
          "name": "",
          "type": "uint256"
        }
      ],
      "stateMutability": "pure",
      "type": "function"
    },
    {
      "inputs": [
        {
          "internalType": "address",
          "name": "owner",
          "type": "address"
        }
      ],
      "name": "getUserItems",
      "outputs": [
        {
          "components": [
            {
              "internalType": "bytes16",
              "name": "uuid",
              "type": "bytes16"
            },
            {
              "internalType": "address",
              "name": "owner",
              "type": "address"
            },
            {
              "internalType": "uint256",
              "name": "hash",
              "type": "uint256"
            },
            {
              "internalType": "bytes",
              "name": "data",
              "type": "bytes"
            }
          ],
          "internalType": "struct StorageByHash.StoredItem[]",
          "name": "",
          "type": "tuple[]"
        }
      ],
      "stateMutability": "view",
      "type": "function"
    },
    {
      "inputs": [
        {
          "internalType": "bytes16",
          "name": "uuid",
          "type": "bytes16"
        },
        {
          "internalType": "uint256",
          "name": "hash",
          "type": "uint256"
        },
        {
          "internalType": "bytes",
          "name": "data",
          "type": "bytes"
        }
      ],
      "name": "storeHash",
      "outputs": [],
      "stateMutability": "nonpayable",
      "type": "function"
    },
    {
      "inputs": [
        {
          "internalType": "bytes16",
          "name": "uuid",
          "type": "bytes16"
        },
        {
          "internalType": "uint256",
          "name": "hash",
          "type": "uint256"
        }
      ],
      "name": "storeHash",
      "outputs": [],
      "stateMutability": "nonpayable",
      "type": "function"
    },
    {
      "inputs": [
        {
          "internalType": "bytes16",
          "name": "",
          "type": "bytes16"
        }
      ],
      "name": "storedItems",
      "outputs": [
        {
          "internalType": "bytes16",
          "name": "uuid",
          "type": "bytes16"
        },
        {
          "internalType": "address",
          "name": "owner",
          "type": "address"
        },
        {
          "internalType": "uint256",
          "name": "hash",
          "type": "uint256"
        },
        {
          "internalType": "bytes",
          "name": "data",
          "type": "bytes"
        }
      ],
      "stateMutability": "view",
      "type": "function"
    },
    {
      "inputs": [
        {
          "internalType": "bytes16",
          "name": "itemId",
          "type": "bytes16"
        },
        {
          "internalType": "bytes",
          "name": "data",
          "type": "bytes"
        }
      ],
      "name": "uploadData",
      "outputs": [],
      "stateMutability": "nonpayable",
      "type": "function"
    },
    {
      "inputs": [
        {
          "internalType": "address",
          "name": "",
          "type": "address"
        },
        {
          "internalType": "uint256",
          "name": "",
          "type": "uint256"
        }
      ],
      "name": "userItems",
      "outputs": [
        {
          "internalType": "bytes16",
          "name": "",
          "type": "bytes16"
        }
      ],
      "stateMutability": "view",
      "type": "function"
    }
  ],
  "bytecode": "0x608060405234801561001057600080fd5b50610ea6806100206000396000f3fe608060405234801561001057600080fd5b506004361061007d5760003560e01c80635c3bd1411161005b5780635c3bd141146100d6578063a63ba28a14610102578063b00140aa14610115578063ce6019b41461013657600080fd5b806305fa51391461008257806306d3e9ff14610097578063301dc585146100aa575b600080fd5b6100956100903660046108e4565b610156565b005b6100956100a536600461094d565b610229565b6100bd6100b8366004610a18565b61038e565b6040516100cd9493929190610a80565b60405180910390f35b6100e96100e4366004610ad9565b610451565b6040516001600160801b031990911681526020016100cd565b610095610110366004610b03565b610497565b610128610123366004610b1f565b610605565b6040519081526020016100cd565b610149610144366004610b61565b610627565b6040516100cd9190610b7c565b60006101628383610605565b6001600160801b0319851660009081526001602052604090206002015490915081146101fb5760405162461bcd60e51b815260206004820152602260248201527f446174612068617368206973206e6f7420636f7272656374206f726967696e6160448201527f6c3a00000000000000000000000000000000000000000000000000000000000060648201526084015b60405180910390fd5b6001600160801b031984166000908152600160205260409020600301610222838583610ca3565b5050505050565b6001600160801b031980841660009081526001602052604090205460801b16156102955760405162461bcd60e51b815260206004820152601860248201527f546865206974656d20616c72656164792065786973747321000000000000000060448201526064016101f2565b60408051608080820183526001600160801b031986811680845233602080860191825285870189815260608701898152600094855260019283905297909320865181549095169490951c93909317845551918301805473ffffffffffffffffffffffffffffffffffffffff19166001600160a01b03909316929092179091555160028201559151909190600382019061032e9082610d63565b5050336000908152602081815260408220805460018181018355918452919092206002820401805460809790971c601092909316919091026101000a9182026fffffffffffffffffffffffffffffffff9092021990951617909355505050565b6001602081905260009182526040909120805491810154600282015460038301805460809590951b946001600160a01b039093169391926103ce90610c1a565b80601f01602080910402602001604051908101604052809291908181526020018280546103fa90610c1a565b80156104475780601f1061041c57610100808354040283529160200191610447565b820191906000526020600020905b81548152906001019060200180831161042a57829003601f168201915b5050505050905084565b6000602052816000526040600020818154811061046d57600080fd5b9060005260206000209060029182820401919006601002915091509054906101000a900460801b81565b6001600160801b031980831660009081526001602052604090205460801b16156105035760405162461bcd60e51b815260206004820152601860248201527f546865206974656d20616c72656164792065786973747321000000000000000060448201526064016101f2565b60408051608080820183526001600160801b03198581168084523360208086019182528587018881528751808301895260008082526060890191825294855260019283905297909320865181549095169490951c93909317845551918301805473ffffffffffffffffffffffffffffffffffffffff19166001600160a01b0390931692909217909155516002820155915190919060038201906105a69082610d63565b5050336000908152602081815260408220805460018181018355918452919092206002820401805460809690961c601092909316919091026101000a9182026fffffffffffffffffffffffffffffffff90920219909416179092555050565b60008282604051610617929190610e23565b6040519081900390209392505050565b6001600160a01b0381166000908152602081815260408083208054825181850281018501909352808352606094938301828280156106ba57602002820191906000526020600020906000905b82829054906101000a900460801b6fffffffffffffffffffffffffffffffff191681526020019060100190602082600f010492830192600103820291508084116106735790505b505050505090506000815167ffffffffffffffff8111156106dd576106dd610937565b60405190808252806020026020018201604052801561072e57816020015b60408051608081018252600080825260208083018290529282015260608082015282526000199092019101816106fb5790505b50905060005b8151811015610876576001600084838151811061075357610753610e33565b6020908102919091018101516001600160801b031990811683528282019390935260409182016000208251608080820185528254901b909416845260018101546001600160a01b0316918401919091526002810154918301919091526003810180546060840191906107c490610c1a565b80601f01602080910402602001604051908101604052809291908181526020018280546107f090610c1a565b801561083d5780601f106108125761010080835404028352916020019161083d565b820191906000526020600020905b81548152906001019060200180831161082057829003601f168201915b50505050508152505082828151811061085857610858610e33565b6020026020010181905250808061086e90610e49565b915050610734565b509392505050565b80356001600160801b03198116811461089657600080fd5b919050565b60008083601f8401126108ad57600080fd5b50813567ffffffffffffffff8111156108c557600080fd5b6020830191508360208285010111156108dd57600080fd5b9250929050565b6000806000604084860312156108f957600080fd5b6109028461087e565b9250602084013567ffffffffffffffff81111561091e57600080fd5b61092a8682870161089b565b9497909650939450505050565b634e487b7160e01b600052604160045260246000fd5b60008060006060848603121561096257600080fd5b61096b8461087e565b925060208401359150604084013567ffffffffffffffff8082111561098f57600080fd5b818601915086601f8301126109a357600080fd5b8135818111156109b5576109b5610937565b604051601f8201601f19908116603f011681019083821181831017156109dd576109dd610937565b816040528281528960208487010111156109f657600080fd5b8260208601602083013760006020848301015280955050505050509250925092565b600060208284031215610a2a57600080fd5b610a338261087e565b9392505050565b6000815180845260005b81811015610a6057602081850181015186830182015201610a44565b506000602082860101526020601f19601f83011685010191505092915050565b6001600160801b0319851681526001600160a01b0384166020820152826040820152608060608201526000610ab86080830184610a3a565b9695505050505050565b80356001600160a01b038116811461089657600080fd5b60008060408385031215610aec57600080fd5b610af583610ac2565b946020939093013593505050565b60008060408385031215610b1657600080fd5b610af58361087e565b60008060208385031215610b3257600080fd5b823567ffffffffffffffff811115610b4957600080fd5b610b558582860161089b565b90969095509350505050565b600060208284031215610b7357600080fd5b610a3382610ac2565b60006020808301818452808551808352604092508286019150828160051b87010184880160005b83811015610c0c57888303603f19018552815180516001600160801b0319168452878101516001600160a01b0316888501528681015187850152606090810151608091850182905290610bf881860183610a3a565b968901969450505090860190600101610ba3565b509098975050505050505050565b600181811c90821680610c2e57607f821691505b602082108103610c4e57634e487b7160e01b600052602260045260246000fd5b50919050565b601f821115610c9e57600081815260208120601f850160051c81016020861015610c7b5750805b601f850160051c820191505b81811015610c9a57828155600101610c87565b5050505b505050565b67ffffffffffffffff831115610cbb57610cbb610937565b610ccf83610cc98354610c1a565b83610c54565b6000601f841160018114610d035760008515610ceb5750838201355b600019600387901b1c1916600186901b178355610222565b600083815260209020601f19861690835b82811015610d345786850135825560209485019460019092019101610d14565b5086821015610d515760001960f88860031b161c19848701351681555b505060018560011b0183555050505050565b815167ffffffffffffffff811115610d7d57610d7d610937565b610d9181610d8b8454610c1a565b84610c54565b602080601f831160018114610dc65760008415610dae5750858301515b600019600386901b1c1916600185901b178555610c9a565b600085815260208120601f198616915b82811015610df557888601518255948401946001909101908401610dd6565b5085821015610e135787850151600019600388901b60f8161c191681555b5050505050600190811b01905550565b8183823760009101908152919050565b634e487b7160e01b600052603260045260246000fd5b600060018201610e6957634e487b7160e01b600052601160045260246000fd5b506001019056fea2646970667358221220766c08c916ad21b7959333ee54fb7c6e1ef090d95667e7c4805d88fa77922b2a64736f6c63430008110033",
  "linkReferences": {},
  "deployedLinkReferences": {}
}