{
  "_format": "hh-sol-artifact-1",
  "contractName": "Palantir",
  "sourceName": "chain/contracts/Palantir.sol",
  "abi": [
    {
      "inputs": [
        {
          "internalType": "address",
          "name": "storageByHashAddress",
          "type": "address"
        }
      ],
      "stateMutability": "nonpayable",
      "type": "constructor"
    },
    {
      "inputs": [
        {
          "internalType": "string",
          "name": "uuid",
          "type": "string"
        },
        {
          "internalType": "uint256",
          "name": "prophecyHash",
          "type": "uint256"
        }
      ],
      "name": "contactDarkForces",
      "outputs": [],
      "stateMutability": "nonpayable",
      "type": "function"
    },
    {
      "inputs": [
        {
          "internalType": "address",
          "name": "wizard",
          "type": "address"
        }
      ],
      "name": "getWizardProphecies",
      "outputs": [
        {
          "components": [
            {
              "internalType": "string",
              "name": "uuid",
              "type": "string"
            },
            {
              "internalType": "address",
              "name": "wizard",
              "type": "address"
            },
            {
              "internalType": "string",
              "name": "prophecy",
              "type": "string"
            },
            {
              "internalType": "int256",
              "name": "nonce",
              "type": "int256"
            }
          ],
          "internalType": "struct Palantir.Prophecy[]",
          "name": "",
          "type": "tuple[]"
        }
      ],
      "stateMutability": "view",
      "type": "function"
    },
    {
      "inputs": [
        {
          "internalType": "string",
          "name": "prophecyId",
          "type": "string"
        },
        {
          "internalType": "string",
          "name": "prophecy",
          "type": "string"
        },
        {
          "internalType": "int256",
          "name": "nonce",
          "type": "int256"
        }
      ],
      "name": "shockTheWorld",
      "outputs": [],
      "stateMutability": "nonpayable",
      "type": "function"
    },
    {
      "inputs": [
        {
          "internalType": "string",
          "name": "",
          "type": "string"
        }
      ],
      "name": "storedProphecies",
      "outputs": [
        {
          "internalType": "string",
          "name": "uuid",
          "type": "string"
        },
        {
          "internalType": "address",
          "name": "wizard",
          "type": "address"
        },
        {
          "internalType": "string",
          "name": "prophecy",
          "type": "string"
        },
        {
          "internalType": "int256",
          "name": "nonce",
          "type": "int256"
        }
      ],
      "stateMutability": "view",
      "type": "function"
    },
    {
      "inputs": [
        {
          "internalType": "address",
          "name": "",
          "type": "address"
        },
        {
          "internalType": "uint256",
          "name": "",
          "type": "uint256"
        }
      ],
      "name": "wizardsProphecies",
      "outputs": [
        {
          "internalType": "string",
          "name": "",
          "type": "string"
        }
      ],
      "stateMutability": "view",
      "type": "function"
    }
  ],
  "bytecode": "0x608060405234801561001057600080fd5b5060405161116e38038061116e83398101604081905261002f91610054565b600280546001600160a01b0319166001600160a01b0392909216919091179055610084565b60006020828403121561006657600080fd5b81516001600160a01b038116811461007d57600080fd5b9392505050565b6110db806100936000396000f3fe608060405234801561001057600080fd5b50600436106100675760003560e01c80638a20ec98116100505780638a20ec98146100ad578063ccf5c656146100c0578063dde60ee3146100e057600080fd5b80631f4a901b1461006c5780634597527a14610098575b600080fd5b61007f61007a366004610a9a565b610100565b60405161008f9493929190610b27565b60405180910390f35b6100ab6100a6366004610bb6565b610252565b005b6100ab6100bb366004610c27565b6103ea565b6100d36100ce366004610c8f565b61060a565b60405161008f9190610cb9565b6100f36100ee366004610cd3565b6106c3565b60405161008f9190610cee565b805160208183018101805160018252928201919093012091528054819061012690610d93565b80601f016020809104026020016040519081016040528092919081815260200182805461015290610d93565b801561019f5780601f106101745761010080835404028352916020019161019f565b820191906000526020600020905b81548152906001019060200180831161018257829003601f168201915b505050600184015460028501805494956001600160a01b039092169491935091506101c990610d93565b80601f01602080910402602001604051908101604052809291908181526020018280546101f590610d93565b80156102425780601f1061021757610100808354040283529160200191610242565b820191906000526020600020905b81548152906001019060200180831161022557829003601f168201915b5050505050908060030154905084565b336001600160a01b03166001858560405161026e929190610dcd565b908152604051908190036020019020600101546001600160a01b0316146103025760405162461bcd60e51b815260206004820152602760248201527f596f7520617265206e6f7420612077697a61722e20596f75207363616262792060448201527f4d7567676c65210000000000000000000000000000000000000000000000000060648201526084015b60405180910390fd5b6002546040516001600160a01b039091169063ca52d516908690869061032e9087908790602001610ddd565b6040516020818303038152906040526040518463ffffffff1660e01b815260040161035b93929190610e28565b600060405180830381600087803b15801561037557600080fd5b505af1158015610389573d6000803e3d6000fd5b5050505081600185856040516103a0929190610dcd565b908152602001604051809103902060020190816103bd9190610ea7565b5080600185856040516103d1929190610dcd565b9081526040519081900360200190206003015550505050565b600183836040516103fc929190610dcd565b908152604051908190036020019020805461041690610d93565b1590506104655760405162461bcd60e51b815260206004820152601e60248201527f536f6d656f6e652068617320646f6e65206974206265666f726520796f75000060448201526064016102f9565b6002546040517f91a81bc30000000000000000000000000000000000000000000000000000000081526001600160a01b03909116906391a81bc3906104b290869086908690600401610f67565b600060405180830381600087803b1580156104cc57600080fd5b505af11580156104e0573d6000803e3d6000fd5b50505050604051806080016040528084848080601f016020809104026020016040519081016040528093929190818152602001838380828437600092018290525093855250503360208085019190915260408051918201815283825280850191909152606090930191909152505160019061055e9086908690610dcd565b9081526040519081900360200190208151819061057b9082610ea7565b5060208201516001820180547fffffffffffffffffffffffff0000000000000000000000000000000000000000166001600160a01b03909216919091179055604082015160028201906105ce9082610ea7565b50606091909101516003909101553360009081526020818152604082208054600181018255908352912001610604838583610f8b565b50505050565b6000602052816000526040600020818154811061062657600080fd5b9060005260206000200160009150915050805461064290610d93565b80601f016020809104026020016040519081016040528092919081815260200182805461066e90610d93565b80156106bb5780601f10610690576101008083540402835291602001916106bb565b820191906000526020600020905b81548152906001019060200180831161069e57829003601f168201915b505050505081565b6001600160a01b038116600090815260208181526040808320805482518185028101850190935280835260609493849084015b828210156107a257838290600052602060002001805461071590610d93565b80601f016020809104026020016040519081016040528092919081815260200182805461074190610d93565b801561078e5780601f106107635761010080835404028352916020019161078e565b820191906000526020600020905b81548152906001019060200180831161077157829003601f168201915b5050505050815260200190600101906106f6565b5050505090506000815167ffffffffffffffff8111156107c4576107c46109f7565b60405190808252806020026020018201604052801561082957816020015b61081660405180608001604052806060815260200160006001600160a01b0316815260200160608152602001600081525090565b8152602001906001900390816107e25790505b50905060005b81518110156109ef57600183828151811061084c5761084c61104c565b60200260200101516040516108619190611062565b908152602001604051809103902060405180608001604052908160008201805461088a90610d93565b80601f01602080910402602001604051908101604052809291908181526020018280546108b690610d93565b80156109035780601f106108d857610100808354040283529160200191610903565b820191906000526020600020905b8154815290600101906020018083116108e657829003601f168201915b505050918352505060018201546001600160a01b0316602082015260028201805460409092019161093390610d93565b80601f016020809104026020016040519081016040528092919081815260200182805461095f90610d93565b80156109ac5780601f10610981576101008083540402835291602001916109ac565b820191906000526020600020905b81548152906001019060200180831161098f57829003601f168201915b505050505081526020016003820154815250508282815181106109d1576109d161104c565b602002602001018190525080806109e79061107e565b91505061082f565b509392505050565b634e487b7160e01b600052604160045260246000fd5b600082601f830112610a1e57600080fd5b813567ffffffffffffffff80821115610a3957610a396109f7565b604051601f8301601f19908116603f01168101908282118183101715610a6157610a616109f7565b81604052838152866020858801011115610a7a57600080fd5b836020870160208301376000602085830101528094505050505092915050565b600060208284031215610aac57600080fd5b813567ffffffffffffffff811115610ac357600080fd5b610acf84828501610a0d565b949350505050565b60005b83811015610af2578181015183820152602001610ada565b50506000910152565b60008151808452610b13816020860160208601610ad7565b601f01601f19169290920160200192915050565b608081526000610b3a6080830187610afb565b6001600160a01b03861660208401528281036040840152610b5b8186610afb565b91505082606083015295945050505050565b60008083601f840112610b7f57600080fd5b50813567ffffffffffffffff811115610b9757600080fd5b602083019150836020828501011115610baf57600080fd5b9250929050565b60008060008060608587031215610bcc57600080fd5b843567ffffffffffffffff80821115610be457600080fd5b610bf088838901610b6d565b90965094506020870135915080821115610c0957600080fd5b50610c1687828801610a0d565b949793965093946040013593505050565b600080600060408486031215610c3c57600080fd5b833567ffffffffffffffff811115610c5357600080fd5b610c5f86828701610b6d565b909790965060209590950135949350505050565b80356001600160a01b0381168114610c8a57600080fd5b919050565b60008060408385031215610ca257600080fd5b610cab83610c73565b946020939093013593505050565b602081526000610ccc6020830184610afb565b9392505050565b600060208284031215610ce557600080fd5b610ccc82610c73565b60006020808301818452808551808352604092508286019150828160051b87010184880160005b83811015610d8557603f19898403018552815160808151818652610d3b82870182610afb565b9150506001600160a01b038983015116898601528782015185820389870152610d648282610afb565b60609384015196909301959095525094870194925090860190600101610d15565b509098975050505050505050565b600181811c90821680610da757607f821691505b602082108103610dc757634e487b7160e01b600052602260045260246000fd5b50919050565b8183823760009101908152919050565b60008351610def818460208801610ad7565b9190910191825250602001919050565b81835281816020850137506000828201602090810191909152601f909101601f19169091010190565b604081526000610e3c604083018587610dff565b8281036020840152610e4e8185610afb565b9695505050505050565b601f821115610ea257600081815260208120601f850160051c81016020861015610e7f5750805b601f850160051c820191505b81811015610e9e57828155600101610e8b565b5050505b505050565b815167ffffffffffffffff811115610ec157610ec16109f7565b610ed581610ecf8454610d93565b84610e58565b602080601f831160018114610f0a5760008415610ef25750858301515b600019600386901b1c1916600185901b178555610e9e565b600085815260208120601f198616915b82811015610f3957888601518255948401946001909101908401610f1a565b5085821015610f575787850151600019600388901b60f8161c191681555b5050505050600190811b01905550565b604081526000610f7b604083018587610dff565b9050826020830152949350505050565b67ffffffffffffffff831115610fa357610fa36109f7565b610fb783610fb18354610d93565b83610e58565b6000601f841160018114610feb5760008515610fd35750838201355b600019600387901b1c1916600186901b178355611045565b600083815260209020601f19861690835b8281101561101c5786850135825560209485019460019092019101610ffc565b50868210156110395760001960f88860031b161c19848701351681555b505060018560011b0183555b5050505050565b634e487b7160e01b600052603260045260246000fd5b60008251611074818460208701610ad7565b9190910192915050565b60006001820161109e57634e487b7160e01b600052601160045260246000fd5b506001019056fea2646970667358221220b065bcee0067d34e20a47030dec3f0f977e8c4fcdd3dc1dc421b1f7ed6f0512564736f6c63430008110033",
  "linkReferences": {},
  "deployedLinkReferences": {}
}